{
  "contractName": "AceToken",
  "abi": [
    {
      "constant": true,
      "inputs": [],
      "name": "mintingFinished",
      "outputs": [
        {
          "name": "",
          "type": "bool"
        }
      ],
      "payable": false,
      "stateMutability": "view",
      "type": "function"
    },
    {
      "constant": true,
      "inputs": [],
      "name": "name",
      "outputs": [
        {
          "name": "",
          "type": "string"
        }
      ],
      "payable": false,
      "stateMutability": "view",
      "type": "function"
    },
    {
      "constant": false,
      "inputs": [
        {
          "name": "_spender",
          "type": "address"
        },
        {
          "name": "_value",
          "type": "uint256"
        }
      ],
      "name": "approve",
      "outputs": [
        {
          "name": "",
          "type": "bool"
        }
      ],
      "payable": false,
      "stateMutability": "nonpayable",
      "type": "function"
    },
    {
      "constant": true,
      "inputs": [],
      "name": "totalSupply",
      "outputs": [
        {
          "name": "",
          "type": "uint256"
        }
      ],
      "payable": false,
      "stateMutability": "view",
      "type": "function"
    },
    {
      "constant": true,
      "inputs": [
        {
          "name": "",
          "type": "address"
        }
      ],
      "name": "specialAllowed",
      "outputs": [
        {
          "name": "",
          "type": "bool"
        }
      ],
      "payable": false,
      "stateMutability": "view",
      "type": "function"
    },
    {
      "constant": true,
      "inputs": [],
      "name": "DISTRIBUTION_INVESTORS",
      "outputs": [
        {
          "name": "",
          "type": "uint256"
        }
      ],
      "payable": false,
      "stateMutability": "view",
      "type": "function"
    },
    {
      "constant": true,
      "inputs": [],
      "name": "decimals",
      "outputs": [
        {
          "name": "",
          "type": "uint256"
        }
      ],
      "payable": false,
      "stateMutability": "view",
      "type": "function"
    },
    {
      "constant": true,
      "inputs": [],
      "name": "transferAllowed",
      "outputs": [
        {
          "name": "",
          "type": "bool"
        }
      ],
      "payable": false,
      "stateMutability": "view",
      "type": "function"
    },
    {
      "constant": true,
      "inputs": [],
      "name": "communityTokensHolder",
      "outputs": [
        {
          "name": "",
          "type": "address"
        }
      ],
      "payable": false,
      "stateMutability": "view",
      "type": "function"
    },
    {
      "constant": true,
      "inputs": [],
      "name": "DISTRIBUTION_TEAM",
      "outputs": [
        {
          "name": "",
          "type": "uint256"
        }
      ],
      "payable": false,
      "stateMutability": "view",
      "type": "function"
    },
    {
      "constant": true,
      "inputs": [],
      "name": "freeToExtraMinting",
      "outputs": [
        {
          "name": "",
          "type": "uint256"
        }
      ],
      "payable": false,
      "stateMutability": "view",
      "type": "function"
    },
    {
      "constant": true,
      "inputs": [],
      "name": "MAXSOLD_SUPPLY",
      "outputs": [
        {
          "name": "",
          "type": "uint256"
        }
      ],
      "payable": false,
      "stateMutability": "view",
      "type": "function"
    },
    {
      "constant": true,
      "inputs": [
        {
          "name": "_owner",
          "type": "address"
        }
      ],
      "name": "balanceOf",
      "outputs": [
        {
          "name": "balance",
          "type": "uint256"
        }
      ],
      "payable": false,
      "stateMutability": "view",
      "type": "function"
    },
    {
      "constant": true,
      "inputs": [],
      "name": "DISTRIBUTION_COMMUNITY",
      "outputs": [
        {
          "name": "",
          "type": "uint256"
        }
      ],
      "payable": false,
      "stateMutability": "view",
      "type": "function"
    },
    {
      "constant": false,
      "inputs": [],
      "name": "finishMinting",
      "outputs": [
        {
          "name": "",
          "type": "bool"
        }
      ],
      "payable": false,
      "stateMutability": "nonpayable",
      "type": "function"
    },
    {
      "constant": true,
      "inputs": [],
      "name": "owner",
      "outputs": [
        {
          "name": "",
          "type": "address"
        }
      ],
      "payable": false,
      "stateMutability": "view",
      "type": "function"
    },
    {
      "constant": true,
      "inputs": [],
      "name": "symbol",
      "outputs": [
        {
          "name": "",
          "type": "string"
        }
      ],
      "payable": false,
      "stateMutability": "view",
      "type": "function"
    },
    {
      "constant": true,
      "inputs": [],
      "name": "extraSupply",
      "outputs": [
        {
          "name": "",
          "type": "uint256"
        }
      ],
      "payable": false,
      "stateMutability": "view",
      "type": "function"
    },
    {
      "constant": true,
      "inputs": [],
      "name": "investorSupply",
      "outputs": [
        {
          "name": "",
          "type": "uint256"
        }
      ],
      "payable": false,
      "stateMutability": "view",
      "type": "function"
    },
    {
      "constant": true,
      "inputs": [
        {
          "name": "_owner",
          "type": "address"
        },
        {
          "name": "_spender",
          "type": "address"
        }
      ],
      "name": "allowance",
      "outputs": [
        {
          "name": "",
          "type": "uint256"
        }
      ],
      "payable": false,
      "stateMutability": "view",
      "type": "function"
    },
    {
      "constant": true,
      "inputs": [],
      "name": "teamTokensHolder",
      "outputs": [
        {
          "name": "",
          "type": "address"
        }
      ],
      "payable": false,
      "stateMutability": "view",
      "type": "function"
    },
    {
      "constant": false,
      "inputs": [
        {
          "name": "newOwner",
          "type": "address"
        }
      ],
      "name": "transferOwnership",
      "outputs": [],
      "payable": false,
      "stateMutability": "nonpayable",
      "type": "function"
    },
    {
      "constant": true,
      "inputs": [],
      "name": "HARDCAPPED_SUPPLY",
      "outputs": [
        {
          "name": "",
          "type": "uint256"
        }
      ],
      "payable": false,
      "stateMutability": "view",
      "type": "function"
    },
    {
      "inputs": [],
      "payable": false,
      "stateMutability": "nonpayable",
      "type": "constructor"
    },
    {
      "payable": true,
      "stateMutability": "payable",
      "type": "fallback"
    },
    {
      "anonymous": false,
      "inputs": [
        {
          "indexed": false,
          "name": "state",
          "type": "bool"
        }
      ],
      "name": "ToggleTransferAllowance",
      "type": "event"
    },
    {
      "anonymous": false,
      "inputs": [
        {
          "indexed": true,
          "name": "who",
          "type": "address"
        },
        {
          "indexed": false,
          "name": "state",
          "type": "bool"
        }
      ],
      "name": "ToggleTransferAllowanceFor",
      "type": "event"
    },
    {
      "anonymous": false,
      "inputs": [
        {
          "indexed": true,
          "name": "from",
          "type": "address"
        },
        {
          "indexed": true,
          "name": "to",
          "type": "address"
        }
      ],
      "name": "ChangeCommunityHolder",
      "type": "event"
    },
    {
      "anonymous": false,
      "inputs": [
        {
          "indexed": true,
          "name": "from",
          "type": "address"
        },
        {
          "indexed": true,
          "name": "to",
          "type": "address"
        }
      ],
      "name": "ChangeTeamHolder",
      "type": "event"
    },
    {
      "anonymous": false,
      "inputs": [
        {
          "indexed": true,
          "name": "to",
          "type": "address"
        },
        {
          "indexed": false,
          "name": "amount",
          "type": "uint256"
        }
      ],
      "name": "Mint",
      "type": "event"
    },
    {
      "anonymous": false,
      "inputs": [],
      "name": "MintFinished",
      "type": "event"
    },
    {
      "anonymous": false,
      "inputs": [
        {
          "indexed": true,
          "name": "previousOwner",
          "type": "address"
        },
        {
          "indexed": true,
          "name": "newOwner",
          "type": "address"
        }
      ],
      "name": "OwnershipTransferred",
      "type": "event"
    },
    {
      "anonymous": false,
      "inputs": [
        {
          "indexed": true,
          "name": "owner",
          "type": "address"
        },
        {
          "indexed": true,
          "name": "spender",
          "type": "address"
        },
        {
          "indexed": false,
          "name": "value",
          "type": "uint256"
        }
      ],
      "name": "Approval",
      "type": "event"
    },
    {
      "anonymous": false,
      "inputs": [
        {
          "indexed": true,
          "name": "from",
          "type": "address"
        },
        {
          "indexed": true,
          "name": "to",
          "type": "address"
        },
        {
          "indexed": false,
          "name": "value",
          "type": "uint256"
        }
      ],
      "name": "Transfer",
      "type": "event"
    },
    {
      "constant": false,
      "inputs": [
        {
          "name": "_tokenHolder",
          "type": "address"
        }
      ],
      "name": "setTeamTokensHolder",
      "outputs": [
        {
          "name": "",
          "type": "bool"
        }
      ],
      "payable": false,
      "stateMutability": "nonpayable",
      "type": "function"
    },
    {
      "constant": false,
      "inputs": [
        {
          "name": "_tokenHolder",
          "type": "address"
        }
      ],
      "name": "setCommunityTokensHolder",
      "outputs": [
        {
          "name": "",
          "type": "bool"
        }
      ],
      "payable": false,
      "stateMutability": "nonpayable",
      "type": "function"
    },
    {
      "constant": true,
      "inputs": [],
      "name": "currentOwner",
      "outputs": [
        {
          "name": "",
          "type": "address"
        }
      ],
      "payable": false,
      "stateMutability": "view",
      "type": "function"
    },
    {
      "constant": false,
      "inputs": [
        {
          "name": "_to",
          "type": "address"
        },
        {
          "name": "_value",
          "type": "uint256"
        }
      ],
      "name": "transfer",
      "outputs": [
        {
          "name": "",
          "type": "bool"
        }
      ],
      "payable": false,
      "stateMutability": "nonpayable",
      "type": "function"
    },
    {
      "constant": false,
      "inputs": [
        {
          "name": "_from",
          "type": "address"
        },
        {
          "name": "_to",
          "type": "address"
        },
        {
          "name": "_value",
          "type": "uint256"
        }
      ],
      "name": "transferFrom",
      "outputs": [
        {
          "name": "",
          "type": "bool"
        }
      ],
      "payable": false,
      "stateMutability": "nonpayable",
      "type": "function"
    },
    {
      "constant": false,
      "inputs": [],
      "name": "toggleTransfer",
      "outputs": [
        {
          "name": "",
          "type": "bool"
        }
      ],
      "payable": false,
      "stateMutability": "nonpayable",
      "type": "function"
    },
    {
      "constant": false,
      "inputs": [
        {
          "name": "_for",
          "type": "address"
        }
      ],
      "name": "toggleTransferFor",
      "outputs": [
        {
          "name": "",
          "type": "bool"
        }
      ],
      "payable": false,
      "stateMutability": "nonpayable",
      "type": "function"
    },
    {
      "constant": false,
      "inputs": [
        {
          "name": "_to",
          "type": "address"
        },
        {
          "name": "_amount",
          "type": "uint256"
        }
      ],
      "name": "mint",
      "outputs": [
        {
          "name": "",
          "type": "bool"
        }
      ],
      "payable": false,
      "stateMutability": "nonpayable",
      "type": "function"
    },
    {
      "constant": false,
      "inputs": [],
      "name": "extraMint",
      "outputs": [
        {
          "name": "",
          "type": "bool"
        }
      ],
      "payable": false,
      "stateMutability": "nonpayable",
      "type": "function"
    },
    {
      "constant": false,
      "inputs": [
        {
          "name": "_spender",
          "type": "address"
        },
        {
          "name": "_addedValue",
          "type": "uint256"
        }
      ],
      "name": "increaseApproval",
      "outputs": [
        {
          "name": "success",
          "type": "bool"
        }
      ],
      "payable": false,
      "stateMutability": "nonpayable",
      "type": "function"
    },
    {
      "constant": false,
      "inputs": [
        {
          "name": "_spender",
          "type": "address"
        },
        {
          "name": "_subtractedValue",
          "type": "uint256"
        }
      ],
      "name": "decreaseApproval",
      "outputs": [
        {
          "name": "success",
          "type": "bool"
        }
      ],
      "payable": false,
      "stateMutability": "nonpayable",
      "type": "function"
    }
  ],
  "bytecode": "0x606060409081526003805460a060020a60ff02191690558051908101604052600981527f41434520546f6b656e0000000000000000000000000000000000000000000000602082015260049080516200005d92916020019062000242565b5060408051908101604052600381527f414345000000000000000000000000000000000000000000000000000000000060208201526005908051620000a792916020019062000242565b506000600681905560078190556008819055600955600b805460a060020a60ff021916740100000000000000000000000000000000000000001790553415620000ef57600080fd5b604080519081016040908152600982527f41434520546f6b656e00000000000000000000000000000000000000000000006020830152805190810160405260038082527f414345000000000000000000000000000000000000000000000000000000000060208301528054600160a060020a03191633600160a060020a0316179055600060048380516200018892916020019062000242565b5060058280516200019e92916020019062000242565b506006819055600a8054600160a060020a03338116600160a060020a0319928316811793849055600b8054909316179091551660007f6eafbe888d6820eae9a9afe73b56c4ee57e9d5ddd95f9a276ce00e1e34e6c70660405160405180910390a3600b54600160a060020a031660007fc83ac557199800e98db357637b4350ad3bce0ae12849c192d960d22e32e6cf2e60405160405180910390a3505050620002e7565b828054600181600116156101000203166002900490600052602060002090601f016020900481019282601f106200028557805160ff1916838001178555620002b5565b82800160010185558215620002b5579182015b82811115620002b557825182559160200191906001019062000298565b50620002c3929150620002c7565b5090565b620002e491905b80821115620002c35760008155600101620002ce565b90565b61144c80620002f76000396000f3006060604052600436106101ab5763ffffffff7c010000000000000000000000000000000000000000000000000000000060003504166305d2035b81146101b257806306fdde03146101d9578063095ea7b31461026357806317d286201461028557806318160ddd146102a45780632395e9b6146102c957806323b872dd146102e85780632f0c59e714610310578063313ce5671461032357806334fec4671461033657806335b1097e14610349578063384c440b1461037857806340c10f191461038b5780634ab798f1146103ad57806356d0adac146103c057806366188463146103d35780636e349188146103f5578063708cfb251461040857806370a082311461042757806374e00730146103785780637d64bcb4146104465780638da5cb5b1461045957806395d89b411461046c5780639acdc0e31461047f578063a9059cbb1461049e578063ad35bdb0146104c0578063b387ef92146104d3578063d73dd623146104e6578063d862b61114610508578063dc79d0691461051b578063dd62ed3e1461052e578063ed6a897d14610553578063f2fde38b14610566578063f344f4fa14610585575b600080fd5b005b34156101bd57600080fd5b6101c5610598565b604051901515815260200160405180910390f35b34156101e457600080fd5b6101ec6105a8565b60405160208082528190810183818151815260200191508051906020019080838360005b83811015610228578082015183820152602001610210565b50505050905090810190601f1680156102555780820380516001836020036101000a031916815260200191505b509250505060405180910390f35b341561026e57600080fd5b6101c5600160a060020a0360043516602435610646565b341561029057600080fd5b6101c5600160a060020a03600435166106b2565b34156102af57600080fd5b6102b7610751565b60405190815260200160405180910390f35b34156102d457600080fd5b6101c5600160a060020a0360043516610757565b34156102f357600080fd5b6101c5600160a060020a036004358116906024351660443561076c565b341561031b57600080fd5b6102b76107bd565b341561032e57600080fd5b6102b76107c2565b341561034157600080fd5b6101c56107c8565b341561035457600080fd5b61035c6107d8565b604051600160a060020a03909116815260200160405180910390f35b341561038357600080fd5b6102b76107e7565b341561039657600080fd5b6101c5600160a060020a03600435166024356107ec565b34156103b857600080fd5b6101c561094b565b34156103cb57600080fd5b6102b76109e9565b34156103de57600080fd5b6101c5600160a060020a03600435166024356109ef565b341561040057600080fd5b6102b7610ae9565b341561041357600080fd5b6101c5600160a060020a0360043516610af1565b341561043257600080fd5b6102b7600160a060020a0360043516610b8e565b341561045157600080fd5b6101c5610ba9565b341561046457600080fd5b61035c610c34565b341561047757600080fd5b6101ec610c43565b341561048a57600080fd5b6101c5600160a060020a0360043516610cae565b34156104a957600080fd5b6101c5600160a060020a0360043516602435610d4b565b34156104cb57600080fd5b6102b7610d9a565b34156104de57600080fd5b61035c610da0565b34156104f157600080fd5b6101c5600160a060020a0360043516602435610daf565b341561051357600080fd5b6101c5610e53565b341561052657600080fd5b6102b76110a3565b341561053957600080fd5b6102b7600160a060020a03600435811690602435166110a9565b341561055e57600080fd5b61035c6110d4565b341561057157600080fd5b6101b0600160a060020a03600435166110e3565b341561059057600080fd5b6102b761117e565b60035460a060020a900460ff1681565b60048054600181600116156101000203166002900480601f01602080910402602001604051908101604052809291908181526020018280546001816001161561010002031660029004801561063e5780601f106106135761010080835404028352916020019161063e565b820191906000526020600020905b81548152906001019060200180831161062157829003601f168201915b505050505081565b600160a060020a03338116600081815260026020908152604080832094871680845294909152808220859055909291907f8c5be1e5ebec7d5bd14f71427d1e84f3dd0314c0f7b2291e5b200ac8c7c3b9259085905190815260200160405180910390a350600192915050565b60035460009033600160a060020a039081169116146106d057600080fd5b600160a060020a0382166000818152600c602052604090819020805460ff19811660ff9182161517918290557f0e3be37de3a6671de0615d261214611985deeff6c0bb8a344ee0d6adca8542009291169051901515815260200160405180910390a250600160a060020a03166000908152600c602052604090205460ff1690565b60005481565b600c6020526000908152604090205460ff1681565b600b5460009060a060020a900460ff168061079f5750600160a060020a0333166000908152600c602052604090205460ff165b15156107aa57600080fd5b6107b5848484611186565b949350505050565b603c81565b60065481565b600b5460a060020a900460ff1681565b600b54600160a060020a031681565b601481565b60035460009033600160a060020a0390811691161461080a57600080fd5b60035460a060020a900460ff161561082157600080fd5b6000821161082e57600080fd5b600054610841908363ffffffff6112f616565b600055600754610857908363ffffffff6112f616565b60075560095461086d908363ffffffff6112f616565b6009556007546305e69ec090111561088157fe5b6000546309d5b34090111561089257fe5b600160a060020a0383166000908152600160205260409020546108bb908363ffffffff6112f616565b600160a060020a0384166000818152600160205260409081902092909255907f0f6798a560793a54c3bcfe86a93cde1e73087d944c0ea20544137d41213968859084905190815260200160405180910390a282600160a060020a031630600160a060020a03166000805160206114018339815191528460405190815260200160405180910390a350600192915050565b60035460009033600160a060020a0390811691161461096957600080fd5b600b805460ff60a060020a808304821615810274ff00000000000000000000000000000000000000001990931692909217928390557ff900592a77a3fc7d9e10afc446a9a561f13139aa4500db01207b92198e2fa49e929190910416604051901515815260200160405180910390a150600b5460a060020a900460ff1690565b60095481565b600160a060020a03338116600090815260026020908152604080832093861683529290529081205480831115610a4c57600160a060020a033381166000908152600260209081526040808320938816835292905290812055610a83565b610a5c818463ffffffff61130516565b600160a060020a033381166000908152600260209081526040808320938916835292905220555b600160a060020a0333811660008181526002602090815260408083209489168084529490915290819020547f8c5be1e5ebec7d5bd14f71427d1e84f3dd0314c0f7b2291e5b200ac8c7c3b925915190815260200160405180910390a35060019392505050565b6305e69ec081565b600354600090819033600160a060020a03908116911614610b1157600080fd5b600160a060020a0383161515610b2657600080fd5b50600a8054600160a060020a0384811673ffffffffffffffffffffffffffffffffffffffff19831617928390559081169116817f6eafbe888d6820eae9a9afe73b56c4ee57e9d5ddd95f9a276ce00e1e34e6c70660405160405180910390a350600192915050565b600160a060020a031660009081526001602052604090205490565b60035460009033600160a060020a03908116911614610bc757600080fd5b60035460a060020a900460ff1615610bde57600080fd5b6003805474ff0000000000000000000000000000000000000000191660a060020a1790557fae5184fba832cb2b1f702aca6117b8d265eaf03ad33eb133f19dde0f5920fa0860405160405180910390a150600190565b600354600160a060020a031681565b60058054600181600116156101000203166002900480601f01602080910402602001604051908101604052809291908181526020018280546001816001161561010002031660029004801561063e5780601f106106135761010080835404028352916020019161063e565b600354600090819033600160a060020a03908116911614610cce57600080fd5b600160a060020a0383161515610ce357600080fd5b50600b8054600160a060020a0384811673ffffffffffffffffffffffffffffffffffffffff19831617928390559081169116817fc83ac557199800e98db357637b4350ad3bce0ae12849c192d960d22e32e6cf2e60405160405180910390a350600192915050565b600b5460009060a060020a900460ff1680610d7e5750600160a060020a0333166000908152600c602052604090205460ff165b1515610d8957600080fd5b610d938383611317565b9392505050565b60085481565b600354600160a060020a031690565b600160a060020a033381166000908152600260209081526040808320938616835292905290812054610de7908363ffffffff6112f616565b600160a060020a0333811660008181526002602090815260408083209489168084529490915290819020849055919290917f8c5be1e5ebec7d5bd14f71427d1e84f3dd0314c0f7b2291e5b200ac8c7c3b92591905190815260200160405180910390a350600192915050565b6003546000908190819081908190819033600160a060020a03908116911614610e7b57600080fd5b60035460a060020a900460ff1615610e9257600080fd5b60095460009011610ea257600080fd5b600954603c90049450601485029350839250610ec4838063ffffffff6112f616565b600054909250610eda908363ffffffff6112f616565b600055600854610ef0908363ffffffff6112f616565b6008555060098054603c9006908190556000546309d5b340901115610f1157fe5b610f296309d5b3406305e69ec063ffffffff61130516565b6008541115610f3457fe5b600a54600160a060020a0316600090815260016020526040902054610f5f908563ffffffff6112f616565b600a54600160a060020a0390811660009081526001602052604080822093909355600b5490911681522054610f9a908463ffffffff6112f616565b600b54600160a060020a039081166000908152600160205260409081902092909255600a5416907f0f6798a560793a54c3bcfe86a93cde1e73087d944c0ea20544137d41213968859086905190815260200160405180910390a2600a54600160a060020a039081169030166000805160206114018339815191528660405190815260200160405180910390a3600b54600160a060020a03167f0f6798a560793a54c3bcfe86a93cde1e73087d944c0ea20544137d41213968858460405190815260200160405180910390a2600b54600160a060020a039081169030166000805160206114018339815191528560405190815260200160405180910390a360019550505050505090565b60075481565b600160a060020a03918216600090815260026020908152604080832093909416825291909152205490565b600a54600160a060020a031681565b60035433600160a060020a039081169116146110fe57600080fd5b600160a060020a038116151561111357600080fd5b600354600160a060020a0380831691167f8be0079c531659141344cd1fd0a4f28419497f9722a3daafe3b4186f6b6457e060405160405180910390a36003805473ffffffffffffffffffffffffffffffffffffffff1916600160a060020a0392909216919091179055565b6309d5b34081565b6000600160a060020a038316151561119d57600080fd5b600160a060020a0384166000908152600160205260409020548211156111c257600080fd5b600160a060020a03808516600090815260026020908152604080832033909416835292905220548211156111f557600080fd5b600160a060020a03841660009081526001602052604090205461121e908363ffffffff61130516565b600160a060020a038086166000908152600160205260408082209390935590851681522054611253908363ffffffff6112f616565b600160a060020a0380851660009081526001602090815260408083209490945587831682526002815283822033909316825291909152205461129b908363ffffffff61130516565b600160a060020a03808616600081815260026020908152604080832033861684529091529081902093909355908516916000805160206114018339815191529085905190815260200160405180910390a35060019392505050565b600082820183811015610d9357fe5b60008282111561131157fe5b50900390565b6000600160a060020a038316151561132e57600080fd5b600160a060020a03331660009081526001602052604090205482111561135357600080fd5b600160a060020a03331660009081526001602052604090205461137c908363ffffffff61130516565b600160a060020a0333811660009081526001602052604080822093909355908516815220546113b1908363ffffffff6112f616565b600160a060020a0380851660008181526001602052604090819020939093559133909116906000805160206114018339815191529085905190815260200160405180910390a3506001929150505600ddf252ad1be2c89b69c2b068fc378daa952ba7f163c4a11628f55a4df523b3efa165627a7a7230582099ee4b9508cfba239b8e7fd26856b907dcccacd324d0c650fc0d2e9f2733bc080029",
  "source": "// ACE Token is a first token of TokenStars platform\r\n// Copyright (c) 2017 TokenStars\r\n// Made by Aler Denisov\r\n// Permission is hereby granted, free of charge, to any person obtaining a copy\r\n// of this software and associated documentation files (the \"Software\"), to deal\r\n// in the Software without restriction, including without limitation the rights\r\n// to use, copy, modify, merge, publish, distribute, sublicense, and/or sell\r\n// copies of the Software, and to permit persons to whom the Software is\r\n// furnished to do so, subject to the following conditions:\r\n\r\n// The above copyright notice and this permission notice shall be included in all\r\n// copies or substantial portions of the Software.\r\n\r\n// THE SOFTWARE IS PROVIDED \"AS IS\", WITHOUT WARRANTY OF ANY KIND, EXPRESS OR\r\n// IMPLIED, INCLUDING BUT NOT LIMITED TO THE WARRANTIES OF MERCHANTABILITY,\r\n// FITNESS FOR A PARTICULAR PURPOSE AND NONINFRINGEMENT. IN NO EVENT SHALL THE\r\n// AUTHORS OR COPYRIGHT HOLDERS BE LIABLE FOR ANY CLAIM, DAMAGES OR OTHER\r\n// LIABILITY, WHETHER IN AN ACTION OF CONTRACT, TORT OR OTHERWISE, ARISING FROM,\r\n// OUT OF OR IN CONNECTION WITH THE SOFTWARE OR THE USE OR OTHER DEALINGS IN THE\r\n// SOFTWARE.\r\n\r\npragma solidity ^0.4.18;\r\n\r\nimport 'zeppelin-solidity/contracts/math/SafeMath.sol';\r\nimport 'zeppelin-solidity/contracts/token/MintableToken.sol';\r\n\r\ncontract TokenMock is MintableToken {\r\n    using SafeMath for uint256;\r\n    \r\n    // ERC20 constants\r\n    string public name = \"ACE Token\";\r\n    string public symbol = \"ACE\";\r\n    uint public decimals = 0;\r\n\r\n    // Minting constants\r\n    uint256 public constant MAXSOLD_SUPPLY = 99000000;\r\n    uint256 public constant HARDCAPPED_SUPPLY = 165000000;\r\n\r\n    uint256 public investorSupply = 0;\r\n    uint256 public extraSupply = 0;\r\n    uint256 public freeToExtraMinting = 0;\r\n\r\n    uint256 public constant DISTRIBUTION_INVESTORS = 60;\r\n    uint256 public constant DISTRIBUTION_TEAM      = 20;\r\n    uint256 public constant DISTRIBUTION_COMMUNITY = 20;\r\n\r\n    address public teamTokensHolder;\r\n    address public communityTokensHolder;\r\n\r\n    // Transfer rules\r\n    bool public transferAllowed = true;\r\n    mapping (address=>bool) public specialAllowed;\r\n\r\n    // Transfer rules events\r\n    event ToggleTransferAllowance(bool state);\r\n    event ToggleTransferAllowanceFor(address indexed who, bool state);\r\n\r\n    // Holders events\r\n    event ChangeCommunityHolder(address indexed from, address indexed to);\r\n    event ChangeTeamHolder(address indexed from, address indexed to);\r\n\r\n    /**\r\n    * @dev check transfer is allowed\r\n    */\r\n    modifier allowTransfer() {\r\n        require(transferAllowed || specialAllowed[msg.sender]);\r\n        _;\r\n    }\r\n\r\n    function TokenMock(string _name, string _symbol, uint256 _decimals) {\r\n      name = _name;\r\n      symbol = _symbol;\r\n      decimals = _decimals;\r\n\r\n      teamTokensHolder = msg.sender;\r\n      communityTokensHolder = msg.sender;\r\n      \r\n      ChangeTeamHolder(0x0, teamTokensHolder);\r\n      ChangeCommunityHolder(0x0, communityTokensHolder);\r\n    }\r\n\r\n    /**\r\n    * @dev change team tokens holder\r\n    * @param _tokenHolder The address of next team tokens holder\r\n    */\r\n    function setTeamTokensHolder(address _tokenHolder) onlyOwner returns (bool) {\r\n      require(_tokenHolder != 0);\r\n      address temporaryEventAddress = teamTokensHolder;\r\n      teamTokensHolder = _tokenHolder;\r\n      ChangeTeamHolder(temporaryEventAddress, teamTokensHolder);\r\n      return true;\r\n    }\r\n\r\n    /**\r\n    * @dev change community tokens holder\r\n    * @param _tokenHolder The address of next community tokens holder\r\n    */\r\n    function setCommunityTokensHolder(address _tokenHolder) onlyOwner returns (bool) {\r\n      require(_tokenHolder != 0);\r\n      address temporaryEventAddress = communityTokensHolder;\r\n      communityTokensHolder = _tokenHolder;\r\n      ChangeCommunityHolder(temporaryEventAddress, communityTokensHolder);\r\n      return true;\r\n    }\r\n\r\n    /**\r\n    * @dev Doesn't allow to send funds on contract!\r\n    */\r\n    function () payable {\r\n        require(false);\r\n    }\r\n\r\n    function currentOwner() constant public returns (address) {\r\n      return owner;\r\n    }\r\n\r\n    /**\r\n    * @dev transfer token for a specified address if transfer is open\r\n    * @param _to The address to transfer to.\r\n    * @param _value The amount to be transferred.\r\n    */\r\n    function transfer(address _to, uint256 _value) allowTransfer returns (bool) {\r\n        return super.transfer(_to, _value);\r\n    }\r\n\r\n    \r\n    /**\r\n    * @dev Transfer tokens from one address to another if transfer is open\r\n    * @param _from address The address which you want to send tokens from\r\n    * @param _to address The address which you want to transfer to\r\n    * @param _value uint256 the amount of tokens to be transferred\r\n     */\r\n    function transferFrom(address _from, address _to, uint256 _value) allowTransfer returns (bool) {\r\n        return super.transferFrom(_from, _to, _value);\r\n    }\r\n\r\n    /**\r\n    * @dev Change current state of transfer allowence to opposite\r\n     */\r\n    function toggleTransfer() onlyOwner returns (bool) {\r\n        transferAllowed = !transferAllowed;\r\n        ToggleTransferAllowance(transferAllowed);\r\n        return transferAllowed;\r\n    }\r\n\r\n    /**\r\n    * @dev allow transfer for the given address against global rules\r\n    * @param _for addres The address of special allowed transfer (required for smart contracts)\r\n     */\r\n    function toggleTransferFor(address _for) onlyOwner returns (bool) {\r\n        specialAllowed[_for] = !specialAllowed[_for];\r\n        ToggleTransferAllowanceFor(_for, specialAllowed[_for]);\r\n        return specialAllowed[_for];\r\n    }\r\n\r\n    /**\r\n    * @dev Function to mint tokens for investor\r\n    * @param _to The address that will receive the minted tokens.\r\n    * @param _amount The amount of tokens to emit.\r\n    * @return A boolean that indicates if the operation was successful.\r\n    */\r\n    function mint(address _to, uint256 _amount) onlyOwner canMint returns (bool) {\r\n        require(_amount > 0);\r\n        totalSupply = totalSupply.add(_amount);\r\n        investorSupply = investorSupply.add(_amount);\r\n        freeToExtraMinting = freeToExtraMinting.add(_amount);\r\n\r\n        // Prevent to emit more than sale hardcap!\r\n        assert(investorSupply <= MAXSOLD_SUPPLY);\r\n        assert(totalSupply <= HARDCAPPED_SUPPLY);\r\n\r\n        balances[_to] = balances[_to].add(_amount);\r\n        Mint(_to, _amount);\r\n        Transfer(address(this), _to, _amount);\r\n        return true;\r\n    }\r\n\r\n    function extraMint() onlyOwner canMint returns (bool) {\r\n      require(freeToExtraMinting > 0);\r\n\r\n      uint256 onePercent = freeToExtraMinting / DISTRIBUTION_INVESTORS;\r\n      uint256 teamPart = onePercent * DISTRIBUTION_TEAM;\r\n      uint256 communityPart = onePercent * DISTRIBUTION_COMMUNITY;\r\n      uint256 extraTokens = teamPart.add(communityPart);\r\n\r\n      totalSupply = totalSupply.add(extraTokens);\r\n      extraSupply = extraSupply.add(extraTokens);\r\n\r\n      uint256 leftToNextMinting = freeToExtraMinting % DISTRIBUTION_INVESTORS;\r\n      freeToExtraMinting = leftToNextMinting;\r\n\r\n      assert(totalSupply <= HARDCAPPED_SUPPLY);\r\n      assert(extraSupply <= HARDCAPPED_SUPPLY.sub(MAXSOLD_SUPPLY));\r\n\r\n      balances[teamTokensHolder] = balances[teamTokensHolder].add(teamPart);\r\n      balances[communityTokensHolder] = balances[communityTokensHolder].add(communityPart);\r\n\r\n      Mint(teamTokensHolder, teamPart);\r\n      Transfer(address(this), teamTokensHolder, teamPart);\r\n      Mint(communityTokensHolder, communityPart);\r\n      Transfer(address(this), communityTokensHolder, communityPart);\r\n\r\n      return true;\r\n    }\r\n\r\n    /**\r\n    * @dev Increase approved amount to spend \r\n    * @param _spender The address which will spend the funds.\r\n    * @param _addedValue The amount of tokens to increase already approved amount. \r\n     */\r\n    function increaseApproval (address _spender, uint _addedValue) returns (bool success) {\r\n        allowed[msg.sender][_spender] = allowed[msg.sender][_spender].add(_addedValue);\r\n        Approval(msg.sender, _spender, allowed[msg.sender][_spender]);\r\n        return true;\r\n    }\r\n\r\n    /**\r\n    * @dev Decrease approved amount to spend \r\n    * @param _spender The address which will spend the funds.\r\n    * @param _subtractedValue The amount of tokens to decrease already approved amount. \r\n     */\r\n    function decreaseApproval (address _spender, uint _subtractedValue) returns (bool success) {\r\n        uint oldValue = allowed[msg.sender][_spender];\r\n        if (_subtractedValue > oldValue) {\r\n            allowed[msg.sender][_spender] = 0;\r\n        } else {\r\n            allowed[msg.sender][_spender] = oldValue.sub(_subtractedValue);\r\n        }\r\n        Approval(msg.sender, _spender, allowed[msg.sender][_spender]);\r\n        return true;\r\n    }\r\n}\r\n\r\ncontract AceToken is TokenMock {\r\n    \r\n    function AceToken()\r\n      TokenMock(\"ACE Token\", \"ACE\", 0)\r\n    {\r\n    }\r\n}\r\n\r\ncontract TeamToken is TokenMock {\r\n    \r\n    function TeamToken()\r\n      TokenMock(\"TEAM Token\", \"TEAM\", 4)\r\n    {\r\n    }\r\n}",
  "sourcePath": "C:\\MD\\Dev\\Solidity\\Auction\\contracts\\TokenMock.sol",
  "compiler": {
    "name": "solc",
    "version": "0.4.19+commit.c4cbbb05.Emscripten.clang"
  },
  "schemaVersion": "1.0.1",
  "updatedAt": "2018-02-28T13:51:17.601Z"
}