{
  "contractName": "AceToken",
  "abi": [
    {
      "constant": true,
      "inputs": [],
      "name": "mintingFinished",
      "outputs": [
        {
          "name": "",
          "type": "bool"
        }
      ],
      "payable": false,
      "stateMutability": "view",
      "type": "function"
    },
    {
      "constant": true,
      "inputs": [],
      "name": "name",
      "outputs": [
        {
          "name": "",
          "type": "string"
        }
      ],
      "payable": false,
      "stateMutability": "view",
      "type": "function"
    },
    {
      "constant": false,
      "inputs": [
        {
          "name": "_spender",
          "type": "address"
        },
        {
          "name": "_value",
          "type": "uint256"
        }
      ],
      "name": "approve",
      "outputs": [
        {
          "name": "",
          "type": "bool"
        }
      ],
      "payable": false,
      "stateMutability": "nonpayable",
      "type": "function"
    },
    {
      "constant": false,
      "inputs": [
        {
          "name": "_for",
          "type": "address"
        }
      ],
      "name": "toggleTransferFor",
      "outputs": [
        {
          "name": "",
          "type": "bool"
        }
      ],
      "payable": false,
      "stateMutability": "nonpayable",
      "type": "function"
    },
    {
      "constant": true,
      "inputs": [],
      "name": "totalSupply",
      "outputs": [
        {
          "name": "",
          "type": "uint256"
        }
      ],
      "payable": false,
      "stateMutability": "view",
      "type": "function"
    },
    {
      "constant": true,
      "inputs": [
        {
          "name": "",
          "type": "address"
        }
      ],
      "name": "specialAllowed",
      "outputs": [
        {
          "name": "",
          "type": "bool"
        }
      ],
      "payable": false,
      "stateMutability": "view",
      "type": "function"
    },
    {
      "constant": false,
      "inputs": [
        {
          "name": "_from",
          "type": "address"
        },
        {
          "name": "_to",
          "type": "address"
        },
        {
          "name": "_value",
          "type": "uint256"
        }
      ],
      "name": "transferFrom",
      "outputs": [
        {
          "name": "",
          "type": "bool"
        }
      ],
      "payable": false,
      "stateMutability": "nonpayable",
      "type": "function"
    },
    {
      "constant": true,
      "inputs": [],
      "name": "DISTRIBUTION_INVESTORS",
      "outputs": [
        {
          "name": "",
          "type": "uint256"
        }
      ],
      "payable": false,
      "stateMutability": "view",
      "type": "function"
    },
    {
      "constant": true,
      "inputs": [],
      "name": "decimals",
      "outputs": [
        {
          "name": "",
          "type": "uint256"
        }
      ],
      "payable": false,
      "stateMutability": "view",
      "type": "function"
    },
    {
      "constant": true,
      "inputs": [],
      "name": "transferAllowed",
      "outputs": [
        {
          "name": "",
          "type": "bool"
        }
      ],
      "payable": false,
      "stateMutability": "view",
      "type": "function"
    },
    {
      "constant": true,
      "inputs": [],
      "name": "communityTokensHolder",
      "outputs": [
        {
          "name": "",
          "type": "address"
        }
      ],
      "payable": false,
      "stateMutability": "view",
      "type": "function"
    },
    {
      "constant": true,
      "inputs": [],
      "name": "DISTRIBUTION_TEAM",
      "outputs": [
        {
          "name": "",
          "type": "uint256"
        }
      ],
      "payable": false,
      "stateMutability": "view",
      "type": "function"
    },
    {
      "constant": false,
      "inputs": [
        {
          "name": "_to",
          "type": "address"
        },
        {
          "name": "_amount",
          "type": "uint256"
        }
      ],
      "name": "mint",
      "outputs": [
        {
          "name": "",
          "type": "bool"
        }
      ],
      "payable": false,
      "stateMutability": "nonpayable",
      "type": "function"
    },
    {
      "constant": false,
      "inputs": [],
      "name": "toggleTransfer",
      "outputs": [
        {
          "name": "",
          "type": "bool"
        }
      ],
      "payable": false,
      "stateMutability": "nonpayable",
      "type": "function"
    },
    {
      "constant": true,
      "inputs": [],
      "name": "freeToExtraMinting",
      "outputs": [
        {
          "name": "",
          "type": "uint256"
        }
      ],
      "payable": false,
      "stateMutability": "view",
      "type": "function"
    },
    {
      "constant": false,
      "inputs": [
        {
          "name": "_spender",
          "type": "address"
        },
        {
          "name": "_subtractedValue",
          "type": "uint256"
        }
      ],
      "name": "decreaseApproval",
      "outputs": [
        {
          "name": "success",
          "type": "bool"
        }
      ],
      "payable": false,
      "stateMutability": "nonpayable",
      "type": "function"
    },
    {
      "constant": true,
      "inputs": [],
      "name": "MAXSOLD_SUPPLY",
      "outputs": [
        {
          "name": "",
          "type": "uint256"
        }
      ],
      "payable": false,
      "stateMutability": "view",
      "type": "function"
    },
    {
      "constant": false,
      "inputs": [
        {
          "name": "_tokenHolder",
          "type": "address"
        }
      ],
      "name": "setTeamTokensHolder",
      "outputs": [
        {
          "name": "",
          "type": "bool"
        }
      ],
      "payable": false,
      "stateMutability": "nonpayable",
      "type": "function"
    },
    {
      "constant": true,
      "inputs": [
        {
          "name": "_owner",
          "type": "address"
        }
      ],
      "name": "balanceOf",
      "outputs": [
        {
          "name": "balance",
          "type": "uint256"
        }
      ],
      "payable": false,
      "stateMutability": "view",
      "type": "function"
    },
    {
      "constant": true,
      "inputs": [],
      "name": "DISTRIBUTION_COMMUNITY",
      "outputs": [
        {
          "name": "",
          "type": "uint256"
        }
      ],
      "payable": false,
      "stateMutability": "view",
      "type": "function"
    },
    {
      "constant": false,
      "inputs": [],
      "name": "finishMinting",
      "outputs": [
        {
          "name": "",
          "type": "bool"
        }
      ],
      "payable": false,
      "stateMutability": "nonpayable",
      "type": "function"
    },
    {
      "constant": true,
      "inputs": [],
      "name": "owner",
      "outputs": [
        {
          "name": "",
          "type": "address"
        }
      ],
      "payable": false,
      "stateMutability": "view",
      "type": "function"
    },
    {
      "constant": true,
      "inputs": [],
      "name": "symbol",
      "outputs": [
        {
          "name": "",
          "type": "string"
        }
      ],
      "payable": false,
      "stateMutability": "view",
      "type": "function"
    },
    {
      "constant": false,
      "inputs": [
        {
          "name": "_tokenHolder",
          "type": "address"
        }
      ],
      "name": "setCommunityTokensHolder",
      "outputs": [
        {
          "name": "",
          "type": "bool"
        }
      ],
      "payable": false,
      "stateMutability": "nonpayable",
      "type": "function"
    },
    {
      "constant": false,
      "inputs": [
        {
          "name": "_to",
          "type": "address"
        },
        {
          "name": "_value",
          "type": "uint256"
        }
      ],
      "name": "transfer",
      "outputs": [
        {
          "name": "",
          "type": "bool"
        }
      ],
      "payable": false,
      "stateMutability": "nonpayable",
      "type": "function"
    },
    {
      "constant": true,
      "inputs": [],
      "name": "extraSupply",
      "outputs": [
        {
          "name": "",
          "type": "uint256"
        }
      ],
      "payable": false,
      "stateMutability": "view",
      "type": "function"
    },
    {
      "constant": true,
      "inputs": [],
      "name": "currentOwner",
      "outputs": [
        {
          "name": "",
          "type": "address"
        }
      ],
      "payable": false,
      "stateMutability": "view",
      "type": "function"
    },
    {
      "constant": false,
      "inputs": [
        {
          "name": "_spender",
          "type": "address"
        },
        {
          "name": "_addedValue",
          "type": "uint256"
        }
      ],
      "name": "increaseApproval",
      "outputs": [
        {
          "name": "success",
          "type": "bool"
        }
      ],
      "payable": false,
      "stateMutability": "nonpayable",
      "type": "function"
    },
    {
      "constant": false,
      "inputs": [],
      "name": "extraMint",
      "outputs": [
        {
          "name": "",
          "type": "bool"
        }
      ],
      "payable": false,
      "stateMutability": "nonpayable",
      "type": "function"
    },
    {
      "constant": true,
      "inputs": [],
      "name": "investorSupply",
      "outputs": [
        {
          "name": "",
          "type": "uint256"
        }
      ],
      "payable": false,
      "stateMutability": "view",
      "type": "function"
    },
    {
      "constant": true,
      "inputs": [
        {
          "name": "_owner",
          "type": "address"
        },
        {
          "name": "_spender",
          "type": "address"
        }
      ],
      "name": "allowance",
      "outputs": [
        {
          "name": "",
          "type": "uint256"
        }
      ],
      "payable": false,
      "stateMutability": "view",
      "type": "function"
    },
    {
      "constant": true,
      "inputs": [],
      "name": "teamTokensHolder",
      "outputs": [
        {
          "name": "",
          "type": "address"
        }
      ],
      "payable": false,
      "stateMutability": "view",
      "type": "function"
    },
    {
      "constant": false,
      "inputs": [
        {
          "name": "newOwner",
          "type": "address"
        }
      ],
      "name": "transferOwnership",
      "outputs": [],
      "payable": false,
      "stateMutability": "nonpayable",
      "type": "function"
    },
    {
      "constant": true,
      "inputs": [],
      "name": "HARDCAPPED_SUPPLY",
      "outputs": [
        {
          "name": "",
          "type": "uint256"
        }
      ],
      "payable": false,
      "stateMutability": "view",
      "type": "function"
    },
    {
      "inputs": [],
      "payable": false,
      "stateMutability": "nonpayable",
      "type": "constructor"
    },
    {
      "payable": true,
      "stateMutability": "payable",
      "type": "fallback"
    },
    {
      "anonymous": false,
      "inputs": [
        {
          "indexed": false,
          "name": "state",
          "type": "bool"
        }
      ],
      "name": "ToggleTransferAllowance",
      "type": "event"
    },
    {
      "anonymous": false,
      "inputs": [
        {
          "indexed": true,
          "name": "who",
          "type": "address"
        },
        {
          "indexed": false,
          "name": "state",
          "type": "bool"
        }
      ],
      "name": "ToggleTransferAllowanceFor",
      "type": "event"
    },
    {
      "anonymous": false,
      "inputs": [
        {
          "indexed": true,
          "name": "from",
          "type": "address"
        },
        {
          "indexed": true,
          "name": "to",
          "type": "address"
        }
      ],
      "name": "ChangeCommunityHolder",
      "type": "event"
    },
    {
      "anonymous": false,
      "inputs": [
        {
          "indexed": true,
          "name": "from",
          "type": "address"
        },
        {
          "indexed": true,
          "name": "to",
          "type": "address"
        }
      ],
      "name": "ChangeTeamHolder",
      "type": "event"
    },
    {
      "anonymous": false,
      "inputs": [
        {
          "indexed": true,
          "name": "to",
          "type": "address"
        },
        {
          "indexed": false,
          "name": "amount",
          "type": "uint256"
        }
      ],
      "name": "Mint",
      "type": "event"
    },
    {
      "anonymous": false,
      "inputs": [],
      "name": "MintFinished",
      "type": "event"
    },
    {
      "anonymous": false,
      "inputs": [
        {
          "indexed": true,
          "name": "previousOwner",
          "type": "address"
        },
        {
          "indexed": true,
          "name": "newOwner",
          "type": "address"
        }
      ],
      "name": "OwnershipTransferred",
      "type": "event"
    },
    {
      "anonymous": false,
      "inputs": [
        {
          "indexed": true,
          "name": "owner",
          "type": "address"
        },
        {
          "indexed": true,
          "name": "spender",
          "type": "address"
        },
        {
          "indexed": false,
          "name": "value",
          "type": "uint256"
        }
      ],
      "name": "Approval",
      "type": "event"
    },
    {
      "anonymous": false,
      "inputs": [
        {
          "indexed": true,
          "name": "from",
          "type": "address"
        },
        {
          "indexed": true,
          "name": "to",
          "type": "address"
        },
        {
          "indexed": false,
          "name": "value",
          "type": "uint256"
        }
      ],
      "name": "Transfer",
      "type": "event"
    }
  ],
  "bytecode": "0x60606040526003805460a060020a60ff0219908116909155600060048190556005819055600655600880549091169055341561003a57600080fd5b60038054600160a060020a03338116600160a060020a03199283168117909355600780548316841790819055600880549093169093179091551660007f6eafbe888d6820eae9a9afe73b56c4ee57e9d5ddd95f9a276ce00e1e34e6c70660405160405180910390a3600854600160a060020a031660007fc83ac557199800e98db357637b4350ad3bce0ae12849c192d960d22e32e6cf2e60405160405180910390a36113b0806100eb6000396000f3006060604052600436106101ab5763ffffffff7c010000000000000000000000000000000000000000000000000000000060003504166305d2035b81146101b257806306fdde03146101d9578063095ea7b31461026357806317d286201461028557806318160ddd146102a45780632395e9b6146102c957806323b872dd146102e85780632f0c59e714610310578063313ce5671461032357806334fec4671461033657806335b1097e14610349578063384c440b1461037857806340c10f191461038b5780634ab798f1146103ad57806356d0adac146103c057806366188463146103d35780636e349188146103f5578063708cfb251461040857806370a082311461042757806374e00730146103785780637d64bcb4146104465780638da5cb5b1461045957806395d89b411461046c5780639acdc0e31461047f578063a9059cbb1461049e578063ad35bdb0146104c0578063b387ef92146104d3578063d73dd623146104e6578063d862b61114610508578063dc79d0691461051b578063dd62ed3e1461052e578063ed6a897d14610553578063f2fde38b14610566578063f344f4fa14610585575b600080fd5b005b34156101bd57600080fd5b6101c5610598565b604051901515815260200160405180910390f35b34156101e457600080fd5b6101ec6105a8565b60405160208082528190810183818151815260200191508051906020019080838360005b83811015610228578082015183820152602001610210565b50505050905090810190601f1680156102555780820380516001836020036101000a031916815260200191505b509250505060405180910390f35b341561026e57600080fd5b6101c5600160a060020a03600435166024356105df565b341561029057600080fd5b6101c5600160a060020a036004351661064b565b34156102af57600080fd5b6102b76106ea565b60405190815260200160405180910390f35b34156102d457600080fd5b6101c5600160a060020a03600435166106f0565b34156102f357600080fd5b6101c5600160a060020a0360043581169060243516604435610705565b341561031b57600080fd5b6102b7610756565b341561032e57600080fd5b6102b761075b565b341561034157600080fd5b6101c5610760565b341561035457600080fd5b61035c610770565b604051600160a060020a03909116815260200160405180910390f35b341561038357600080fd5b6102b761077f565b341561039657600080fd5b6101c5600160a060020a0360043516602435610784565b34156103b857600080fd5b6101c56108e3565b34156103cb57600080fd5b6102b7610981565b34156103de57600080fd5b6101c5600160a060020a0360043516602435610987565b341561040057600080fd5b6102b7610a81565b341561041357600080fd5b6101c5600160a060020a0360043516610a89565b341561043257600080fd5b6102b7600160a060020a0360043516610b26565b341561045157600080fd5b6101c5610b41565b341561046457600080fd5b61035c610bcc565b341561047757600080fd5b6101ec610bdb565b341561048a57600080fd5b6101c5600160a060020a0360043516610c12565b34156104a957600080fd5b6101c5600160a060020a0360043516602435610caf565b34156104cb57600080fd5b6102b7610cfe565b34156104de57600080fd5b61035c610d04565b34156104f157600080fd5b6101c5600160a060020a0360043516602435610d13565b341561051357600080fd5b6101c5610db7565b341561052657600080fd5b6102b7611007565b341561053957600080fd5b6102b7600160a060020a036004358116906024351661100d565b341561055e57600080fd5b61035c611038565b341561057157600080fd5b6101b0600160a060020a0360043516611047565b341561059057600080fd5b6102b76110e2565b60035460a060020a900460ff1681565b60408051908101604052600981527f41434520546f6b656e0000000000000000000000000000000000000000000000602082015281565b600160a060020a03338116600081815260026020908152604080832094871680845294909152808220859055909291907f8c5be1e5ebec7d5bd14f71427d1e84f3dd0314c0f7b2291e5b200ac8c7c3b9259085905190815260200160405180910390a350600192915050565b60035460009033600160a060020a0390811691161461066957600080fd5b600160a060020a03821660008181526009602052604090819020805460ff19811660ff9182161517918290557f0e3be37de3a6671de0615d261214611985deeff6c0bb8a344ee0d6adca8542009291169051901515815260200160405180910390a250600160a060020a031660009081526009602052604090205460ff1690565b60005481565b60096020526000908152604090205460ff1681565b60085460009060a060020a900460ff16806107385750600160a060020a03331660009081526009602052604090205460ff165b151561074357600080fd5b61074e8484846110ea565b949350505050565b603c81565b600081565b60085460a060020a900460ff1681565b600854600160a060020a031681565b601481565b60035460009033600160a060020a039081169116146107a257600080fd5b60035460a060020a900460ff16156107b957600080fd5b600082116107c657600080fd5b6000546107d9908363ffffffff61125a16565b6000556004546107ef908363ffffffff61125a16565b600455600654610805908363ffffffff61125a16565b6006556004546305e69ec090111561081957fe5b6000546309d5b34090111561082a57fe5b600160a060020a038316600090815260016020526040902054610853908363ffffffff61125a16565b600160a060020a0384166000818152600160205260409081902092909255907f0f6798a560793a54c3bcfe86a93cde1e73087d944c0ea20544137d41213968859084905190815260200160405180910390a282600160a060020a031630600160a060020a03166000805160206113658339815191528460405190815260200160405180910390a350600192915050565b60035460009033600160a060020a0390811691161461090157600080fd5b6008805460ff60a060020a808304821615810274ff00000000000000000000000000000000000000001990931692909217928390557ff900592a77a3fc7d9e10afc446a9a561f13139aa4500db01207b92198e2fa49e929190910416604051901515815260200160405180910390a15060085460a060020a900460ff1690565b60065481565b600160a060020a033381166000908152600260209081526040808320938616835292905290812054808311156109e457600160a060020a033381166000908152600260209081526040808320938816835292905290812055610a1b565b6109f4818463ffffffff61126916565b600160a060020a033381166000908152600260209081526040808320938916835292905220555b600160a060020a0333811660008181526002602090815260408083209489168084529490915290819020547f8c5be1e5ebec7d5bd14f71427d1e84f3dd0314c0f7b2291e5b200ac8c7c3b925915190815260200160405180910390a35060019392505050565b6305e69ec081565b600354600090819033600160a060020a03908116911614610aa957600080fd5b600160a060020a0383161515610abe57600080fd5b5060078054600160a060020a0384811673ffffffffffffffffffffffffffffffffffffffff19831617928390559081169116817f6eafbe888d6820eae9a9afe73b56c4ee57e9d5ddd95f9a276ce00e1e34e6c70660405160405180910390a350600192915050565b600160a060020a031660009081526001602052604090205490565b60035460009033600160a060020a03908116911614610b5f57600080fd5b60035460a060020a900460ff1615610b7657600080fd5b6003805474ff0000000000000000000000000000000000000000191660a060020a1790557fae5184fba832cb2b1f702aca6117b8d265eaf03ad33eb133f19dde0f5920fa0860405160405180910390a150600190565b600354600160a060020a031681565b60408051908101604052600381527f4143450000000000000000000000000000000000000000000000000000000000602082015281565b600354600090819033600160a060020a03908116911614610c3257600080fd5b600160a060020a0383161515610c4757600080fd5b5060088054600160a060020a0384811673ffffffffffffffffffffffffffffffffffffffff19831617928390559081169116817fc83ac557199800e98db357637b4350ad3bce0ae12849c192d960d22e32e6cf2e60405160405180910390a350600192915050565b60085460009060a060020a900460ff1680610ce25750600160a060020a03331660009081526009602052604090205460ff165b1515610ced57600080fd5b610cf7838361127b565b9392505050565b60055481565b600354600160a060020a031690565b600160a060020a033381166000908152600260209081526040808320938616835292905290812054610d4b908363ffffffff61125a16565b600160a060020a0333811660008181526002602090815260408083209489168084529490915290819020849055919290917f8c5be1e5ebec7d5bd14f71427d1e84f3dd0314c0f7b2291e5b200ac8c7c3b92591905190815260200160405180910390a350600192915050565b6003546000908190819081908190819033600160a060020a03908116911614610ddf57600080fd5b60035460a060020a900460ff1615610df657600080fd5b60065460009011610e0657600080fd5b600654603c90049450601485029350839250610e28838063ffffffff61125a16565b600054909250610e3e908363ffffffff61125a16565b600055600554610e54908363ffffffff61125a16565b6005555060068054603c9006908190556000546309d5b340901115610e7557fe5b610e8d6309d5b3406305e69ec063ffffffff61126916565b6005541115610e9857fe5b600754600160a060020a0316600090815260016020526040902054610ec3908563ffffffff61125a16565b600754600160a060020a039081166000908152600160205260408082209390935560085490911681522054610efe908463ffffffff61125a16565b600854600160a060020a03908116600090815260016020526040908190209290925560075416907f0f6798a560793a54c3bcfe86a93cde1e73087d944c0ea20544137d41213968859086905190815260200160405180910390a2600754600160a060020a039081169030166000805160206113658339815191528660405190815260200160405180910390a3600854600160a060020a03167f0f6798a560793a54c3bcfe86a93cde1e73087d944c0ea20544137d41213968858460405190815260200160405180910390a2600854600160a060020a039081169030166000805160206113658339815191528560405190815260200160405180910390a360019550505050505090565b60045481565b600160a060020a03918216600090815260026020908152604080832093909416825291909152205490565b600754600160a060020a031681565b60035433600160a060020a0390811691161461106257600080fd5b600160a060020a038116151561107757600080fd5b600354600160a060020a0380831691167f8be0079c531659141344cd1fd0a4f28419497f9722a3daafe3b4186f6b6457e060405160405180910390a36003805473ffffffffffffffffffffffffffffffffffffffff1916600160a060020a0392909216919091179055565b6309d5b34081565b6000600160a060020a038316151561110157600080fd5b600160a060020a03841660009081526001602052604090205482111561112657600080fd5b600160a060020a038085166000908152600260209081526040808320339094168352929052205482111561115957600080fd5b600160a060020a038416600090815260016020526040902054611182908363ffffffff61126916565b600160a060020a0380861660009081526001602052604080822093909355908516815220546111b7908363ffffffff61125a16565b600160a060020a038085166000908152600160209081526040808320949094558783168252600281528382203390931682529190915220546111ff908363ffffffff61126916565b600160a060020a03808616600081815260026020908152604080832033861684529091529081902093909355908516916000805160206113658339815191529085905190815260200160405180910390a35060019392505050565b600082820183811015610cf757fe5b60008282111561127557fe5b50900390565b6000600160a060020a038316151561129257600080fd5b600160a060020a0333166000908152600160205260409020548211156112b757600080fd5b600160a060020a0333166000908152600160205260409020546112e0908363ffffffff61126916565b600160a060020a033381166000908152600160205260408082209390935590851681522054611315908363ffffffff61125a16565b600160a060020a0380851660008181526001602052604090819020939093559133909116906000805160206113658339815191529085905190815260200160405180910390a3506001929150505600ddf252ad1be2c89b69c2b068fc378daa952ba7f163c4a11628f55a4df523b3efa165627a7a72305820b090c2f01c29fd4bf20de033a327fcdc9b201bf98c265cd58a57cf16666e30d40029",
  "source": "pragma solidity ^0.4.18;\r\n\r\nimport 'zeppelin-solidity/contracts/math/SafeMath.sol';\r\nimport 'zeppelin-solidity/contracts/token/MintableToken.sol';\r\n\r\ncontract AceToken is MintableToken {\r\n    using SafeMath for uint256;\r\n    \r\n    // ERC20 constants\r\n    string public constant name = \"ACE Token\";\r\n    string public constant symbol = \"ACE\";\r\n    uint public constant decimals = 0;\r\n\r\n    // Minting constants\r\n    uint256 public constant MAXSOLD_SUPPLY = 99000000;\r\n    uint256 public constant HARDCAPPED_SUPPLY = 165000000;\r\n\r\n    uint256 public investorSupply = 0;\r\n    uint256 public extraSupply = 0;\r\n    uint256 public freeToExtraMinting = 0;\r\n\r\n    uint256 public constant DISTRIBUTION_INVESTORS = 60;\r\n    uint256 public constant DISTRIBUTION_TEAM      = 20;\r\n    uint256 public constant DISTRIBUTION_COMMUNITY = 20;\r\n\r\n    address public teamTokensHolder;\r\n    address public communityTokensHolder;\r\n\r\n    // Transfer rules\r\n    bool public transferAllowed = false;\r\n    mapping (address=>bool) public specialAllowed;\r\n\r\n    // Transfer rules events\r\n    event ToggleTransferAllowance(bool state);\r\n    event ToggleTransferAllowanceFor(address indexed who, bool state);\r\n\r\n    // Holders events\r\n    event ChangeCommunityHolder(address indexed from, address indexed to);\r\n    event ChangeTeamHolder(address indexed from, address indexed to);\r\n\r\n    /**\r\n    * @dev check transfer is allowed\r\n    */\r\n    modifier allowTransfer() {\r\n        require(transferAllowed || specialAllowed[msg.sender]);\r\n        _;\r\n    }\r\n\r\n    function AceToken() {\r\n      teamTokensHolder = msg.sender;\r\n      communityTokensHolder = msg.sender;\r\n\r\n      ChangeTeamHolder(0x0, teamTokensHolder);\r\n      ChangeCommunityHolder(0x0, communityTokensHolder);\r\n    }\r\n\r\n    /**\r\n    * @dev change team tokens holder\r\n    * @param _tokenHolder The address of next team tokens holder\r\n    */\r\n    function setTeamTokensHolder(address _tokenHolder) onlyOwner returns (bool) {\r\n      require(_tokenHolder != 0);\r\n      address temporaryEventAddress = teamTokensHolder;\r\n      teamTokensHolder = _tokenHolder;\r\n      ChangeTeamHolder(temporaryEventAddress, teamTokensHolder);\r\n      return true;\r\n    }\r\n\r\n    /**\r\n    * @dev change community tokens holder\r\n    * @param _tokenHolder The address of next community tokens holder\r\n    */\r\n    function setCommunityTokensHolder(address _tokenHolder) onlyOwner returns (bool) {\r\n      require(_tokenHolder != 0);\r\n      address temporaryEventAddress = communityTokensHolder;\r\n      communityTokensHolder = _tokenHolder;\r\n      ChangeCommunityHolder(temporaryEventAddress, communityTokensHolder);\r\n      return true;\r\n    }\r\n\r\n    /**\r\n    * @dev Doesn't allow to send funds on contract!\r\n    */\r\n    function () payable {\r\n        require(false);\r\n    }\r\n\r\n    function currentOwner() constant public returns (address) {\r\n      return owner;\r\n    }\r\n\r\n    /**\r\n    * @dev transfer token for a specified address if transfer is open\r\n    * @param _to The address to transfer to.\r\n    * @param _value The amount to be transferred.\r\n    */\r\n    function transfer(address _to, uint256 _value) allowTransfer returns (bool) {\r\n        return super.transfer(_to, _value);\r\n    }\r\n\r\n    \r\n    /**\r\n    * @dev Transfer tokens from one address to another if transfer is open\r\n    * @param _from address The address which you want to send tokens from\r\n    * @param _to address The address which you want to transfer to\r\n    * @param _value uint256 the amount of tokens to be transferred\r\n     */\r\n    function transferFrom(address _from, address _to, uint256 _value) allowTransfer returns (bool) {\r\n        return super.transferFrom(_from, _to, _value);\r\n    }\r\n\r\n    /**\r\n    * @dev Change current state of transfer allowence to opposite\r\n     */\r\n    function toggleTransfer() onlyOwner returns (bool) {\r\n        transferAllowed = !transferAllowed;\r\n        ToggleTransferAllowance(transferAllowed);\r\n        return transferAllowed;\r\n    }\r\n\r\n    /**\r\n    * @dev allow transfer for the given address against global rules\r\n    * @param _for addres The address of special allowed transfer (required for smart contracts)\r\n     */\r\n    function toggleTransferFor(address _for) onlyOwner returns (bool) {\r\n        specialAllowed[_for] = !specialAllowed[_for];\r\n        ToggleTransferAllowanceFor(_for, specialAllowed[_for]);\r\n        return specialAllowed[_for];\r\n    }\r\n\r\n    /**\r\n    * @dev Function to mint tokens for investor\r\n    * @param _to The address that will receive the minted tokens.\r\n    * @param _amount The amount of tokens to emit.\r\n    * @return A boolean that indicates if the operation was successful.\r\n    */\r\n    function mint(address _to, uint256 _amount) onlyOwner canMint returns (bool) {\r\n        require(_amount > 0);\r\n        totalSupply = totalSupply.add(_amount);\r\n        investorSupply = investorSupply.add(_amount);\r\n        freeToExtraMinting = freeToExtraMinting.add(_amount);\r\n\r\n        // Prevent to emit more than sale hardcap!\r\n        assert(investorSupply <= MAXSOLD_SUPPLY);\r\n        assert(totalSupply <= HARDCAPPED_SUPPLY);\r\n\r\n        balances[_to] = balances[_to].add(_amount);\r\n        Mint(_to, _amount);\r\n        Transfer(address(this), _to, _amount);\r\n        return true;\r\n    }\r\n\r\n    function extraMint() onlyOwner canMint returns (bool) {\r\n      require(freeToExtraMinting > 0);\r\n\r\n      uint256 onePercent = freeToExtraMinting / DISTRIBUTION_INVESTORS;\r\n      uint256 teamPart = onePercent * DISTRIBUTION_TEAM;\r\n      uint256 communityPart = onePercent * DISTRIBUTION_COMMUNITY;\r\n      uint256 extraTokens = teamPart.add(communityPart);\r\n\r\n      totalSupply = totalSupply.add(extraTokens);\r\n      extraSupply = extraSupply.add(extraTokens);\r\n\r\n      uint256 leftToNextMinting = freeToExtraMinting % DISTRIBUTION_INVESTORS;\r\n      freeToExtraMinting = leftToNextMinting;\r\n\r\n      assert(totalSupply <= HARDCAPPED_SUPPLY);\r\n      assert(extraSupply <= HARDCAPPED_SUPPLY.sub(MAXSOLD_SUPPLY));\r\n\r\n      balances[teamTokensHolder] = balances[teamTokensHolder].add(teamPart);\r\n      balances[communityTokensHolder] = balances[communityTokensHolder].add(communityPart);\r\n\r\n      Mint(teamTokensHolder, teamPart);\r\n      Transfer(address(this), teamTokensHolder, teamPart);\r\n      Mint(communityTokensHolder, communityPart);\r\n      Transfer(address(this), communityTokensHolder, communityPart);\r\n\r\n      return true;\r\n    }\r\n\r\n    /**\r\n    * @dev Increase approved amount to spend \r\n    * @param _spender The address which will spend the funds.\r\n    * @param _addedValue The amount of tokens to increase already approved amount. \r\n     */\r\n    function increaseApproval (address _spender, uint _addedValue) returns (bool success) {\r\n        allowed[msg.sender][_spender] = allowed[msg.sender][_spender].add(_addedValue);\r\n        Approval(msg.sender, _spender, allowed[msg.sender][_spender]);\r\n        return true;\r\n    }\r\n\r\n    /**\r\n    * @dev Decrease approved amount to spend \r\n    * @param _spender The address which will spend the funds.\r\n    * @param _subtractedValue The amount of tokens to decrease already approved amount. \r\n     */\r\n    function decreaseApproval (address _spender, uint _subtractedValue) returns (bool success) {\r\n        uint oldValue = allowed[msg.sender][_spender];\r\n        if (_subtractedValue > oldValue) {\r\n            allowed[msg.sender][_spender] = 0;\r\n        } else {\r\n            allowed[msg.sender][_spender] = oldValue.sub(_subtractedValue);\r\n        }\r\n        Approval(msg.sender, _spender, allowed[msg.sender][_spender]);\r\n        return true;\r\n    }\r\n}",
  "sourcePath": "C:\\MD\\Dev\\Solidity\\Auction\\contracts\\AceTokenMock.sol",
  "compiler": {
    "name": "solc",
    "version": "0.4.18+commit.9cf6e910.Emscripten.clang"
  },
  "schemaVersion": "1.0.1",
  "updatedAt": "2017-12-11T22:10:19.361Z"
}