{
  "contractName": "Auction",
  "abi": [
    {
      "constant": false,
      "inputs": [],
      "name": "withdraw",
      "outputs": [
        {
          "name": "success",
          "type": "bool"
        }
      ],
      "payable": false,
      "stateMutability": "nonpayable",
      "type": "function"
    },
    {
      "constant": true,
      "inputs": [],
      "name": "canceled",
      "outputs": [
        {
          "name": "",
          "type": "bool"
        }
      ],
      "payable": false,
      "stateMutability": "view",
      "type": "function"
    },
    {
      "constant": false,
      "inputs": [
        {
          "name": "tokens",
          "type": "uint256"
        }
      ],
      "name": "bid",
      "outputs": [
        {
          "name": "success",
          "type": "bool"
        }
      ],
      "payable": true,
      "stateMutability": "payable",
      "type": "function"
    },
    {
      "constant": true,
      "inputs": [],
      "name": "endSeconds",
      "outputs": [
        {
          "name": "",
          "type": "uint256"
        }
      ],
      "payable": false,
      "stateMutability": "view",
      "type": "function"
    },
    {
      "constant": true,
      "inputs": [],
      "name": "wallet",
      "outputs": [
        {
          "name": "",
          "type": "address"
        }
      ],
      "payable": false,
      "stateMutability": "view",
      "type": "function"
    },
    {
      "constant": true,
      "inputs": [
        {
          "name": "",
          "type": "address"
        }
      ],
      "name": "tokenBalances",
      "outputs": [
        {
          "name": "",
          "type": "uint256"
        }
      ],
      "payable": false,
      "stateMutability": "view",
      "type": "function"
    },
    {
      "constant": false,
      "inputs": [
        {
          "name": "_managedBidder",
          "type": "uint64"
        },
        {
          "name": "_managedBid",
          "type": "uint256"
        }
      ],
      "name": "managedBid",
      "outputs": [
        {
          "name": "success",
          "type": "bool"
        }
      ],
      "payable": false,
      "stateMutability": "nonpayable",
      "type": "function"
    },
    {
      "constant": true,
      "inputs": [],
      "name": "owner",
      "outputs": [
        {
          "name": "",
          "type": "address"
        }
      ],
      "payable": false,
      "stateMutability": "view",
      "type": "function"
    },
    {
      "constant": false,
      "inputs": [],
      "name": "cancelAuction",
      "outputs": [
        {
          "name": "success",
          "type": "bool"
        }
      ],
      "payable": false,
      "stateMutability": "nonpayable",
      "type": "function"
    },
    {
      "constant": true,
      "inputs": [],
      "name": "highestBidder",
      "outputs": [
        {
          "name": "",
          "type": "address"
        }
      ],
      "payable": false,
      "stateMutability": "view",
      "type": "function"
    },
    {
      "constant": true,
      "inputs": [
        {
          "name": "",
          "type": "address"
        }
      ],
      "name": "etherBalances",
      "outputs": [
        {
          "name": "",
          "type": "uint256"
        }
      ],
      "payable": false,
      "stateMutability": "view",
      "type": "function"
    },
    {
      "constant": true,
      "inputs": [],
      "name": "highestManagedBidder",
      "outputs": [
        {
          "name": "",
          "type": "uint64"
        }
      ],
      "payable": false,
      "stateMutability": "view",
      "type": "function"
    },
    {
      "constant": false,
      "inputs": [
        {
          "name": "_weiPerToken",
          "type": "uint256"
        }
      ],
      "name": "setWeiPerToken",
      "outputs": [],
      "payable": false,
      "stateMutability": "nonpayable",
      "type": "function"
    },
    {
      "constant": true,
      "inputs": [],
      "name": "finalized",
      "outputs": [
        {
          "name": "",
          "type": "bool"
        }
      ],
      "payable": false,
      "stateMutability": "view",
      "type": "function"
    },
    {
      "constant": true,
      "inputs": [],
      "name": "highestBid",
      "outputs": [
        {
          "name": "",
          "type": "uint256"
        }
      ],
      "payable": false,
      "stateMutability": "view",
      "type": "function"
    },
    {
      "constant": true,
      "inputs": [],
      "name": "item",
      "outputs": [
        {
          "name": "",
          "type": "string"
        }
      ],
      "payable": false,
      "stateMutability": "view",
      "type": "function"
    },
    {
      "constant": false,
      "inputs": [],
      "name": "finalizeAuction",
      "outputs": [
        {
          "name": "",
          "type": "bool"
        }
      ],
      "payable": false,
      "stateMutability": "nonpayable",
      "type": "function"
    },
    {
      "constant": true,
      "inputs": [],
      "name": "token",
      "outputs": [
        {
          "name": "",
          "type": "address"
        }
      ],
      "payable": false,
      "stateMutability": "view",
      "type": "function"
    },
    {
      "inputs": [
        {
          "name": "_owner",
          "type": "address"
        },
        {
          "name": "_wallet",
          "type": "address"
        },
        {
          "name": "_token",
          "type": "address"
        },
        {
          "name": "_endSeconds",
          "type": "uint256"
        },
        {
          "name": "_weiPerToken",
          "type": "uint256"
        },
        {
          "name": "_maxTokens",
          "type": "uint256"
        },
        {
          "name": "_item",
          "type": "string"
        },
        {
          "name": "_allowManagedBids",
          "type": "bool"
        }
      ],
      "payable": false,
      "stateMutability": "nonpayable",
      "type": "constructor"
    },
    {
      "payable": true,
      "stateMutability": "payable",
      "type": "fallback"
    },
    {
      "anonymous": false,
      "inputs": [
        {
          "indexed": true,
          "name": "bidder",
          "type": "address"
        },
        {
          "indexed": true,
          "name": "totalBidInEther",
          "type": "uint256"
        },
        {
          "indexed": true,
          "name": "tokensBid",
          "type": "uint256"
        }
      ],
      "name": "Bid",
      "type": "event"
    },
    {
      "anonymous": false,
      "inputs": [
        {
          "indexed": true,
          "name": "bidder",
          "type": "uint64"
        },
        {
          "indexed": true,
          "name": "bid",
          "type": "uint256"
        }
      ],
      "name": "ManagedBid",
      "type": "event"
    },
    {
      "anonymous": false,
      "inputs": [
        {
          "indexed": true,
          "name": "bidder",
          "type": "address"
        },
        {
          "indexed": true,
          "name": "managedBidder",
          "type": "uint64"
        },
        {
          "indexed": true,
          "name": "bid",
          "type": "uint256"
        }
      ],
      "name": "NewHighestBidder",
      "type": "event"
    },
    {
      "anonymous": false,
      "inputs": [
        {
          "indexed": true,
          "name": "withdrawer",
          "type": "address"
        },
        {
          "indexed": true,
          "name": "etherAmount",
          "type": "uint256"
        },
        {
          "indexed": true,
          "name": "tokensAmount",
          "type": "uint256"
        }
      ],
      "name": "Withdrawal",
      "type": "event"
    },
    {
      "anonymous": false,
      "inputs": [
        {
          "indexed": true,
          "name": "bidder",
          "type": "address"
        },
        {
          "indexed": true,
          "name": "managedBidder",
          "type": "uint64"
        },
        {
          "indexed": true,
          "name": "amount",
          "type": "uint256"
        }
      ],
      "name": "Finalized",
      "type": "event"
    },
    {
      "anonymous": false,
      "inputs": [
        {
          "indexed": true,
          "name": "newEndtime",
          "type": "uint256"
        }
      ],
      "name": "ExtendedEndTime",
      "type": "event"
    },
    {
      "anonymous": false,
      "inputs": [],
      "name": "Canceled",
      "type": "event"
    }
  ],
  "bytecode": "0x606060405234156200001057600080fd5b60405162000f6238038062000f6283398101604052808051919060200180519190602001805191906020018051919060200180519190602001805191906020018051820191906020018051915050600160a060020a03881615156200007457600080fd5b600160a060020a03871615156200008a57600080fd5b600160a060020a0386161515620000a057600080fd5b428511620000ad57600080fd5b66038d7ea4c6800084118015620000ca57506611c37937e0800084105b1515620000d657600080fd5b6103e8831115620000e657600080fd5b60038054600160a060020a03808b16600160a060020a031992831617909255600480548a8416908316179055600080549289169290911691909117905560058590556001849055600283905560068280516200014792916020019062000167565b50600c805460ff1916911515919091179055506200020c95505050505050565b828054600181600116156101000203166002900490600052602060002090601f016020900481019282601f10620001aa57805160ff1916838001178555620001da565b82800160010185558215620001da579182015b82811115620001da578251825591602001919060010190620001bd565b50620001e8929150620001ec565b5090565b6200020991905b80821115620001e85760008155600101620001f3565b90565b610d46806200021c6000396000f3006060604052600436106100e25763ffffffff60e060020a6000350416633ccfd60b81146100ef5780633f9942ff14610116578063454a2ab3146101295780634c936ea814610134578063521eb27314610159578063523fba7f1461018857806386c1497c146101a75780638da5cb5b146101ca5780638fa8b790146101dd57806391f90157146101f05780639653f8a1146102035780639b412150146102225780639ff7971b14610252578063b3f05b971461026a578063d57bde791461027d578063f2a4a82e14610290578063f77282ab1461031a578063fc0c546a1461032d575b6100ec6000610340565b50005b34156100fa57600080fd5b6101026105d2565b604051901515815260200160405180910390f35b341561012157600080fd5b610102610782565b610102600435610340565b341561013f57600080fd5b61014761078b565b60405190815260200160405180910390f35b341561016457600080fd5b61016c610791565b604051600160a060020a03909116815260200160405180910390f35b341561019357600080fd5b610147600160a060020a03600435166107a0565b34156101b257600080fd5b61010267ffffffffffffffff600435166024356107b2565b34156101d557600080fd5b61016c610913565b34156101e857600080fd5b610102610922565b34156101fb57600080fd5b61016c61099d565b341561020e57600080fd5b610147600160a060020a03600435166109ac565b341561022d57600080fd5b6102356109be565b60405167ffffffffffffffff909116815260200160405180910390f35b341561025d57600080fd5b6102686004356109d5565b005b341561027557600080fd5b610102610a3a565b341561028857600080fd5b610147610a48565b341561029b57600080fd5b6102a3610a4e565b60405160208082528190810183818151815260200191508051906020019080838360005b838110156102df5780820151838201526020016102c7565b50505050905090810190601f16801561030c5780820380516001836020036101000a031916815260200191505b509250505060405180910390f35b341561032557600080fd5b610102610aec565b341561033857600080fd5b61016c610d0b565b6000806000806005544210151561035657600080fd5b60075460ff161561036657600080fd5b60035433600160a060020a039081169116141561038257600080fd5b60008511156104755760008054600160a060020a0316906323b872dd903390309089906040516020015260405160e060020a63ffffffff8616028152600160a060020a0393841660048201529190921660248201526044810191909152606401602060405180830381600087803b15156103fb57600080fd5b6102c65a03f1151561040c57600080fd5b50505060405180519050151561042157600080fd5b600160a060020a0333166000908152600b6020526040902054600254908601925082111561044e57600080fd5b600154600160a060020a0333166000908152600b6020526040902083905582029250610482565b6000341161048257600080fd5b50600160a060020a0333166000908152600a6020526040902080543401908190556008549281019283111561058f5760088390556009805473ffffffffffffffffffffffffffffffffffffffff191633600160a060020a03908116919091177fffffffff0000000000000000ffffffffffffffffffffffffffffffffffffffff811692839055859267ffffffffffffffff60a060020a9091041691167fd633a02882a26d217fd32a2832404051491e742850285256d9dfbdb3e7da651560405160405180910390a46107084260055403101561058f57610708420160058190557fe101c7ac01502247f73a16bc024ac8cdeca20aedd05f0e194a413358043974bd60405160405180910390a25b848333600160a060020a03167f19421268847f42dd61705778018ddfc43bcdce8517e7a630acb12f122c70948160405160405180910390a4506001949350505050565b6009546000908190819033600160a060020a0390811691161415806105f9575060075460ff165b151561060457600080fd5b600160a060020a0333166000908152600b602052604081205492508211156106c157600160a060020a03338181166000908152600b602052604080822082905581549093169263a9059cbb92918691516020015260405160e060020a63ffffffff8516028152600160a060020a0390921660048301526024820152604401602060405180830381600087803b151561069b57600080fd5b6102c65a03f115156106ac57600080fd5b5050506040518051905015156106c157600080fd5b50600160a060020a0333166000908152600a60205260408120549081111561072757600160a060020a0333166000818152600a60205260408082209190915582156108fc0290839051600060405180830381858888f19350505050151561072757600080fd5b60008211806107365750600081115b151561074157600080fd5b818133600160a060020a03167fdf273cb619d95419a9cd0ec88123a0538c85064229baa6363788f743fff90deb60405160405180910390a460019250505090565b60075460ff1681565b60055481565b600454600160a060020a031681565b600b6020526000908152604090205481565b60055460009042106107c357600080fd5b60075460ff16156107d357600080fd5b60035433600160a060020a039081169116146107ee57600080fd5b600c5460ff1615156107ff57600080fd5b6008548211156108d2576008829055600980547fffffffff000000000000000000000000000000000000000000000000000000001660a060020a67ffffffffffffffff86811682029290921792839055849290810490911690600160a060020a03167fd633a02882a26d217fd32a2832404051491e742850285256d9dfbdb3e7da651560405160405180910390a4610708426005540310156108d257610708420160058190557fe101c7ac01502247f73a16bc024ac8cdeca20aedd05f0e194a413358043974bd60405160405180910390a25b818367ffffffffffffffff167f18a7ab87afd10104bc436ca632cd189b747830ba7bbdb1729260ca549ac16e6b60405160405180910390a350600192915050565b600354600160a060020a031681565b60035460009033600160a060020a0390811691161461094057600080fd5b600554421061094e57600080fd5b60075460ff161561095e57600080fd5b6007805460ff191660011790557f1afb0ae590df277bcb3a37f88612725bf1f7df4755792b1548a7efe77985ff7760405160405180910390a150600190565b600954600160a060020a031681565b600a6020526000908152604090205481565b60095460a060020a900467ffffffffffffffff1681565b60055442106109e357600080fd5b60075460ff16156109f357600080fd5b60035433600160a060020a03908116911614610a0e57600080fd5b66038d7ea4c6800081118015610a2a57506611c37937e0800081105b1515610a3557600080fd5b600155565b600754610100900460ff1681565b60085481565b60068054600181600116156101000203166002900480601f016020809104026020016040519081016040528092919081815260200182805460018160011615610100020316600290048015610ae45780601f10610ab957610100808354040283529160200191610ae4565b820191906000526020600020905b815481529060010190602001808311610ac757829003601f168201915b505050505081565b6003546000908190819033600160a060020a03908116911614610b0e57600080fd5b60075460ff1615610b1e57600080fd5b6005544211610b2c57600080fd5b600754610100900460ff1615610b4157600080fd5b600954600160a060020a031615610ca657600954600160a060020a03166000908152600b60205260408120549250821115610c1957600954600160a060020a039081166000908152600b602052604080822082905581546004549084169363a9059cbb93911691869190516020015260405160e060020a63ffffffff8516028152600160a060020a0390921660048301526024820152604401602060405180830381600087803b1515610bf357600080fd5b6102c65a03f11515610c0457600080fd5b505050604051805190501515610c1957600080fd5b50600954600160a060020a03166000908152600a602052604081205490811115610c8c57600954600160a060020a039081166000908152600a6020526040808220919091556004549091169082156108fc0290839051600060405180830381858888f193505050501515610c8c57600080fd5b6000821180610c9b5750600081115b1515610ca657600080fd5b6007805461ff00191661010017905560085460095467ffffffffffffffff60a060020a82041690600160a060020a03167fd464a66f04d6da2ca32af295cd214bb83feb2040ece72e5373716e9243498afe60405160405180910390a460019250505090565b600054600160a060020a0316815600a165627a7a72305820a2503ddd621a9c10273ade7a2b9ab4b117bcf8599daf4b542f29f7d1567e6d3b0029",
  "source": "pragma solidity ^0.4.18;\r\n\r\ncontract ERC20Basic {\r\n    function transferFrom(address from, address to, uint256 value) public returns (bool);\r\n    function transfer(address to, uint256 value) public returns (bool);\r\n}\r\n\r\ncontract Auction {\r\n\r\n    ERC20Basic public token;\r\n    uint256 weiPerToken;\r\n    uint256 maxTokens;\r\n\r\n    address public owner;\r\n    address public wallet;\r\n\r\n    uint256 public endSeconds;\r\n\r\n    string public item;\r\n\r\n    bool public canceled;\r\n    bool public finalized;\r\n\r\n    uint256 public highestBid;\r\n    address public highestBidder;\r\n    uint64 public highestManagedBidder;\r\n\r\n    mapping(address => uint256) public etherBalances;\r\n    mapping(address => uint256) public tokenBalances;\r\n    \r\n    bool allowManagedBids;\r\n\r\n    // bool ownerHasWithdrawn;\r\n\r\n    event Bid(address indexed bidder, uint256 indexed totalBidInEther, uint256 indexed tokensBid);\r\n    event ManagedBid(uint64 indexed bidder, uint256 indexed bid);\r\n    event NewHighestBidder(address indexed bidder, uint64 indexed managedBidder, uint256 indexed bid);\r\n    event Withdrawal(address indexed withdrawer, uint256 indexed etherAmount, uint256 indexed tokensAmount);\r\n    event Finalized(address indexed bidder, uint64 indexed managedBidder, uint256 indexed amount);\r\n    event ExtendedEndTime(uint256 indexed newEndtime);\r\n    event Canceled();\r\n\r\n    modifier onlyOwner {\r\n        require (msg.sender == owner);\r\n        _;\r\n    }\r\n\r\n    modifier onlyNotOwner {\r\n        require (msg.sender != owner);\r\n        _;\r\n    }\r\n\r\n    modifier onlyBeforeEnd {\r\n        require (now < endSeconds);\r\n        _;\r\n    }\r\n\r\n    modifier onlyAfterEnd {\r\n        require (now > endSeconds);\r\n        _;\r\n    }\r\n\r\n    modifier onlyNotCanceled {\r\n        require (!canceled);\r\n        _;\r\n    }\r\n\r\n    modifier onlyAllowedManagedBids {\r\n        require (allowManagedBids);\r\n        _;\r\n    }\r\n\r\n\r\n    function Auction(address _owner, address _wallet, address _token,\r\n        uint _endSeconds, \r\n        uint256 _weiPerToken, uint256 _maxTokens, string _item, bool _allowManagedBids) \r\n        public \r\n    {\r\n        require(_owner != address(0x0));\r\n        require(_wallet != address(0x0));\r\n        require(_token != address(0x0));\r\n        require (_endSeconds > now);\r\n        require (_weiPerToken > (1e15) && _weiPerToken < 5 * (1e15));\r\n        require(_maxTokens <= 1000);\r\n        \r\n        owner = _owner;\r\n        wallet = _wallet;\r\n        token = ERC20Basic(_token);\r\n        endSeconds = _endSeconds;\r\n        weiPerToken = _weiPerToken;\r\n        maxTokens = _maxTokens;\r\n        item = _item;\r\n        allowManagedBids = _allowManagedBids;\r\n    }\r\n\r\n\r\n    function () \r\n        payable\r\n        public\r\n    {\r\n        bid(0);\r\n    }\r\n\r\n\r\n    function bid(uint256 tokens)\r\n        payable\r\n        onlyBeforeEnd\r\n        onlyNotCanceled\r\n        onlyNotOwner\r\n        public\r\n        returns (bool success)\r\n    {\r\n        uint256 totalBid;\r\n\r\n        if (tokens > 0) {\r\n            // sender must approve transfer before calling this function\r\n            require(token.transferFrom(msg.sender, this, tokens));\r\n            // safe math is already in transferFrom\r\n            uint256 tokenBid = tokenBalances[msg.sender] + tokens;\r\n            require(tokenBid <= maxTokens);\r\n            totalBid = tokenBid * weiPerToken;\r\n            tokenBalances[msg.sender] = tokenBid;\r\n        } else {\r\n            require(msg.value > 0);\r\n        }\r\n\r\n        uint256 etherBid = etherBalances[msg.sender] + msg.value;\r\n        etherBalances[msg.sender] = etherBid;\r\n        totalBid = totalBid + etherBid;\r\n\r\n        if (totalBid > highestBid) {\r\n            highestBid = totalBid;\r\n            highestBidder = msg.sender;\r\n            highestManagedBidder = 0;\r\n            NewHighestBidder(highestBidder, highestManagedBidder, highestBid);\r\n            if ((endSeconds - now) < 1800) {\r\n                endSeconds = now + 1800;\r\n                ExtendedEndTime(endSeconds);\r\n            }\r\n        }\r\n        Bid(msg.sender, totalBid, tokens);\r\n        return true;\r\n    }\r\n\r\n\r\n    function managedBid(uint64 _managedBidder, uint256 _managedBid)\r\n        onlyBeforeEnd\r\n        onlyNotCanceled\r\n        onlyOwner\r\n        onlyAllowedManagedBids\r\n        public\r\n        returns (bool success)\r\n    {\r\n        if (_managedBid > highestBid) {\r\n            highestBid = _managedBid;\r\n            highestBidder = address(0);\r\n            highestManagedBidder = _managedBidder;\r\n            NewHighestBidder(highestBidder, highestManagedBidder, highestBid);\r\n            if ((endSeconds - now) < 1800) {\r\n                endSeconds = now + 1800;\r\n                ExtendedEndTime(endSeconds);\r\n            }\r\n        }\r\n        ManagedBid(_managedBidder, _managedBid);\r\n        return true;\r\n    }\r\n\r\n    function setWeiPerToken(uint256 _weiPerToken)\r\n        onlyBeforeEnd\r\n        onlyNotCanceled\r\n        onlyOwner\r\n        public\r\n    {\r\n        require (_weiPerToken > (1e15) && _weiPerToken < 5 * (1e15));\r\n        weiPerToken = _weiPerToken;\r\n    }\r\n\r\n    function withdraw()\r\n        public\r\n        returns (bool success)\r\n    {\r\n        // anyone could withdraw at any time except the highest bidder\r\n        // if canceled, the highest bidder could withdraw as well\r\n        require((msg.sender != highestBidder) || canceled);\r\n\r\n        uint256 tokenBid = tokenBalances[msg.sender];\r\n        if (tokenBid > 0) {\r\n            tokenBalances[msg.sender] = 0;\r\n            require(token.transfer(msg.sender, tokenBid));\r\n        }\r\n\r\n        uint256 etherBid = etherBalances[msg.sender];\r\n        if (etherBid > 0) {\r\n            etherBalances[msg.sender] = 0;\r\n            require(msg.sender.send(etherBid));\r\n        }\r\n\r\n        require(tokenBid > 0 || etherBid > 0);\r\n\r\n        Withdrawal(msg.sender, etherBid, tokenBid);\r\n\r\n        return true;\r\n    }\r\n\r\n\r\n    function finalizeAuction()\r\n        onlyOwner\r\n        onlyNotCanceled\r\n        onlyAfterEnd\r\n        public\r\n        returns (bool)\r\n    {\r\n        require(!finalized);\r\n\r\n        if (highestBidder != address(0)) {\r\n            uint256 tokenBid = tokenBalances[highestBidder];\r\n            if (tokenBid > 0) {\r\n                tokenBalances[highestBidder] = 0;\r\n                require(token.transfer(wallet, tokenBid));\r\n            }\r\n\r\n            uint256 etherBid = etherBalances[highestBidder];\r\n            if (etherBid > 0) {\r\n                etherBalances[highestBidder] = 0;\r\n                require(wallet.send(etherBid));\r\n            }\r\n\r\n            require(tokenBid > 0 || etherBid > 0);\r\n\r\n            // this condition could break after we have added ability to change the rate after ctor\r\n            // and it won't be possible to set weiPerToken due to onlyAfterEnd/onlyBeforeEnd different modifiers\r\n            // ... require(tokenBid * weiPerToken + etherBid == highestBid);\r\n        }\r\n\r\n        finalized = true;\r\n        Finalized(highestBidder, highestManagedBidder, highestBid);\r\n        return true;\r\n    }\r\n\r\n\r\n    function cancelAuction()\r\n        onlyOwner\r\n        onlyBeforeEnd\r\n        onlyNotCanceled\r\n        public\r\n        returns (bool success)\r\n    {\r\n        canceled = true;\r\n        Canceled();\r\n        return true;\r\n    }\r\n}\r\n\r\n\r\nlibrary AuctionFactory {\r\n\r\n    event AuctionProduced(address indexed addr, string _item);\r\n\r\n    function produce(address _wallet, uint _endSeconds, \r\n        uint256 _weiPerToken, uint256 _maxTokens, string _item, bool _allowManagedBids)\r\n        public\r\n        returns (address)\r\n    {\r\n        address addr = new Auction(msg.sender, _wallet, 0x06147110022B768BA8F99A8f385df11a151A9cc8, _endSeconds, _weiPerToken, _maxTokens, _item, _allowManagedBids);\r\n        AuctionProduced(addr, _item);\r\n        return addr;\r\n    }\r\n\r\n    function produceForOwner(address _owner, address _wallet, \r\n        uint _endSeconds, \r\n        uint256 _weiPerToken, uint256 _maxTokens, string _item, bool _allowManagedBids)\r\n        public\r\n        returns (address)\r\n    {\r\n        address addr = new Auction(_owner, _wallet, 0x06147110022B768BA8F99A8f385df11a151A9cc8, _endSeconds, _weiPerToken, _maxTokens, _item, _allowManagedBids);\r\n        AuctionProduced(addr, _item);\r\n        return addr;\r\n    }\r\n\r\n    // token for testing\r\n    function produceForOwnerCustomToken(address _owner, address _wallet, address _token,\r\n        uint _endSeconds, \r\n        uint256 _weiPerToken, uint256 _maxTokens, string _item, bool _allowManagedBids)\r\n        public\r\n        returns (address)\r\n    {\r\n        address addr = new Auction(_owner, _wallet, _token, _endSeconds, _weiPerToken, _maxTokens, _item, _allowManagedBids);\r\n        AuctionProduced(addr, _item);\r\n        return addr;\r\n    }\r\n}\r\n",
  "sourcePath": "C:\\MD\\Dev\\Solidity\\Auction\\contracts\\Auction.sol",
  "compiler": {
    "name": "solc",
    "version": "0.4.18+commit.9cf6e910.Emscripten.clang"
  },
  "schemaVersion": "1.0.1",
  "updatedAt": "2017-12-11T22:10:19.363Z"
}