{
  "contractName": "AuctionFactory",
  "abi": [
    {
      "constant": false,
      "inputs": [
        {
          "name": "_owner",
          "type": "address"
        },
        {
          "name": "_wallet",
          "type": "address"
        },
        {
          "name": "_endSeconds",
          "type": "uint256"
        },
        {
          "name": "_weiPerToken",
          "type": "uint256"
        },
        {
          "name": "_maxTokens",
          "type": "uint256"
        },
        {
          "name": "_item",
          "type": "string"
        },
        {
          "name": "_minPrice",
          "type": "uint256"
        },
        {
          "name": "_allowManagedBids",
          "type": "bool"
        }
      ],
      "name": "produceForOwner",
      "outputs": [
        {
          "name": "",
          "type": "address"
        }
      ],
      "payable": false,
      "stateMutability": "nonpayable",
      "type": "function"
    },
    {
      "constant": false,
      "inputs": [
        {
          "name": "_wallet",
          "type": "address"
        },
        {
          "name": "_endSeconds",
          "type": "uint256"
        },
        {
          "name": "_weiPerToken",
          "type": "uint256"
        },
        {
          "name": "_maxTokens",
          "type": "uint256"
        },
        {
          "name": "_item",
          "type": "string"
        },
        {
          "name": "_minPrice",
          "type": "uint256"
        },
        {
          "name": "_allowManagedBids",
          "type": "bool"
        }
      ],
      "name": "produce",
      "outputs": [
        {
          "name": "",
          "type": "address"
        }
      ],
      "payable": false,
      "stateMutability": "nonpayable",
      "type": "function"
    },
    {
      "constant": false,
      "inputs": [
        {
          "name": "_owner",
          "type": "address"
        },
        {
          "name": "_wallet",
          "type": "address"
        },
        {
          "name": "_token",
          "type": "address"
        },
        {
          "name": "_endSeconds",
          "type": "uint256"
        },
        {
          "name": "_weiPerToken",
          "type": "uint256"
        },
        {
          "name": "_maxTokens",
          "type": "uint256"
        },
        {
          "name": "_item",
          "type": "string"
        },
        {
          "name": "_minPrice",
          "type": "uint256"
        },
        {
          "name": "_allowManagedBids",
          "type": "bool"
        }
      ],
      "name": "produceForOwnerCustomToken",
      "outputs": [
        {
          "name": "",
          "type": "address"
        }
      ],
      "payable": false,
      "stateMutability": "nonpayable",
      "type": "function"
    },
    {
      "anonymous": false,
      "inputs": [
        {
          "indexed": true,
          "name": "addr",
          "type": "address"
        },
        {
          "indexed": false,
          "name": "_item",
          "type": "string"
        }
      ],
      "name": "AuctionProduced",
      "type": "event"
    }
  ],
  "bytecode": "0x6060604052341561000f57600080fd5b611c208061001e6000396000f3006060604052600436106100565763ffffffff7c01000000000000000000000000000000000000000000000000000000006000350416631f0a9d62811461005b578063414890a5146100e9578063587cf12714610154575b600080fd5b6100cd600160a060020a0360048035821691602480359091169160443591606435916084359160c49060a43590810190830135806020601f820181900481020160405190810160405281815292919060208401838380828437509496505084359460200135151593506101cb92505050565b604051600160a060020a03909116815260200160405180910390f35b6100cd60048035600160a060020a031690602480359160443591606435919060a49060843590810190830135806020601f8201819004810201604051908101604052818152929190602084018383808284375094965050843594602001351515935061037292505050565b6100cd60048035600160a060020a0390811691602480358316926044351691606435916084359160a4359160e49060c43590810190830135806020601f8201819004810201604051908101604052818152929190602084018383808284375094965050843594602001351515935061051892505050565b60008089897306147110022b768ba8f99a8f385df11a151a9cc88a8a8a8a8a8a6101f36106ac565b600160a060020a03808b168252898116602083015288166040820152606081018790526080810186905260a0810185905260e0810183905281151561010082015261012060c0820181815290820185818151815260200191508051906020019080838360005b83811015610271578082015183820152602001610259565b50505050905090810190601f16801561029e5780820380516001836020036101000a031916815260200191505b509a5050505050505050505050604051809103906000f08015156102c157600080fd5b905080600160a060020a03167fe24d31bb53bcdc4fab89533df5b646b59a1f3d9d09c1729c9a5ac8d2494475768660405160208082528190810183818151815260200191508051906020019080838360005b8381101561032b578082015183820152602001610313565b50505050905090810190601f1680156103585780820380516001836020036101000a031916815260200191505b509250505060405180910390a29998505050505050505050565b60008033897306147110022b768ba8f99a8f385df11a151a9cc88a8a8a8a8a8a61039a6106ac565b600160a060020a03808b168252898116602083015288166040820152606081018790526080810186905260a0810185905260e0810183905281151561010082015261012060c0820181815290820185818151815260200191508051906020019080838360005b83811015610418578082015183820152602001610400565b50505050905090810190601f1680156104455780820380516001836020036101000a031916815260200191505b509a5050505050505050505050604051809103906000f080151561046857600080fd5b905080600160a060020a03167fe24d31bb53bcdc4fab89533df5b646b59a1f3d9d09c1729c9a5ac8d2494475768660405160208082528190810183818151815260200191508051906020019080838360005b838110156104d25780820151838201526020016104ba565b50505050905090810190601f1680156104ff5780820380516001836020036101000a031916815260200191505b509250505060405180910390a298975050505050505050565b6000808a8a8a8a8a8a8a8a8a61052c6106ac565b600160a060020a03808b168252898116602083015288166040820152606081018790526080810186905260a0810185905260e0810183905281151561010082015261012060c0820181815290820185818151815260200191508051906020019080838360005b838110156105aa578082015183820152602001610592565b50505050905090810190601f1680156105d75780820380516001836020036101000a031916815260200191505b509a5050505050505050505050604051809103906000f08015156105fa57600080fd5b905080600160a060020a03167fe24d31bb53bcdc4fab89533df5b646b59a1f3d9d09c1729c9a5ac8d2494475768660405160208082528190810183818151815260200191508051906020019080838360005b8381101561066457808201518382015260200161064c565b50505050905090810190601f1680156106915780820380516001836020036101000a031916815260200191505b509250505060405180910390a29a9950505050505050505050565b604051611538806106bd833901905600606060405234156200001057600080fd5b60405162001538380380620015388339810160405280805191906020018051919060200180519190602001805191906020018051919060200180519190602001805182019190602001805191906020018051915050600160a060020a03891615156200007b57600080fd5b600160a060020a03881615156200009157600080fd5b600160a060020a0387161515620000a757600080fd5b428611620000b457600080fd5b66038d7ea4c6800085118015620000d15750662386f26fc1000085105b1515620000dd57600080fd5b6103e8841115620000ed57600080fd5b60008211620000fb57600080fd5b60038054600160a060020a03808c16600160a060020a031992831617909255600480548b841690831617905560008054928a169290911691909117905560058690556001859055600284905560068380516200015c92916020019062000182565b50600791909155600f805460ff1916911515919091179055506200022795505050505050565b828054600181600116156101000203166002900490600052602060002090601f016020900481019282601f10620001c557805160ff1916838001178555620001f5565b82800160010185558215620001f5579182015b82811115620001f5578251825591602001919060010190620001d8565b506200020392915062000207565b5090565b6200022491905b808211156200020357600081556001016200020e565b90565b61130180620002376000396000f3006060604052600436106101245763ffffffff60e060020a6000350416633ccfd60b8114610131578063454a2ab3146101585780634bb278f3146101635780634c936ea814610176578063521eb2731461019b578063523fba7f146101ca57806386c1497c146101e95780638da5cb5b1461020c57806390d0da9f1461021f57806391f901571461023e5780639653f8a1146102515780639914c2e3146102705780639a82a09a1461029f5780639b412150146102b25780639ff7971b146102e2578063b3f05b97146102fa578063d57bde791461030d578063e45be8eb14610320578063e6feaef714610333578063ea8a1af014610352578063ee8ddda014610365578063f2a4a82e1461037e578063f79c6c3d14610408578063fc0c546a14610427575b61012e600061043a565b50005b341561013c57600080fd5b61014461070e565b604051901515815260200160405180910390f35b61014460043561043a565b341561016e57600080fd5b6101446108be565b341561018157600080fd5b610189610b39565b60405190815260200160405180910390f35b34156101a657600080fd5b6101ae610b3f565b604051600160a060020a03909116815260200160405180910390f35b34156101d557600080fd5b610189600160a060020a0360043516610b4e565b34156101f457600080fd5b61014467ffffffffffffffff60043516602435610b60565b341561021757600080fd5b6101ae610ccf565b341561022a57600080fd5b610189600160a060020a0360043516610cde565b341561024957600080fd5b6101ae610d06565b341561025c57600080fd5b610189600160a060020a0360043516610d15565b341561027b57600080fd5b61014467ffffffffffffffff60043516602435600160a060020a0360443516610d27565b34156102aa57600080fd5b610144610f0a565b34156102bd57600080fd5b6102c5610f13565b60405167ffffffffffffffff909116815260200160405180910390f35b34156102ed57600080fd5b6102f8600435610f2a565b005b341561030557600080fd5b610144610f8f565b341561031857600080fd5b610189610f9d565b341561032b57600080fd5b610189610fa3565b341561033e57600080fd5b610189600160a060020a0360043516610fa9565b341561035d57600080fd5b610144610fbb565b341561037057600080fd5b610144600435602435611036565b341561038957600080fd5b610391611216565b60405160208082528190810183818151815260200191508051906020019080838360005b838110156103cd5780820151838201526020016103b5565b50505050905090810190601f1680156103fa5780820380516001836020036101000a031916815260200191505b509250505060405180910390f35b341561041357600080fd5b610189600160a060020a03600435166112b4565b341561043257600080fd5b6101ae6112c6565b6000806000806005544210151561045057600080fd5b60085460ff161561046057600080fd5b60035433600160a060020a039081169116141561047c57600080fd5b600160a060020a0333166000908152600d602052604081205493508511156105995760008054600160a060020a0316906323b872dd903390309089906040516020015260405160e060020a63ffffffff8616028152600160a060020a0393841660048201529190921660248201526044810191909152606401602060405180830381600087803b151561050e57600080fd5b6102c65a03f1151561051f57600080fd5b50505060405180519050151561053457600080fd5b600160a060020a0333166000908152600c60205260409020546001546002549087029490940193908601925082111561056c57600080fd5b600160a060020a0333166000908152600c60209081526040808320859055600d90915290208390556105a6565b600034116105a657600080fd5b50600160a060020a0333166000908152600b602090815260408083208054340190819055600e909252909120546009549382010192831180156105eb57506007548310155b156106cb576009839055600a805473ffffffffffffffffffffffffffffffffffffffff191633600160a060020a03908116919091177bffffffffffffffff000000000000000000000000000000000000000019811692839055859267ffffffffffffffff60a060020a9091041691167fd633a02882a26d217fd32a2832404051491e742850285256d9dfbdb3e7da651560405160405180910390a4610708426005540310156106cb57610708420160058190557fe101c7ac01502247f73a16bc024ac8cdeca20aedd05f0e194a413358043974bd60405160405180910390a25b848333600160a060020a03167f19421268847f42dd61705778018ddfc43bcdce8517e7a630acb12f122c70948160405160405180910390a4506001949350505050565b600a546000908190819033600160a060020a039081169116141580610735575060085460ff165b151561074057600080fd5b600160a060020a0333166000908152600c602052604081205492508211156107fd57600160a060020a03338181166000908152600c602052604080822082905581549093169263a9059cbb92918691516020015260405160e060020a63ffffffff8516028152600160a060020a0390921660048301526024820152604401602060405180830381600087803b15156107d757600080fd5b6102c65a03f115156107e857600080fd5b5050506040518051905015156107fd57600080fd5b50600160a060020a0333166000908152600b60205260408120549081111561086357600160a060020a0333166000818152600b60205260408082209190915582156108fc0290839051600060405180830381858888f19350505050151561086357600080fd5b60008211806108725750600081115b151561087d57600080fd5b818133600160a060020a03167fdf273cb619d95419a9cd0ec88123a0538c85064229baa6363788f743fff90deb60405160405180910390a460019250505090565b6003546000908190819033600160a060020a039081169116146108e057600080fd5b60085460ff16156108f057600080fd5b60055442116108fe57600080fd5b600854610100900460ff161561091357600080fd5b600a54600160a060020a031615610ad457600a54600160a060020a03166000908152600c60205260408120549250821115610a1957600a54600160a060020a039081166000908152600c602052604080822082905581546004549084169363a9059cbb93911691869190516020015260405160e060020a63ffffffff8516028152600160a060020a0390921660048301526024820152604401602060405180830381600087803b15156109c557600080fd5b6102c65a03f115156109d657600080fd5b5050506040518051905015156109eb57600080fd5b817f144cfb584575a95c6d1655784dec3c50bcf709ce1c080ea779c2c1302b98f1fb60405160405180910390a25b50600a54600160a060020a03166000908152600b602052604081205490811115610aba57600a54600160a060020a039081166000908152600b6020526040808220919091556004549091169082156108fc0290839051600060405180830381858888f193505050501515610a8c57600080fd5b807f3a9cb57006101e10b373dc2c650da8a23978dc6fe8f56eb32c94e8225757138560405160405180910390a25b6000821180610ac95750600081115b1515610ad457600080fd5b6008805461ff001916610100179055600954600a5467ffffffffffffffff60a060020a82041690600160a060020a03167fd464a66f04d6da2ca32af295cd214bb83feb2040ece72e5373716e9243498afe60405160405180910390a460019250505090565b60055481565b600454600160a060020a031681565b600c6020526000908152604090205481565b6005546000904210610b7157600080fd5b60085460ff1615610b8157600080fd5b60035433600160a060020a03908116911614610b9c57600080fd5b600f5460ff161515610bad57600080fd5b60095482118015610bc057506007548210155b15610c8e576009829055600a80547fffffffff000000000000000000000000000000000000000000000000000000001660a060020a67ffffffffffffffff86811682029290921792839055849290810490911690600160a060020a03167fd633a02882a26d217fd32a2832404051491e742850285256d9dfbdb3e7da651560405160405180910390a461070842600554031015610c8e57610708420160058190557fe101c7ac01502247f73a16bc024ac8cdeca20aedd05f0e194a413358043974bd60405160405180910390a25b818367ffffffffffffffff167f18a7ab87afd10104bc436ca632cd189b747830ba7bbdb1729260ca549ac16e6b60405160405180910390a350600192915050565b600354600160a060020a031681565b600160a060020a03166000908152600b6020908152604080832054600d909252909120540190565b600a54600160a060020a031681565b600b6020526000908152604090205481565b600080600060055442101515610d3c57600080fd5b60085460ff1615610d4c57600080fd5b60035433600160a060020a03908116911614610d6757600080fd5b600f5460ff161515610d7857600080fd5b600160a060020a0384161515610d8d57600080fd5b600160a060020a0384166000908152600e60205260409020548511610db157600080fd5b600160a060020a0384166000908152600e60205260409020859055610dd584610cde565b9150848201905060095481118015610def57506007548110155b15610ebc576009819055600a805473ffffffffffffffffffffffffffffffffffffffff1916600160a060020a03868116919091177bffffffffffffffff000000000000000000000000000000000000000019811690925586918391167ffde598201574fc16d0e04eeef4f63b2148f5fbefd1581219606e88a3daa1ebf060405160405180910390a461070842600554031015610ebc57610708420160058190557fe101c7ac01502247f73a16bc024ac8cdeca20aedd05f0e194a413358043974bd60405160405180910390a25b83600160a060020a0316858767ffffffffffffffff167fe8e9d4f404b66a54cb41148b6dd2c45a193c305eeeae7df2000cac4d730939c560405160405180910390a450600195945050505050565b60085460ff1681565b600a5460a060020a900467ffffffffffffffff1681565b6005544210610f3857600080fd5b60085460ff1615610f4857600080fd5b60035433600160a060020a03908116911614610f6357600080fd5b66038d7ea4c6800081118015610f7f5750662386f26fc1000081105b1515610f8a57600080fd5b600155565b600854610100900460ff1681565b60095481565b60075481565b600e6020526000908152604090205481565b60035460009033600160a060020a03908116911614610fd957600080fd5b6005544210610fe757600080fd5b60085460ff1615610ff757600080fd5b6008805460ff191660011790557f63b958841f79ab97cb5456da181454b9932c0e15a3b17f1cbd27e2a8bc61043760405160405180910390a150600190565b600a546000908190819033600160a060020a03908116911614158061105d575060085460ff165b151561106857600080fd5b600160a060020a0333166000908152600c602052604090205491508185111561109057600080fd5b600085111561113b57600160a060020a033381166000908152600c6020526040808220888603905581546004549084169363a9059cbb93911691899190516020015260405160e060020a63ffffffff8516028152600160a060020a0390921660048301526024820152604401602060405180830381600087803b151561111557600080fd5b6102c65a03f1151561112657600080fd5b50505060405180519050151561113b57600080fd5b50600160a060020a0333166000908152600b60205260409020548084111561116257600080fd5b60008411156111b957600160a060020a033381166000908152600b60205260409081902086840390556004549091169085156108fc0290869051600060405180830381858888f1935050505015156111b957600080fd5b60008211806111c85750600081115b15156111d357600080fd5b848433600160a060020a03167ff144b50aa464c4dc2ae38722104bbdb520e689fd0b2a2618cca3cd050b56588360405160405180910390a4506001949350505050565b60068054600181600116156101000203166002900480601f0160208091040260200160405190810160405280929190818152602001828054600181600116156101000203166002900480156112ac5780601f10611281576101008083540402835291602001916112ac565b820191906000526020600020905b81548152906001019060200180831161128f57829003601f168201915b505050505081565b600d6020526000908152604090205481565b600054600160a060020a0316815600a165627a7a723058205daed39437d700fbee2ef231094662991e76bb44fb511b14ebf90d2a28e70e0b0029a165627a7a7230582065e1ef8e9a370a2c2cf1cd94bbaed203c1977b6c3142be3e4082ba663f4440b70029",
  "source": "pragma solidity ^0.4.18;\r\n\r\ncontract ERC20Basic {\r\n    function transferFrom(address from, address to, uint256 value) public returns (bool);\r\n    function transfer(address to, uint256 value) public returns (bool);\r\n}\r\n\r\ncontract Auction {\r\n\r\n    ERC20Basic public token;\r\n    uint256 weiPerToken;\r\n    uint256 maxTokens;\r\n\r\n    address public owner;\r\n    address public wallet;\r\n\r\n    uint256 public endSeconds;\r\n\r\n    string public item;\r\n    uint256 public minPrice;\r\n\r\n    bool public cancelled;\r\n    bool public finalized;\r\n\r\n    uint256 public highestBid;\r\n    address public highestBidder;\r\n    uint64 public highestManagedBidder;\r\n\r\n    mapping(address => uint256) public etherBalances;\r\n    mapping(address => uint256) public tokenBalances;\r\n    mapping(address => uint256) public tokenBalancesInEther;\r\n    mapping(address => uint256) public managedBids;\r\n    \r\n    bool allowManagedBids;\r\n\r\n    // bool ownerHasWithdrawn;\r\n\r\n    event Bid(address indexed bidder, uint256 indexed totalBidInEther, uint256 indexed tokensBid);\r\n    event ManagedBid(uint64 indexed bidder, uint256 indexed bid);\r\n    event ManagedBid2(uint64 indexed bidder, uint256 indexed bid, address indexed knownManagedBidder);\r\n    event NewHighestBidder(address indexed bidder, uint64 indexed managedBidder, uint256 indexed bid);\r\n    event NewHighestBidder2(address indexed bidder, uint256 indexed bid, uint256 indexed managedBid);\r\n    event Withdrawal(address indexed withdrawer, uint256 indexed etherAmount, uint256 indexed tokensAmount);\r\n    event Charity(address indexed withdrawer, uint256 indexed etherAmount, uint256 indexed tokensAmount);\r\n    event Finalized(address indexed bidder, uint64 indexed managedBidder, uint256 indexed amount);\r\n    event FinalizedTokenTransfer(uint256 indexed tokensAmount);\r\n    event FinalizedEtherTransfer(uint256 indexed etherAmount);\r\n\r\n    event ExtendedEndTime(uint256 indexed newEndtime);\r\n    event Cancelled();\r\n\r\n    modifier onlyOwner {\r\n        require (msg.sender == owner);\r\n        _;\r\n    }\r\n\r\n    modifier onlyNotOwner {\r\n        require (msg.sender != owner);\r\n        _;\r\n    }\r\n\r\n    modifier onlyBeforeEnd {\r\n        require (now < endSeconds);\r\n        _;\r\n    }\r\n\r\n    modifier onlyAfterEnd {\r\n        require (now > endSeconds);\r\n        _;\r\n    }\r\n\r\n    modifier onlyNotCancelled {\r\n        require (!cancelled);\r\n        _;\r\n    }\r\n\r\n    modifier onlyAllowedManagedBids {\r\n        require (allowManagedBids);\r\n        _;\r\n    }\r\n\r\n\r\n    function Auction(\r\n        address _owner, \r\n        address _wallet, \r\n        address _token,\r\n        uint _endSeconds, \r\n        uint256 _weiPerToken, \r\n        uint256 _maxTokens,\r\n        string _item,\r\n        uint256 _minPrice,\r\n        bool _allowManagedBids\r\n    ) \r\n        public \r\n    {\r\n        require(_owner != address(0x0));\r\n        require(_wallet != address(0x0));\r\n        require(_token != address(0x0));\r\n        require (_endSeconds > now);\r\n        require (_weiPerToken > (1e15) && _weiPerToken < (1e16));\r\n        require(_maxTokens <= 1000);\r\n        require(_minPrice > 0);\r\n        \r\n        owner = _owner;\r\n        wallet = _wallet;\r\n        token = ERC20Basic(_token);\r\n        endSeconds = _endSeconds;\r\n        weiPerToken = _weiPerToken;\r\n        maxTokens = _maxTokens;\r\n        item = _item;\r\n        minPrice = _minPrice;\r\n        allowManagedBids = _allowManagedBids;\r\n    }\r\n\r\n\r\n    function () \r\n        payable\r\n        public\r\n    {\r\n        bid(0);\r\n    }\r\n\r\n\r\n    function bid(uint256 tokens)\r\n        payable\r\n        onlyBeforeEnd\r\n        onlyNotCancelled\r\n        onlyNotOwner\r\n        public\r\n        returns (bool success)\r\n    {\r\n        uint256 totalBid = tokenBalancesInEther[msg.sender];\r\n\r\n        if (tokens > 0) {\r\n            // sender must approve transfer before calling this function\r\n            require(token.transferFrom(msg.sender, this, tokens));\r\n            // safe math is already in transferFrom\r\n            uint256 tokenBid = tokenBalances[msg.sender] + tokens;\r\n            totalBid = totalBid + tokens * weiPerToken;\r\n            require(tokenBid <= maxTokens);\r\n            \r\n            tokenBalances[msg.sender] = tokenBid;\r\n            tokenBalancesInEther[msg.sender] = totalBid;\r\n        } else {\r\n            require(msg.value > 0);\r\n        }\r\n\r\n        uint256 etherBid = etherBalances[msg.sender] + msg.value;\r\n        etherBalances[msg.sender] = etherBid;\r\n        totalBid = totalBid + etherBid + managedBids[msg.sender];\r\n\r\n        if (totalBid > highestBid && totalBid >= minPrice) {\r\n            highestBid = totalBid;\r\n            highestBidder = msg.sender;\r\n            highestManagedBidder = 0;\r\n            NewHighestBidder(highestBidder, highestManagedBidder, highestBid);\r\n            if ((endSeconds - now) < 1800) {\r\n                endSeconds = now + 1800;\r\n                ExtendedEndTime(endSeconds);\r\n            }\r\n        }\r\n        Bid(msg.sender, totalBid, tokens);\r\n        return true;\r\n    }\r\n\r\n    function managedBid(uint64 _managedBidder, uint256 _managedBid)\r\n        onlyBeforeEnd\r\n        onlyNotCancelled\r\n        onlyOwner\r\n        onlyAllowedManagedBids\r\n        public\r\n        returns (bool success)\r\n    {\r\n        if (_managedBid > highestBid && _managedBid >= minPrice) {\r\n            highestBid = _managedBid;\r\n            highestBidder = address(0);\r\n            highestManagedBidder = _managedBidder;\r\n            NewHighestBidder(highestBidder, highestManagedBidder, highestBid);\r\n            if ((endSeconds - now) < 1800) {\r\n                endSeconds = now + 1800;\r\n                ExtendedEndTime(endSeconds);\r\n            }\r\n        }\r\n        ManagedBid(_managedBidder, _managedBid);\r\n        return true;\r\n    }\r\n\r\n    function managedBid2(uint64 _managedBidder, uint256 _managedBid, address _knownManagedBidder)\r\n        onlyBeforeEnd\r\n        onlyNotCancelled\r\n        onlyOwner\r\n        onlyAllowedManagedBids\r\n        public\r\n        returns (bool success)\r\n    {\r\n        // NB: _managedBid is the total amount of all bids from backend\r\n        // calculated without any direct bid. It is important to calculate direct bids\r\n        // inside this transaction and make the _knownManagedBidder the highest\r\n        // to prevent this wallet to withdraw money and remain the highest\r\n\r\n        require(_knownManagedBidder != address(0));\r\n\r\n        require(_managedBid > managedBids[_knownManagedBidder]);\r\n        managedBids[_knownManagedBidder] = _managedBid;\r\n\r\n        uint256 direct = totalDirectBid(_knownManagedBidder);\r\n        uint256 totalBid = direct + _managedBid;\r\n        if (totalBid > highestBid && totalBid >= minPrice) {\r\n            highestBid = totalBid;\r\n            highestBidder = _knownManagedBidder;\r\n            highestManagedBidder = 0;\r\n            NewHighestBidder2(highestBidder, highestBid, _managedBid);\r\n            if ((endSeconds - now) < 1800) {\r\n                endSeconds = now + 1800;\r\n                ExtendedEndTime(endSeconds);\r\n            }\r\n        }\r\n        ManagedBid2(_managedBidder, _managedBid, _knownManagedBidder);\r\n        return true;\r\n    }\r\n\r\n    function totalDirectBid(address _address)\r\n        constant\r\n        public\r\n        returns (uint256 _totalBid)\r\n    {\r\n        return tokenBalancesInEther[_address] + etherBalances[_address];\r\n    }\r\n\r\n\r\n    function setWeiPerToken(uint256 _weiPerToken)\r\n        onlyBeforeEnd\r\n        onlyNotCancelled\r\n        onlyOwner\r\n        public\r\n    {\r\n        require (_weiPerToken > (1e15) && _weiPerToken < (1e16));\r\n        weiPerToken = _weiPerToken;\r\n    }\r\n\r\n    function withdraw()\r\n        public\r\n        returns (bool success)\r\n    {\r\n        // anyone could withdraw at any time except the highest bidder\r\n        // if canceled, the highest bidder could withdraw as well\r\n        require((msg.sender != highestBidder) || cancelled);\r\n\r\n        uint256 tokenBid = tokenBalances[msg.sender];\r\n        if (tokenBid > 0) {\r\n            tokenBalances[msg.sender] = 0;\r\n            require(token.transfer(msg.sender, tokenBid));\r\n        }\r\n\r\n        uint256 etherBid = etherBalances[msg.sender];\r\n        if (etherBid > 0) {\r\n            etherBalances[msg.sender] = 0;\r\n            require(msg.sender.send(etherBid));\r\n        }\r\n\r\n        require(tokenBid > 0 || etherBid > 0);\r\n\r\n        Withdrawal(msg.sender, etherBid, tokenBid);\r\n\r\n        return true;\r\n    }\r\n\r\n    function charity(uint256 _tokens, uint256 _ether)\r\n        public\r\n        returns (bool success)\r\n    {\r\n        require((msg.sender != highestBidder) || cancelled);\r\n\r\n        uint256 tokenBid = tokenBalances[msg.sender];\r\n        require(_tokens <= tokenBid);\r\n        if (_tokens > 0) {\r\n            tokenBalances[msg.sender] = tokenBid - _tokens;\r\n            require(token.transfer(wallet, _tokens));\r\n        }\r\n\r\n        uint256 etherBid = etherBalances[msg.sender];\r\n        require(_ether <= etherBid);\r\n        if (_ether > 0) {\r\n            etherBalances[msg.sender] = etherBid - _ether;\r\n            require(wallet.send(_ether));\r\n        }\r\n\r\n        require(tokenBid > 0 || etherBid > 0);\r\n\r\n        Charity(msg.sender, _ether, _tokens);\r\n\r\n        return true;\r\n    }\r\n\r\n    function finalize()\r\n        onlyOwner\r\n        onlyNotCancelled\r\n        onlyAfterEnd\r\n        public\r\n        returns (bool)\r\n    {\r\n        require(!finalized);\r\n\r\n        if (highestBidder != address(0)) {\r\n            uint256 tokenBid = tokenBalances[highestBidder];\r\n            if (tokenBid > 0) {\r\n                tokenBalances[highestBidder] = 0;\r\n                require(token.transfer(wallet, tokenBid));\r\n                FinalizedTokenTransfer(tokenBid);\r\n            }\r\n\r\n            uint256 etherBid = etherBalances[highestBidder];\r\n            if (etherBid > 0) {\r\n                etherBalances[highestBidder] = 0;\r\n                require(wallet.send(etherBid));\r\n                FinalizedEtherTransfer(etherBid);\r\n            }\r\n\r\n            require(tokenBid > 0 || etherBid > 0);\r\n\r\n            // this condition could break after we have added ability to change the rate after ctor\r\n            // and it won't be possible to set weiPerToken due to onlyAfterEnd/onlyBeforeEnd different modifiers\r\n            // also it could differ after managedBid2\r\n            // ... require(tokenBid * weiPerToken + etherBid == highestBid);\r\n        }\r\n\r\n        finalized = true;\r\n        Finalized(highestBidder, highestManagedBidder, highestBid);\r\n        return true;\r\n    }\r\n\r\n    function cancel()\r\n        onlyOwner\r\n        onlyBeforeEnd\r\n        onlyNotCancelled\r\n        public\r\n        returns (bool success)\r\n    {\r\n        cancelled = true;\r\n        Cancelled();\r\n        return true;\r\n    }\r\n}\r\n\r\n\r\nlibrary AuctionFactory {\r\n\r\n    event AuctionProduced(address indexed addr, string _item);\r\n\r\n    function produce(\r\n        address _wallet, \r\n        uint _endSeconds, \r\n        uint256 _weiPerToken, \r\n        uint256 _maxTokens, \r\n        string _item, \r\n        uint256 _minPrice, \r\n        bool _allowManagedBids\r\n    )\r\n        public\r\n        returns (address)\r\n    {\r\n        address addr = new Auction(msg.sender, _wallet, 0x06147110022B768BA8F99A8f385df11a151A9cc8, _endSeconds, _weiPerToken, _maxTokens, _item, _minPrice, _allowManagedBids);\r\n        AuctionProduced(addr, _item);\r\n        return addr;\r\n    }\r\n\r\n    function produceForOwner(\r\n        address _owner, \r\n        address _wallet, \r\n        uint _endSeconds, \r\n        uint256 _weiPerToken, \r\n        uint256 _maxTokens, \r\n        string _item, \r\n        uint256 _minPrice, \r\n        bool _allowManagedBids\r\n    )\r\n        public\r\n        returns (address)\r\n    {\r\n        address addr = new Auction(_owner, _wallet, 0x06147110022B768BA8F99A8f385df11a151A9cc8, _endSeconds, _weiPerToken, _maxTokens, _item, _minPrice, _allowManagedBids);\r\n        AuctionProduced(addr, _item);\r\n        return addr;\r\n    }\r\n\r\n    // token for testing\r\n    function produceForOwnerCustomToken(\r\n        address _owner, \r\n        address _wallet, \r\n        address _token,\r\n        uint _endSeconds, \r\n        uint256 _weiPerToken, \r\n        uint256 _maxTokens, \r\n        string _item, \r\n        uint256 _minPrice, \r\n        bool _allowManagedBids\r\n    )\r\n        public\r\n        returns (address)\r\n    {\r\n        address addr = new Auction(_owner, _wallet, _token, _endSeconds, _weiPerToken, _maxTokens, _item, _minPrice, _allowManagedBids);\r\n        AuctionProduced(addr, _item);\r\n        return addr;\r\n    }\r\n}\r\n",
  "sourcePath": "C:\\MD\\Dev\\Solidity\\Auction\\contracts\\Auction.sol",
  "compiler": {
    "name": "solc",
    "version": "0.4.18+commit.9cf6e910.Emscripten.clang"
  },
  "schemaVersion": "1.0.1",
  "updatedAt": "2017-12-20T12:49:55.218Z"
}