{
  "contractName": "AuctionHub",
  "abi": [
    {
      "constant": true,
      "inputs": [
        {
          "name": "_auction",
          "type": "address"
        },
        {
          "name": "_bidder",
          "type": "address"
        }
      ],
      "name": "totalDirectBid",
      "outputs": [
        {
          "name": "_totalBid",
          "type": "uint256"
        }
      ],
      "payable": false,
      "stateMutability": "view",
      "type": "function"
    },
    {
      "constant": true,
      "inputs": [
        {
          "name": "",
          "type": "address"
        }
      ],
      "name": "auctionStates",
      "outputs": [
        {
          "name": "endSeconds",
          "type": "uint256"
        },
        {
          "name": "maxTokenBidInEther",
          "type": "uint256"
        },
        {
          "name": "minPrice",
          "type": "uint256"
        },
        {
          "name": "highestBid",
          "type": "uint256"
        },
        {
          "name": "highestBidder",
          "type": "address"
        },
        {
          "name": "highestManagedBidder",
          "type": "uint64"
        },
        {
          "name": "allowManagedBids",
          "type": "bool"
        },
        {
          "name": "cancelled",
          "type": "bool"
        },
        {
          "name": "finalized",
          "type": "bool"
        },
        {
          "name": "item",
          "type": "bytes32"
        }
      ],
      "payable": false,
      "stateMutability": "view",
      "type": "function"
    },
    {
      "constant": false,
      "inputs": [
        {
          "name": "_botAddress",
          "type": "address"
        }
      ],
      "name": "enableBot",
      "outputs": [],
      "payable": false,
      "stateMutability": "nonpayable",
      "type": "function"
    },
    {
      "constant": true,
      "inputs": [
        {
          "name": "_address",
          "type": "address"
        }
      ],
      "name": "isOwner",
      "outputs": [
        {
          "name": "",
          "type": "bool"
        }
      ],
      "payable": false,
      "stateMutability": "view",
      "type": "function"
    },
    {
      "constant": true,
      "inputs": [
        {
          "name": "_botAddress",
          "type": "address"
        }
      ],
      "name": "isBot",
      "outputs": [
        {
          "name": "",
          "type": "bool"
        }
      ],
      "payable": false,
      "stateMutability": "view",
      "type": "function"
    },
    {
      "constant": false,
      "inputs": [],
      "name": "unpause",
      "outputs": [],
      "payable": false,
      "stateMutability": "nonpayable",
      "type": "function"
    },
    {
      "constant": false,
      "inputs": [],
      "name": "finalize",
      "outputs": [
        {
          "name": "",
          "type": "bool"
        }
      ],
      "payable": false,
      "stateMutability": "nonpayable",
      "type": "function"
    },
    {
      "constant": false,
      "inputs": [
        {
          "name": "_bidder",
          "type": "address"
        }
      ],
      "name": "withdraw",
      "outputs": [
        {
          "name": "success",
          "type": "bool"
        }
      ],
      "payable": false,
      "stateMutability": "nonpayable",
      "type": "function"
    },
    {
      "constant": true,
      "inputs": [],
      "name": "wallet",
      "outputs": [
        {
          "name": "",
          "type": "address"
        }
      ],
      "payable": false,
      "stateMutability": "view",
      "type": "function"
    },
    {
      "constant": true,
      "inputs": [
        {
          "name": "_botAddress",
          "type": "address"
        },
        {
          "name": "_atTimeStampSeconds",
          "type": "uint64"
        }
      ],
      "name": "isBotAt",
      "outputs": [
        {
          "name": "",
          "type": "bool"
        }
      ],
      "payable": false,
      "stateMutability": "view",
      "type": "function"
    },
    {
      "constant": true,
      "inputs": [],
      "name": "paused",
      "outputs": [
        {
          "name": "",
          "type": "bool"
        }
      ],
      "payable": false,
      "stateMutability": "view",
      "type": "function"
    },
    {
      "constant": false,
      "inputs": [
        {
          "name": "_botAddress",
          "type": "address"
        },
        {
          "name": "_fromTimeStampSeconds",
          "type": "uint64"
        }
      ],
      "name": "disableBot",
      "outputs": [],
      "payable": false,
      "stateMutability": "nonpayable",
      "type": "function"
    },
    {
      "constant": false,
      "inputs": [
        {
          "name": "_managedBidder",
          "type": "uint64"
        },
        {
          "name": "_managedBid",
          "type": "uint256"
        },
        {
          "name": "_knownManagedBidder",
          "type": "address"
        }
      ],
      "name": "managedBid",
      "outputs": [
        {
          "name": "isHighest",
          "type": "bool"
        }
      ],
      "payable": false,
      "stateMutability": "nonpayable",
      "type": "function"
    },
    {
      "constant": false,
      "inputs": [],
      "name": "pause",
      "outputs": [],
      "payable": false,
      "stateMutability": "nonpayable",
      "type": "function"
    },
    {
      "constant": true,
      "inputs": [
        {
          "name": "",
          "type": "address"
        }
      ],
      "name": "tokenRates",
      "outputs": [
        {
          "name": "value",
          "type": "uint256"
        },
        {
          "name": "decimals",
          "type": "uint256"
        }
      ],
      "payable": false,
      "stateMutability": "view",
      "type": "function"
    },
    {
      "constant": false,
      "inputs": [
        {
          "name": "_bidder",
          "type": "address"
        },
        {
          "name": "_value",
          "type": "uint256"
        },
        {
          "name": "_token",
          "type": "address"
        },
        {
          "name": "_tokensNumber",
          "type": "uint256"
        }
      ],
      "name": "bid",
      "outputs": [
        {
          "name": "isHighest",
          "type": "bool"
        }
      ],
      "payable": false,
      "stateMutability": "nonpayable",
      "type": "function"
    },
    {
      "constant": false,
      "inputs": [
        {
          "name": "source",
          "type": "string"
        }
      ],
      "name": "stringToBytes32",
      "outputs": [
        {
          "name": "result",
          "type": "bytes32"
        }
      ],
      "payable": false,
      "stateMutability": "nonpayable",
      "type": "function"
    },
    {
      "constant": false,
      "inputs": [
        {
          "name": "_endSeconds",
          "type": "uint256"
        },
        {
          "name": "_maxTokenBidInEther",
          "type": "uint256"
        },
        {
          "name": "_minPrice",
          "type": "uint256"
        },
        {
          "name": "_item",
          "type": "string"
        },
        {
          "name": "_allowManagedBids",
          "type": "bool"
        }
      ],
      "name": "createAuction",
      "outputs": [
        {
          "name": "",
          "type": "address"
        }
      ],
      "payable": false,
      "stateMutability": "nonpayable",
      "type": "function"
    },
    {
      "constant": false,
      "inputs": [
        {
          "name": "_token",
          "type": "address"
        },
        {
          "name": "_tokenRate",
          "type": "uint256"
        }
      ],
      "name": "setTokenRate",
      "outputs": [],
      "payable": false,
      "stateMutability": "nonpayable",
      "type": "function"
    },
    {
      "constant": false,
      "inputs": [],
      "name": "cancel",
      "outputs": [
        {
          "name": "success",
          "type": "bool"
        }
      ],
      "payable": false,
      "stateMutability": "nonpayable",
      "type": "function"
    },
    {
      "inputs": [
        {
          "name": "_wallet",
          "type": "address"
        },
        {
          "name": "_tokens",
          "type": "address[]"
        },
        {
          "name": "_rates",
          "type": "uint256[]"
        },
        {
          "name": "_decimals",
          "type": "uint256[]"
        }
      ],
      "payable": false,
      "stateMutability": "nonpayable",
      "type": "constructor"
    },
    {
      "payable": true,
      "stateMutability": "payable",
      "type": "fallback"
    },
    {
      "anonymous": false,
      "inputs": [
        {
          "indexed": true,
          "name": "auction",
          "type": "address"
        },
        {
          "indexed": false,
          "name": "item",
          "type": "string"
        }
      ],
      "name": "NewAction",
      "type": "event"
    },
    {
      "anonymous": false,
      "inputs": [
        {
          "indexed": true,
          "name": "auction",
          "type": "address"
        },
        {
          "indexed": false,
          "name": "bidder",
          "type": "address"
        },
        {
          "indexed": false,
          "name": "totalBidInEther",
          "type": "uint256"
        },
        {
          "indexed": true,
          "name": "tokensBidInEther",
          "type": "uint256"
        }
      ],
      "name": "Bid",
      "type": "event"
    },
    {
      "anonymous": false,
      "inputs": [
        {
          "indexed": true,
          "name": "auction",
          "type": "address"
        },
        {
          "indexed": false,
          "name": "bidder",
          "type": "address"
        },
        {
          "indexed": false,
          "name": "token",
          "type": "address"
        },
        {
          "indexed": false,
          "name": "numberOfTokens",
          "type": "uint256"
        }
      ],
      "name": "TokenBid",
      "type": "event"
    },
    {
      "anonymous": false,
      "inputs": [
        {
          "indexed": true,
          "name": "auction",
          "type": "address"
        },
        {
          "indexed": false,
          "name": "bidder",
          "type": "uint64"
        },
        {
          "indexed": false,
          "name": "bid",
          "type": "uint256"
        },
        {
          "indexed": false,
          "name": "knownManagedBidder",
          "type": "address"
        }
      ],
      "name": "ManagedBid",
      "type": "event"
    },
    {
      "anonymous": false,
      "inputs": [
        {
          "indexed": true,
          "name": "auction",
          "type": "address"
        },
        {
          "indexed": false,
          "name": "bidder",
          "type": "address"
        },
        {
          "indexed": false,
          "name": "managedBidder",
          "type": "uint64"
        },
        {
          "indexed": false,
          "name": "totalBid",
          "type": "uint256"
        }
      ],
      "name": "NewHighestBidder",
      "type": "event"
    },
    {
      "anonymous": false,
      "inputs": [
        {
          "indexed": true,
          "name": "token",
          "type": "address"
        },
        {
          "indexed": false,
          "name": "rate",
          "type": "uint256"
        }
      ],
      "name": "TokenRateUpdate",
      "type": "event"
    },
    {
      "anonymous": false,
      "inputs": [
        {
          "indexed": true,
          "name": "auction",
          "type": "address"
        },
        {
          "indexed": false,
          "name": "bidder",
          "type": "address"
        },
        {
          "indexed": false,
          "name": "etherAmount",
          "type": "uint256"
        },
        {
          "indexed": false,
          "name": "tokensBidInEther",
          "type": "uint256"
        }
      ],
      "name": "Withdrawal",
      "type": "event"
    },
    {
      "anonymous": false,
      "inputs": [
        {
          "indexed": true,
          "name": "auction",
          "type": "address"
        },
        {
          "indexed": false,
          "name": "bidder",
          "type": "address"
        },
        {
          "indexed": false,
          "name": "etherAmount",
          "type": "uint256"
        },
        {
          "indexed": false,
          "name": "tokensAmount",
          "type": "uint256"
        }
      ],
      "name": "Charity",
      "type": "event"
    },
    {
      "anonymous": false,
      "inputs": [
        {
          "indexed": true,
          "name": "auction",
          "type": "address"
        },
        {
          "indexed": false,
          "name": "highestBidder",
          "type": "address"
        },
        {
          "indexed": false,
          "name": "highestManagedBidder",
          "type": "uint64"
        },
        {
          "indexed": false,
          "name": "amount",
          "type": "uint256"
        }
      ],
      "name": "Finalized",
      "type": "event"
    },
    {
      "anonymous": false,
      "inputs": [
        {
          "indexed": true,
          "name": "auction",
          "type": "address"
        },
        {
          "indexed": false,
          "name": "token",
          "type": "address"
        },
        {
          "indexed": false,
          "name": "tokensBidInEther",
          "type": "uint256"
        }
      ],
      "name": "FinalizedTokenTransfer",
      "type": "event"
    },
    {
      "anonymous": false,
      "inputs": [
        {
          "indexed": true,
          "name": "auction",
          "type": "address"
        },
        {
          "indexed": false,
          "name": "etherAmount",
          "type": "uint256"
        }
      ],
      "name": "FinalizedEtherTransfer",
      "type": "event"
    },
    {
      "anonymous": false,
      "inputs": [
        {
          "indexed": true,
          "name": "auction",
          "type": "address"
        },
        {
          "indexed": false,
          "name": "newEndtime",
          "type": "uint256"
        }
      ],
      "name": "ExtendedEndTime",
      "type": "event"
    },
    {
      "anonymous": false,
      "inputs": [
        {
          "indexed": true,
          "name": "auction",
          "type": "address"
        }
      ],
      "name": "Cancelled",
      "type": "event"
    },
    {
      "anonymous": false,
      "inputs": [
        {
          "indexed": true,
          "name": "_botAddress",
          "type": "address"
        },
        {
          "indexed": false,
          "name": "_startTime",
          "type": "uint64"
        },
        {
          "indexed": false,
          "name": "_endTime",
          "type": "uint64"
        }
      ],
      "name": "BotsStartEndTimeChange",
      "type": "event"
    },
    {
      "anonymous": false,
      "inputs": [
        {
          "indexed": true,
          "name": "_contract",
          "type": "address"
        },
        {
          "indexed": true,
          "name": "_wallet",
          "type": "address"
        }
      ],
      "name": "MultiOwnableWalletSet",
      "type": "event"
    },
    {
      "anonymous": false,
      "inputs": [],
      "name": "Pause",
      "type": "event"
    },
    {
      "anonymous": false,
      "inputs": [],
      "name": "Unpause",
      "type": "event"
    }
  ],
  "bytecode": "0x60606040526000805460a060020a60ff021916905534156200002057600080fd5b6040516200320938038062003209833981016040528080519190602001805182019190602001805182019190602001805160008054600160a060020a031916600160a060020a038881169190911780835594909201939092508291879182919081169030167fafcdd415329178553b69a5c7b7ece5d86014afa3335a808a26f32110981061a760405160405180910390a3505033600160a060020a0316600090815260016020526040902080546001608060020a031916426001608060020a0390811668010000000000000000021617905583518551146200010157600080fd5b82518551146200011057600080fd5b600091505b84518210156200024f578482815181106200012c57fe5b90602001906020020151600160a060020a031615156200014b57600080fd5b60008483815181106200015a57fe5b90602001906020020151116200016f57600080fd5b8482815181106200017c57fe5b9060200190602002015190506040805190810160405280858481518110620001a057fe5b906020019060200201518152602001848481518110620001bc57fe5b906020019060200201519052600160a060020a038216600090815260036020526040902081518155602082015160019091015550600160a060020a0381167f6d0466d743e24b9f0b2ae6bff53593c4b94c242fe76707f82de4076115d95a278584815181106200022857fe5b9060200190602002015160405190815260200160405180910390a260019091019062000115565b505050505050612fa480620002656000396000f3006060604052600436106100f85763ffffffff60e060020a60003504166321b666b5811461018a578063265d9035146101c157806327329b051461024d5780632f54bf6e1461026e5780633bbac579146102a15780633f4ba83a146102c05780634bb278f3146102d357806351cff8d9146102e6578063521eb2731461030557806353d3ed60146103345780635c975abb146103605780635f58ed2a14610373578063713674cf1461039f5780638456cb59146103ce57806386403125146103e1578063b567858814610418578063cfb5192814610444578063e0e4b85f14610495578063e7398fa3146104f8578063ea8a1af01461051a575b600054600160a060020a03163480156108fc0290604051600060405180830381858888f19350505050151561012c57600080fd5b60007f9c772aa581fc5bf19e09fbc8944f09f74c7b925afdfc2802025ad3efddd9567c333460006040518084600160a060020a0316600160a060020a03168152602001838152602001828152602001935050505060405180910390a2005b341561019557600080fd5b6101af600160a060020a036004358116906024351661052d565b60405190815260200160405180910390f35b34156101cc57600080fd5b6101e0600160a060020a0360043516610564565b604051998a5260208a01989098526040808a01979097526060890195909552600160a060020a03909316608088015267ffffffffffffffff90911660a0870152151560c0860152151560e08501521515610100840152610120830191909152610140909101905180910390f35b341561025857600080fd5b61026c600160a060020a03600435166105d8565b005b341561027957600080fd5b61028d600160a060020a0360043516610705565b604051901515815260200160405180910390f35b34156102ac57600080fd5b61028d600160a060020a036004351661079a565b34156102cb57600080fd5b61026c6107a6565b34156102de57600080fd5b61028d610825565b34156102f157600080fd5b61028d600160a060020a0360043516610c3c565b341561031057600080fd5b610318610f05565b604051600160a060020a03909116815260200160405180910390f35b341561033f57600080fd5b61028d600160a060020a036004351667ffffffffffffffff60243516610f14565b341561036b57600080fd5b61028d610fd8565b341561037e57600080fd5b61026c600160a060020a036004351667ffffffffffffffff60243516610fe8565b34156103aa57600080fd5b61028d67ffffffffffffffff60043516602435600160a060020a0360443516611111565b34156103d957600080fd5b61026c61138a565b34156103ec57600080fd5b610400600160a060020a0360043516611407565b60405191825260208201526040908101905180910390f35b341561042357600080fd5b61028d600160a060020a036004358116906024359060443516606435611420565b341561044f57600080fd5b6101af60046024813581810190830135806020601f8201819004810201604051908101604052818152929190602084018383808284375094965061164d95505050505050565b34156104a057600080fd5b610318600480359060248035916044359160849060643590810190830135806020601f820181900481020160405190810160405281815292919060208401838380828437509496505050509135151591506116789050565b341561050357600080fd5b61026c600160a060020a0360043516602435611830565b341561052557600080fd5b61028d6118b3565b600160a060020a03918216600090815260026020908152604080832093909416825260059092019091522080546001909101540190565b600260208190526000918252604090912080546001820154928201546003830154600484015460069094015492949391929091600160a060020a0381169167ffffffffffffffff60a060020a8304169160ff60e060020a820481169260e860020a830482169260f060020a9004909116908a565b6000805433600160a060020a039081169116146105f457600080fd5b50600160a060020a0381166000908152600160205260409020546fffffffffffffffffffffffffffffffff9081169068010000000000000000820416158015610645575067ffffffffffffffff8116155b151561065057600080fd5b600160a060020a038216600081815260016020526040908190208054680100000000000000006fffffffffffffffffffffffffffffffff4281168202969096179586166fffffffffffffffffffffffffffffffff1990921682179092557f100ef6d43d5799b4c7e9e7bcde458f703bf058e7fe74245b6b7f99b3a1844e50929190049067ffffffffffffffff8516905167ffffffffffffffff9283168152911660208201526040908101905180910390a25050565b60008054600160a060020a0383811691161480610794575060008054600160a060020a031690632f54bf6e9084906040516020015260405160e060020a63ffffffff8416028152600160a060020a039091166004820152602401602060405180830381600087803b151561077857600080fd5b6102c65a03f1151561078957600080fd5b505050604051805190505b92915050565b60006107948242610f14565b60005433600160a060020a039081169116146107c157600080fd5b60005460a060020a900460ff1615156107d957600080fd5b6000805474ff0000000000000000000000000000000000000000191690557f7805862f689e2f13df9f062ff482ad3ad112aca9e0847911ed832e158c525b3360405160405180910390a1565b33600160a060020a03166000908152600260205260408120600481015482908190819081908190819060f060020a900460ff161580156108655750865442115b801561087357508654600090115b801561088b5750600487015460e860020a900460ff16155b151561089657600080fd5b6004870154600160a060020a031615610b79576004870154600160a060020a0316600090815260058801602052604081206001810154600382015491975095501115610a9357600092505b6003850154831015610a8757600385018054849081106108fd57fe5b90600052602060002090600202016001015491506000821115610a7c576000856003018481548110151561092d57fe5b90600052602060002090600202016001018190555033600160a060020a031663e6d66ac8866003018581548110151561096257fe5b600091825260208220600290910201548154600160a060020a039182169291169086906040516020015260405160e060020a63ffffffff8616028152600160a060020a0393841660048201529190921660248201526044810191909152606401602060405180830381600087803b15156109db57600080fd5b6102c65a03f115156109ec57600080fd5b5050506040518051965050851515610a0357600080fd5b33600160a060020a03167fb8556687b0cb4b3bd0c3789469c0f7685f98f193beccb31564e98eb9a558dcf58660030185815481101515610a3f57fe5b6000918252602090912060029091020154600160a060020a031684604051600160a060020a03909216825260208201526040908101905180910390a25b6001909201916108e1565b60006001860155610a9e565b8315610a9e57600080fd5b5083546000811115610b795760008086558054600160a060020a033381169263c1756a2c929091169084906040516020015260405160e060020a63ffffffff8516028152600160a060020a0390921660048301526024820152604401602060405180830381600087803b1515610b1357600080fd5b6102c65a03f11515610b2457600080fd5b5050506040518051965050851515610b3b57600080fd5b33600160a060020a03167f0e6ba11576d3db675d61c9277867b76a7909963afb67c75b6c0792934328bf1f8260405190815260200160405180910390a25b6004870180547fff00ffffffffffffffffffffffffffffffffffffffffffffffffffffffffffff1660f060020a17908190556003880154600160a060020a03338116927ff4307aa79ff247809d7cb4c6c00e28c1276dae971fc8ae43913e68dbd0dc8e29929181169167ffffffffffffffff60a060020a9092049190911690604051600160a060020a03909316835267ffffffffffffffff90911660208301526040808301919091526060909101905180910390a2600197505050505050505090565b600160a060020a0333811660009081526002602090815260408083208585168085526005820190935290832060048201549394919390928592839283928392839216141580610c965750600487015460e860020a900460ff165b1515610ca157600080fd5b600186015460038701549094506000901115610df057600092505b6003860154831015610de45760038601805484908110610cd857fe5b90600052602060002090600202016001015491506000821115610dd95760008660030184815481101515610d0857fe5b90600052602060002090600202016001018190555033600160a060020a031663e6d66ac88760030185815481101515610d3d57fe5b60009182526020822060029091020154600160a060020a0316908c9086906040516020015260405160e060020a63ffffffff8616028152600160a060020a0393841660048201529190921660248201526044810191909152606401602060405180830381600087803b1515610db157600080fd5b6102c65a03f11515610dc257600080fd5b5050506040518051955050841515610dd957600080fd5b600190920191610cbc565b60006001870155610dfb565b8315610dfb57600080fd5b5084546000811115610e93576000808755600160a060020a0333169063c1756a2c908b9084906040516020015260405160e060020a63ffffffff8516028152600160a060020a0390921660048301526024820152604401602060405180830381600087803b1515610e6b57600080fd5b6102c65a03f11515610e7c57600080fd5b5050506040518051955050841515610e9357600080fd5b33600160a060020a03167fc2b4a290c20fb28939d29f102514fbffd2b73c059ffba8b78250c94161d5fcc68a83876040518084600160a060020a0316600160a060020a03168152602001838152602001828152602001935050505060405180910390a250600198975050505050505050565b600054600160a060020a031681565b600160a060020a0382166000908152600160205260408120546fffffffffffffffffffffffffffffffff90811690680100000000000000008204161580610f86575067ffffffffffffffff8316680100000000000000006fffffffffffffffffffffffffffffffff8084169190910416115b15610f945760009150610fd1565b67ffffffffffffffff81161515610fae5760019150610fd1565b67ffffffffffffffff8181169084161015610fcc5760019150610fd1565b600091505b5092915050565b60005460a060020a900460ff1681565b6000610ff333610705565b1515610ffe57600080fd5b50600160a060020a0382166000908152600160205260408120546fffffffffffffffffffffffffffffffff90811691680100000000000000008304909116118015611051575067ffffffffffffffff8116155b151561105c57600080fd5b600160a060020a0383166000818152600160205260409081902080546fffffffffffffffffffffffffffffffff191667ffffffffffffffff868116959095176fffffffffffffffffffffffffffffffff811691821790925590937f100ef6d43d5799b4c7e9e7bcde458f703bf058e7fe74245b6b7f99b3a1844e50926801000000000000000090920491908516905167ffffffffffffffff9283168152911660208201526040908101905180910390a2505050565b6000808080808067ffffffffffffffff8916151561112e57600080fd5b600160a060020a03331660009081526002602052604090208054909550421080156111655750600485015460e860020a900460ff16155b801561117c5750600485015460e060020a900460ff165b151561118757600080fd5b60009350600160a060020a038716156111d957600160a060020a03871660009081526005860160205260409020600281015490935088116111c757600080fd5b60028301889055825460018401540193505b87840191508460030154821180156111f5575084600201548210155b15611319576003850182905560048501805473ffffffffffffffffffffffffffffffffffffffff1916600160a060020a03898116919091177bffffffffffffffff0000000000000000000000000000000000000000191660a060020a67ffffffffffffffff8d16021790915533167fb1b5cca7c52e9d0672f45b41b409bdbb0035badc2584e620faf1d3d9d89244f0888b85604051600160a060020a03909316835267ffffffffffffffff90911660208301526040808301919091526060909101905180910390a261070842866000015403101561131457506107084201808555600160a060020a0333167f648561c38957d04ef2c17045f8e4fc32770334f9a0f73a3670b907c3228a417c8260405190815260200160405180910390a25b600195505b33600160a060020a03167ffb6e9d271768b20a67739f44f9385a60b0a48b56e1d53c88e7936f09c8fc52b78a8a8a60405167ffffffffffffffff90931683526020830191909152600160a060020a03166040808301919091526060909101905180910390a250505050509392505050565b61139333610705565b151561139e57600080fd5b60005460a060020a900460ff16156113b557600080fd5b6000805474ff0000000000000000000000000000000000000000191660a060020a1790557f6985a02210a168e66602d3235cb6db0e70f92b3ba4d376a33c0f3d9434bff62560405160405180910390a1565b6003602052600090815260409020805460019091015482565b600160a060020a0333166000908152600260205260408120805482908190819081904210801561145c5750600485015460e860020a900460ff16155b151561146757600080fd5b600160a060020a038a1660009081526005860160205260408120945087111561149d57611496338b8a8a611961565b92506114b1565b60018401549250600089116114b157600080fd5b83548901808555600285015460038701549482010193909250831180156114dc575084600201548310155b156115ef576003850183905560048501805473ffffffffffffffffffffffffffffffffffffffff1916600160a060020a038c8116919091177bffffffffffffffff0000000000000000000000000000000000000000191690915533167fb1b5cca7c52e9d0672f45b41b409bdbb0035badc2584e620faf1d3d9d89244f08b600086604051600160a060020a03909316835267ffffffffffffffff90911660208301526040808301919091526060909101905180910390a26107084286600001540310156115ea57506107084201808555600160a060020a0333167f648561c38957d04ef2c17045f8e4fc32770334f9a0f73a3670b907c3228a417c8260405190815260200160405180910390a25b600195505b81830333600160a060020a03167fd21fbaad97462831ad0c216f300fefb33a10b03bb18bb70ed668562e88d15d538c86604051600160a060020a03909216825260208201526040908101905180910390a35050505050949350505050565b6000611657611bbd565b50818051151561166a5760009150611672565b602083015191505b50919050565b6000806000611685611bbd565b61168e3361079a565b151561169957600080fd5b4289116116a557600080fd5b683635c9adc5dea000008811156116bb57600080fd5b600087116116c857600080fd5b6000543090600160a060020a03166116de611bcf565b600160a060020a0392831681529116602082015260409081019051809103906000f080151561170c57600080fd5b600160a060020a03811660009081526002602081905260409091208b8155600181018b90559081018990556004810180547fffffff00ffffffffffffffffffffffffffffffffffffffffffffffffffffffff1660e060020a89151502179055909350915085905061177c8161164d565b6006830155600160a060020a0383167fa5441ad5af4bd8b9469929dba2611a150dde5a264a534d2e682252b8528afcc48760405160208082528190810183818151815260200191508051906020019080838360005b838110156117e95780820151838201526020016117d1565b50505050905090810190601f1680156118165780820380516001836020036101000a031916815260200191505b509250505060405180910390a25090979650505050505050565b600061183b3361079a565b151561184657600080fd5b50600160a060020a038216600090815260036020526040812080549091901161186e57600080fd5b818155600160a060020a0383167f6d0466d743e24b9f0b2ae6bff53593c4b94c242fe76707f82de4076115d95a278360405190815260200160405180910390a2505050565b600160a060020a03331660009081526002602052604081208054421080156118e75750600481015460e860020a900460ff16155b15156118f257600080fd5b6004810180547fffff00ffffffffffffffffffffffffffffffffffffffffffffffffffffffffff1660e860020a179055600160a060020a0333167f398bd6b21ae4164ec322fb0eb8c2eb6277f36fd41903fbbed594dfe12559128160405160405180910390a2600191505b5090565b600160a060020a0380851660009081526002602090815260408083208785168452600581018352818420600181015495881685526003909352908320805493949193859081908190116119b357600080fd5b5050600383015460005b81811015611a105788600160a060020a031685600301828154811015156119e057fe5b6000918252602090912060029091020154600160a060020a03161415611a0857809150611a10565b6001016119bd565b6003850154821415611a985760038501805460018101611a308382611bdf565b9160005260206000209060020201600060408051908101604052600160a060020a038d168152600060208201529190508151815473ffffffffffffffffffffffffffffffffffffffff1916600160a060020a0391909116178155602082015181600101555050505b878560030183815481101515611aaa57fe5b600091825260209091206001600290920201810180549092019091558301548354611af091600a0a90611ae4908b9063ffffffff611b7416565b9063ffffffff611ba616565b6001870154940193841115611b0457600080fd5b60018501849055600160a060020a038b167f9a77ba7516b1e0052d27170ea8048d58277273abbc6ab40407107ff90282b1578b8b8b604051600160a060020a039384168152919092166020820152604080820192909252606001905180910390a250919998505050505050505050565b600080831515611b875760009150610fd1565b50828202828482811515611b9757fe5b0414611b9f57fe5b9392505050565b6000808284811515611bb457fe5b04949350505050565b60206040519081016040526000815290565b60405161132d80611c4c83390190565b815481835581811511611c0b57600202816002028360005260206000209182019101611c0b9190611c10565b505050565b611c4891905b8082111561195d57805473ffffffffffffffffffffffffffffffffffffffff1916815560006001820155600201611c16565b9056006060604052341561000f57600080fd5b60405160408061132d8339810160405280805191906020018051915050600160a060020a038216151561004157600080fd5b600160a060020a038116151561005657600080fd5b60008054600160a060020a03938416600160a060020a0319918216179091556001805492909316911617905561129c806100916000396000f3006060604052600436106101035763ffffffff60e060020a6000350416633ccfd60b81146101965780634bb278f3146101bd5780634c8cb943146101d05780634c936ea8146101f5578063521eb2731461020857806359d667a51461023757806386c1497c1461024e5780638da5cb5b1461027157806390d0da9f1461028457806391f90157146102a35780639914c2e3146102b65780639a82a09a146102e55780639b412150146102f85780639d6e6538146102e5578063b3f05b9714610328578063c1756a2c1461033b578063d57bde791461035d578063e45be8eb14610370578063e6d66ac814610383578063ea8a1af0146103ab578063f2a4a82e146103be575b60008054600160a060020a03169063b5678588903390349080806040516020015260405160e060020a63ffffffff8716028152600160a060020a0394851660048201526024810193909352921660448201526064810191909152608401602060405180830381600087803b151561017957600080fd5b6102c65a03f1151561018a57600080fd5b50505060405180515050005b34156101a157600080fd5b6101a9610448565b604051901515815260200160405180910390f35b34156101c857600080fd5b6101a96104c0565b34156101db57600080fd5b6101e3610588565b60405190815260200160405180910390f35b341561020057600080fd5b6101e3610645565b341561021357600080fd5b61021b610702565b604051600160a060020a03909116815260200160405180910390f35b6101a9600160a060020a0360043516602435610711565b341561025957600080fd5b6101a967ffffffffffffffff60043516602435610859565b341561027c57600080fd5b61021b61094d565b341561028f57600080fd5b6101e3600160a060020a036004351661095c565b34156102ae57600080fd5b61021b6109dd565b34156102c157600080fd5b6101a967ffffffffffffffff60043516602435600160a060020a0360443516610a9a565b34156102f057600080fd5b6101a9610bb1565b341561030357600080fd5b61030b610c6e565b60405167ffffffffffffffff909116815260200160405180910390f35b341561033357600080fd5b6101a9610d2b565b341561034657600080fd5b6101a9600160a060020a0360043516602435610de8565b341561036857600080fd5b6101e3610e30565b341561037b57600080fd5b6101e3610eed565b341561038e57600080fd5b6101a9600160a060020a0360043581169060243516604435610faa565b34156103b657600080fd5b6101a9611023565b34156103c957600080fd5b6103d16110eb565b60405160208082528190810183818151815260200191508051906020019080838360005b8381101561040d5780820151838201526020016103f5565b50505050905090810190601f16801561043a5780820380516001836020036101000a031916815260200191505b509250505060405180910390f35b60008054600160a060020a03166351cff8d933836040516020015260405160e060020a63ffffffff8416028152600160a060020a039091166004820152602401602060405180830381600087803b15156104a157600080fd5b6102c65a03f115156104b257600080fd5b505050604051805191505090565b60008054600160a060020a0316633bbac57933836040516020015260405160e060020a63ffffffff8416028152600160a060020a039091166004820152602401602060405180830381600087803b151561051957600080fd5b6102c65a03f1151561052a57600080fd5b50505060405180519050151561053f57600080fd5b60008054600160a060020a031690634bb278f390604051602001526040518163ffffffff1660e060020a028152600401602060405180830381600087803b15156104a157600080fd5b600080548190600160a060020a031663265d90353083604051610140015260405160e060020a63ffffffff8416028152600160a060020a03909116600482015260240161014060405180830381600087803b15156105e557600080fd5b6102c65a03f115156105f657600080fd5b505050604051805190602001805190602001805190602001805190602001805190602001805190602001805190602001805190602001805190602001805150979b9a5050505050505050505050565b600080548190600160a060020a031663265d90353083604051610140015260405160e060020a63ffffffff8416028152600160a060020a03909116600482015260240161014060405180830381600087803b15156106a257600080fd5b6102c65a03f115156106b357600080fd5b505050604051805190602001805190602001805190602001805190602001805190602001805190602001805190602001805190602001805190602001805150989b9a5050505050505050505050565b600154600160a060020a031681565b6000600160a060020a0383161580159061072b5750600082115b156107c05782600160a060020a03166323b872dd33308560006040516020015260405160e060020a63ffffffff8616028152600160a060020a0393841660048201529190921660248201526044810191909152606401602060405180830381600087803b151561079a57600080fd5b6102c65a03f115156107ab57600080fd5b5050506040518051905015156107c057600080fd5b60008054600160a060020a03169063b56785889033903490879087906040516020015260405160e060020a63ffffffff8716028152600160a060020a0394851660048201526024810193909352921660448201526064810191909152608401602060405180830381600087803b151561083857600080fd5b6102c65a03f1151561084957600080fd5b5050506040518051949350505050565b60008054600160a060020a0316633bbac57933836040516020015260405160e060020a63ffffffff8416028152600160a060020a039091166004820152602401602060405180830381600087803b15156108b257600080fd5b6102c65a03f115156108c357600080fd5b5050506040518051905015156108d857600080fd5b60008054600160a060020a03169063713674cf9085908590806040516020015260405160e060020a63ffffffff861602815267ffffffffffffffff90931660048401526024830191909152600160a060020a03166044820152606401602060405180830381600087803b151561083857600080fd5b600054600160a060020a031681565b60008054600160a060020a03166321b666b53084846040516020015260405160e060020a63ffffffff8516028152600160a060020a03928316600482015291166024820152604401602060405180830381600087803b15156109bd57600080fd5b6102c65a03f115156109ce57600080fd5b50505060405180519392505050565b600080548190600160a060020a031663265d90353083604051610140015260405160e060020a63ffffffff8416028152600160a060020a03909116600482015260240161014060405180830381600087803b1515610a3a57600080fd5b6102c65a03f11515610a4b57600080fd5b505050604051805190602001805190602001805190602001805190602001805190602001805190602001805190602001805190602001805190602001805150949b9a5050505050505050505050565b60008054600160a060020a0316633bbac57933836040516020015260405160e060020a63ffffffff8416028152600160a060020a039091166004820152602401602060405180830381600087803b1515610af357600080fd5b6102c65a03f11515610b0457600080fd5b505050604051805190501515610b1957600080fd5b60008054600160a060020a03169063713674cf908690869086906040516020015260405160e060020a63ffffffff861602815267ffffffffffffffff90931660048401526024830191909152600160a060020a03166044820152606401602060405180830381600087803b1515610b8f57600080fd5b6102c65a03f11515610ba057600080fd5b505050604051805195945050505050565b600080548190600160a060020a031663265d90353083604051610140015260405160e060020a63ffffffff8416028152600160a060020a03909116600482015260240161014060405180830381600087803b1515610c0e57600080fd5b6102c65a03f11515610c1f57600080fd5b505050604051805190602001805190602001805190602001805190602001805190602001805190602001805190602001805190602001805190602001805150929b9a5050505050505050505050565b600080548190600160a060020a031663265d90353083604051610140015260405160e060020a63ffffffff8416028152600160a060020a03909116600482015260240161014060405180830381600087803b1515610ccb57600080fd5b6102c65a03f11515610cdc57600080fd5b505050604051805190602001805190602001805190602001805190602001805190602001805190602001805190602001805190602001805190602001805150939b9a5050505050505050505050565b600080548190600160a060020a031663265d90353083604051610140015260405160e060020a63ffffffff8416028152600160a060020a03909116600482015260240161014060405180830381600087803b1515610d8857600080fd5b6102c65a03f11515610d9957600080fd5b505050604051805190602001805190602001805190602001805190602001805190602001805190602001805190602001805190602001805190602001805150919b9a5050505050505050505050565b6000805433600160a060020a03908116911614610e0457600080fd5b600160a060020a03831682156108fc0283604051600060405180830381858888f1979650505050505050565b600080548190600160a060020a031663265d90353083604051610140015260405160e060020a63ffffffff8416028152600160a060020a03909116600482015260240161014060405180830381600087803b1515610e8d57600080fd5b6102c65a03f11515610e9e57600080fd5b505050604051805190602001805190602001805190602001805190602001805190602001805190602001805190602001805190602001805190602001805150959b9a5050505050505050505050565b600080548190600160a060020a031663265d90353083604051610140015260405160e060020a63ffffffff8416028152600160a060020a03909116600482015260240161014060405180830381600087803b1515610f4a57600080fd5b6102c65a03f11515610f5b57600080fd5b505050604051805190602001805190602001805190602001805190602001805190602001805190602001805190602001805190602001805190602001805150969b9a5050505050505050505050565b6000805433600160a060020a03908116911614610fc657600080fd5b83600160a060020a031663a9059cbb848460006040516020015260405160e060020a63ffffffff8516028152600160a060020a0390921660048301526024820152604401602060405180830381600087803b1515610b8f57600080fd5b60008054600160a060020a0316633bbac57933836040516020015260405160e060020a63ffffffff8416028152600160a060020a039091166004820152602401602060405180830381600087803b151561107c57600080fd5b6102c65a03f1151561108d57600080fd5b5050506040518051905015156110a257600080fd5b60008054600160a060020a03169063ea8a1af090604051602001526040518163ffffffff1660e060020a028152600401602060405180830381600087803b15156104a157600080fd5b6110f361125e565b60006110fd61125e565b60008054600160a060020a031663265d90353083604051610140015260405160e060020a63ffffffff8416028152600160a060020a03909116600482015260240161014060405180830381600087803b151561115857600080fd5b6102c65a03f1151561116957600080fd5b505050604051805190602001805190602001805190602001805190602001805190602001805190602001805190602001805190602001805190602001805190509b5050505050505050505060206040518059106111c35750595b818152601f19601f8301168101602001604052905091505b6020811015611257578281602081106111f057fe5b1a7f01000000000000000000000000000000000000000000000000000000000000000282828151811061121f57fe5b9060200101907effffffffffffffffffffffffffffffffffffffffffffffffffffffffffffff1916908160001a9053506001016111db565b5092915050565b602060405190810160405260008152905600a165627a7a72305820748fcdbf567c1ac4fc224cecf132457a3ce1104f19c8a5d0831314f8d8dd5ee80029a165627a7a72305820dceece7d0b6a8b9a413e564ed3bf9bb61a1af8b1fe7a212c21ed622b4880ad380029",
  "source": "pragma solidity ^0.4.18;\r\n\r\nimport 'soltsice/contracts/BotManageable.sol';\r\nimport 'zeppelin-solidity/contracts/math/SafeMath.sol';\r\n\r\ncontract ERC20Basic {\r\n    function totalSupply() public view returns (uint256);\r\n    function transferFrom(address from, address to, uint256 value) public returns (bool);\r\n    function transfer(address to, uint256 value) public returns (bool);\r\n}\r\n\r\n\r\ncontract AuctionHub is BotManageable {\r\n    using SafeMath for uint256;\r\n\r\n    /*\r\n     *  Data structures\r\n     */\r\n    struct TokenBalance {\r\n        address token;\r\n        uint256 value;\r\n    }\r\n\r\n    struct TokenRate {\r\n        uint256 value;\r\n        uint256 decimals;\r\n    }\r\n\r\n    struct BidderState {\r\n        uint256 etherBalance;\r\n        uint256 tokensBalanceInEther;\r\n        uint256 managedBid;\r\n        TokenBalance[] tokenBalances;\r\n    }\r\n\r\n    struct ActionState {\r\n        uint256 endSeconds;\r\n        uint256 maxTokenBidInEther;\r\n        uint256 minPrice;\r\n        \r\n        uint256 highestBid;\r\n        \r\n        // next 5 fields should be packed into one 32-bytes slot\r\n        address highestBidder;\r\n        uint64 highestManagedBidder;\r\n        bool allowManagedBids;\r\n        bool cancelled;\r\n        bool finalized;\r\n\r\n        mapping(address => BidderState) bidderStates;\r\n\r\n        bytes32 item;\r\n    }\r\n\r\n    /*\r\n     *  Storage\r\n     */\r\n    mapping(address => ActionState) public auctionStates;\r\n    mapping(address => TokenRate) public tokenRates;\r\n\r\n    /*\r\n     *  Events\r\n     */\r\n\r\n    event NewAction(address indexed auction, string item);\r\n    event Bid(address indexed auction, address bidder, uint256 totalBidInEther, uint256 indexed tokensBidInEther);\r\n    event TokenBid(address indexed auction, address bidder, address token, uint256 numberOfTokens);\r\n    event ManagedBid(address indexed auction, uint64 bidder, uint256 bid, address knownManagedBidder);\r\n    event NewHighestBidder(address indexed auction, address bidder, uint64 managedBidder, uint256 totalBid);\r\n    event TokenRateUpdate(address indexed token, uint256 rate);\r\n    event Withdrawal(address indexed auction, address bidder, uint256 etherAmount, uint256 tokensBidInEther);\r\n    event Charity(address indexed auction, address bidder, uint256 etherAmount, uint256 tokensAmount);\r\n    event Finalized(address indexed auction, address highestBidder, uint64 highestManagedBidder, uint256 amount);\r\n    event FinalizedTokenTransfer(address indexed auction, address token, uint256 tokensBidInEther);\r\n    event FinalizedEtherTransfer(address indexed auction, uint256 etherAmount);\r\n    event ExtendedEndTime(address indexed auction, uint256 newEndtime);\r\n    event Cancelled(address indexed auction);\r\n\r\n    /*\r\n     *  Modifiers\r\n     */\r\n\r\n    modifier onlyActive {\r\n        // NB this modifier also serves as check that an auction exists (otherwise endSeconds == 0)\r\n        ActionState storage auctionState = auctionStates[msg.sender];\r\n        require (now < auctionState.endSeconds && !auctionState.cancelled);\r\n        _;\r\n    }\r\n\r\n    modifier onlyBeforeEnd {\r\n        // NB this modifier also serves as check that an auction exists (otherwise endSeconds == 0)\r\n        ActionState storage auctionState = auctionStates[msg.sender];\r\n        require (now < auctionState.endSeconds);\r\n        _;\r\n    }\r\n\r\n    modifier onlyAfterEnd {\r\n        ActionState storage auctionState = auctionStates[msg.sender];\r\n        require (now > auctionState.endSeconds && auctionState.endSeconds > 0);\r\n        _;\r\n    }\r\n\r\n    modifier onlyNotCancelled {\r\n        ActionState storage auctionState = auctionStates[msg.sender];\r\n        require (!auctionState.cancelled);\r\n        _;\r\n    }\r\n\r\n    modifier onlyAllowedManagedBids {\r\n        ActionState storage auctionState = auctionStates[msg.sender];\r\n        require (auctionState.allowManagedBids);\r\n        _;\r\n    }\r\n\r\n    /*\r\n     * _rates are per big token (e.g. Ether vs. wei), i.e. number of wei per [number of tokens]*[10 ** decimals]\r\n     */\r\n    function AuctionHub \r\n        (address _wallet, address[] _tokens, uint256[] _rates, uint256[] _decimals)\r\n        public\r\n        BotManageable(_wallet)\r\n    {\r\n        // make sender a bot to avoid an additional step\r\n        botsStartEndTime[msg.sender] = uint128(now) << 64;\r\n\r\n        require(_tokens.length == _rates.length);\r\n        require(_tokens.length == _decimals.length);\r\n\r\n        // save initial token list\r\n        for (uint i = 0; i < _tokens.length; i++) {\r\n            require(_tokens[i] != 0x0);\r\n            require(_rates[i] > 0);\r\n            ERC20Basic token = ERC20Basic(_tokens[i]);\r\n            tokenRates[token] = TokenRate(_rates[i], _decimals[i]);\r\n            TokenRateUpdate(token, _rates[i]);\r\n        }\r\n    }\r\n\r\n    function stringToBytes32(string memory source) returns (bytes32 result) {\r\n        bytes memory tempEmptyStringTest = bytes(source);\r\n        if (tempEmptyStringTest.length == 0) {\r\n            return 0x0;\r\n        }\r\n\r\n        assembly {\r\n            result := mload(add(source, 32))\r\n        }\r\n    }\r\n\r\n    function createAuction(\r\n        uint _endSeconds, \r\n        uint256 _maxTokenBidInEther,\r\n        uint256 _minPrice,\r\n        string _item,\r\n        bool _allowManagedBids\r\n    )\r\n        onlyBot\r\n        public\r\n        returns (address)\r\n    {\r\n        require (_endSeconds > now);\r\n        require(_maxTokenBidInEther <= 1000 ether);\r\n        require(_minPrice > 0);\r\n\r\n        Auction auction = new Auction(this, wallet);\r\n\r\n        ActionState storage auctionState = auctionStates[auction];\r\n\r\n        auctionState.endSeconds = _endSeconds;\r\n        auctionState.maxTokenBidInEther = _maxTokenBidInEther;\r\n        auctionState.minPrice = _minPrice;\r\n        auctionState.allowManagedBids = _allowManagedBids;\r\n        string memory item = _item;\r\n        auctionState.item = stringToBytes32(item);\r\n\r\n        NewAction(auction, _item);\r\n        return address(auction);\r\n    }\r\n\r\n    function () \r\n        payable\r\n        public\r\n    {\r\n        // It's charity!\r\n        require(wallet.send(msg.value));\r\n        Charity(0x0, msg.sender, msg.value, 0);\r\n    }\r\n\r\n    function bid(address _bidder, uint256 _value, address _token, uint256 _tokensNumber)\r\n        // onlyActive - inline check to reuse auctionState variable\r\n        public\r\n        returns (bool isHighest)\r\n    {\r\n        ActionState storage auctionState = auctionStates[msg.sender];\r\n        // same as onlyActive modifier, but we already have a variable here\r\n        require (now < auctionState.endSeconds && !auctionState.cancelled);\r\n\r\n        BidderState storage bidderState = auctionState.bidderStates[_bidder];\r\n        \r\n        uint256 totalBid;\r\n        if (_tokensNumber > 0) {\r\n            totalBid = tokenBid(msg.sender, _bidder,  _token, _tokensNumber);\r\n        }else {\r\n            // NB if current token bid == 0 we still could have previous token bids\r\n            totalBid = bidderState.tokensBalanceInEther;\r\n            require(_value > 0);\r\n        }\r\n\r\n        uint256 etherBid = bidderState.etherBalance + _value;\r\n        bidderState.etherBalance = etherBid;\r\n        totalBid = totalBid + etherBid + bidderState.managedBid;\r\n\r\n        if (totalBid > auctionState.highestBid && totalBid >= auctionState.minPrice) {\r\n            auctionState.highestBid = totalBid;\r\n            auctionState.highestBidder = _bidder;\r\n            auctionState.highestManagedBidder = 0;\r\n            NewHighestBidder(msg.sender, _bidder, 0, totalBid);\r\n            if ((auctionState.endSeconds - now) < 1800) {\r\n                uint256 newEnd = now + 1800;\r\n                auctionState.endSeconds = newEnd;\r\n                ExtendedEndTime(msg.sender, newEnd);\r\n            }\r\n            isHighest = true;\r\n        }\r\n\r\n        Bid(msg.sender, _bidder, totalBid, totalBid - etherBid);\r\n\r\n        return isHighest;\r\n    }\r\n\r\n    function tokenBid(address _auction, address _bidder, address _token, uint256 _tokensNumber)\r\n        internal\r\n        returns (uint256 tokenBid)\r\n    {\r\n        // NB actual token transfer happens in auction contracts, which owns both ether and tokens\r\n        // This Hub contract is for accounting\r\n\r\n        ActionState storage auctionState = auctionStates[_auction];\r\n        BidderState storage bidderState = auctionState.bidderStates[_bidder];\r\n        \r\n        uint256 totalBid = bidderState.tokensBalanceInEther;\r\n\r\n        TokenRate storage tokenRate = tokenRates[_token];\r\n        require(tokenRate.value > 0);\r\n\r\n        // find token index\r\n        uint256 index = bidderState.tokenBalances.length;\r\n        for (uint i = 0; i < index; i++) {\r\n            if (bidderState.tokenBalances[i].token == _token) {\r\n                index = i;\r\n                break;\r\n            }\r\n        }\r\n\r\n        // array was empty/token not found - push empty to the end\r\n        if (index == bidderState.tokenBalances.length) {\r\n            bidderState.tokenBalances.push(TokenBalance(_token, 0));\r\n        }\r\n\r\n        // safe math is already in transferFrom\r\n        bidderState.tokenBalances[index].value += _tokensNumber;\r\n\r\n        // tokenRate.value is for a whole/big token (e.g. ether vs. wei) but _tokensNumber is in small/wei tokens, need to divide by decimals\r\n        totalBid = totalBid + _tokensNumber.mul(tokenRate.value).div(10 ** tokenRate.decimals);\r\n        require(totalBid <= auctionState.maxTokenBidInEther);\r\n\r\n        bidderState.tokensBalanceInEther = totalBid;\r\n\r\n        TokenBid(_auction, _bidder, _token, _tokensNumber);\r\n\r\n        return totalBid;\r\n    }\r\n\r\n    function managedBid(uint64 _managedBidder, uint256 _managedBid, address _knownManagedBidder)\r\n        // onlyActive - inline check to reuse auctionState variable\r\n        // onlyAllowedManagedBids - inline check to reuse auctionState variable\r\n        // onlyBot - done in Auction that is msg.sender, only bot could create auctions and set endSeconds to non-zero\r\n        public\r\n        returns (bool isHighest)\r\n    {\r\n        require(_managedBidder != 0);\r\n\r\n        ActionState storage auctionState = auctionStates[msg.sender];\r\n        // same as onlyActive+onlyAllowedManagedBids modifiers, but we already have a variable here\r\n        require (now < auctionState.endSeconds && !auctionState.cancelled && auctionState.allowManagedBids);\r\n\r\n        \r\n        // sum with direct bid if any\r\n        uint256 directBid = 0;\r\n        if (_knownManagedBidder != 0x0) {\r\n            BidderState storage bidderState = auctionState.bidderStates[_knownManagedBidder];\r\n            require(_managedBid > bidderState.managedBid);\r\n            bidderState.managedBid = _managedBid;\r\n            directBid = bidderState.tokensBalanceInEther + bidderState.etherBalance;\r\n        }\r\n\r\n        // NB: _managedBid is the total amount of all bids from backend\r\n        // calculated without any direct bid. It is important to calculate direct bids\r\n        // inside this transaction and make the _knownManagedBidder the highest\r\n        // to prevent this wallet to withdraw money and remain the highest\r\n\r\n        uint256 totalBid = directBid + _managedBid;\r\n\r\n        if (totalBid > auctionState.highestBid && totalBid >= auctionState.minPrice) {\r\n            auctionState.highestBid = totalBid;\r\n            auctionState.highestBidder = _knownManagedBidder;\r\n            auctionState.highestManagedBidder = _managedBidder;\r\n            \r\n            NewHighestBidder(msg.sender, _knownManagedBidder, _managedBidder, totalBid);\r\n\r\n            if ((auctionState.endSeconds - now) < 1800) {\r\n                uint256 newEnd = now + 1800;\r\n                auctionState.endSeconds = newEnd;\r\n                ExtendedEndTime(msg.sender, newEnd);\r\n            }\r\n            isHighest = true;\r\n        }\r\n        // event ManagedBid(address indexed auction, uint64 bidder, uint256 bid, address knownManagedBidder);\r\n        ManagedBid(msg.sender, _managedBidder, _managedBid, _knownManagedBidder);\r\n        return isHighest;\r\n    }\r\n\r\n    function totalDirectBid(address _auction, address _bidder)\r\n        view\r\n        public\r\n        returns (uint256 _totalBid)\r\n    {\r\n        ActionState storage auctionState = auctionStates[_auction];\r\n        BidderState storage bidderState = auctionState.bidderStates[_bidder];\r\n        return bidderState.tokensBalanceInEther + bidderState.etherBalance;\r\n    }\r\n\r\n    function setTokenRate(address _token, uint256 _tokenRate)\r\n        onlyBot\r\n        public\r\n    {\r\n        TokenRate storage tokenRate = tokenRates[_token];\r\n        require(tokenRate.value > 0);\r\n        tokenRate.value = _tokenRate;\r\n        TokenRateUpdate(_token, _tokenRate);\r\n    }\r\n\r\n    function withdraw(address _bidder)\r\n        public\r\n        returns (bool success)\r\n    {\r\n        ActionState storage auctionState = auctionStates[msg.sender];\r\n        BidderState storage bidderState = auctionState.bidderStates[_bidder];\r\n\r\n        bool sent; \r\n\r\n        // anyone could withdraw at any time except the highest bidder\r\n        // if cancelled, the highest bidder could withdraw as well\r\n        require((_bidder != auctionState.highestBidder) || auctionState.cancelled);\r\n        uint256 tokensBalanceInEther = bidderState.tokensBalanceInEther;\r\n        if (bidderState.tokenBalances.length > 0) {\r\n            for (uint i = 0; i < bidderState.tokenBalances.length; i++) {\r\n                uint256 tokenBidValue = bidderState.tokenBalances[i].value;\r\n                if (tokenBidValue > 0) {\r\n                    bidderState.tokenBalances[i].value = 0;\r\n                    sent = Auction(msg.sender).sendTokens(bidderState.tokenBalances[i].token, _bidder, tokenBidValue);\r\n                    require(sent);\r\n                }\r\n            }\r\n            bidderState.tokensBalanceInEther = 0;\r\n        } else {\r\n            require(tokensBalanceInEther == 0);\r\n        }\r\n\r\n        uint256 etherBid = bidderState.etherBalance;\r\n        if (etherBid > 0) {\r\n            bidderState.etherBalance = 0;\r\n            sent = Auction(msg.sender).sendEther(_bidder, etherBid);\r\n            require(sent);\r\n        }\r\n\r\n        Withdrawal(msg.sender, _bidder, etherBid, tokensBalanceInEther);\r\n        \r\n        return true;\r\n    }\r\n\r\n    function finalize()\r\n        // onlyNotCancelled - inline check to reuse auctionState variable\r\n        // onlyAfterEnd - inline check to reuse auctionState variable\r\n        public\r\n        returns (bool)\r\n    {\r\n        ActionState storage auctionState = auctionStates[msg.sender];\r\n        // same as onlyNotCancelled+onlyAfterEnd modifiers, but we already have a variable here\r\n        require (!auctionState.finalized && now > auctionState.endSeconds && auctionState.endSeconds > 0 && !auctionState.cancelled);\r\n\r\n        if (auctionState.highestBidder != address(0)) {\r\n            bool sent; \r\n            BidderState storage bidderState = auctionState.bidderStates[auctionState.highestBidder];\r\n            uint256 tokensBalanceInEther = bidderState.tokensBalanceInEther;\r\n            if (bidderState.tokenBalances.length > 0) {\r\n                for (uint i = 0; i < bidderState.tokenBalances.length; i++) {\r\n                    uint256 tokenBid = bidderState.tokenBalances[i].value;\r\n                    if (tokenBid > 0) {\r\n                        bidderState.tokenBalances[i].value = 0;\r\n                        sent = Auction(msg.sender).sendTokens(bidderState.tokenBalances[i].token, wallet, tokenBid);\r\n                        require(sent);\r\n                        FinalizedTokenTransfer(msg.sender, bidderState.tokenBalances[i].token, tokenBid);\r\n                    }\r\n                }\r\n                bidderState.tokensBalanceInEther = 0;\r\n            } else {\r\n                require(tokensBalanceInEther == 0);\r\n            }\r\n            \r\n            uint256 etherBid = bidderState.etherBalance;\r\n            if (etherBid > 0) {\r\n                bidderState.etherBalance = 0;\r\n                sent = Auction(msg.sender).sendEther(wallet, etherBid);\r\n                require(sent);\r\n                FinalizedEtherTransfer(msg.sender, etherBid);\r\n            }\r\n        }\r\n\r\n        auctionState.finalized = true;\r\n        Finalized(msg.sender, auctionState.highestBidder, auctionState.highestManagedBidder, auctionState.highestBid);\r\n        return true;\r\n    }\r\n\r\n    function cancel()\r\n        // onlyActive - inline check to reuse auctionState variable\r\n        public\r\n        returns (bool success)\r\n    {\r\n        ActionState storage auctionState = auctionStates[msg.sender];\r\n        // same as onlyActive modifier, but we already have a variable here\r\n        require (now < auctionState.endSeconds && !auctionState.cancelled);\r\n\r\n        auctionState.cancelled = true;\r\n        Cancelled(msg.sender);\r\n        return true;\r\n    }\r\n\r\n}\r\n\r\n\r\ncontract Auction {\r\n\r\n    AuctionHub public owner;\r\n    address public wallet;\r\n\r\n    modifier onlyOwner {\r\n        require(owner == msg.sender);\r\n        _;\r\n    }\r\n\r\n    modifier onlyBot {\r\n        require(owner.isBot(msg.sender));\r\n        _;\r\n    }\r\n\r\n    modifier onlyNotBot {\r\n        require(!owner.isBot(msg.sender));\r\n        _;\r\n    }\r\n\r\n    function Auction(\r\n        address _owner,\r\n        address _wallet\r\n    ) \r\n        public \r\n    {\r\n        require(_owner != address(0x0));\r\n        require(_wallet != address(0x0));\r\n        \r\n        owner = AuctionHub(_owner);\r\n        wallet = _wallet;\r\n    }\r\n\r\n    function () \r\n        payable\r\n        public\r\n    {\r\n        owner.bid(msg.sender, msg.value, 0x0, 0);\r\n    }\r\n\r\n    function bid(address _token, uint256 _tokensNumber)\r\n        payable\r\n        public\r\n        returns (bool isHighest)\r\n    {\r\n        if (_token != 0x0 && _tokensNumber > 0) {\r\n            require(ERC20Basic(_token).transferFrom(msg.sender, this, _tokensNumber));\r\n        }\r\n        return owner.bid(msg.sender, msg.value, _token, _tokensNumber);\r\n    }\r\n\r\n    function managedBid(uint64 _managedBidder, uint256 _managedBid)\r\n        onlyBot\r\n        public\r\n        returns (bool isHighest)\r\n    {\r\n        return owner.managedBid(_managedBidder, _managedBid, 0x0);\r\n    }\r\n\r\n    function managedBid2(uint64 _managedBidder, uint256 _managedBid, address _knownManagedBidder)\r\n        onlyBot\r\n        public\r\n        returns (bool isHighest)\r\n    {\r\n        return owner.managedBid(_managedBidder, _managedBid, _knownManagedBidder);\r\n    }\r\n\r\n    function sendTokens(address _token, address _to, uint256 _amount)\r\n        onlyOwner\r\n        public\r\n        returns (bool)\r\n    {\r\n        return ERC20Basic(_token).transfer(_to, _amount);\r\n    }\r\n\r\n    function sendEther(address _to, uint256 _amount)\r\n        onlyOwner\r\n        public\r\n        returns (bool)\r\n    {\r\n        return _to.send(_amount);\r\n    }\r\n\r\n    function withdraw()\r\n        public\r\n        returns (bool success)\r\n    {\r\n        return owner.withdraw(msg.sender);\r\n    }\r\n\r\n    function finalize()\r\n        onlyBot\r\n        public\r\n        returns (bool)\r\n    {\r\n        return owner.finalize();\r\n    }\r\n\r\n    function cancel()\r\n        onlyBot\r\n        public\r\n        returns (bool success)\r\n    {\r\n        return  owner.cancel();\r\n    }\r\n\r\n    function totalDirectBid(address _bidder)\r\n        public\r\n        view\r\n        returns (uint256)\r\n    {\r\n        return owner.totalDirectBid(this, _bidder);\r\n    }\r\n\r\n    function maxTokenBidInEther()\r\n        public\r\n        view\r\n        returns (uint256)\r\n    {\r\n        var (,maxTokenBidInEther,,,,,,,,) = owner.auctionStates(this);\r\n        return maxTokenBidInEther;\r\n    }\r\n\r\n    function endSeconds()\r\n        public\r\n        view\r\n        returns (uint256)\r\n    {\r\n        var (endSeconds,,,,,,,,,) = owner.auctionStates(this);\r\n        return endSeconds;\r\n    }\r\n\r\n    function item()\r\n        public\r\n        view\r\n        returns (string)\r\n    {\r\n        var (,,,,,,,,,item) = owner.auctionStates(this);\r\n        bytes memory bytesArray = new bytes(32);\r\n        for (uint256 i; i < 32; i++) {\r\n            bytesArray[i] = item[i];\r\n            }\r\n        return string(bytesArray);\r\n    }\r\n\r\n    function minPrice()\r\n        public\r\n        view\r\n        returns (uint256)\r\n    {\r\n        var (,,minPrice,,,,,,,) = owner.auctionStates(this);\r\n        return minPrice;\r\n    }\r\n\r\n    function cancelled()\r\n        public\r\n        view\r\n        returns (bool)\r\n    {\r\n        var (,,,,,,cancelled,,,) = owner.auctionStates(this);\r\n        return cancelled;\r\n    }\r\n\r\n    function finalized()\r\n        public\r\n        view\r\n        returns (bool)\r\n    {\r\n        var (,,,,,,,finalized,,) = owner.auctionStates(this);\r\n        return finalized;\r\n    }\r\n\r\n    function highestBid()\r\n        public\r\n        view\r\n        returns (uint256)\r\n    {\r\n        var (,,,highestBid,,,,,,) = owner.auctionStates(this);\r\n        return highestBid;\r\n    }\r\n\r\n    function highestBidder()\r\n        public\r\n        view\r\n        returns (address)\r\n    {\r\n        var (,,,,highestBidder,,,,,) = owner.auctionStates(this);\r\n        return highestBidder;\r\n    }\r\n\r\n    function highestManagedBidder()\r\n        public\r\n        view\r\n        returns (uint64)\r\n    {\r\n        var (,,,,,highestManagedBidder,,,,) = owner.auctionStates(this);\r\n        return highestManagedBidder;\r\n    }\r\n\r\n    function allowManagedBids()\r\n        public\r\n        view\r\n        returns (bool)\r\n    {\r\n        var (,,,,,,allowManagedBids,,,) = owner.auctionStates(this);\r\n        return allowManagedBids;\r\n    }\r\n\r\n\r\n    // mapping(address => uint256) public etherBalances;\r\n    // mapping(address => uint256) public tokenBalances;\r\n    // mapping(address => uint256) public tokenBalancesInEther;\r\n    // mapping(address => uint256) public managedBids;\r\n    \r\n    // bool allowManagedBids;\r\n}\r\n\r\n\r\n// library AuctionFactory {\r\n\r\n//     event AuctionProduced(address indexed addr, string _item);\r\n\r\n//     function produce(\r\n//         address _wallet, \r\n//         uint _endSeconds, \r\n//         uint256 _weiPerToken, \r\n//         uint256 _maxTokens, \r\n//         string _item, \r\n//         uint256 _minPrice, \r\n//         bool _allowManagedBids\r\n//     )\r\n//         public\r\n//         returns (address)\r\n//     {\r\n//         address addr = new Auction(msg.sender, _wallet, 0x06147110022B768BA8F99A8f385df11a151A9cc8, _endSeconds, _weiPerToken, _maxTokens, _item, _minPrice, _allowManagedBids);\r\n//         AuctionProduced(addr, _item);\r\n//         return addr;\r\n//     }\r\n\r\n//     function produceForOwner(\r\n//         address _owner, \r\n//         address _wallet, \r\n//         uint _endSeconds, \r\n//         uint256 _weiPerToken, \r\n//         uint256 _maxTokens, \r\n//         string _item, \r\n//         uint256 _minPrice, \r\n//         bool _allowManagedBids\r\n//     )\r\n//         public\r\n//         returns (address)\r\n//     {\r\n//         address addr = new Auction(_owner, _wallet, 0x06147110022B768BA8F99A8f385df11a151A9cc8, _endSeconds, _weiPerToken, _maxTokens, _item, _minPrice, _allowManagedBids);\r\n//         AuctionProduced(addr, _item);\r\n//         return addr;\r\n//     }\r\n\r\n//     // token for testing\r\n//     function produceForOwnerCustomToken(\r\n//         address _owner, \r\n//         address _wallet, \r\n//         address _token,\r\n//         uint _endSeconds, \r\n//         uint256 _weiPerToken, \r\n//         uint256 _maxTokens, \r\n//         string _item, \r\n//         uint256 _minPrice, \r\n//         bool _allowManagedBids\r\n//     )\r\n//         public\r\n//         returns (address)\r\n//     {\r\n//         address addr = new Auction(_owner, _wallet, _token, _endSeconds, _weiPerToken, _maxTokens, _item, _minPrice, _allowManagedBids);\r\n//         AuctionProduced(addr, _item);\r\n//         return addr;\r\n//     }\r\n// }\r\n",
  "sourcePath": "C:\\MD\\Dev\\Solidity\\Auction\\contracts\\Auction.sol",
  "compiler": {
    "name": "solc",
    "version": "0.4.19+commit.c4cbbb05.Emscripten.clang"
  },
  "schemaVersion": "1.0.1",
  "updatedAt": "2018-02-27T02:40:21.295Z"
}