{
  "contractName": "Auction",
  "abi": [
    {
      "constant": false,
      "inputs": [],
      "name": "withdraw",
      "outputs": [
        {
          "name": "success",
          "type": "bool"
        }
      ],
      "payable": false,
      "stateMutability": "nonpayable",
      "type": "function"
    },
    {
      "constant": false,
      "inputs": [],
      "name": "finalize",
      "outputs": [
        {
          "name": "",
          "type": "bool"
        }
      ],
      "payable": false,
      "stateMutability": "nonpayable",
      "type": "function"
    },
    {
      "constant": true,
      "inputs": [],
      "name": "maxTokenBidInEther",
      "outputs": [
        {
          "name": "",
          "type": "uint256"
        }
      ],
      "payable": false,
      "stateMutability": "view",
      "type": "function"
    },
    {
      "constant": true,
      "inputs": [],
      "name": "endSeconds",
      "outputs": [
        {
          "name": "",
          "type": "uint256"
        }
      ],
      "payable": false,
      "stateMutability": "view",
      "type": "function"
    },
    {
      "constant": false,
      "inputs": [
        {
          "name": "_token",
          "type": "address"
        },
        {
          "name": "_tokensNumber",
          "type": "uint256"
        }
      ],
      "name": "bid",
      "outputs": [
        {
          "name": "isHighest",
          "type": "bool"
        }
      ],
      "payable": true,
      "stateMutability": "payable",
      "type": "function"
    },
    {
      "constant": false,
      "inputs": [
        {
          "name": "_managedBidder",
          "type": "uint64"
        },
        {
          "name": "_managedBid",
          "type": "uint256"
        }
      ],
      "name": "managedBid",
      "outputs": [
        {
          "name": "isHighest",
          "type": "bool"
        }
      ],
      "payable": false,
      "stateMutability": "nonpayable",
      "type": "function"
    },
    {
      "constant": true,
      "inputs": [],
      "name": "owner",
      "outputs": [
        {
          "name": "",
          "type": "address"
        }
      ],
      "payable": false,
      "stateMutability": "view",
      "type": "function"
    },
    {
      "constant": true,
      "inputs": [
        {
          "name": "_bidder",
          "type": "address"
        }
      ],
      "name": "totalDirectBid",
      "outputs": [
        {
          "name": "",
          "type": "uint256"
        }
      ],
      "payable": false,
      "stateMutability": "view",
      "type": "function"
    },
    {
      "constant": true,
      "inputs": [],
      "name": "highestBidder",
      "outputs": [
        {
          "name": "",
          "type": "address"
        }
      ],
      "payable": false,
      "stateMutability": "view",
      "type": "function"
    },
    {
      "constant": false,
      "inputs": [
        {
          "name": "_managedBidder",
          "type": "uint64"
        },
        {
          "name": "_managedBid",
          "type": "uint256"
        },
        {
          "name": "_knownManagedBidder",
          "type": "address"
        }
      ],
      "name": "managedBid2",
      "outputs": [
        {
          "name": "isHighest",
          "type": "bool"
        }
      ],
      "payable": false,
      "stateMutability": "nonpayable",
      "type": "function"
    },
    {
      "constant": true,
      "inputs": [],
      "name": "cancelled",
      "outputs": [
        {
          "name": "",
          "type": "bool"
        }
      ],
      "payable": false,
      "stateMutability": "view",
      "type": "function"
    },
    {
      "constant": true,
      "inputs": [],
      "name": "highestManagedBidder",
      "outputs": [
        {
          "name": "",
          "type": "uint64"
        }
      ],
      "payable": false,
      "stateMutability": "view",
      "type": "function"
    },
    {
      "constant": true,
      "inputs": [],
      "name": "allowManagedBids",
      "outputs": [
        {
          "name": "",
          "type": "bool"
        }
      ],
      "payable": false,
      "stateMutability": "view",
      "type": "function"
    },
    {
      "constant": true,
      "inputs": [],
      "name": "finalized",
      "outputs": [
        {
          "name": "",
          "type": "bool"
        }
      ],
      "payable": false,
      "stateMutability": "view",
      "type": "function"
    },
    {
      "constant": false,
      "inputs": [
        {
          "name": "_to",
          "type": "address"
        },
        {
          "name": "_amount",
          "type": "uint256"
        }
      ],
      "name": "sendEther",
      "outputs": [
        {
          "name": "",
          "type": "bool"
        }
      ],
      "payable": false,
      "stateMutability": "nonpayable",
      "type": "function"
    },
    {
      "constant": true,
      "inputs": [],
      "name": "highestBid",
      "outputs": [
        {
          "name": "",
          "type": "uint256"
        }
      ],
      "payable": false,
      "stateMutability": "view",
      "type": "function"
    },
    {
      "constant": true,
      "inputs": [],
      "name": "minPrice",
      "outputs": [
        {
          "name": "",
          "type": "uint256"
        }
      ],
      "payable": false,
      "stateMutability": "view",
      "type": "function"
    },
    {
      "constant": false,
      "inputs": [
        {
          "name": "_token",
          "type": "address"
        },
        {
          "name": "_to",
          "type": "address"
        },
        {
          "name": "_amount",
          "type": "uint256"
        }
      ],
      "name": "sendTokens",
      "outputs": [
        {
          "name": "",
          "type": "bool"
        }
      ],
      "payable": false,
      "stateMutability": "nonpayable",
      "type": "function"
    },
    {
      "constant": false,
      "inputs": [],
      "name": "cancel",
      "outputs": [
        {
          "name": "success",
          "type": "bool"
        }
      ],
      "payable": false,
      "stateMutability": "nonpayable",
      "type": "function"
    },
    {
      "constant": true,
      "inputs": [],
      "name": "item",
      "outputs": [
        {
          "name": "",
          "type": "string"
        }
      ],
      "payable": false,
      "stateMutability": "view",
      "type": "function"
    },
    {
      "inputs": [
        {
          "name": "_owner",
          "type": "address"
        }
      ],
      "payable": false,
      "stateMutability": "nonpayable",
      "type": "constructor"
    },
    {
      "payable": true,
      "stateMutability": "payable",
      "type": "fallback"
    }
  ],
  "bytecode": "0x6060604052341561000f57600080fd5b6040516020806112d983398101604052808051915050600160a060020a038116151561003a57600080fd5b60008054600160a060020a03909216600160a060020a031990921691909117905561126f8061006a6000396000f3006060604052600436106100f85763ffffffff60e060020a6000350416633ccfd60b811461018b5780634bb278f3146101b25780634c8cb943146101c55780634c936ea8146101ea57806359d667a5146101fd57806386c1497c146102145780638da5cb5b1461023757806390d0da9f1461026657806391f90157146102855780639914c2e3146102985780639a82a09a146102c75780639b412150146102da5780639d6e6538146102c7578063b3f05b971461030a578063c1756a2c1461031d578063d57bde791461033f578063e45be8eb14610352578063e6d66ac814610365578063ea8a1af01461038d578063f2a4a82e146103a0575b60008054600160a060020a03169063b5678588903390349080806040516020015260405160e060020a63ffffffff8716028152600160a060020a0394851660048201526024810193909352921660448201526064810191909152608401602060405180830381600087803b151561016e57600080fd5b6102c65a03f1151561017f57600080fd5b50505060405180515050005b341561019657600080fd5b61019e61042a565b604051901515815260200160405180910390f35b34156101bd57600080fd5b61019e6104a2565b34156101d057600080fd5b6101d861056a565b60405190815260200160405180910390f35b34156101f557600080fd5b6101d8610627565b61019e600160a060020a03600435166024356106e4565b341561021f57600080fd5b61019e67ffffffffffffffff6004351660243561082c565b341561024257600080fd5b61024a610920565b604051600160a060020a03909116815260200160405180910390f35b341561027157600080fd5b6101d8600160a060020a036004351661092f565b341561029057600080fd5b61024a6109b0565b34156102a357600080fd5b61019e67ffffffffffffffff60043516602435600160a060020a0360443516610a6d565b34156102d257600080fd5b61019e610b84565b34156102e557600080fd5b6102ed610c41565b60405167ffffffffffffffff909116815260200160405180910390f35b341561031557600080fd5b61019e610cfe565b341561032857600080fd5b61019e600160a060020a0360043516602435610dbb565b341561034a57600080fd5b6101d8610e03565b341561035d57600080fd5b6101d8610ec0565b341561037057600080fd5b61019e600160a060020a0360043581169060243516604435610f7d565b341561039857600080fd5b61019e610ff6565b34156103ab57600080fd5b6103b36110be565b60405160208082528190810183818151815260200191508051906020019080838360005b838110156103ef5780820151838201526020016103d7565b50505050905090810190601f16801561041c5780820380516001836020036101000a031916815260200191505b509250505060405180910390f35b60008054600160a060020a03166351cff8d933836040516020015260405160e060020a63ffffffff8416028152600160a060020a039091166004820152602401602060405180830381600087803b151561048357600080fd5b6102c65a03f1151561049457600080fd5b505050604051805191505090565b60008054600160a060020a0316633bbac57933836040516020015260405160e060020a63ffffffff8416028152600160a060020a039091166004820152602401602060405180830381600087803b15156104fb57600080fd5b6102c65a03f1151561050c57600080fd5b50505060405180519050151561052157600080fd5b60008054600160a060020a031690634bb278f390604051602001526040518163ffffffff1660e060020a028152600401602060405180830381600087803b151561048357600080fd5b600080548190600160a060020a031663265d90353083604051610140015260405160e060020a63ffffffff8416028152600160a060020a03909116600482015260240161014060405180830381600087803b15156105c757600080fd5b6102c65a03f115156105d857600080fd5b505050604051805190602001805190602001805190602001805190602001805190602001805190602001805190602001805190602001805190602001805150979b9a5050505050505050505050565b600080548190600160a060020a031663265d90353083604051610140015260405160e060020a63ffffffff8416028152600160a060020a03909116600482015260240161014060405180830381600087803b151561068457600080fd5b6102c65a03f1151561069557600080fd5b505050604051805190602001805190602001805190602001805190602001805190602001805190602001805190602001805190602001805190602001805150989b9a5050505050505050505050565b6000600160a060020a038316158015906106fe5750600082115b156107935782600160a060020a03166323b872dd33308560006040516020015260405160e060020a63ffffffff8616028152600160a060020a0393841660048201529190921660248201526044810191909152606401602060405180830381600087803b151561076d57600080fd5b6102c65a03f1151561077e57600080fd5b50505060405180519050151561079357600080fd5b60008054600160a060020a03169063b56785889033903490879087906040516020015260405160e060020a63ffffffff8716028152600160a060020a0394851660048201526024810193909352921660448201526064810191909152608401602060405180830381600087803b151561080b57600080fd5b6102c65a03f1151561081c57600080fd5b5050506040518051949350505050565b60008054600160a060020a0316633bbac57933836040516020015260405160e060020a63ffffffff8416028152600160a060020a039091166004820152602401602060405180830381600087803b151561088557600080fd5b6102c65a03f1151561089657600080fd5b5050506040518051905015156108ab57600080fd5b60008054600160a060020a03169063713674cf9085908590806040516020015260405160e060020a63ffffffff861602815267ffffffffffffffff90931660048401526024830191909152600160a060020a03166044820152606401602060405180830381600087803b151561080b57600080fd5b600054600160a060020a031681565b60008054600160a060020a03166321b666b53084846040516020015260405160e060020a63ffffffff8516028152600160a060020a03928316600482015291166024820152604401602060405180830381600087803b151561099057600080fd5b6102c65a03f115156109a157600080fd5b50505060405180519392505050565b600080548190600160a060020a031663265d90353083604051610140015260405160e060020a63ffffffff8416028152600160a060020a03909116600482015260240161014060405180830381600087803b1515610a0d57600080fd5b6102c65a03f11515610a1e57600080fd5b505050604051805190602001805190602001805190602001805190602001805190602001805190602001805190602001805190602001805190602001805150949b9a5050505050505050505050565b60008054600160a060020a0316633bbac57933836040516020015260405160e060020a63ffffffff8416028152600160a060020a039091166004820152602401602060405180830381600087803b1515610ac657600080fd5b6102c65a03f11515610ad757600080fd5b505050604051805190501515610aec57600080fd5b60008054600160a060020a03169063713674cf908690869086906040516020015260405160e060020a63ffffffff861602815267ffffffffffffffff90931660048401526024830191909152600160a060020a03166044820152606401602060405180830381600087803b1515610b6257600080fd5b6102c65a03f11515610b7357600080fd5b505050604051805195945050505050565b600080548190600160a060020a031663265d90353083604051610140015260405160e060020a63ffffffff8416028152600160a060020a03909116600482015260240161014060405180830381600087803b1515610be157600080fd5b6102c65a03f11515610bf257600080fd5b505050604051805190602001805190602001805190602001805190602001805190602001805190602001805190602001805190602001805190602001805150929b9a5050505050505050505050565b600080548190600160a060020a031663265d90353083604051610140015260405160e060020a63ffffffff8416028152600160a060020a03909116600482015260240161014060405180830381600087803b1515610c9e57600080fd5b6102c65a03f11515610caf57600080fd5b505050604051805190602001805190602001805190602001805190602001805190602001805190602001805190602001805190602001805190602001805150939b9a5050505050505050505050565b600080548190600160a060020a031663265d90353083604051610140015260405160e060020a63ffffffff8416028152600160a060020a03909116600482015260240161014060405180830381600087803b1515610d5b57600080fd5b6102c65a03f11515610d6c57600080fd5b505050604051805190602001805190602001805190602001805190602001805190602001805190602001805190602001805190602001805190602001805150919b9a5050505050505050505050565b6000805433600160a060020a03908116911614610dd757600080fd5b600160a060020a03831682156108fc0283604051600060405180830381858888f1979650505050505050565b600080548190600160a060020a031663265d90353083604051610140015260405160e060020a63ffffffff8416028152600160a060020a03909116600482015260240161014060405180830381600087803b1515610e6057600080fd5b6102c65a03f11515610e7157600080fd5b505050604051805190602001805190602001805190602001805190602001805190602001805190602001805190602001805190602001805190602001805150959b9a5050505050505050505050565b600080548190600160a060020a031663265d90353083604051610140015260405160e060020a63ffffffff8416028152600160a060020a03909116600482015260240161014060405180830381600087803b1515610f1d57600080fd5b6102c65a03f11515610f2e57600080fd5b505050604051805190602001805190602001805190602001805190602001805190602001805190602001805190602001805190602001805190602001805150969b9a5050505050505050505050565b6000805433600160a060020a03908116911614610f9957600080fd5b83600160a060020a031663a9059cbb848460006040516020015260405160e060020a63ffffffff8516028152600160a060020a0390921660048301526024820152604401602060405180830381600087803b1515610b6257600080fd5b60008054600160a060020a0316633bbac57933836040516020015260405160e060020a63ffffffff8416028152600160a060020a039091166004820152602401602060405180830381600087803b151561104f57600080fd5b6102c65a03f1151561106057600080fd5b50505060405180519050151561107557600080fd5b60008054600160a060020a03169063ea8a1af090604051602001526040518163ffffffff1660e060020a028152600401602060405180830381600087803b151561048357600080fd5b6110c6611231565b60006110d0611231565b60008054600160a060020a031663265d90353083604051610140015260405160e060020a63ffffffff8416028152600160a060020a03909116600482015260240161014060405180830381600087803b151561112b57600080fd5b6102c65a03f1151561113c57600080fd5b505050604051805190602001805190602001805190602001805190602001805190602001805190602001805190602001805190602001805190602001805190509b5050505050505050505060206040518059106111965750595b818152601f19601f8301168101602001604052905091505b602081101561122a578281602081106111c357fe5b1a7f0100000000000000000000000000000000000000000000000000000000000000028282815181106111f257fe5b9060200101907effffffffffffffffffffffffffffffffffffffffffffffffffffffffffffff1916908160001a9053506001016111ae565b5092915050565b602060405190810160405260008152905600a165627a7a7230582069c0c4ad8fa9eb910f0c686d19316ca64e91e0690e9a0709a95546054b4e0b8d0029",
  "source": "pragma solidity ^0.4.18;\r\n\r\nimport 'soltsice/contracts/BotManageable.sol';\r\nimport 'zeppelin-solidity/contracts/math/SafeMath.sol';\r\n\r\ncontract ERC20Basic {\r\n    function totalSupply() public view returns (uint256);\r\n    function transferFrom(address from, address to, uint256 value) public returns (bool);\r\n    function transfer(address to, uint256 value) public returns (bool);\r\n}\r\n\r\ncontract AuctionHub is BotManageable {\r\n    using SafeMath for uint256;\r\n\r\n    /*\r\n     *  Data structures\r\n     */\r\n    \r\n    struct TokenBalance {\r\n        address token;\r\n        uint256 value;\r\n    }\r\n\r\n    struct TokenRate {\r\n        uint256 value;\r\n        uint256 decimals;\r\n    }\r\n\r\n    struct BidderState {\r\n        uint256 etherBalance;\r\n        uint256 tokensBalanceInEther;\r\n        uint256 managedBid;\r\n        TokenBalance[] tokenBalances;\r\n    }\r\n\r\n    struct ActionState {\r\n        uint256 endSeconds;\r\n        uint256 maxTokenBidInEther;\r\n        uint256 minPrice;\r\n        \r\n        uint256 highestBid;\r\n        \r\n        // next 5 fields should be packed into one 32-bytes slot\r\n        address highestBidder;\r\n        uint64 highestManagedBidder;\r\n        bool allowManagedBids;\r\n        bool cancelled;\r\n        bool finalized;\r\n\r\n        mapping(address => BidderState) bidderStates;\r\n\r\n        bytes32 item;\r\n    }\r\n\r\n    /*\r\n     *  Storage\r\n     */\r\n    mapping(address => ActionState) public auctionStates;\r\n    mapping(address => TokenRate) public tokenRates;\r\n\r\n    /*\r\n     *  Events\r\n     */\r\n\r\n    event NewAction(address indexed auction, string item);\r\n    event Bid(address indexed auction, address bidder, uint256 totalBidInEther, uint256 indexed tokensBidInEther);\r\n    event TokenBid(address indexed auction, address bidder, address token, uint256 numberOfTokens);\r\n    event ManagedBid(address indexed auction, uint64 bidder, uint256 bid, address knownManagedBidder);\r\n    event NewHighestBidder(address indexed auction, address bidder, uint64 managedBidder, uint256 totalBid);\r\n    event TokenRateUpdate(address indexed token, uint256 rate);\r\n    event Withdrawal(address indexed auction, address bidder, uint256 etherAmount, uint256 tokensBidInEther);\r\n    event Charity(address indexed auction, address bidder, uint256 etherAmount, uint256 tokensAmount);\r\n    event Finalized(address indexed auction, address highestBidder, uint64 highestManagedBidder, uint256 amount);\r\n    event FinalizedTokenTransfer(address indexed auction, address token, uint256 tokensBidInEther);\r\n    event FinalizedEtherTransfer(address indexed auction, uint256 etherAmount);\r\n    event ExtendedEndTime(address indexed auction, uint256 newEndtime);\r\n    event Cancelled(address indexed auction);\r\n\r\n    /*\r\n     *  Modifiers\r\n     */\r\n\r\n    modifier onlyActive {\r\n        // NB this modifier also serves as check that an auction exists (otherwise endSeconds == 0)\r\n        ActionState storage auctionState = auctionStates[msg.sender];\r\n        require (now < auctionState.endSeconds && !auctionState.cancelled);\r\n        _;\r\n    }\r\n\r\n    modifier onlyBeforeEnd {\r\n        // NB this modifier also serves as check that an auction exists (otherwise endSeconds == 0)\r\n        ActionState storage auctionState = auctionStates[msg.sender];\r\n        require (now < auctionState.endSeconds);\r\n        _;\r\n    }\r\n\r\n    modifier onlyAfterEnd {\r\n        ActionState storage auctionState = auctionStates[msg.sender];\r\n        require (now > auctionState.endSeconds && auctionState.endSeconds > 0);\r\n        _;\r\n    }\r\n\r\n    modifier onlyNotCancelled {\r\n        ActionState storage auctionState = auctionStates[msg.sender];\r\n        require (!auctionState.cancelled);\r\n        _;\r\n    }\r\n\r\n    modifier onlyAllowedManagedBids {\r\n        ActionState storage auctionState = auctionStates[msg.sender];\r\n        require (auctionState.allowManagedBids);\r\n        _;\r\n    }\r\n\r\n    /*\r\n     * _rates are per big token (e.g. Ether vs. wei), i.e. number of wei per [number of tokens]*[10 ** decimals]\r\n     */\r\n    function AuctionHub \r\n        (address _wallet, address[] _tokens, uint256[] _rates, uint256[] _decimals)\r\n        public\r\n        BotManageable(_wallet)\r\n    {\r\n        // make sender a bot to avoid an additional step\r\n        botsStartEndTime[msg.sender] = uint128(now) << 64;\r\n\r\n        require(_tokens.length == _rates.length);\r\n        require(_tokens.length == _decimals.length);\r\n\r\n        // save initial token list\r\n        for (uint i = 0; i < _tokens.length; i++) {\r\n            require(_tokens[i] != 0x0);\r\n            require(_rates[i] > 0);\r\n            ERC20Basic token = ERC20Basic(_tokens[i]);\r\n            tokenRates[token] = TokenRate(_rates[i], _decimals[i]);\r\n            TokenRateUpdate(token, _rates[i]);\r\n        }\r\n    }\r\n\r\n    function stringToBytes32(string memory source) returns (bytes32 result) {\r\n        bytes memory tempEmptyStringTest = bytes(source);\r\n        if (tempEmptyStringTest.length == 0) {\r\n            return 0x0;\r\n        }\r\n\r\n        assembly {\r\n            result := mload(add(source, 32))\r\n        }\r\n    }\r\n\r\n    function createAuction(\r\n        uint _endSeconds, \r\n        uint256 _maxTokenBidInEther,\r\n        uint256 _minPrice,\r\n        string _item,\r\n        bool _allowManagedBids\r\n    )\r\n        onlyBot\r\n        public\r\n        returns (address)\r\n    {\r\n        require (_endSeconds > now);\r\n        require(_maxTokenBidInEther <= 1000 ether);\r\n        require(_minPrice > 0);\r\n\r\n        Auction auction = new Auction(this);\r\n\r\n        ActionState storage auctionState = auctionStates[auction];\r\n\r\n        auctionState.endSeconds = _endSeconds;\r\n        auctionState.maxTokenBidInEther = _maxTokenBidInEther;\r\n        auctionState.minPrice = _minPrice;\r\n        auctionState.allowManagedBids = _allowManagedBids;\r\n        string memory item = _item;\r\n        auctionState.item = stringToBytes32(item);\r\n\r\n        NewAction(auction, _item);\r\n        return address(auction);\r\n    }\r\n\r\n    function () \r\n        payable\r\n        public\r\n    {\r\n        throw;\r\n        // It's charity!\r\n        // require(wallet.send(msg.value));\r\n        // Charity(0x0, msg.sender, msg.value, 0);\r\n    }\r\n\r\n    function bid(address _bidder, uint256 _value, address _token, uint256 _tokensNumber)\r\n        // onlyActive - inline check to reuse auctionState variable\r\n        public\r\n        returns (bool isHighest)\r\n    {\r\n        ActionState storage auctionState = auctionStates[msg.sender];\r\n        // same as onlyActive modifier, but we already have a variable here\r\n        require (now < auctionState.endSeconds && !auctionState.cancelled);\r\n\r\n        BidderState storage bidderState = auctionState.bidderStates[_bidder];\r\n        \r\n        uint256 totalBid;\r\n        if (_tokensNumber > 0) {\r\n            totalBid = tokenBid(msg.sender, _bidder,  _token, _tokensNumber);\r\n        }else {\r\n            require(_value > 0);\r\n\r\n            // NB if current token bid == 0 we still could have previous token bids\r\n            totalBid = bidderState.tokensBalanceInEther;\r\n        }\r\n\r\n        uint256 etherBid = bidderState.etherBalance + _value;\r\n        bidderState.etherBalance = etherBid;\r\n        totalBid = totalBid + etherBid + bidderState.managedBid;\r\n\r\n        if (totalBid > auctionState.highestBid && totalBid >= auctionState.minPrice) {\r\n            auctionState.highestBid = totalBid;\r\n            auctionState.highestBidder = _bidder;\r\n            auctionState.highestManagedBidder = 0;\r\n            NewHighestBidder(msg.sender, _bidder, 0, totalBid);\r\n            if ((auctionState.endSeconds - now) < 1800) {\r\n                uint256 newEnd = now + 1800;\r\n                auctionState.endSeconds = newEnd;\r\n                ExtendedEndTime(msg.sender, newEnd);\r\n            }\r\n            isHighest = true;\r\n        }\r\n\r\n        Bid(msg.sender, _bidder, totalBid, totalBid - etherBid);\r\n\r\n        return isHighest;\r\n    }\r\n\r\n    function tokenBid(address _auction, address _bidder, address _token, uint256 _tokensNumber)\r\n        internal\r\n        returns (uint256 tokenBid)\r\n    {\r\n        // NB actual token transfer happens in auction contracts, which owns both ether and tokens\r\n        // This Hub contract is for accounting\r\n\r\n        ActionState storage auctionState = auctionStates[_auction];\r\n        BidderState storage bidderState = auctionState.bidderStates[_bidder];\r\n        \r\n        uint256 totalBid = bidderState.tokensBalanceInEther;\r\n\r\n        TokenRate storage tokenRate = tokenRates[_token];\r\n        require(tokenRate.value > 0);\r\n\r\n        // find token index\r\n        uint256 index = bidderState.tokenBalances.length;\r\n        for (uint i = 0; i < index; i++) {\r\n            if (bidderState.tokenBalances[i].token == _token) {\r\n                index = i;\r\n                break;\r\n            }\r\n        }\r\n\r\n        // array was empty/token not found - push empty to the end\r\n        if (index == bidderState.tokenBalances.length) {\r\n            bidderState.tokenBalances.push(TokenBalance(_token, _tokensNumber));\r\n        } else {\r\n            // safe math is already in transferFrom\r\n            bidderState.tokenBalances[index].value += _tokensNumber;\r\n        }\r\n\r\n        // tokenRate.value is for a whole/big token (e.g. ether vs. wei) but _tokensNumber is in small/wei tokens, need to divide by decimals\r\n        totalBid = totalBid + _tokensNumber.mul(tokenRate.value).div(10 ** tokenRate.decimals);\r\n        require(totalBid <= auctionState.maxTokenBidInEther);\r\n\r\n        bidderState.tokensBalanceInEther = totalBid;\r\n\r\n        TokenBid(_auction, _bidder, _token, _tokensNumber);\r\n\r\n        return totalBid;\r\n    }\r\n\r\n    function managedBid(uint64 _managedBidder, uint256 _managedBid, address _knownManagedBidder)\r\n        // onlyActive - inline check to reuse auctionState variable\r\n        // onlyAllowedManagedBids - inline check to reuse auctionState variable\r\n        // onlyBot - done in Auction that is msg.sender, only bot could create auctions and set endSeconds to non-zero\r\n        public\r\n        returns (bool isHighest)\r\n    {\r\n        require(_managedBidder != 0);\r\n\r\n        ActionState storage auctionState = auctionStates[msg.sender];\r\n        // same as onlyActive+onlyAllowedManagedBids modifiers, but we already have a variable here\r\n        require (now < auctionState.endSeconds && !auctionState.cancelled && auctionState.allowManagedBids);\r\n\r\n        \r\n        // sum with direct bid if any\r\n        uint256 directBid = 0;\r\n        if (_knownManagedBidder != 0x0) {\r\n            BidderState storage bidderState = auctionState.bidderStates[_knownManagedBidder];\r\n            require(_managedBid > bidderState.managedBid);\r\n            bidderState.managedBid = _managedBid;\r\n            directBid = bidderState.tokensBalanceInEther + bidderState.etherBalance;\r\n        }\r\n\r\n        // NB: _managedBid is the total amount of all bids from backend\r\n        // calculated without any direct bid. It is important to calculate direct bids\r\n        // inside this transaction and make the _knownManagedBidder the highest\r\n        // to prevent this wallet to withdraw money and remain the highest\r\n\r\n        uint256 totalBid = directBid + _managedBid;\r\n\r\n        if (totalBid > auctionState.highestBid && totalBid >= auctionState.minPrice) {\r\n            auctionState.highestBid = totalBid;\r\n            auctionState.highestBidder = _knownManagedBidder;\r\n            auctionState.highestManagedBidder = _managedBidder;\r\n            \r\n            NewHighestBidder(msg.sender, _knownManagedBidder, _managedBidder, totalBid);\r\n\r\n            if ((auctionState.endSeconds - now) < 1800) {\r\n                uint256 newEnd = now + 1800;\r\n                auctionState.endSeconds = newEnd;\r\n                ExtendedEndTime(msg.sender, newEnd);\r\n            }\r\n            isHighest = true;\r\n        }\r\n        // event ManagedBid(address indexed auction, uint64 bidder, uint256 bid, address knownManagedBidder);\r\n        ManagedBid(msg.sender, _managedBidder, _managedBid, _knownManagedBidder);\r\n        return isHighest;\r\n    }\r\n\r\n    function totalDirectBid(address _auction, address _bidder)\r\n        view\r\n        public\r\n        returns (uint256 _totalBid)\r\n    {\r\n        ActionState storage auctionState = auctionStates[_auction];\r\n        BidderState storage bidderState = auctionState.bidderStates[_bidder];\r\n        return bidderState.tokensBalanceInEther + bidderState.etherBalance;\r\n    }\r\n\r\n    function setTokenRate(address _token, uint256 _tokenRate)\r\n        onlyBot\r\n        public\r\n    {\r\n        TokenRate storage tokenRate = tokenRates[_token];\r\n        require(tokenRate.value > 0);\r\n        tokenRate.value = _tokenRate;\r\n        TokenRateUpdate(_token, _tokenRate);\r\n    }\r\n\r\n    function withdraw(address _bidder)\r\n        public\r\n        returns (bool success)\r\n    {\r\n        ActionState storage auctionState = auctionStates[msg.sender];\r\n        BidderState storage bidderState = auctionState.bidderStates[_bidder];\r\n\r\n        bool sent; \r\n\r\n        // anyone could withdraw at any time except the highest bidder\r\n        // if cancelled, the highest bidder could withdraw as well\r\n        require((_bidder != auctionState.highestBidder) || auctionState.cancelled);\r\n        uint256 tokensBalanceInEther = bidderState.tokensBalanceInEther;\r\n        if (bidderState.tokenBalances.length > 0) {\r\n            for (uint i = 0; i < bidderState.tokenBalances.length; i++) {\r\n                uint256 tokenBidValue = bidderState.tokenBalances[i].value;\r\n                if (tokenBidValue > 0) {\r\n                    bidderState.tokenBalances[i].value = 0;\r\n                    sent = Auction(msg.sender).sendTokens(bidderState.tokenBalances[i].token, _bidder, tokenBidValue);\r\n                    require(sent);\r\n                }\r\n            }\r\n            bidderState.tokensBalanceInEther = 0;\r\n        } else {\r\n            require(tokensBalanceInEther == 0);\r\n        }\r\n\r\n        uint256 etherBid = bidderState.etherBalance;\r\n        if (etherBid > 0) {\r\n            bidderState.etherBalance = 0;\r\n            sent = Auction(msg.sender).sendEther(_bidder, etherBid);\r\n            require(sent);\r\n        }\r\n\r\n        Withdrawal(msg.sender, _bidder, etherBid, tokensBalanceInEther);\r\n        \r\n        return true;\r\n    }\r\n\r\n    function finalize()\r\n        // onlyNotCancelled - inline check to reuse auctionState variable\r\n        // onlyAfterEnd - inline check to reuse auctionState variable\r\n        public\r\n        returns (bool)\r\n    {\r\n        ActionState storage auctionState = auctionStates[msg.sender];\r\n        // same as onlyNotCancelled+onlyAfterEnd modifiers, but we already have a variable here\r\n        require (!auctionState.finalized && now > auctionState.endSeconds && auctionState.endSeconds > 0 && !auctionState.cancelled);\r\n\r\n        if (auctionState.highestBidder != address(0)) {\r\n            bool sent; \r\n            BidderState storage bidderState = auctionState.bidderStates[auctionState.highestBidder];\r\n            uint256 tokensBalanceInEther = bidderState.tokensBalanceInEther;\r\n            if (bidderState.tokenBalances.length > 0) {\r\n                for (uint i = 0; i < bidderState.tokenBalances.length; i++) {\r\n                    uint256 tokenBid = bidderState.tokenBalances[i].value;\r\n                    if (tokenBid > 0) {\r\n                        bidderState.tokenBalances[i].value = 0;\r\n                        sent = Auction(msg.sender).sendTokens(bidderState.tokenBalances[i].token, wallet, tokenBid);\r\n                        require(sent);\r\n                        FinalizedTokenTransfer(msg.sender, bidderState.tokenBalances[i].token, tokenBid);\r\n                    }\r\n                }\r\n                bidderState.tokensBalanceInEther = 0;\r\n            } else {\r\n                require(tokensBalanceInEther == 0);\r\n            }\r\n            \r\n            uint256 etherBid = bidderState.etherBalance;\r\n            if (etherBid > 0) {\r\n                bidderState.etherBalance = 0;\r\n                sent = Auction(msg.sender).sendEther(wallet, etherBid);\r\n                require(sent);\r\n                FinalizedEtherTransfer(msg.sender, etherBid);\r\n            }\r\n        }\r\n\r\n        auctionState.finalized = true;\r\n        Finalized(msg.sender, auctionState.highestBidder, auctionState.highestManagedBidder, auctionState.highestBid);\r\n        return true;\r\n    }\r\n\r\n    function cancel()\r\n        // onlyActive - inline check to reuse auctionState variable\r\n        public\r\n        returns (bool success)\r\n    {\r\n        ActionState storage auctionState = auctionStates[msg.sender];\r\n        // same as onlyActive modifier, but we already have a variable here\r\n        require (now < auctionState.endSeconds && !auctionState.cancelled);\r\n\r\n        auctionState.cancelled = true;\r\n        Cancelled(msg.sender);\r\n        return true;\r\n    }\r\n\r\n}\r\n\r\n\r\ncontract Auction {\r\n\r\n    AuctionHub public owner;\r\n\r\n    modifier onlyOwner {\r\n        require(owner == msg.sender);\r\n        _;\r\n    }\r\n\r\n    modifier onlyBot {\r\n        require(owner.isBot(msg.sender));\r\n        _;\r\n    }\r\n\r\n    modifier onlyNotBot {\r\n        require(!owner.isBot(msg.sender));\r\n        _;\r\n    }\r\n\r\n    function Auction(\r\n        address _owner\r\n    ) \r\n        public \r\n    {\r\n        require(_owner != address(0x0));\r\n        owner = AuctionHub(_owner);\r\n    }\r\n\r\n    function () \r\n        payable\r\n        public\r\n    {\r\n        owner.bid(msg.sender, msg.value, 0x0, 0);\r\n    }\r\n\r\n    function bid(address _token, uint256 _tokensNumber)\r\n        payable\r\n        public\r\n        returns (bool isHighest)\r\n    {\r\n        if (_token != 0x0 && _tokensNumber > 0) {\r\n            require(ERC20Basic(_token).transferFrom(msg.sender, this, _tokensNumber));\r\n        }\r\n        return owner.bid(msg.sender, msg.value, _token, _tokensNumber);\r\n    }\r\n\r\n    function managedBid(uint64 _managedBidder, uint256 _managedBid)\r\n        onlyBot\r\n        public\r\n        returns (bool isHighest)\r\n    {\r\n        return owner.managedBid(_managedBidder, _managedBid, 0x0);\r\n    }\r\n\r\n    function managedBid2(uint64 _managedBidder, uint256 _managedBid, address _knownManagedBidder)\r\n        onlyBot\r\n        public\r\n        returns (bool isHighest)\r\n    {\r\n        return owner.managedBid(_managedBidder, _managedBid, _knownManagedBidder);\r\n    }\r\n\r\n    function sendTokens(address _token, address _to, uint256 _amount)\r\n        onlyOwner\r\n        public\r\n        returns (bool)\r\n    {\r\n        return ERC20Basic(_token).transfer(_to, _amount);\r\n    }\r\n\r\n    function sendEther(address _to, uint256 _amount)\r\n        onlyOwner\r\n        public\r\n        returns (bool)\r\n    {\r\n        return _to.send(_amount);\r\n    }\r\n\r\n    function withdraw()\r\n        public\r\n        returns (bool success)\r\n    {\r\n        return owner.withdraw(msg.sender);\r\n    }\r\n\r\n    function finalize()\r\n        onlyBot\r\n        public\r\n        returns (bool)\r\n    {\r\n        return owner.finalize();\r\n    }\r\n\r\n    function cancel()\r\n        onlyBot\r\n        public\r\n        returns (bool success)\r\n    {\r\n        return  owner.cancel();\r\n    }\r\n\r\n    function totalDirectBid(address _bidder)\r\n        public\r\n        view\r\n        returns (uint256)\r\n    {\r\n        return owner.totalDirectBid(this, _bidder);\r\n    }\r\n\r\n    function maxTokenBidInEther()\r\n        public\r\n        view\r\n        returns (uint256)\r\n    {\r\n        var (,maxTokenBidInEther,,,,,,,,) = owner.auctionStates(this);\r\n        return maxTokenBidInEther;\r\n    }\r\n\r\n    function endSeconds()\r\n        public\r\n        view\r\n        returns (uint256)\r\n    {\r\n        var (endSeconds,,,,,,,,,) = owner.auctionStates(this);\r\n        return endSeconds;\r\n    }\r\n\r\n    function item()\r\n        public\r\n        view\r\n        returns (string)\r\n    {\r\n        var (,,,,,,,,,item) = owner.auctionStates(this);\r\n        bytes memory bytesArray = new bytes(32);\r\n        for (uint256 i; i < 32; i++) {\r\n            bytesArray[i] = item[i];\r\n            }\r\n        return string(bytesArray);\r\n    }\r\n\r\n    function minPrice()\r\n        public\r\n        view\r\n        returns (uint256)\r\n    {\r\n        var (,,minPrice,,,,,,,) = owner.auctionStates(this);\r\n        return minPrice;\r\n    }\r\n\r\n    function cancelled()\r\n        public\r\n        view\r\n        returns (bool)\r\n    {\r\n        var (,,,,,,cancelled,,,) = owner.auctionStates(this);\r\n        return cancelled;\r\n    }\r\n\r\n    function finalized()\r\n        public\r\n        view\r\n        returns (bool)\r\n    {\r\n        var (,,,,,,,finalized,,) = owner.auctionStates(this);\r\n        return finalized;\r\n    }\r\n\r\n    function highestBid()\r\n        public\r\n        view\r\n        returns (uint256)\r\n    {\r\n        var (,,,highestBid,,,,,,) = owner.auctionStates(this);\r\n        return highestBid;\r\n    }\r\n\r\n    function highestBidder()\r\n        public\r\n        view\r\n        returns (address)\r\n    {\r\n        var (,,,,highestBidder,,,,,) = owner.auctionStates(this);\r\n        return highestBidder;\r\n    }\r\n\r\n    function highestManagedBidder()\r\n        public\r\n        view\r\n        returns (uint64)\r\n    {\r\n        var (,,,,,highestManagedBidder,,,,) = owner.auctionStates(this);\r\n        return highestManagedBidder;\r\n    }\r\n\r\n    function allowManagedBids()\r\n        public\r\n        view\r\n        returns (bool)\r\n    {\r\n        var (,,,,,,allowManagedBids,,,) = owner.auctionStates(this);\r\n        return allowManagedBids;\r\n    }\r\n\r\n\r\n    // mapping(address => uint256) public etherBalances;\r\n    // mapping(address => uint256) public tokenBalances;\r\n    // mapping(address => uint256) public tokenBalancesInEther;\r\n    // mapping(address => uint256) public managedBids;\r\n    \r\n    // bool allowManagedBids;\r\n}\r\n",
  "sourcePath": "C:\\MD\\Dev\\Solidity\\Auction\\contracts\\Auction.sol",
  "compiler": {
    "name": "solc",
    "version": "0.4.19+commit.c4cbbb05.Emscripten.clang"
  },
  "schemaVersion": "1.0.1",
  "updatedAt": "2018-03-22T22:19:32.427Z"
}