{
  "contractName": "AuctionFactory",
  "abi": [
    {
      "constant": false,
      "inputs": [
        {
          "name": "_wallet",
          "type": "address"
        },
        {
          "name": "_endSeconds",
          "type": "uint256"
        },
        {
          "name": "_weiPerToken",
          "type": "uint256"
        },
        {
          "name": "_item",
          "type": "string"
        },
        {
          "name": "_allowManagedBids",
          "type": "bool"
        }
      ],
      "name": "produce",
      "outputs": [
        {
          "name": "",
          "type": "address"
        }
      ],
      "payable": false,
      "stateMutability": "nonpayable",
      "type": "function"
    },
    {
      "constant": false,
      "inputs": [
        {
          "name": "_owner",
          "type": "address"
        },
        {
          "name": "_wallet",
          "type": "address"
        },
        {
          "name": "_token",
          "type": "address"
        },
        {
          "name": "_endSeconds",
          "type": "uint256"
        },
        {
          "name": "_weiPerToken",
          "type": "uint256"
        },
        {
          "name": "_item",
          "type": "string"
        },
        {
          "name": "_allowManagedBids",
          "type": "bool"
        }
      ],
      "name": "produceForOwnerCustomToken",
      "outputs": [
        {
          "name": "",
          "type": "address"
        }
      ],
      "payable": false,
      "stateMutability": "nonpayable",
      "type": "function"
    },
    {
      "constant": false,
      "inputs": [
        {
          "name": "_owner",
          "type": "address"
        },
        {
          "name": "_wallet",
          "type": "address"
        },
        {
          "name": "_endSeconds",
          "type": "uint256"
        },
        {
          "name": "_weiPerToken",
          "type": "uint256"
        },
        {
          "name": "_item",
          "type": "string"
        },
        {
          "name": "_allowManagedBids",
          "type": "bool"
        }
      ],
      "name": "produceForOwner",
      "outputs": [
        {
          "name": "",
          "type": "address"
        }
      ],
      "payable": false,
      "stateMutability": "nonpayable",
      "type": "function"
    },
    {
      "anonymous": false,
      "inputs": [
        {
          "indexed": true,
          "name": "addr",
          "type": "address"
        },
        {
          "indexed": false,
          "name": "_item",
          "type": "string"
        }
      ],
      "name": "AuctionProduced",
      "type": "event"
    }
  ],
  "bytecode": "0x6060604052341561000f57600080fd5b6115238061001e6000396000f3006060604052600436106100565763ffffffff7c0100000000000000000000000000000000000000000000000000000000600035041663b6674a70811461005b578063c66279c4146100d8578063cbc5d0db14610147575b600080fd5b6100bc60048035600160a060020a03169060248035916044359160849060643590810190830135806020601f820181900481020160405190810160405281815292919060208401838380828437509496505050509135151591506101b19050565b604051600160a060020a03909116815260200160405180910390f35b6100bc60048035600160a060020a039081169160248035831692604435169160643591608435919060c49060a43590810190830135806020601f820181900481020160405190810160405281815292919060208401838380828437509496505050509135151591506103419050565b6100bc600160a060020a0360048035821691602480359091169160443591606435919060a49060843590810190830135806020601f820181900481020160405190810160405281815292919060208401838380828437509496505050509135151591506104bf9050565b60008033877306147110022b768ba8f99a8f385df11a151a9cc8888888886101d7610650565b600160a060020a038089168252878116602083015286166040820152606081018590526080810184905281151560c082015260e060a0820181815290820184818151815260200191508051906020019080838360005b8381101561024557808201518382015260200161022d565b50505050905090810190601f1680156102725780820380516001836020036101000a031916815260200191505b5098505050505050505050604051809103906000f080151561029357600080fd5b905080600160a060020a03167fe24d31bb53bcdc4fab89533df5b646b59a1f3d9d09c1729c9a5ac8d2494475768560405160208082528190810183818151815260200191508051906020019080838360005b838110156102fd5780820151838201526020016102e5565b50505050905090810190601f16801561032a5780820380516001836020036101000a031916815260200191505b509250505060405180910390a29695505050505050565b60008088888888888888610353610650565b600160a060020a038089168252878116602083015286166040820152606081018590526080810184905281151560c082015260e060a0820181815290820184818151815260200191508051906020019080838360005b838110156103c15780820151838201526020016103a9565b50505050905090810190601f1680156103ee5780820380516001836020036101000a031916815260200191505b5098505050505050505050604051809103906000f080151561040f57600080fd5b905080600160a060020a03167fe24d31bb53bcdc4fab89533df5b646b59a1f3d9d09c1729c9a5ac8d2494475768560405160208082528190810183818151815260200191508051906020019080838360005b83811015610479578082015183820152602001610461565b50505050905090810190601f1680156104a65780820380516001836020036101000a031916815260200191505b509250505060405180910390a298975050505050505050565b60008087877306147110022b768ba8f99a8f385df11a151a9cc8888888886104e5610650565b600160a060020a038089168252878116602083015286166040820152606081018590526080810184905281151560c082015260e060a0820181815290820184818151815260200191508051906020019080838360005b8381101561055357808201518382015260200161053b565b50505050905090810190601f1680156105805780820380516001836020036101000a031916815260200191505b5098505050505050505050604051809103906000f08015156105a157600080fd5b905080600160a060020a03167fe24d31bb53bcdc4fab89533df5b646b59a1f3d9d09c1729c9a5ac8d2494475768560405160208082528190810183818151815260200191508051906020019080838360005b8381101561060b5780820151838201526020016105f3565b50505050905090810190601f1680156106385780820380516001836020036101000a031916815260200191505b509250505060405180910390a2979650505050505050565b604051610e9780610661833901905600606060405234156200001057600080fd5b60405162000e9738038062000e97833981016040528080519190602001805191906020018051919060200180519190602001805191906020018051820191906020018051915050600160a060020a03871615156200006d57600080fd5b600160a060020a03861615156200008357600080fd5b600160a060020a03851615156200009957600080fd5b428411620000a657600080fd5b66038d7ea4c6800083118015620000c357506611c37937e0800083105b1515620000cf57600080fd5b60028054600160a060020a03808a16600160a060020a0319928316179092556003805489841690831617905560008054928816929091169190911790556004849055600183905560058280516200012b9291602001906200014a565b50600b805460ff191691151591909117905550620001ef945050505050565b828054600181600116156101000203166002900490600052602060002090601f016020900481019282601f106200018d57805160ff1916838001178555620001bd565b82800160010185558215620001bd579182015b82811115620001bd578251825591602001919060010190620001a0565b50620001cb929150620001cf565b5090565b620001ec91905b80821115620001cb5760008155600101620001d6565b90565b610c9880620001ff6000396000f3006060604052600436106100e25763ffffffff60e060020a6000350416633ccfd60b81146100ef5780633f9942ff14610116578063454a2ab3146101295780634c936ea814610134578063521eb27314610159578063523fba7f1461018857806386c1497c146101a75780638da5cb5b146101ca5780638fa8b790146101dd57806391f90157146101f05780639653f8a1146102035780639b412150146102225780639ff7971b14610252578063b3f05b971461026a578063d57bde791461027d578063f2a4a82e14610290578063f77282ab1461031a578063fc0c546a1461032d575b6100ec6000610340565b50005b34156100fa57600080fd5b61010261052b565b604051901515815260200160405180910390f35b341561012157600080fd5b6101026106e9565b610102600435610340565b341561013f57600080fd5b6101476106f2565b60405190815260200160405180910390f35b341561016457600080fd5b61016c6106f8565b604051600160a060020a03909116815260200160405180910390f35b341561019357600080fd5b610147600160a060020a0360043516610707565b34156101b257600080fd5b61010267ffffffffffffffff60043516602435610719565b34156101d557600080fd5b61016c610812565b34156101e857600080fd5b610102610821565b34156101fb57600080fd5b61016c61089c565b341561020e57600080fd5b610147600160a060020a03600435166108ab565b341561022d57600080fd5b6102356108bd565b60405167ffffffffffffffff909116815260200160405180910390f35b341561025d57600080fd5b6102686004356108e5565b005b341561027557600080fd5b61010261094a565b341561028857600080fd5b610147610958565b341561029b57600080fd5b6102a361095e565b60405160208082528190810183818151815260200191508051906020019080838360005b838110156102df5780820151838201526020016102c7565b50505050905090810190601f16801561030c5780820380516001836020036101000a031916815260200191505b509250505060405180910390f35b341561032557600080fd5b6101026109fc565b341561033857600080fd5b61016c610c5d565b6000806000806004544210151561035657600080fd5b60065460ff161561036657600080fd5b60025433600160a060020a039081169116141561038257600080fd5b60008511156104505760008054600160a060020a0316906323b872dd903390309089906040516020015260405160e060020a63ffffffff8616028152600160a060020a0393841660048201529190921660248201526044810191909152606401602060405180830381600087803b15156103fb57600080fd5b6102c65a03f1151561040c57600080fd5b50505060405180519050151561042157600080fd5b600160a060020a0333166000908152600a6020526040902080546001549087019182905581029350915061045d565b6000341161045d57600080fd5b50600160a060020a03331660009081526009602052604090208054340190819055600754928101928311156104dc5760078390556008805473ffffffffffffffffffffffffffffffffffffffff191633600160a060020a0316177fffffffff0000000000000000ffffffffffffffffffffffffffffffffffffffff1690555b7fe684a55f31b79eca403df938249029212a5925ec6be8012e099b45bc1019e5d23384604051600160a060020a03909216825260208201526040908101905180910390a1506001949350505050565b6008546000908190819033600160a060020a039081169116141580610552575060065460ff165b151561055d57600080fd5b600160a060020a0333166000908152600a602052604081205492508211156106075760008054600160a060020a03169063a9059cbb90339085906040516020015260405160e060020a63ffffffff8516028152600160a060020a0390921660048301526024820152604401602060405180830381600087803b15156105e157600080fd5b6102c65a03f115156105f257600080fd5b50505060405180519050151561060757600080fd5b50600160a060020a0333166000908152600960205260408120549081111561066d57600160a060020a0333166000818152600960205260408082209190915582156108fc0290839051600060405180830381858888f19350505050151561066d57600080fd5b600082118061067c5750600081115b151561068757600080fd5b7fdf273cb619d95419a9cd0ec88123a0538c85064229baa6363788f743fff90deb3382846040518084600160a060020a0316600160a060020a03168152602001838152602001828152602001935050505060405180910390a160019250505090565b60065460ff1681565b60045481565b600354600160a060020a031681565b600a6020526000908152604090205481565b600454600090421061072a57600080fd5b60065460ff161561073a57600080fd5b60025433600160a060020a0390811691161461075557600080fd5b600b5460ff16151561076657600080fd5b600754821161077457600080fd5b6007829055600880547fffffffff00000000000000000000000000000000000000000000000000000000167401000000000000000000000000000000000000000067ffffffffffffffff8616021790557f18a7ab87afd10104bc436ca632cd189b747830ba7bbdb1729260ca549ac16e6b838360405167ffffffffffffffff909216825260208201526040908101905180910390a150600192915050565b600254600160a060020a031681565b60025460009033600160a060020a0390811691161461083f57600080fd5b600454421061084d57600080fd5b60065460ff161561085d57600080fd5b6006805460ff191660011790557f1afb0ae590df277bcb3a37f88612725bf1f7df4755792b1548a7efe77985ff7760405160405180910390a150600190565b600854600160a060020a031681565b60096020526000908152604090205481565b60085474010000000000000000000000000000000000000000900467ffffffffffffffff1681565b60045442106108f357600080fd5b60065460ff161561090357600080fd5b60025433600160a060020a0390811691161461091e57600080fd5b66038d7ea4c680008111801561093a57506611c37937e0800081105b151561094557600080fd5b600155565b600654610100900460ff1681565b60075481565b60058054600181600116156101000203166002900480601f0160208091040260200160405190810160405280929190818152602001828054600181600116156101000203166002900480156109f45780601f106109c9576101008083540402835291602001916109f4565b820191906000526020600020905b8154815290600101906020018083116109d757829003601f168201915b505050505081565b6002546000908190819033600160a060020a03908116911614610a1e57600080fd5b60065460ff1615610a2e57600080fd5b6004544211610a3c57600080fd5b600654610100900460ff1615610a5157600080fd5b600854600160a060020a031615610bb657600854600160a060020a03166000908152600a60205260408120549250821115610b155760008054600354600160a060020a039182169263a9059cbb929091169085906040516020015260405160e060020a63ffffffff8516028152600160a060020a0390921660048301526024820152604401602060405180830381600087803b1515610aef57600080fd5b6102c65a03f11515610b0057600080fd5b505050604051805190501515610b1557600080fd5b50600854600160a060020a031660009081526009602052604081205490811115610b8857600854600160a060020a03908116600090815260096020526040808220919091556003549091169082156108fc0290839051600060405180830381858888f193505050501515610b8857600080fd5b6000821180610b975750600081115b1515610ba257600080fd5b6007546001548302820114610bb657600080fd5b6006805461010061ff00199091161790556008546007547fd464a66f04d6da2ca32af295cd214bb83feb2040ece72e5373716e9243498afe91600160a060020a038116917401000000000000000000000000000000000000000090910467ffffffffffffffff1690604051600160a060020a03909316835267ffffffffffffffff90911660208301526040808301919091526060909101905180910390a160019250505090565b600054600160a060020a0316815600a165627a7a72305820fb46a491f93c9fa035545e858ec619f9f23958b5fa069ed6197b1c2aec18cb9b0029a165627a7a72305820dca8dd2ef9c90e34cd4a04bc4109988e39a0591f69799868d9d22b45bdf2b72b0029",
  "source": "pragma solidity ^0.4.18;\r\n\r\ncontract ERC20Basic {\r\n    function transferFrom(address from, address to, uint256 value) public returns (bool);\r\n    function transfer(address to, uint256 value) public returns (bool);\r\n}\r\n\r\ncontract Auction {\r\n\r\n    ERC20Basic public token;\r\n    uint256 weiPerToken;\r\n\r\n    address public owner;\r\n    address public wallet;\r\n\r\n    uint256 public endSeconds;\r\n\r\n    string public item;\r\n\r\n    bool public canceled;\r\n    bool public finalized;\r\n\r\n    uint256 public highestBid;\r\n    address public highestBidder;\r\n    uint64 public highestManagedBidder;\r\n\r\n    mapping(address => uint256) public etherBalances;\r\n    mapping(address => uint256) public tokenBalances;\r\n    \r\n    bool allowManagedBids;\r\n\r\n    // bool ownerHasWithdrawn;\r\n\r\n    event Bid(address bidder, uint256 bid);\r\n    event ManagedBid(uint64 bidder, uint256 bid);\r\n    event Withdrawal(address withdrawer, uint256 etherAmount, uint256 tokensAmount);\r\n    event Finalized(address bidder, uint64 managedBidder, uint256 amount);\r\n    event Canceled();\r\n\r\n    modifier onlyOwner {\r\n        require (msg.sender == owner);\r\n        _;\r\n    }\r\n\r\n    modifier onlyNotOwner {\r\n        require (msg.sender != owner);\r\n        _;\r\n    }\r\n\r\n    modifier onlyBeforeEnd {\r\n        require (now < endSeconds);\r\n        _;\r\n    }\r\n\r\n    modifier onlyAfterEnd {\r\n        require (now > endSeconds);\r\n        _;\r\n    }\r\n\r\n    modifier onlyNotCanceled {\r\n        require (!canceled);\r\n        _;\r\n    }\r\n\r\n    modifier onlyAllowedManagedBids {\r\n        require (allowManagedBids);\r\n        _;\r\n    }\r\n\r\n\r\n    function Auction(address _owner, address _wallet, address _token,\r\n        uint _endSeconds, \r\n        uint256 _weiPerToken, string _item, bool _allowManagedBids) \r\n        public \r\n    {\r\n        require(_owner != address(0x0));\r\n        require(_wallet != address(0x0));\r\n        require(_token != address(0x0));\r\n        require (_endSeconds > now);\r\n        require (_weiPerToken > (1e15) && _weiPerToken < 5 * (1e15));\r\n        \r\n        owner = _owner;\r\n        wallet = _wallet;\r\n        token = ERC20Basic(_token);\r\n        endSeconds = _endSeconds;\r\n        weiPerToken = _weiPerToken;\r\n        item = _item;\r\n        allowManagedBids = _allowManagedBids;\r\n    }\r\n\r\n\r\n    function () \r\n        payable\r\n        public\r\n    {\r\n        bid(0);\r\n    }\r\n\r\n\r\n    function bid(uint256 tokens)\r\n        payable\r\n        onlyBeforeEnd\r\n        onlyNotCanceled\r\n        onlyNotOwner\r\n        public\r\n        returns (bool success)\r\n    {\r\n        uint256 totalBid;\r\n\r\n        if (tokens > 0) {\r\n            require(token.transferFrom(msg.sender, this, tokens));\r\n            // safe math is already in transferFrom\r\n            uint256 tokenBid = tokenBalances[msg.sender] + tokens;\r\n            totalBid = tokenBid * weiPerToken;\r\n            tokenBalances[msg.sender] = tokenBid;\r\n        } else {\r\n            require(msg.value > 0);\r\n        }\r\n\r\n        uint256 etherBid = etherBalances[msg.sender] + msg.value;\r\n        etherBalances[msg.sender] = etherBid;\r\n        totalBid = totalBid + etherBid;\r\n\r\n        if (totalBid > highestBid) {\r\n            highestBid = totalBid;\r\n            highestBidder = msg.sender;\r\n            highestManagedBidder = 0;\r\n        }\r\n        Bid(msg.sender, totalBid);\r\n        return true;\r\n    }\r\n\r\n\r\n    function managedBid(uint64 _managedBidder, uint256 _managedBid)\r\n        onlyBeforeEnd\r\n        onlyNotCanceled\r\n        onlyOwner\r\n        onlyAllowedManagedBids\r\n        public\r\n        returns (bool success)\r\n    {\r\n        require(_managedBid > highestBid);\r\n\r\n        highestBid = _managedBid;\r\n        highestBidder = address(0);\r\n        highestManagedBidder = _managedBidder;\r\n\r\n        ManagedBid(_managedBidder, highestBid);\r\n        return true;\r\n    }\r\n\r\n    function setWeiPerToken(uint256 _weiPerToken)\r\n        onlyBeforeEnd\r\n        onlyNotCanceled\r\n        onlyOwner\r\n        public\r\n    {\r\n        require (_weiPerToken > (1e15) && _weiPerToken < 5 * (1e15));\r\n        weiPerToken = _weiPerToken;\r\n    }\r\n\r\n    function withdraw()\r\n        public\r\n        returns (bool success)\r\n    {\r\n        // anyone could withdraw at any time except the highest bidder\r\n        // if canceled, the highest bidder could withdraw as well\r\n        require(msg.sender != highestBidder || canceled);\r\n\r\n        uint256 tokenBid = tokenBalances[msg.sender];\r\n        if (tokenBid > 0) {\r\n            require(token.transfer(msg.sender, tokenBid));\r\n        }\r\n\r\n        uint256 etherBid = etherBalances[msg.sender];\r\n        if (etherBid > 0) {\r\n            etherBalances[msg.sender] = 0;\r\n            require(msg.sender.send(etherBid));\r\n        }\r\n\r\n        require(tokenBid > 0 || etherBid > 0);\r\n\r\n        Withdrawal(msg.sender, etherBid, tokenBid);\r\n\r\n        return true;\r\n    }\r\n\r\n\r\n    function finalizeAuction()\r\n        onlyOwner\r\n        onlyNotCanceled\r\n        onlyAfterEnd\r\n        public\r\n        returns (bool)\r\n    {\r\n        require(!finalized);\r\n\r\n        if (highestBidder != address(0)) {\r\n            uint256 tokenBid = tokenBalances[highestBidder];\r\n            if (tokenBid > 0) {\r\n                require(token.transfer(wallet, tokenBid));\r\n            }\r\n\r\n            uint256 etherBid = etherBalances[highestBidder];\r\n            if (etherBid > 0) {\r\n                etherBalances[highestBidder] = 0;\r\n                require(wallet.send(etherBid));\r\n            }\r\n\r\n            require(tokenBid > 0 || etherBid > 0);\r\n\r\n            require(tokenBid * weiPerToken + etherBid == highestBid);\r\n        }\r\n\r\n        finalized = true;\r\n        Finalized(highestBidder, highestManagedBidder, highestBid);\r\n\r\n        return true;\r\n        \r\n    }\r\n\r\n\r\n    function cancelAuction()\r\n        onlyOwner\r\n        onlyBeforeEnd\r\n        onlyNotCanceled\r\n        public\r\n        returns (bool success)\r\n    {\r\n        canceled = true;\r\n        Canceled();\r\n        return true;\r\n    }\r\n}\r\n\r\n\r\nlibrary AuctionFactory {\r\n\r\n    event AuctionProduced(address indexed addr, string _item);\r\n\r\n    function produce(address _wallet, uint _endSeconds, \r\n        uint256 _weiPerToken, string _item, bool _allowManagedBids)\r\n        public\r\n        returns (address)\r\n    {\r\n        address addr = new Auction(msg.sender, _wallet, 0x06147110022B768BA8F99A8f385df11a151A9cc8, _endSeconds, _weiPerToken, _item, _allowManagedBids);\r\n        AuctionProduced(addr, _item);\r\n        return addr;\r\n    }\r\n\r\n    function produceForOwner(address _owner, address _wallet, \r\n        uint _endSeconds, \r\n        uint256 _weiPerToken, string _item, bool _allowManagedBids)\r\n        public\r\n        returns (address)\r\n    {\r\n        address addr = new Auction(_owner, _wallet, 0x06147110022B768BA8F99A8f385df11a151A9cc8, _endSeconds, _weiPerToken, _item, _allowManagedBids);\r\n        AuctionProduced(addr, _item);\r\n        return addr;\r\n    }\r\n\r\n    // token for testing\r\n    function produceForOwnerCustomToken(address _owner, address _wallet, address _token,\r\n        uint _endSeconds, \r\n        uint256 _weiPerToken, string _item, bool _allowManagedBids)\r\n        public\r\n        returns (address)\r\n    {\r\n        address addr = new Auction(_owner, _wallet, _token, _endSeconds, _weiPerToken, _item, _allowManagedBids);\r\n        AuctionProduced(addr, _item);\r\n        return addr;\r\n    }\r\n}\r\n",
  "sourcePath": "C:\\MD\\Dev\\Solidity\\Auction\\contracts\\Auction.sol",
  "compiler": {
    "name": "solc",
    "version": "0.4.18+commit.9cf6e910.Emscripten.clang"
  },
  "schemaVersion": "1.0.1",
  "updatedAt": "2017-12-07T13:22:29.817Z"
}