{
  "contractName": "BotManageable",
  "abi": [
    {
      "constant": true,
      "inputs": [
        {
          "name": "_address",
          "type": "address"
        }
      ],
      "name": "isOwner",
      "outputs": [
        {
          "name": "",
          "type": "bool"
        }
      ],
      "payable": false,
      "stateMutability": "view",
      "type": "function"
    },
    {
      "constant": false,
      "inputs": [],
      "name": "unpause",
      "outputs": [],
      "payable": false,
      "stateMutability": "nonpayable",
      "type": "function"
    },
    {
      "constant": true,
      "inputs": [],
      "name": "wallet",
      "outputs": [
        {
          "name": "",
          "type": "address"
        }
      ],
      "payable": false,
      "stateMutability": "view",
      "type": "function"
    },
    {
      "constant": true,
      "inputs": [],
      "name": "paused",
      "outputs": [
        {
          "name": "",
          "type": "bool"
        }
      ],
      "payable": false,
      "stateMutability": "view",
      "type": "function"
    },
    {
      "constant": false,
      "inputs": [],
      "name": "pause",
      "outputs": [],
      "payable": false,
      "stateMutability": "nonpayable",
      "type": "function"
    },
    {
      "inputs": [
        {
          "name": "_wallet",
          "type": "address"
        }
      ],
      "payable": false,
      "stateMutability": "nonpayable",
      "type": "constructor"
    },
    {
      "anonymous": false,
      "inputs": [
        {
          "indexed": true,
          "name": "_botAddress",
          "type": "address"
        },
        {
          "indexed": false,
          "name": "_startTime",
          "type": "uint64"
        },
        {
          "indexed": false,
          "name": "_endTime",
          "type": "uint64"
        }
      ],
      "name": "BotsStartEndTimeChange",
      "type": "event"
    },
    {
      "anonymous": false,
      "inputs": [
        {
          "indexed": true,
          "name": "_contract",
          "type": "address"
        },
        {
          "indexed": true,
          "name": "_wallet",
          "type": "address"
        }
      ],
      "name": "MultiOwnableWalletSet",
      "type": "event"
    },
    {
      "anonymous": false,
      "inputs": [],
      "name": "Pause",
      "type": "event"
    },
    {
      "anonymous": false,
      "inputs": [],
      "name": "Unpause",
      "type": "event"
    },
    {
      "constant": false,
      "inputs": [
        {
          "name": "_botAddress",
          "type": "address"
        }
      ],
      "name": "enableBot",
      "outputs": [],
      "payable": false,
      "stateMutability": "nonpayable",
      "type": "function"
    },
    {
      "constant": false,
      "inputs": [
        {
          "name": "_botAddress",
          "type": "address"
        },
        {
          "name": "_fromTimeStampSeconds",
          "type": "uint64"
        }
      ],
      "name": "disableBot",
      "outputs": [],
      "payable": false,
      "stateMutability": "nonpayable",
      "type": "function"
    },
    {
      "constant": true,
      "inputs": [
        {
          "name": "_botAddress",
          "type": "address"
        }
      ],
      "name": "isBot",
      "outputs": [
        {
          "name": "",
          "type": "bool"
        }
      ],
      "payable": false,
      "stateMutability": "view",
      "type": "function"
    },
    {
      "constant": true,
      "inputs": [
        {
          "name": "_botAddress",
          "type": "address"
        },
        {
          "name": "_atTimeStampSeconds",
          "type": "uint64"
        }
      ],
      "name": "isBotAt",
      "outputs": [
        {
          "name": "",
          "type": "bool"
        }
      ],
      "payable": false,
      "stateMutability": "view",
      "type": "function"
    }
  ],
  "bytecode": "0x60606040526000805460a060020a60ff0219169055341561001f57600080fd5b6040516020806107868339810160405280805160008054600160a060020a031916600160a060020a03838116919091179182905591935083925081169030167fafcdd415329178553b69a5c7b7ece5d86014afa3335a808a26f32110981061a760405160405180910390a350506106eb8061009b6000396000f3006060604052600436106100985763ffffffff7c010000000000000000000000000000000000000000000000000000000060003504166327329b05811461009d5780632f54bf6e146100be5780633bbac579146100f15780633f4ba83a14610110578063521eb2731461012357806353d3ed60146101525780635c975abb1461017e5780635f58ed2a146101915780638456cb59146101bd575b600080fd5b34156100a857600080fd5b6100bc600160a060020a03600435166101d0565b005b34156100c957600080fd5b6100dd600160a060020a03600435166102fd565b604051901515815260200160405180910390f35b34156100fc57600080fd5b6100dd600160a060020a03600435166103ab565b341561011b57600080fd5b6100bc6103b7565b341561012e57600080fd5b610136610436565b604051600160a060020a03909116815260200160405180910390f35b341561015d57600080fd5b6100dd600160a060020a036004351667ffffffffffffffff60243516610445565b341561018957600080fd5b6100dd610509565b341561019c57600080fd5b6100bc600160a060020a036004351667ffffffffffffffff60243516610519565b34156101c857600080fd5b6100bc610642565b6000805433600160a060020a039081169116146101ec57600080fd5b50600160a060020a0381166000908152600160205260409020546fffffffffffffffffffffffffffffffff908116906801000000000000000082041615801561023d575067ffffffffffffffff8116155b151561024857600080fd5b600160a060020a038216600081815260016020526040908190208054680100000000000000006fffffffffffffffffffffffffffffffff4281168202969096179586166fffffffffffffffffffffffffffffffff1990921682179092557f100ef6d43d5799b4c7e9e7bcde458f703bf058e7fe74245b6b7f99b3a1844e50929190049067ffffffffffffffff8516905167ffffffffffffffff9283168152911660208201526040908101905180910390a25050565b60008054600160a060020a03838116911614806103a5575060008054600160a060020a031690632f54bf6e908490604051602001526040517c010000000000000000000000000000000000000000000000000000000063ffffffff8416028152600160a060020a039091166004820152602401602060405180830381600087803b151561038957600080fd5b6102c65a03f1151561039a57600080fd5b505050604051805190505b92915050565b60006103a58242610445565b60005433600160a060020a039081169116146103d257600080fd5b60005460a060020a900460ff1615156103ea57600080fd5b6000805474ff0000000000000000000000000000000000000000191690557f7805862f689e2f13df9f062ff482ad3ad112aca9e0847911ed832e158c525b3360405160405180910390a1565b600054600160a060020a031681565b600160a060020a0382166000908152600160205260408120546fffffffffffffffffffffffffffffffff908116906801000000000000000082041615806104b7575067ffffffffffffffff8316680100000000000000006fffffffffffffffffffffffffffffffff8084169190910416115b156104c55760009150610502565b67ffffffffffffffff811615156104df5760019150610502565b67ffffffffffffffff81811690841610156104fd5760019150610502565b600091505b5092915050565b60005460a060020a900460ff1681565b6000610524336102fd565b151561052f57600080fd5b50600160a060020a0382166000908152600160205260408120546fffffffffffffffffffffffffffffffff90811691680100000000000000008304909116118015610582575067ffffffffffffffff8116155b151561058d57600080fd5b600160a060020a0383166000818152600160205260409081902080546fffffffffffffffffffffffffffffffff191667ffffffffffffffff868116959095176fffffffffffffffffffffffffffffffff811691821790925590937f100ef6d43d5799b4c7e9e7bcde458f703bf058e7fe74245b6b7f99b3a1844e50926801000000000000000090920491908516905167ffffffffffffffff9283168152911660208201526040908101905180910390a2505050565b61064b336102fd565b151561065657600080fd5b60005460a060020a900460ff161561066d57600080fd5b6000805474ff0000000000000000000000000000000000000000191660a060020a1790557f6985a02210a168e66602d3235cb6db0e70f92b3ba4d376a33c0f3d9434bff62560405160405180910390a15600a165627a7a72305820f63ccd0519641c3c0b2f86f304c95f396600a52eee895d480eacfac5b4da54600029",
  "source": "pragma solidity ^0.4.18;\r\n\r\nimport './MultiOwnable.sol';\r\n\r\n/**\r\n * @dev BotManaged contract provides a modifier isBot and methods to enable/disable bots.\r\n */\r\ncontract BotManageable is MultiOwnable {\r\n    uint256 constant MASK64 = 18446744073709551615;\r\n\r\n    // NB packing saves gas even in memory due to stack size\r\n    // struct StartEndTimeLayout {\r\n    //     uint64 startTime;\r\n    //     uint64 endTime;\r\n    // }\r\n\r\n    /**\r\n     * Bot addresses and their start/end times (two uint64 timestamps)\r\n     */\r\n    mapping (address => uint128) internal botsStartEndTime;\r\n\r\n    event BotsStartEndTimeChange(address indexed _botAddress, uint64 _startTime, uint64 _endTime);\r\n\r\n    function BotManageable \r\n        (address _wallet)\r\n        public\r\n        MultiOwnable(_wallet)\r\n    { }\r\n\r\n    /** Check if a caller is an active bot. */\r\n    modifier onlyBot() {\r\n        require (isBot(msg.sender));\r\n        _;\r\n    }\r\n\r\n    /** Check if a caller is an active bot or an owner or the wallet. */\r\n    modifier onlyBotOrOwner() {\r\n        require (isBot(msg.sender) || isOwner(msg.sender));\r\n        _;\r\n    }\r\n\r\n    /** Enable bot address. */\r\n    function enableBot(address _botAddress)\r\n        onlyWallet()\r\n        public \r\n    {\r\n        uint128 botLifetime = botsStartEndTime[_botAddress];\r\n        // cannot re-enable existing bot\r\n        require((botLifetime >> 64) == 0 && (botLifetime & MASK64) == 0);\r\n        botLifetime |= uint128(now) << 64;\r\n        botsStartEndTime[_botAddress] = botLifetime;\r\n        BotsStartEndTimeChange(_botAddress, uint64(botLifetime >> 64), uint64(botLifetime & MASK64));\r\n    }\r\n\r\n    /** Disable bot address. */\r\n    function disableBot(address _botAddress, uint64 _fromTimeStampSeconds)\r\n        onlyOwner()\r\n        public \r\n    {\r\n        uint128 botLifetime = botsStartEndTime[_botAddress];\r\n        // bot must have been enabled previously and not disabled before\r\n        require((botLifetime >> 64) > 0 && (botLifetime & MASK64) == 0);\r\n        botLifetime |= uint128(_fromTimeStampSeconds);\r\n        botsStartEndTime[_botAddress] = botLifetime;\r\n        BotsStartEndTimeChange(_botAddress, uint64(botLifetime >> 64), uint64(botLifetime & MASK64));\r\n    }\r\n\r\n    /** Operational contracts call this method to check if a caller is an approved bot. */\r\n    function isBot(address _botAddress) \r\n        public\r\n        constant\r\n        returns(bool)\r\n    {\r\n        return isBotAt(_botAddress, uint64(now));\r\n    }\r\n\r\n    // truffle-contract doesn't like method overloading, use a different name\r\n\r\n    function isBotAt(address _botAddress, uint64 _atTimeStampSeconds) \r\n        public\r\n        constant \r\n        returns(bool)\r\n    {\r\n        uint128 botLifetime = botsStartEndTime[_botAddress];\r\n        if ((botLifetime >> 64) == 0 || (botLifetime >> 64) > _atTimeStampSeconds) {\r\n            return false;\r\n        }\r\n        if ((botLifetime & MASK64) == 0) {\r\n            return true;\r\n        }\r\n        if (_atTimeStampSeconds < (botLifetime & MASK64)) {\r\n            return true;\r\n        }\r\n        return false;\r\n    }\r\n}\r\n",
  "sourcePath": "soltsice/contracts/BotManageable.sol",
  "compiler": {
    "name": "solc",
    "version": "0.4.19+commit.c4cbbb05.Emscripten.clang"
  },
  "schemaVersion": "1.0.1",
  "updatedAt": "2018-03-22T21:33:28.017Z"
}