{
  "contractName": "MultiOwnable",
  "abi": [
    {
      "constant": true,
      "inputs": [],
      "name": "wallet",
      "outputs": [
        {
          "name": "",
          "type": "address"
        }
      ],
      "payable": false,
      "stateMutability": "view",
      "type": "function"
    },
    {
      "constant": true,
      "inputs": [],
      "name": "paused",
      "outputs": [
        {
          "name": "",
          "type": "bool"
        }
      ],
      "payable": false,
      "stateMutability": "view",
      "type": "function"
    },
    {
      "inputs": [
        {
          "name": "_wallet",
          "type": "address"
        }
      ],
      "payable": false,
      "stateMutability": "nonpayable",
      "type": "constructor"
    },
    {
      "anonymous": false,
      "inputs": [
        {
          "indexed": true,
          "name": "_contract",
          "type": "address"
        },
        {
          "indexed": true,
          "name": "_wallet",
          "type": "address"
        }
      ],
      "name": "MultiOwnableWalletSet",
      "type": "event"
    },
    {
      "anonymous": false,
      "inputs": [],
      "name": "Pause",
      "type": "event"
    },
    {
      "anonymous": false,
      "inputs": [],
      "name": "Unpause",
      "type": "event"
    },
    {
      "constant": true,
      "inputs": [
        {
          "name": "_address",
          "type": "address"
        }
      ],
      "name": "isOwner",
      "outputs": [
        {
          "name": "",
          "type": "bool"
        }
      ],
      "payable": false,
      "stateMutability": "view",
      "type": "function"
    },
    {
      "constant": false,
      "inputs": [],
      "name": "pause",
      "outputs": [],
      "payable": false,
      "stateMutability": "nonpayable",
      "type": "function"
    },
    {
      "constant": false,
      "inputs": [],
      "name": "unpause",
      "outputs": [],
      "payable": false,
      "stateMutability": "nonpayable",
      "type": "function"
    }
  ],
  "bytecode": "0x60606040526000805460a060020a60ff0219169055341561001f57600080fd5b60405160208061039b8339810160405280805160008054600160a060020a031916600160a060020a0383811691909117918290559193508116915030167fafcdd415329178553b69a5c7b7ece5d86014afa3335a808a26f32110981061a760405160405180910390a350610303806100986000396000f30060606040526004361061006c5763ffffffff7c01000000000000000000000000000000000000000000000000000000006000350416632f54bf6e81146100715780633f4ba83a146100a4578063521eb273146100b95780635c975abb146100e85780638456cb59146100fb575b600080fd5b341561007c57600080fd5b610090600160a060020a036004351661010e565b604051901515815260200160405180910390f35b34156100af57600080fd5b6100b76101bc565b005b34156100c457600080fd5b6100cc61023b565b604051600160a060020a03909116815260200160405180910390f35b34156100f357600080fd5b61009061024a565b341561010657600080fd5b6100b761025a565b60008054600160a060020a03838116911614806101b6575060008054600160a060020a031690632f54bf6e908490604051602001526040517c010000000000000000000000000000000000000000000000000000000063ffffffff8416028152600160a060020a039091166004820152602401602060405180830381600087803b151561019a57600080fd5b6102c65a03f115156101ab57600080fd5b505050604051805190505b92915050565b60005433600160a060020a039081169116146101d757600080fd5b60005460a060020a900460ff1615156101ef57600080fd5b6000805474ff0000000000000000000000000000000000000000191690557f7805862f689e2f13df9f062ff482ad3ad112aca9e0847911ed832e158c525b3360405160405180910390a1565b600054600160a060020a031681565b60005460a060020a900460ff1681565b6102633361010e565b151561026e57600080fd5b60005460a060020a900460ff161561028557600080fd5b6000805474ff0000000000000000000000000000000000000000191660a060020a1790557f6985a02210a168e66602d3235cb6db0e70f92b3ba4d376a33c0f3d9434bff62560405160405180910390a15600a165627a7a72305820ca6d3141e93c09bde899d90f7042529de228895796b8c1113ef60225b41fd5050029",
  "source": "pragma solidity ^0.4.18;\n\nimport './MultiSigWallet.sol';\n\n/**\n * @dev MultiOwnable contract.\n */\ncontract MultiOwnable {\n    \n    MultiSigWallet public wallet;\n    \n    event MultiOwnableWalletSet(address indexed _contract, address indexed _wallet);\n\n    function MultiOwnable \n        (address _wallet)\n        public\n    {\n        wallet = MultiSigWallet(_wallet);\n        MultiOwnableWalletSet(this, wallet);\n    }\n\n    /** Check if a caller is the MultiSig wallet. */\n    modifier onlyWallet() {\n        require(wallet == msg.sender);\n        _;\n    }\n\n    /** Check if a caller is the MultiSig wallet or a single owner. */\n    modifier onlyWalletOrSingleOwner() {\n        require(wallet == msg.sender || (wallet.required() == 1 && wallet.isOwner(msg.sender)));\n        _;\n    }\n\n    /** Check if a caller is one of the current owners of the MultiSig wallet or the wallet itself. */\n    modifier onlyOwner() {\n        require (isOwner(msg.sender));\n        _;\n    }\n\n    function isOwner(address _address) \n        public\n        constant\n        returns(bool)\n    {\n        // NB due to lazy eval wallet could be a normal address and isOwner won't be called if the first condition is met\n        return wallet == _address || wallet.isOwner(_address);\n    }\n\n\n    /* PAUSABLE with upause callable only by wallet */ \n\n    bool public paused = false;\n\n    event Pause();\n    event Unpause();\n\n    /**\n    * @dev Modifier to make a function callable only when the contract is not paused.\n    */\n    modifier whenNotPaused() {\n        require(!paused);\n        _;\n    }\n\n    /**\n    * @dev Modifier to make a function callable only when the contract is paused.\n    */\n    modifier whenPaused() {\n        require(paused);\n        _;\n    }\n\n    /**\n    * @dev called by any MSW owner to pause, triggers stopped state\n    */\n    function pause() \n        onlyOwner\n        whenNotPaused \n        public \n    {\n        paused = true;\n        Pause();\n    }\n\n    /**\n    * @dev called by the MSW (all owners) to unpause, returns to normal state\n    */\n    function unpause() \n        onlyWallet\n        whenPaused\n        public\n    {\n        paused = false;\n        Unpause();\n    }\n}\n",
  "sourcePath": "soltsice\\contracts\\MultiOwnable.sol",
  "compiler": {
    "name": "solc",
    "version": "0.4.19+commit.c4cbbb05.Emscripten.clang"
  },
  "schemaVersion": "1.0.1",
  "updatedAt": "2018-02-27T02:40:21.262Z"
}