{
  "contractName": "TokenStarsAuctionHubMock",
  "abi": [
    {
      "constant": true,
      "inputs": [
        {
          "name": "_auction",
          "type": "address"
        },
        {
          "name": "_bidder",
          "type": "address"
        }
      ],
      "name": "totalDirectBid",
      "outputs": [
        {
          "name": "_totalBid",
          "type": "uint256"
        }
      ],
      "payable": false,
      "stateMutability": "view",
      "type": "function"
    },
    {
      "constant": true,
      "inputs": [
        {
          "name": "",
          "type": "address"
        }
      ],
      "name": "auctionStates",
      "outputs": [
        {
          "name": "endSeconds",
          "type": "uint256"
        },
        {
          "name": "maxTokenBidInEther",
          "type": "uint256"
        },
        {
          "name": "minPrice",
          "type": "uint256"
        },
        {
          "name": "highestBid",
          "type": "uint256"
        },
        {
          "name": "highestBidder",
          "type": "address"
        },
        {
          "name": "highestManagedBidder",
          "type": "uint64"
        },
        {
          "name": "allowManagedBids",
          "type": "bool"
        },
        {
          "name": "cancelled",
          "type": "bool"
        },
        {
          "name": "finalized",
          "type": "bool"
        },
        {
          "name": "item",
          "type": "bytes32"
        }
      ],
      "payable": false,
      "stateMutability": "view",
      "type": "function"
    },
    {
      "constant": false,
      "inputs": [
        {
          "name": "_botAddress",
          "type": "address"
        }
      ],
      "name": "enableBot",
      "outputs": [],
      "payable": false,
      "stateMutability": "nonpayable",
      "type": "function"
    },
    {
      "constant": true,
      "inputs": [
        {
          "name": "_address",
          "type": "address"
        }
      ],
      "name": "isOwner",
      "outputs": [
        {
          "name": "",
          "type": "bool"
        }
      ],
      "payable": false,
      "stateMutability": "view",
      "type": "function"
    },
    {
      "constant": true,
      "inputs": [
        {
          "name": "_botAddress",
          "type": "address"
        }
      ],
      "name": "isBot",
      "outputs": [
        {
          "name": "",
          "type": "bool"
        }
      ],
      "payable": false,
      "stateMutability": "view",
      "type": "function"
    },
    {
      "constant": true,
      "inputs": [
        {
          "name": "",
          "type": "uint256"
        }
      ],
      "name": "decimals",
      "outputs": [
        {
          "name": "",
          "type": "uint256"
        }
      ],
      "payable": false,
      "stateMutability": "view",
      "type": "function"
    },
    {
      "constant": false,
      "inputs": [],
      "name": "unpause",
      "outputs": [],
      "payable": false,
      "stateMutability": "nonpayable",
      "type": "function"
    },
    {
      "constant": false,
      "inputs": [],
      "name": "finalize",
      "outputs": [
        {
          "name": "",
          "type": "bool"
        }
      ],
      "payable": false,
      "stateMutability": "nonpayable",
      "type": "function"
    },
    {
      "constant": false,
      "inputs": [
        {
          "name": "_bidder",
          "type": "address"
        }
      ],
      "name": "withdraw",
      "outputs": [
        {
          "name": "success",
          "type": "bool"
        }
      ],
      "payable": false,
      "stateMutability": "nonpayable",
      "type": "function"
    },
    {
      "constant": true,
      "inputs": [],
      "name": "wallet",
      "outputs": [
        {
          "name": "",
          "type": "address"
        }
      ],
      "payable": false,
      "stateMutability": "view",
      "type": "function"
    },
    {
      "constant": true,
      "inputs": [
        {
          "name": "_botAddress",
          "type": "address"
        },
        {
          "name": "_atTimeStampSeconds",
          "type": "uint64"
        }
      ],
      "name": "isBotAt",
      "outputs": [
        {
          "name": "",
          "type": "bool"
        }
      ],
      "payable": false,
      "stateMutability": "view",
      "type": "function"
    },
    {
      "constant": true,
      "inputs": [],
      "name": "paused",
      "outputs": [
        {
          "name": "",
          "type": "bool"
        }
      ],
      "payable": false,
      "stateMutability": "view",
      "type": "function"
    },
    {
      "constant": false,
      "inputs": [
        {
          "name": "_botAddress",
          "type": "address"
        },
        {
          "name": "_fromTimeStampSeconds",
          "type": "uint64"
        }
      ],
      "name": "disableBot",
      "outputs": [],
      "payable": false,
      "stateMutability": "nonpayable",
      "type": "function"
    },
    {
      "constant": false,
      "inputs": [
        {
          "name": "_managedBidder",
          "type": "uint64"
        },
        {
          "name": "_managedBid",
          "type": "uint256"
        },
        {
          "name": "_knownManagedBidder",
          "type": "address"
        }
      ],
      "name": "managedBid",
      "outputs": [
        {
          "name": "isHighest",
          "type": "bool"
        }
      ],
      "payable": false,
      "stateMutability": "nonpayable",
      "type": "function"
    },
    {
      "constant": false,
      "inputs": [],
      "name": "pause",
      "outputs": [],
      "payable": false,
      "stateMutability": "nonpayable",
      "type": "function"
    },
    {
      "constant": true,
      "inputs": [
        {
          "name": "",
          "type": "address"
        }
      ],
      "name": "tokenRates",
      "outputs": [
        {
          "name": "value",
          "type": "uint256"
        },
        {
          "name": "decimals",
          "type": "uint256"
        }
      ],
      "payable": false,
      "stateMutability": "view",
      "type": "function"
    },
    {
      "constant": false,
      "inputs": [
        {
          "name": "_bidder",
          "type": "address"
        },
        {
          "name": "_value",
          "type": "uint256"
        },
        {
          "name": "_token",
          "type": "address"
        },
        {
          "name": "_tokensNumber",
          "type": "uint256"
        }
      ],
      "name": "bid",
      "outputs": [
        {
          "name": "isHighest",
          "type": "bool"
        }
      ],
      "payable": false,
      "stateMutability": "nonpayable",
      "type": "function"
    },
    {
      "constant": false,
      "inputs": [
        {
          "name": "source",
          "type": "string"
        }
      ],
      "name": "stringToBytes32",
      "outputs": [
        {
          "name": "result",
          "type": "bytes32"
        }
      ],
      "payable": false,
      "stateMutability": "nonpayable",
      "type": "function"
    },
    {
      "constant": true,
      "inputs": [
        {
          "name": "",
          "type": "uint256"
        }
      ],
      "name": "rates",
      "outputs": [
        {
          "name": "",
          "type": "uint256"
        }
      ],
      "payable": false,
      "stateMutability": "view",
      "type": "function"
    },
    {
      "constant": false,
      "inputs": [
        {
          "name": "_token",
          "type": "address"
        },
        {
          "name": "_tokenRate",
          "type": "uint256"
        }
      ],
      "name": "setTokenRate",
      "outputs": [],
      "payable": false,
      "stateMutability": "nonpayable",
      "type": "function"
    },
    {
      "constant": false,
      "inputs": [],
      "name": "cancel",
      "outputs": [
        {
          "name": "success",
          "type": "bool"
        }
      ],
      "payable": false,
      "stateMutability": "nonpayable",
      "type": "function"
    },
    {
      "inputs": [
        {
          "name": "_wallet",
          "type": "address"
        },
        {
          "name": "_tokens",
          "type": "address[]"
        }
      ],
      "payable": false,
      "stateMutability": "nonpayable",
      "type": "constructor"
    },
    {
      "payable": true,
      "stateMutability": "payable",
      "type": "fallback"
    },
    {
      "anonymous": false,
      "inputs": [
        {
          "indexed": true,
          "name": "auction",
          "type": "address"
        },
        {
          "indexed": false,
          "name": "item",
          "type": "string"
        }
      ],
      "name": "NewAction",
      "type": "event"
    },
    {
      "anonymous": false,
      "inputs": [
        {
          "indexed": true,
          "name": "auction",
          "type": "address"
        },
        {
          "indexed": false,
          "name": "bidder",
          "type": "address"
        },
        {
          "indexed": false,
          "name": "totalBidInEther",
          "type": "uint256"
        },
        {
          "indexed": true,
          "name": "tokensBidInEther",
          "type": "uint256"
        }
      ],
      "name": "Bid",
      "type": "event"
    },
    {
      "anonymous": false,
      "inputs": [
        {
          "indexed": true,
          "name": "auction",
          "type": "address"
        },
        {
          "indexed": false,
          "name": "bidder",
          "type": "address"
        },
        {
          "indexed": false,
          "name": "token",
          "type": "address"
        },
        {
          "indexed": false,
          "name": "numberOfTokens",
          "type": "uint256"
        }
      ],
      "name": "TokenBid",
      "type": "event"
    },
    {
      "anonymous": false,
      "inputs": [
        {
          "indexed": true,
          "name": "auction",
          "type": "address"
        },
        {
          "indexed": false,
          "name": "bidder",
          "type": "uint64"
        },
        {
          "indexed": false,
          "name": "bid",
          "type": "uint256"
        },
        {
          "indexed": false,
          "name": "knownManagedBidder",
          "type": "address"
        }
      ],
      "name": "ManagedBid",
      "type": "event"
    },
    {
      "anonymous": false,
      "inputs": [
        {
          "indexed": true,
          "name": "auction",
          "type": "address"
        },
        {
          "indexed": false,
          "name": "bidder",
          "type": "address"
        },
        {
          "indexed": false,
          "name": "managedBidder",
          "type": "uint64"
        },
        {
          "indexed": false,
          "name": "totalBid",
          "type": "uint256"
        }
      ],
      "name": "NewHighestBidder",
      "type": "event"
    },
    {
      "anonymous": false,
      "inputs": [
        {
          "indexed": true,
          "name": "token",
          "type": "address"
        },
        {
          "indexed": false,
          "name": "rate",
          "type": "uint256"
        }
      ],
      "name": "TokenRateUpdate",
      "type": "event"
    },
    {
      "anonymous": false,
      "inputs": [
        {
          "indexed": true,
          "name": "auction",
          "type": "address"
        },
        {
          "indexed": false,
          "name": "bidder",
          "type": "address"
        },
        {
          "indexed": false,
          "name": "etherAmount",
          "type": "uint256"
        },
        {
          "indexed": false,
          "name": "tokensBidInEther",
          "type": "uint256"
        }
      ],
      "name": "Withdrawal",
      "type": "event"
    },
    {
      "anonymous": false,
      "inputs": [
        {
          "indexed": true,
          "name": "auction",
          "type": "address"
        },
        {
          "indexed": false,
          "name": "bidder",
          "type": "address"
        },
        {
          "indexed": false,
          "name": "etherAmount",
          "type": "uint256"
        },
        {
          "indexed": false,
          "name": "tokensAmount",
          "type": "uint256"
        }
      ],
      "name": "Charity",
      "type": "event"
    },
    {
      "anonymous": false,
      "inputs": [
        {
          "indexed": true,
          "name": "auction",
          "type": "address"
        },
        {
          "indexed": false,
          "name": "highestBidder",
          "type": "address"
        },
        {
          "indexed": false,
          "name": "highestManagedBidder",
          "type": "uint64"
        },
        {
          "indexed": false,
          "name": "amount",
          "type": "uint256"
        }
      ],
      "name": "Finalized",
      "type": "event"
    },
    {
      "anonymous": false,
      "inputs": [
        {
          "indexed": true,
          "name": "auction",
          "type": "address"
        },
        {
          "indexed": false,
          "name": "token",
          "type": "address"
        },
        {
          "indexed": false,
          "name": "tokensBidInEther",
          "type": "uint256"
        }
      ],
      "name": "FinalizedTokenTransfer",
      "type": "event"
    },
    {
      "anonymous": false,
      "inputs": [
        {
          "indexed": true,
          "name": "auction",
          "type": "address"
        },
        {
          "indexed": false,
          "name": "etherAmount",
          "type": "uint256"
        }
      ],
      "name": "FinalizedEtherTransfer",
      "type": "event"
    },
    {
      "anonymous": false,
      "inputs": [
        {
          "indexed": true,
          "name": "auction",
          "type": "address"
        },
        {
          "indexed": false,
          "name": "newEndtime",
          "type": "uint256"
        }
      ],
      "name": "ExtendedEndTime",
      "type": "event"
    },
    {
      "anonymous": false,
      "inputs": [
        {
          "indexed": true,
          "name": "auction",
          "type": "address"
        }
      ],
      "name": "Cancelled",
      "type": "event"
    },
    {
      "anonymous": false,
      "inputs": [
        {
          "indexed": true,
          "name": "_botAddress",
          "type": "address"
        },
        {
          "indexed": false,
          "name": "_startTime",
          "type": "uint64"
        },
        {
          "indexed": false,
          "name": "_endTime",
          "type": "uint64"
        }
      ],
      "name": "BotsStartEndTimeChange",
      "type": "event"
    },
    {
      "anonymous": false,
      "inputs": [
        {
          "indexed": true,
          "name": "_contract",
          "type": "address"
        },
        {
          "indexed": true,
          "name": "_wallet",
          "type": "address"
        }
      ],
      "name": "MultiOwnableWalletSet",
      "type": "event"
    },
    {
      "anonymous": false,
      "inputs": [],
      "name": "Pause",
      "type": "event"
    },
    {
      "anonymous": false,
      "inputs": [],
      "name": "Unpause",
      "type": "event"
    },
    {
      "constant": false,
      "inputs": [
        {
          "name": "_endSeconds",
          "type": "uint256"
        },
        {
          "name": "_maxTokenBidInEther",
          "type": "uint256"
        },
        {
          "name": "_minPrice",
          "type": "uint256"
        },
        {
          "name": "_item",
          "type": "string"
        },
        {
          "name": "_allowManagedBids",
          "type": "bool"
        }
      ],
      "name": "createAuction",
      "outputs": [
        {
          "name": "",
          "type": "address"
        }
      ],
      "payable": false,
      "stateMutability": "nonpayable",
      "type": "function"
    }
  ],
  "bytecode": "0x606060409081526000805460a060020a60ff02191690558051908101604052660886c98b76000080825260208201526200003e90600490600262000343565b50604080519081016040526000815260046020820152620000649060059060026200039e565b5034156200007157600080fd5b604051620034af380380620034af833981016040528080519190602001805182019190505081816004805480602002602001604051908101604052809291908181526020018280548015620000e657602002820191906000526020600020905b815481526020019060010190808311620000d1575b505050505060058054806020026020016040519081016040528092919081815260200182805480156200013957602002820191906000526020600020905b81548152602001906001019080831162000124575b505060008054600160a060020a031916600160a060020a0389811691909117808355919450849350889250829181169030167fafcdd415329178553b69a5c7b7ece5d86014afa3335a808a26f32110981061a760405160405180910390a3505033600160a060020a0316600090815260016020526040902080546001608060020a031916426001608060020a039081166801000000000000000002161790558351855114620001e757600080fd5b8251855114620001f657600080fd5b600091505b845182101562000335578482815181106200021257fe5b90602001906020020151600160a060020a031615156200023157600080fd5b60008483815181106200024057fe5b90602001906020020151116200025557600080fd5b8482815181106200026257fe5b90602001906020020151905060408051908101604052808584815181106200028657fe5b906020019060200201518152602001848481518110620002a257fe5b906020019060200201519052600160a060020a038216600090815260036020526040902081518155602082015160019091015550600160a060020a0381167f6d0466d743e24b9f0b2ae6bff53593c4b94c242fe76707f82de4076115d95a278584815181106200030e57fe5b9060200190602002015160405190815260200160405180910390a2600190910190620001fb565b505050505050505062000401565b8280548282559060005260206000209081019282156200038c579160200282015b828111156200038c578251829066ffffffffffffff1690559160200191906001019062000364565b506200039a929150620003e1565b5090565b8280548282559060005260206000209081019282156200038c579160200282015b828111156200038c578251829060ff16905591602001919060010190620003bf565b620003fe91905b808211156200039a5760008155600101620003e8565b90565b61309e80620004116000396000f30060606040526004361061010e5763ffffffff60e060020a60003504166321b666b581146101a0578063265d9035146101d757806327329b05146102635780632f54bf6e146102845780633bbac579146102b75780633f47e662146102d65780633f4ba83a146102ec5780634bb278f3146102ff57806351cff8d914610312578063521eb2731461033157806353d3ed60146103605780635c975abb1461038c5780635f58ed2a1461039f578063713674cf146103cb5780638456cb59146103fa578063864031251461040d578063b567858814610444578063cfb5192814610470578063dd418ae2146104c1578063e0e4b85f146104d7578063e7398fa31461053a578063ea8a1af01461055c575b600054600160a060020a03163480156108fc0290604051600060405180830381858888f19350505050151561014257600080fd5b60007f9c772aa581fc5bf19e09fbc8944f09f74c7b925afdfc2802025ad3efddd9567c333460006040518084600160a060020a0316600160a060020a03168152602001838152602001828152602001935050505060405180910390a2005b34156101ab57600080fd5b6101c5600160a060020a036004358116906024351661056f565b60405190815260200160405180910390f35b34156101e257600080fd5b6101f6600160a060020a03600435166105a6565b604051998a5260208a01989098526040808a01979097526060890195909552600160a060020a03909316608088015267ffffffffffffffff90911660a0870152151560c0860152151560e08501521515610100840152610120830191909152610140909101905180910390f35b341561026e57600080fd5b610282600160a060020a036004351661061a565b005b341561028f57600080fd5b6102a3600160a060020a0360043516610747565b604051901515815260200160405180910390f35b34156102c257600080fd5b6102a3600160a060020a03600435166107dc565b34156102e157600080fd5b6101c56004356107e8565b34156102f757600080fd5b610282610807565b341561030a57600080fd5b6102a3610886565b341561031d57600080fd5b6102a3600160a060020a0360043516610c9d565b341561033c57600080fd5b610344610f66565b604051600160a060020a03909116815260200160405180910390f35b341561036b57600080fd5b6102a3600160a060020a036004351667ffffffffffffffff60243516610f75565b341561039757600080fd5b6102a3611039565b34156103aa57600080fd5b610282600160a060020a036004351667ffffffffffffffff60243516611049565b34156103d657600080fd5b6102a367ffffffffffffffff60043516602435600160a060020a0360443516611172565b341561040557600080fd5b6102826113eb565b341561041857600080fd5b61042c600160a060020a0360043516611468565b60405191825260208201526040908101905180910390f35b341561044f57600080fd5b6102a3600160a060020a036004358116906024359060443516606435611481565b341561047b57600080fd5b6101c560046024813581810190830135806020601f820181900481020160405190810160405281815292919060208401838380828437509496506116af95505050505050565b34156104cc57600080fd5b6101c56004356116da565b34156104e257600080fd5b610344600480359060248035916044359160849060643590810190830135806020601f820181900481020160405190810160405281815292919060208401838380828437509496505050509135151591506116e89050565b341561054557600080fd5b610282600160a060020a036004351660243561188b565b341561056757600080fd5b6102a361190e565b600160a060020a03918216600090815260026020908152604080832093909416825260059092019091522080546001909101540190565b600260208190526000918252604090912080546001820154928201546003830154600484015460069094015492949391929091600160a060020a0381169167ffffffffffffffff60a060020a8304169160ff60e060020a820481169260e860020a830482169260f060020a9004909116908a565b6000805433600160a060020a0390811691161461063657600080fd5b50600160a060020a0381166000908152600160205260409020546fffffffffffffffffffffffffffffffff9081169068010000000000000000820416158015610687575067ffffffffffffffff8116155b151561069257600080fd5b600160a060020a038216600081815260016020526040908190208054680100000000000000006fffffffffffffffffffffffffffffffff4281168202969096179586166fffffffffffffffffffffffffffffffff1990921682179092557f100ef6d43d5799b4c7e9e7bcde458f703bf058e7fe74245b6b7f99b3a1844e50929190049067ffffffffffffffff8516905167ffffffffffffffff9283168152911660208201526040908101905180910390a25050565b60008054600160a060020a03838116911614806107d6575060008054600160a060020a031690632f54bf6e9084906040516020015260405160e060020a63ffffffff8416028152600160a060020a039091166004820152602401602060405180830381600087803b15156107ba57600080fd5b6102c65a03f115156107cb57600080fd5b505050604051805190505b92915050565b60006107d68242610f75565b60058054829081106107f657fe5b600091825260209091200154905081565b60005433600160a060020a0390811691161461082257600080fd5b60005460a060020a900460ff16151561083a57600080fd5b6000805474ff0000000000000000000000000000000000000000191690557f7805862f689e2f13df9f062ff482ad3ad112aca9e0847911ed832e158c525b3360405160405180910390a1565b33600160a060020a03166000908152600260205260408120600481015482908190819081908190819060f060020a900460ff161580156108c65750865442115b80156108d457508654600090115b80156108ec5750600487015460e860020a900460ff16155b15156108f757600080fd5b6004870154600160a060020a031615610bda576004870154600160a060020a0316600090815260058801602052604081206001810154600382015491975095501115610af457600092505b6003850154831015610ae8576003850180548490811061095e57fe5b90600052602060002090600202016001015491506000821115610add576000856003018481548110151561098e57fe5b90600052602060002090600202016001018190555033600160a060020a031663e6d66ac886600301858154811015156109c357fe5b600091825260208220600290910201548154600160a060020a039182169291169086906040516020015260405160e060020a63ffffffff8616028152600160a060020a0393841660048201529190921660248201526044810191909152606401602060405180830381600087803b1515610a3c57600080fd5b6102c65a03f11515610a4d57600080fd5b5050506040518051965050851515610a6457600080fd5b33600160a060020a03167fb8556687b0cb4b3bd0c3789469c0f7685f98f193beccb31564e98eb9a558dcf58660030185815481101515610aa057fe5b6000918252602090912060029091020154600160a060020a031684604051600160a060020a03909216825260208201526040908101905180910390a25b600190920191610942565b60006001860155610aff565b8315610aff57600080fd5b5083546000811115610bda5760008086558054600160a060020a033381169263c1756a2c929091169084906040516020015260405160e060020a63ffffffff8516028152600160a060020a0390921660048301526024820152604401602060405180830381600087803b1515610b7457600080fd5b6102c65a03f11515610b8557600080fd5b5050506040518051965050851515610b9c57600080fd5b33600160a060020a03167f0e6ba11576d3db675d61c9277867b76a7909963afb67c75b6c0792934328bf1f8260405190815260200160405180910390a25b6004870180547fff00ffffffffffffffffffffffffffffffffffffffffffffffffffffffffffff1660f060020a17908190556003880154600160a060020a03338116927ff4307aa79ff247809d7cb4c6c00e28c1276dae971fc8ae43913e68dbd0dc8e29929181169167ffffffffffffffff60a060020a9092049190911690604051600160a060020a03909316835267ffffffffffffffff90911660208301526040808301919091526060909101905180910390a2600197505050505050505090565b600160a060020a0333811660009081526002602090815260408083208585168085526005820190935290832060048201549394919390928592839283928392839216141580610cf75750600487015460e860020a900460ff165b1515610d0257600080fd5b600186015460038701549094506000901115610e5157600092505b6003860154831015610e455760038601805484908110610d3957fe5b90600052602060002090600202016001015491506000821115610e3a5760008660030184815481101515610d6957fe5b90600052602060002090600202016001018190555033600160a060020a031663e6d66ac88760030185815481101515610d9e57fe5b60009182526020822060029091020154600160a060020a0316908c9086906040516020015260405160e060020a63ffffffff8616028152600160a060020a0393841660048201529190921660248201526044810191909152606401602060405180830381600087803b1515610e1257600080fd5b6102c65a03f11515610e2357600080fd5b5050506040518051955050841515610e3a57600080fd5b600190920191610d1d565b60006001870155610e5c565b8315610e5c57600080fd5b5084546000811115610ef4576000808755600160a060020a0333169063c1756a2c908b9084906040516020015260405160e060020a63ffffffff8516028152600160a060020a0390921660048301526024820152604401602060405180830381600087803b1515610ecc57600080fd5b6102c65a03f11515610edd57600080fd5b5050506040518051955050841515610ef457600080fd5b33600160a060020a03167fc2b4a290c20fb28939d29f102514fbffd2b73c059ffba8b78250c94161d5fcc68a83876040518084600160a060020a0316600160a060020a03168152602001838152602001828152602001935050505060405180910390a250600198975050505050505050565b600054600160a060020a031681565b600160a060020a0382166000908152600160205260408120546fffffffffffffffffffffffffffffffff90811690680100000000000000008204161580610fe7575067ffffffffffffffff8316680100000000000000006fffffffffffffffffffffffffffffffff8084169190910416115b15610ff55760009150611032565b67ffffffffffffffff8116151561100f5760019150611032565b67ffffffffffffffff818116908416101561102d5760019150611032565b600091505b5092915050565b60005460a060020a900460ff1681565b600061105433610747565b151561105f57600080fd5b50600160a060020a0382166000908152600160205260408120546fffffffffffffffffffffffffffffffff908116916801000000000000000083049091161180156110b2575067ffffffffffffffff8116155b15156110bd57600080fd5b600160a060020a0383166000818152600160205260409081902080546fffffffffffffffffffffffffffffffff191667ffffffffffffffff868116959095176fffffffffffffffffffffffffffffffff811691821790925590937f100ef6d43d5799b4c7e9e7bcde458f703bf058e7fe74245b6b7f99b3a1844e50926801000000000000000090920491908516905167ffffffffffffffff9283168152911660208201526040908101905180910390a2505050565b6000808080808067ffffffffffffffff8916151561118f57600080fd5b600160a060020a03331660009081526002602052604090208054909550421080156111c65750600485015460e860020a900460ff16155b80156111dd5750600485015460e060020a900460ff165b15156111e857600080fd5b60009350600160a060020a0387161561123a57600160a060020a038716600090815260058601602052604090206002810154909350881161122857600080fd5b60028301889055825460018401540193505b8784019150846003015482118015611256575084600201548210155b1561137a576003850182905560048501805473ffffffffffffffffffffffffffffffffffffffff1916600160a060020a03898116919091177bffffffffffffffff0000000000000000000000000000000000000000191660a060020a67ffffffffffffffff8d16021790915533167fb1b5cca7c52e9d0672f45b41b409bdbb0035badc2584e620faf1d3d9d89244f0888b85604051600160a060020a03909316835267ffffffffffffffff90911660208301526040808301919091526060909101905180910390a261070842866000015403101561137557506107084201808555600160a060020a0333167f648561c38957d04ef2c17045f8e4fc32770334f9a0f73a3670b907c3228a417c8260405190815260200160405180910390a25b600195505b33600160a060020a03167ffb6e9d271768b20a67739f44f9385a60b0a48b56e1d53c88e7936f09c8fc52b78a8a8a60405167ffffffffffffffff90931683526020830191909152600160a060020a03166040808301919091526060909101905180910390a250505050509392505050565b6113f433610747565b15156113ff57600080fd5b60005460a060020a900460ff161561141657600080fd5b6000805474ff0000000000000000000000000000000000000000191660a060020a1790557f6985a02210a168e66602d3235cb6db0e70f92b3ba4d376a33c0f3d9434bff62560405160405180910390a1565b6003602052600090815260409020805460019091015482565b600160a060020a033316600090815260026020526040812080548290819081908190421080156114bd5750600485015460e860020a900460ff16155b15156114c857600080fd5b600160a060020a038a166000908152600586016020526040812094508711156114fe576114f7338b8a8a6119bc565b9250611513565b6000891161150b57600080fd5b836001015492505b835489018085556002850154600387015494820101939092508311801561153e575084600201548310155b15611651576003850183905560048501805473ffffffffffffffffffffffffffffffffffffffff1916600160a060020a038c8116919091177bffffffffffffffff0000000000000000000000000000000000000000191690915533167fb1b5cca7c52e9d0672f45b41b409bdbb0035badc2584e620faf1d3d9d89244f08b600086604051600160a060020a03909316835267ffffffffffffffff90911660208301526040808301919091526060909101905180910390a261070842866000015403101561164c57506107084201808555600160a060020a0333167f648561c38957d04ef2c17045f8e4fc32770334f9a0f73a3670b907c3228a417c8260405190815260200160405180910390a25b600195505b81830333600160a060020a03167fd21fbaad97462831ad0c216f300fefb33a10b03bb18bb70ed668562e88d15d538c86604051600160a060020a03909216825260208201526040908101905180910390a35050505050949350505050565b60006116b9611c1d565b5081805115156116cc57600091506116d4565b602083015191505b50919050565b60048054829081106107f657fe5b60008060006116f5611c1d565b6116fe336107dc565b151561170957600080fd5b42891161171557600080fd5b683635c9adc5dea0000088111561172b57600080fd5b6000871161173857600080fd5b30611741611c2f565b600160a060020a039091168152602001604051809103906000f080151561176757600080fd5b600160a060020a03811660009081526002602081905260409091208b8155600181018b90559081018990556004810180547fffffff00ffffffffffffffffffffffffffffffffffffffffffffffffffffffff1660e060020a8915150217905590935091508590506117d7816116af565b6006830155600160a060020a0383167fa5441ad5af4bd8b9469929dba2611a150dde5a264a534d2e682252b8528afcc48760405160208082528190810183818151815260200191508051906020019080838360005b8381101561184457808201518382015260200161182c565b50505050905090810190601f1680156118715780820380516001836020036101000a031916815260200191505b509250505060405180910390a25090979650505050505050565b6000611896336107dc565b15156118a157600080fd5b50600160a060020a03821660009081526003602052604081208054909190116118c957600080fd5b818155600160a060020a0383167f6d0466d743e24b9f0b2ae6bff53593c4b94c242fe76707f82de4076115d95a278360405190815260200160405180910390a2505050565b600160a060020a03331660009081526002602052604081208054421080156119425750600481015460e860020a900460ff16155b151561194d57600080fd5b6004810180547fffff00ffffffffffffffffffffffffffffffffffffffffffffffffffffffffff1660e860020a179055600160a060020a0333167f398bd6b21ae4164ec322fb0eb8c2eb6277f36fd41903fbbed594dfe12559128160405160405180910390a2600191505b5090565b600160a060020a038085166000908152600260209081526040808320878516845260058101835281842060018101549588168552600390935290832080549394919385908190819011611a0e57600080fd5b5050600383015460005b81811015611a6b5788600160a060020a03168560030182815481101515611a3b57fe5b6000918252602090912060029091020154600160a060020a03161415611a6357809150611a6b565b600101611a18565b6003850154821415611af75760038501805460018101611a8b8382611c3f565b9160005260206000209060020201600060408051908101604052600160a060020a038d168152602081018c90529190508151815473ffffffffffffffffffffffffffffffffffffffff1916600160a060020a039190911617815560208201518160010155505050611b24565b878560030183815481101515611b0957fe5b60009182526020909120600160029092020101805490910190555b60018301548354611b5091600a0a90611b44908b9063ffffffff611bd416565b9063ffffffff611c0616565b6001870154940193841115611b6457600080fd5b60018501849055600160a060020a038b167f9a77ba7516b1e0052d27170ea8048d58277273abbc6ab40407107ff90282b1578b8b8b604051600160a060020a039384168152919092166020820152604080820192909252606001905180910390a250919998505050505050505050565b600080831515611be75760009150611032565b50828202828482811515611bf757fe5b0414611bff57fe5b9392505050565b6000808284811515611c1457fe5b04949350505050565b60206040519081016040526000815290565b6040516113c780611cac83390190565b815481835581811511611c6b57600202816002028360005260206000209182019101611c6b9190611c70565b505050565b611ca891905b808211156119b857805473ffffffffffffffffffffffffffffffffffffffff1916815560006001820155600201611c76565b9056006060604052341561000f57600080fd5b6040516020806113c7833981016040528080519150819050600160a060020a038116151561003c57600080fd5b60008054600160a060020a03909216600160a060020a03199092169190911790555061135a8061006d6000396000f30060606040526004361061010e5763ffffffff60e060020a6000350416633ccfd60b81146101a15780634bb278f3146101c85780634c8cb943146101db5780634c936ea81461020057806359d667a51461021357806386c1497c1461022a578063898ae4e31461024d5780638da5cb5b1461025857806390d0da9f1461028757806391f90157146102a65780639914c2e3146102b95780639a82a09a146102e85780639b412150146102fb5780639d6e6538146102e8578063b3f05b971461032b578063c1756a2c1461033e578063d57bde7914610360578063e45be8eb14610373578063e6d66ac814610386578063ea8a1af0146103ae578063f2a4a82e146103c1578063f3f80d911461044b575b60008054600160a060020a03169063b5678588903390349080806040516020015260405160e060020a63ffffffff8716028152600160a060020a0394851660048201526024810193909352921660448201526064810191909152608401602060405180830381600087803b151561018457600080fd5b6102c65a03f1151561019557600080fd5b50505060405180515050005b34156101ac57600080fd5b6101b4610456565b604051901515815260200160405180910390f35b34156101d357600080fd5b6101b46104ce565b34156101e657600080fd5b6101ee610596565b60405190815260200160405180910390f35b341561020b57600080fd5b6101ee610653565b6101b4600160a060020a0360043516602435610710565b341561023557600080fd5b6101b467ffffffffffffffff60043516602435610858565b6101b460043561094c565b341561026357600080fd5b61026b6109bf565b604051600160a060020a03909116815260200160405180910390f35b341561029257600080fd5b6101ee600160a060020a03600435166109ce565b34156102b157600080fd5b61026b610a4f565b34156102c457600080fd5b6101b467ffffffffffffffff60043516602435600160a060020a0360443516610b0c565b34156102f357600080fd5b6101b4610c23565b341561030657600080fd5b61030e610ce0565b60405167ffffffffffffffff909116815260200160405180910390f35b341561033657600080fd5b6101b4610d9d565b341561034957600080fd5b6101b4600160a060020a0360043516602435610e5a565b341561036b57600080fd5b6101ee610ea2565b341561037e57600080fd5b6101ee610f5f565b341561039157600080fd5b6101b4600160a060020a036004358116906024351660443561101c565b34156103b957600080fd5b6101b4611095565b34156103cc57600080fd5b6103d461115d565b60405160208082528190810183818151815260200191508051906020019080838360005b838110156104105780820151838201526020016103f8565b50505050905090810190601f16801561043d5780820380516001836020036101000a031916815260200191505b509250505060405180910390f35b6101b46004356112d0565b60008054600160a060020a03166351cff8d933836040516020015260405160e060020a63ffffffff8416028152600160a060020a039091166004820152602401602060405180830381600087803b15156104af57600080fd5b6102c65a03f115156104c057600080fd5b505050604051805191505090565b60008054600160a060020a0316633bbac57933836040516020015260405160e060020a63ffffffff8416028152600160a060020a039091166004820152602401602060405180830381600087803b151561052757600080fd5b6102c65a03f1151561053857600080fd5b50505060405180519050151561054d57600080fd5b60008054600160a060020a031690634bb278f390604051602001526040518163ffffffff1660e060020a028152600401602060405180830381600087803b15156104af57600080fd5b600080548190600160a060020a031663265d90353083604051610140015260405160e060020a63ffffffff8416028152600160a060020a03909116600482015260240161014060405180830381600087803b15156105f357600080fd5b6102c65a03f1151561060457600080fd5b505050604051805190602001805190602001805190602001805190602001805190602001805190602001805190602001805190602001805190602001805150979b9a5050505050505050505050565b600080548190600160a060020a031663265d90353083604051610140015260405160e060020a63ffffffff8416028152600160a060020a03909116600482015260240161014060405180830381600087803b15156106b057600080fd5b6102c65a03f115156106c157600080fd5b505050604051805190602001805190602001805190602001805190602001805190602001805190602001805190602001805190602001805190602001805150989b9a5050505050505050505050565b6000600160a060020a0383161580159061072a5750600082115b156107bf5782600160a060020a03166323b872dd33308560006040516020015260405160e060020a63ffffffff8616028152600160a060020a0393841660048201529190921660248201526044810191909152606401602060405180830381600087803b151561079957600080fd5b6102c65a03f115156107aa57600080fd5b5050506040518051905015156107bf57600080fd5b60008054600160a060020a03169063b56785889033903490879087906040516020015260405160e060020a63ffffffff8716028152600160a060020a0394851660048201526024810193909352921660448201526064810191909152608401602060405180830381600087803b151561083757600080fd5b6102c65a03f1151561084857600080fd5b5050506040518051949350505050565b60008054600160a060020a0316633bbac57933836040516020015260405160e060020a63ffffffff8416028152600160a060020a039091166004820152602401602060405180830381600087803b15156108b157600080fd5b6102c65a03f115156108c257600080fd5b5050506040518051905015156108d757600080fd5b60008054600160a060020a03169063713674cf9085908590806040516020015260405160e060020a63ffffffff861602815267ffffffffffffffff90931660048401526024830191909152600160a060020a03166044820152606401602060405180830381600087803b151561083757600080fd5b600080546109b990600160a060020a0316638df5f0b583604051602001526040518163ffffffff1660e060020a028152600401602060405180830381600087803b151561099857600080fd5b6102c65a03f115156109a957600080fd5b5050506040518051905083610710565b92915050565b600054600160a060020a031681565b60008054600160a060020a03166321b666b53084846040516020015260405160e060020a63ffffffff8516028152600160a060020a03928316600482015291166024820152604401602060405180830381600087803b1515610a2f57600080fd5b6102c65a03f11515610a4057600080fd5b50505060405180519392505050565b600080548190600160a060020a031663265d90353083604051610140015260405160e060020a63ffffffff8416028152600160a060020a03909116600482015260240161014060405180830381600087803b1515610aac57600080fd5b6102c65a03f11515610abd57600080fd5b505050604051805190602001805190602001805190602001805190602001805190602001805190602001805190602001805190602001805190602001805150949b9a5050505050505050505050565b60008054600160a060020a0316633bbac57933836040516020015260405160e060020a63ffffffff8416028152600160a060020a039091166004820152602401602060405180830381600087803b1515610b6557600080fd5b6102c65a03f11515610b7657600080fd5b505050604051805190501515610b8b57600080fd5b60008054600160a060020a03169063713674cf908690869086906040516020015260405160e060020a63ffffffff861602815267ffffffffffffffff90931660048401526024830191909152600160a060020a03166044820152606401602060405180830381600087803b1515610c0157600080fd5b6102c65a03f11515610c1257600080fd5b505050604051805195945050505050565b600080548190600160a060020a031663265d90353083604051610140015260405160e060020a63ffffffff8416028152600160a060020a03909116600482015260240161014060405180830381600087803b1515610c8057600080fd5b6102c65a03f11515610c9157600080fd5b505050604051805190602001805190602001805190602001805190602001805190602001805190602001805190602001805190602001805190602001805150929b9a5050505050505050505050565b600080548190600160a060020a031663265d90353083604051610140015260405160e060020a63ffffffff8416028152600160a060020a03909116600482015260240161014060405180830381600087803b1515610d3d57600080fd5b6102c65a03f11515610d4e57600080fd5b505050604051805190602001805190602001805190602001805190602001805190602001805190602001805190602001805190602001805190602001805150939b9a5050505050505050505050565b600080548190600160a060020a031663265d90353083604051610140015260405160e060020a63ffffffff8416028152600160a060020a03909116600482015260240161014060405180830381600087803b1515610dfa57600080fd5b6102c65a03f11515610e0b57600080fd5b505050604051805190602001805190602001805190602001805190602001805190602001805190602001805190602001805190602001805190602001805150919b9a5050505050505050505050565b6000805433600160a060020a03908116911614610e7657600080fd5b600160a060020a03831682156108fc0283604051600060405180830381858888f1979650505050505050565b600080548190600160a060020a031663265d90353083604051610140015260405160e060020a63ffffffff8416028152600160a060020a03909116600482015260240161014060405180830381600087803b1515610eff57600080fd5b6102c65a03f11515610f1057600080fd5b505050604051805190602001805190602001805190602001805190602001805190602001805190602001805190602001805190602001805190602001805150959b9a5050505050505050505050565b600080548190600160a060020a031663265d90353083604051610140015260405160e060020a63ffffffff8416028152600160a060020a03909116600482015260240161014060405180830381600087803b1515610fbc57600080fd5b6102c65a03f11515610fcd57600080fd5b505050604051805190602001805190602001805190602001805190602001805190602001805190602001805190602001805190602001805190602001805150969b9a5050505050505050505050565b6000805433600160a060020a0390811691161461103857600080fd5b83600160a060020a031663a9059cbb848460006040516020015260405160e060020a63ffffffff8516028152600160a060020a0390921660048301526024820152604401602060405180830381600087803b1515610c0157600080fd5b60008054600160a060020a0316633bbac57933836040516020015260405160e060020a63ffffffff8416028152600160a060020a039091166004820152602401602060405180830381600087803b15156110ee57600080fd5b6102c65a03f115156110ff57600080fd5b50505060405180519050151561111457600080fd5b60008054600160a060020a03169063ea8a1af090604051602001526040518163ffffffff1660e060020a028152600401602060405180830381600087803b15156104af57600080fd5b61116561131c565b600061116f61131c565b60008054600160a060020a031663265d90353083604051610140015260405160e060020a63ffffffff8416028152600160a060020a03909116600482015260240161014060405180830381600087803b15156111ca57600080fd5b6102c65a03f115156111db57600080fd5b505050604051805190602001805190602001805190602001805190602001805190602001805190602001805190602001805190602001805190602001805190509b5050505050505050505060206040518059106112355750595b818152601f19601f8301168101602001604052905091505b60208110156112c95782816020811061126257fe5b1a7f01000000000000000000000000000000000000000000000000000000000000000282828151811061129157fe5b9060200101907effffffffffffffffffffffffffffffffffffffffffffffffffffffffffffff1916908160001a90535060010161124d565b5092915050565b600080546109b990600160a060020a031663cecdc6aa83604051602001526040518163ffffffff1660e060020a028152600401602060405180830381600087803b151561099857600080fd5b602060405190810160405260008152905600a165627a7a7230582042771b9485036d397a62b73f8a82545f0f1a1649af9c3c13ce897389f65ddb790029a165627a7a72305820e7355b96740ec4df643e490e43b2778ab5baaba1b125862e4063c4a9251599bc0029",
  "source": "pragma solidity ^0.4.18;\r\n\r\nimport './Auction.sol';\r\n\r\ncontract TokenStarsAuctionHub is AuctionHub {\r\n    address public ACE = 0x06147110022B768BA8F99A8f385df11a151A9cc8;\r\n    address public TEAM = 0x1c79ab32C66aCAa1e9E81952B8AAa581B43e54E7;\r\n    address public wallet = 0x963dF7904cF180aB2C033CEAD0be8687289f05EC;\r\n    address[] public tokens = [ACE, TEAM];\r\n    uint256[] public rates = [1210993886902860, 1210993886902860];\r\n    uint256[] public decimals = [0, 4];\r\n\r\n    function TokenStarsAuctionHub()\r\n        public\r\n        AuctionHub(wallet, tokens, rates, decimals)\r\n    {\r\n    }\r\n\r\n    function createAuction(\r\n        address _wallet,\r\n        uint _endSeconds, \r\n        uint256 _maxTokenBidInEther,\r\n        uint256 _minPrice,\r\n        string _item,\r\n        bool _allowManagedBids\r\n    )\r\n        onlyBot\r\n        public\r\n        returns (address)\r\n    {\r\n        require (_endSeconds > now);\r\n        require(_maxTokenBidInEther <= 1000 ether);\r\n        require(_minPrice > 0);\r\n\r\n        Auction auction = new TokenStarsAuction(this);\r\n\r\n        ActionState storage auctionState = auctionStates[auction];\r\n\r\n        auctionState.endSeconds = _endSeconds;\r\n        auctionState.maxTokenBidInEther = _maxTokenBidInEther;\r\n        auctionState.minPrice = _minPrice;\r\n        auctionState.allowManagedBids = _allowManagedBids;\r\n        string memory item = _item;\r\n        auctionState.item = stringToBytes32(item);\r\n\r\n        NewAction(auction, _item);\r\n        return address(auction);\r\n    }\r\n}\r\n\r\ncontract TokenStarsAuctionHubMock is AuctionHub {\r\n    uint256[] public rates = [2400000000000000, 2400000000000000];\r\n    uint256[] public decimals = [0, 4];\r\n\r\n    function TokenStarsAuctionHubMock(address _wallet, address[] _tokens)\r\n        public\r\n        AuctionHub(_wallet, _tokens, rates, decimals)\r\n    {\r\n    }\r\n\r\n    function createAuction(\r\n        uint _endSeconds, \r\n        uint256 _maxTokenBidInEther,\r\n        uint256 _minPrice,\r\n        string _item,\r\n        bool _allowManagedBids\r\n    )\r\n        onlyBot\r\n        public\r\n        returns (address)\r\n    {\r\n        require (_endSeconds > now);\r\n        require(_maxTokenBidInEther <= 1000 ether);\r\n        require(_minPrice > 0);\r\n\r\n        Auction auction = new TokenStarsAuction(this);\r\n\r\n        ActionState storage auctionState = auctionStates[auction];\r\n\r\n        auctionState.endSeconds = _endSeconds;\r\n        auctionState.maxTokenBidInEther = _maxTokenBidInEther;\r\n        auctionState.minPrice = _minPrice;\r\n        auctionState.allowManagedBids = _allowManagedBids;\r\n        string memory item = _item;\r\n        auctionState.item = stringToBytes32(item);\r\n\r\n        NewAction(auction, _item);\r\n        return address(auction);\r\n    }\r\n}\r\n\r\ncontract TokenStarsAuction is Auction {\r\n        \r\n    function TokenStarsAuction(\r\n        address _owner) \r\n        public\r\n        Auction(_owner)\r\n    {\r\n        \r\n    }\r\n\r\n    function bidAce(uint256 _tokensNumber)\r\n        payable\r\n        public\r\n        returns (bool isHighest)\r\n    {\r\n        return super.bid(TokenStarsAuctionHub(owner).ACE(), _tokensNumber);\r\n    }\r\n\r\n    function bidTeam(uint256 _tokensNumber)\r\n        payable\r\n        public\r\n        returns (bool isHighest)\r\n    {\r\n        return super.bid(TokenStarsAuctionHub(owner).TEAM(), _tokensNumber);\r\n    }\r\n}\r\n",
  "sourcePath": "C:\\MD\\Dev\\Solidity\\Auction\\contracts\\TokenStarsAuction.sol",
  "compiler": {
    "name": "solc",
    "version": "0.4.19+commit.c4cbbb05.Emscripten.clang"
  },
  "schemaVersion": "1.0.1",
  "updatedAt": "2018-02-28T06:43:10.651Z"
}