{
  "contractName": "TokenStarsAuction",
  "abi": [
    {
      "constant": false,
      "inputs": [],
      "name": "withdraw",
      "outputs": [
        {
          "name": "success",
          "type": "bool"
        }
      ],
      "payable": false,
      "stateMutability": "nonpayable",
      "type": "function"
    },
    {
      "constant": false,
      "inputs": [],
      "name": "finalize",
      "outputs": [
        {
          "name": "",
          "type": "bool"
        }
      ],
      "payable": false,
      "stateMutability": "nonpayable",
      "type": "function"
    },
    {
      "constant": true,
      "inputs": [],
      "name": "maxTokenBidInEther",
      "outputs": [
        {
          "name": "",
          "type": "uint256"
        }
      ],
      "payable": false,
      "stateMutability": "view",
      "type": "function"
    },
    {
      "constant": true,
      "inputs": [],
      "name": "endSeconds",
      "outputs": [
        {
          "name": "",
          "type": "uint256"
        }
      ],
      "payable": false,
      "stateMutability": "view",
      "type": "function"
    },
    {
      "constant": false,
      "inputs": [
        {
          "name": "_token",
          "type": "address"
        },
        {
          "name": "_tokensNumber",
          "type": "uint256"
        }
      ],
      "name": "bid",
      "outputs": [
        {
          "name": "isHighest",
          "type": "bool"
        }
      ],
      "payable": true,
      "stateMutability": "payable",
      "type": "function"
    },
    {
      "constant": false,
      "inputs": [
        {
          "name": "_managedBidder",
          "type": "uint64"
        },
        {
          "name": "_managedBid",
          "type": "uint256"
        }
      ],
      "name": "managedBid",
      "outputs": [
        {
          "name": "isHighest",
          "type": "bool"
        }
      ],
      "payable": false,
      "stateMutability": "nonpayable",
      "type": "function"
    },
    {
      "constant": false,
      "inputs": [
        {
          "name": "_tokensNumber",
          "type": "uint256"
        }
      ],
      "name": "bidAce",
      "outputs": [
        {
          "name": "isHighest",
          "type": "bool"
        }
      ],
      "payable": true,
      "stateMutability": "payable",
      "type": "function"
    },
    {
      "constant": true,
      "inputs": [],
      "name": "owner",
      "outputs": [
        {
          "name": "",
          "type": "address"
        }
      ],
      "payable": false,
      "stateMutability": "view",
      "type": "function"
    },
    {
      "constant": true,
      "inputs": [
        {
          "name": "_bidder",
          "type": "address"
        }
      ],
      "name": "totalDirectBid",
      "outputs": [
        {
          "name": "",
          "type": "uint256"
        }
      ],
      "payable": false,
      "stateMutability": "view",
      "type": "function"
    },
    {
      "constant": true,
      "inputs": [],
      "name": "highestBidder",
      "outputs": [
        {
          "name": "",
          "type": "address"
        }
      ],
      "payable": false,
      "stateMutability": "view",
      "type": "function"
    },
    {
      "constant": false,
      "inputs": [
        {
          "name": "_managedBidder",
          "type": "uint64"
        },
        {
          "name": "_managedBid",
          "type": "uint256"
        },
        {
          "name": "_knownManagedBidder",
          "type": "address"
        }
      ],
      "name": "managedBid2",
      "outputs": [
        {
          "name": "isHighest",
          "type": "bool"
        }
      ],
      "payable": false,
      "stateMutability": "nonpayable",
      "type": "function"
    },
    {
      "constant": true,
      "inputs": [],
      "name": "cancelled",
      "outputs": [
        {
          "name": "",
          "type": "bool"
        }
      ],
      "payable": false,
      "stateMutability": "view",
      "type": "function"
    },
    {
      "constant": true,
      "inputs": [],
      "name": "highestManagedBidder",
      "outputs": [
        {
          "name": "",
          "type": "uint64"
        }
      ],
      "payable": false,
      "stateMutability": "view",
      "type": "function"
    },
    {
      "constant": true,
      "inputs": [],
      "name": "allowManagedBids",
      "outputs": [
        {
          "name": "",
          "type": "bool"
        }
      ],
      "payable": false,
      "stateMutability": "view",
      "type": "function"
    },
    {
      "constant": true,
      "inputs": [],
      "name": "finalized",
      "outputs": [
        {
          "name": "",
          "type": "bool"
        }
      ],
      "payable": false,
      "stateMutability": "view",
      "type": "function"
    },
    {
      "constant": false,
      "inputs": [
        {
          "name": "_to",
          "type": "address"
        },
        {
          "name": "_amount",
          "type": "uint256"
        }
      ],
      "name": "sendEther",
      "outputs": [
        {
          "name": "",
          "type": "bool"
        }
      ],
      "payable": false,
      "stateMutability": "nonpayable",
      "type": "function"
    },
    {
      "constant": true,
      "inputs": [],
      "name": "highestBid",
      "outputs": [
        {
          "name": "",
          "type": "uint256"
        }
      ],
      "payable": false,
      "stateMutability": "view",
      "type": "function"
    },
    {
      "constant": true,
      "inputs": [],
      "name": "minPrice",
      "outputs": [
        {
          "name": "",
          "type": "uint256"
        }
      ],
      "payable": false,
      "stateMutability": "view",
      "type": "function"
    },
    {
      "constant": false,
      "inputs": [
        {
          "name": "_token",
          "type": "address"
        },
        {
          "name": "_to",
          "type": "address"
        },
        {
          "name": "_amount",
          "type": "uint256"
        }
      ],
      "name": "sendTokens",
      "outputs": [
        {
          "name": "",
          "type": "bool"
        }
      ],
      "payable": false,
      "stateMutability": "nonpayable",
      "type": "function"
    },
    {
      "constant": false,
      "inputs": [],
      "name": "cancel",
      "outputs": [
        {
          "name": "success",
          "type": "bool"
        }
      ],
      "payable": false,
      "stateMutability": "nonpayable",
      "type": "function"
    },
    {
      "constant": true,
      "inputs": [],
      "name": "item",
      "outputs": [
        {
          "name": "",
          "type": "string"
        }
      ],
      "payable": false,
      "stateMutability": "view",
      "type": "function"
    },
    {
      "constant": false,
      "inputs": [
        {
          "name": "_tokensNumber",
          "type": "uint256"
        }
      ],
      "name": "bidTeam",
      "outputs": [
        {
          "name": "isHighest",
          "type": "bool"
        }
      ],
      "payable": true,
      "stateMutability": "payable",
      "type": "function"
    },
    {
      "inputs": [
        {
          "name": "_owner",
          "type": "address"
        }
      ],
      "payable": false,
      "stateMutability": "nonpayable",
      "type": "constructor"
    },
    {
      "payable": true,
      "stateMutability": "payable",
      "type": "fallback"
    }
  ],
  "bytecode": "0x6060604052341561000f57600080fd5b6040516020806113c7833981016040528080519150819050600160a060020a038116151561003c57600080fd5b60008054600160a060020a03909216600160a060020a03199092169190911790555061135a8061006d6000396000f30060606040526004361061010e5763ffffffff60e060020a6000350416633ccfd60b81146101a15780634bb278f3146101c85780634c8cb943146101db5780634c936ea81461020057806359d667a51461021357806386c1497c1461022a578063898ae4e31461024d5780638da5cb5b1461025857806390d0da9f1461028757806391f90157146102a65780639914c2e3146102b95780639a82a09a146102e85780639b412150146102fb5780639d6e6538146102e8578063b3f05b971461032b578063c1756a2c1461033e578063d57bde7914610360578063e45be8eb14610373578063e6d66ac814610386578063ea8a1af0146103ae578063f2a4a82e146103c1578063f3f80d911461044b575b60008054600160a060020a03169063b5678588903390349080806040516020015260405160e060020a63ffffffff8716028152600160a060020a0394851660048201526024810193909352921660448201526064810191909152608401602060405180830381600087803b151561018457600080fd5b6102c65a03f1151561019557600080fd5b50505060405180515050005b34156101ac57600080fd5b6101b4610456565b604051901515815260200160405180910390f35b34156101d357600080fd5b6101b46104ce565b34156101e657600080fd5b6101ee610596565b60405190815260200160405180910390f35b341561020b57600080fd5b6101ee610653565b6101b4600160a060020a0360043516602435610710565b341561023557600080fd5b6101b467ffffffffffffffff60043516602435610858565b6101b460043561094c565b341561026357600080fd5b61026b6109bf565b604051600160a060020a03909116815260200160405180910390f35b341561029257600080fd5b6101ee600160a060020a03600435166109ce565b34156102b157600080fd5b61026b610a4f565b34156102c457600080fd5b6101b467ffffffffffffffff60043516602435600160a060020a0360443516610b0c565b34156102f357600080fd5b6101b4610c23565b341561030657600080fd5b61030e610ce0565b60405167ffffffffffffffff909116815260200160405180910390f35b341561033657600080fd5b6101b4610d9d565b341561034957600080fd5b6101b4600160a060020a0360043516602435610e5a565b341561036b57600080fd5b6101ee610ea2565b341561037e57600080fd5b6101ee610f5f565b341561039157600080fd5b6101b4600160a060020a036004358116906024351660443561101c565b34156103b957600080fd5b6101b4611095565b34156103cc57600080fd5b6103d461115d565b60405160208082528190810183818151815260200191508051906020019080838360005b838110156104105780820151838201526020016103f8565b50505050905090810190601f16801561043d5780820380516001836020036101000a031916815260200191505b509250505060405180910390f35b6101b46004356112d0565b60008054600160a060020a03166351cff8d933836040516020015260405160e060020a63ffffffff8416028152600160a060020a039091166004820152602401602060405180830381600087803b15156104af57600080fd5b6102c65a03f115156104c057600080fd5b505050604051805191505090565b60008054600160a060020a0316633bbac57933836040516020015260405160e060020a63ffffffff8416028152600160a060020a039091166004820152602401602060405180830381600087803b151561052757600080fd5b6102c65a03f1151561053857600080fd5b50505060405180519050151561054d57600080fd5b60008054600160a060020a031690634bb278f390604051602001526040518163ffffffff1660e060020a028152600401602060405180830381600087803b15156104af57600080fd5b600080548190600160a060020a031663265d90353083604051610140015260405160e060020a63ffffffff8416028152600160a060020a03909116600482015260240161014060405180830381600087803b15156105f357600080fd5b6102c65a03f1151561060457600080fd5b505050604051805190602001805190602001805190602001805190602001805190602001805190602001805190602001805190602001805190602001805150979b9a5050505050505050505050565b600080548190600160a060020a031663265d90353083604051610140015260405160e060020a63ffffffff8416028152600160a060020a03909116600482015260240161014060405180830381600087803b15156106b057600080fd5b6102c65a03f115156106c157600080fd5b505050604051805190602001805190602001805190602001805190602001805190602001805190602001805190602001805190602001805190602001805150989b9a5050505050505050505050565b6000600160a060020a0383161580159061072a5750600082115b156107bf5782600160a060020a03166323b872dd33308560006040516020015260405160e060020a63ffffffff8616028152600160a060020a0393841660048201529190921660248201526044810191909152606401602060405180830381600087803b151561079957600080fd5b6102c65a03f115156107aa57600080fd5b5050506040518051905015156107bf57600080fd5b60008054600160a060020a03169063b56785889033903490879087906040516020015260405160e060020a63ffffffff8716028152600160a060020a0394851660048201526024810193909352921660448201526064810191909152608401602060405180830381600087803b151561083757600080fd5b6102c65a03f1151561084857600080fd5b5050506040518051949350505050565b60008054600160a060020a0316633bbac57933836040516020015260405160e060020a63ffffffff8416028152600160a060020a039091166004820152602401602060405180830381600087803b15156108b157600080fd5b6102c65a03f115156108c257600080fd5b5050506040518051905015156108d757600080fd5b60008054600160a060020a03169063713674cf9085908590806040516020015260405160e060020a63ffffffff861602815267ffffffffffffffff90931660048401526024830191909152600160a060020a03166044820152606401602060405180830381600087803b151561083757600080fd5b600080546109b990600160a060020a0316638df5f0b583604051602001526040518163ffffffff1660e060020a028152600401602060405180830381600087803b151561099857600080fd5b6102c65a03f115156109a957600080fd5b5050506040518051905083610710565b92915050565b600054600160a060020a031681565b60008054600160a060020a03166321b666b53084846040516020015260405160e060020a63ffffffff8516028152600160a060020a03928316600482015291166024820152604401602060405180830381600087803b1515610a2f57600080fd5b6102c65a03f11515610a4057600080fd5b50505060405180519392505050565b600080548190600160a060020a031663265d90353083604051610140015260405160e060020a63ffffffff8416028152600160a060020a03909116600482015260240161014060405180830381600087803b1515610aac57600080fd5b6102c65a03f11515610abd57600080fd5b505050604051805190602001805190602001805190602001805190602001805190602001805190602001805190602001805190602001805190602001805150949b9a5050505050505050505050565b60008054600160a060020a0316633bbac57933836040516020015260405160e060020a63ffffffff8416028152600160a060020a039091166004820152602401602060405180830381600087803b1515610b6557600080fd5b6102c65a03f11515610b7657600080fd5b505050604051805190501515610b8b57600080fd5b60008054600160a060020a03169063713674cf908690869086906040516020015260405160e060020a63ffffffff861602815267ffffffffffffffff90931660048401526024830191909152600160a060020a03166044820152606401602060405180830381600087803b1515610c0157600080fd5b6102c65a03f11515610c1257600080fd5b505050604051805195945050505050565b600080548190600160a060020a031663265d90353083604051610140015260405160e060020a63ffffffff8416028152600160a060020a03909116600482015260240161014060405180830381600087803b1515610c8057600080fd5b6102c65a03f11515610c9157600080fd5b505050604051805190602001805190602001805190602001805190602001805190602001805190602001805190602001805190602001805190602001805150929b9a5050505050505050505050565b600080548190600160a060020a031663265d90353083604051610140015260405160e060020a63ffffffff8416028152600160a060020a03909116600482015260240161014060405180830381600087803b1515610d3d57600080fd5b6102c65a03f11515610d4e57600080fd5b505050604051805190602001805190602001805190602001805190602001805190602001805190602001805190602001805190602001805190602001805150939b9a5050505050505050505050565b600080548190600160a060020a031663265d90353083604051610140015260405160e060020a63ffffffff8416028152600160a060020a03909116600482015260240161014060405180830381600087803b1515610dfa57600080fd5b6102c65a03f11515610e0b57600080fd5b505050604051805190602001805190602001805190602001805190602001805190602001805190602001805190602001805190602001805190602001805150919b9a5050505050505050505050565b6000805433600160a060020a03908116911614610e7657600080fd5b600160a060020a03831682156108fc0283604051600060405180830381858888f1979650505050505050565b600080548190600160a060020a031663265d90353083604051610140015260405160e060020a63ffffffff8416028152600160a060020a03909116600482015260240161014060405180830381600087803b1515610eff57600080fd5b6102c65a03f11515610f1057600080fd5b505050604051805190602001805190602001805190602001805190602001805190602001805190602001805190602001805190602001805190602001805150959b9a5050505050505050505050565b600080548190600160a060020a031663265d90353083604051610140015260405160e060020a63ffffffff8416028152600160a060020a03909116600482015260240161014060405180830381600087803b1515610fbc57600080fd5b6102c65a03f11515610fcd57600080fd5b505050604051805190602001805190602001805190602001805190602001805190602001805190602001805190602001805190602001805190602001805150969b9a5050505050505050505050565b6000805433600160a060020a0390811691161461103857600080fd5b83600160a060020a031663a9059cbb848460006040516020015260405160e060020a63ffffffff8516028152600160a060020a0390921660048301526024820152604401602060405180830381600087803b1515610c0157600080fd5b60008054600160a060020a0316633bbac57933836040516020015260405160e060020a63ffffffff8416028152600160a060020a039091166004820152602401602060405180830381600087803b15156110ee57600080fd5b6102c65a03f115156110ff57600080fd5b50505060405180519050151561111457600080fd5b60008054600160a060020a03169063ea8a1af090604051602001526040518163ffffffff1660e060020a028152600401602060405180830381600087803b15156104af57600080fd5b61116561131c565b600061116f61131c565b60008054600160a060020a031663265d90353083604051610140015260405160e060020a63ffffffff8416028152600160a060020a03909116600482015260240161014060405180830381600087803b15156111ca57600080fd5b6102c65a03f115156111db57600080fd5b505050604051805190602001805190602001805190602001805190602001805190602001805190602001805190602001805190602001805190602001805190509b5050505050505050505060206040518059106112355750595b818152601f19601f8301168101602001604052905091505b60208110156112c95782816020811061126257fe5b1a7f01000000000000000000000000000000000000000000000000000000000000000282828151811061129157fe5b9060200101907effffffffffffffffffffffffffffffffffffffffffffffffffffffffffffff1916908160001a90535060010161124d565b5092915050565b600080546109b990600160a060020a031663cecdc6aa83604051602001526040518163ffffffff1660e060020a028152600401602060405180830381600087803b151561099857600080fd5b602060405190810160405260008152905600a165627a7a723058206bdb05e93d78f7af83640049335ce51dafa698aca4b40502cbdbd394ecc46a7d0029",
  "source": "pragma solidity ^0.4.18;\r\n\r\nimport './Auction.sol';\r\n\r\ncontract TokenStarsAuctionHub is AuctionHub {\r\n    address public ACE = 0x06147110022B768BA8F99A8f385df11a151A9cc8;\r\n    address public TEAM = 0x1c79ab32C66aCAa1e9E81952B8AAa581B43e54E7;\r\n    address public wallet = 0x963dF7904cF180aB2C033CEAD0be8687289f05EC;\r\n    address[] public tokens = [ACE, TEAM];\r\n    uint256[] public rates = [1210993886902860, 1210993886902860];\r\n    uint256[] public decimals = [0, 4];\r\n\r\n    function TokenStarsAuctionHub()\r\n        public\r\n        AuctionHub(wallet, tokens, rates, decimals)\r\n    {\r\n    }\r\n\r\n    function createAuction(\r\n        address _wallet,\r\n        uint _endSeconds, \r\n        uint256 _maxTokenBidInEther,\r\n        uint256 _minPrice,\r\n        string _item,\r\n        bool _allowManagedBids\r\n    )\r\n        onlyBot\r\n        public\r\n        returns (address)\r\n    {\r\n        require (_endSeconds > now);\r\n        require(_maxTokenBidInEther <= 1000 ether);\r\n        require(_minPrice > 0);\r\n\r\n        Auction auction = new TokenStarsAuction(this);\r\n\r\n        ActionState storage auctionState = auctionStates[auction];\r\n\r\n        auctionState.endSeconds = _endSeconds;\r\n        auctionState.maxTokenBidInEther = _maxTokenBidInEther;\r\n        auctionState.minPrice = _minPrice;\r\n        auctionState.allowManagedBids = _allowManagedBids;\r\n        string memory item = _item;\r\n        auctionState.item = stringToBytes32(item);\r\n\r\n        NewAction(auction, _item);\r\n        return address(auction);\r\n    }\r\n}\r\n\r\ncontract TokenStarsAuctionHubMock is AuctionHub {\r\n    uint256[] public rates = [2400000000000000, 2400000000000000];\r\n    uint256[] public decimals = [0, 4];\r\n\r\n    function TokenStarsAuctionHubMock(address _wallet, address[] _tokens)\r\n        public\r\n        AuctionHub(_wallet, _tokens, rates, decimals)\r\n    {\r\n    }\r\n\r\n    function createAuction(\r\n        uint _endSeconds, \r\n        uint256 _maxTokenBidInEther,\r\n        uint256 _minPrice,\r\n        string _item,\r\n        bool _allowManagedBids\r\n    )\r\n        onlyBot\r\n        public\r\n        returns (address)\r\n    {\r\n        require (_endSeconds > now);\r\n        require(_maxTokenBidInEther <= 1000 ether);\r\n        require(_minPrice > 0);\r\n\r\n        Auction auction = new TokenStarsAuction(this);\r\n\r\n        ActionState storage auctionState = auctionStates[auction];\r\n\r\n        auctionState.endSeconds = _endSeconds;\r\n        auctionState.maxTokenBidInEther = _maxTokenBidInEther;\r\n        auctionState.minPrice = _minPrice;\r\n        auctionState.allowManagedBids = _allowManagedBids;\r\n        string memory item = _item;\r\n        auctionState.item = stringToBytes32(item);\r\n\r\n        NewAction(auction, _item);\r\n        return address(auction);\r\n    }\r\n}\r\n\r\ncontract TokenStarsAuction is Auction {\r\n        \r\n    function TokenStarsAuction(\r\n        address _owner) \r\n        public\r\n        Auction(_owner)\r\n    {\r\n        \r\n    }\r\n\r\n    function bidAce(uint256 _tokensNumber)\r\n        payable\r\n        public\r\n        returns (bool isHighest)\r\n    {\r\n        return super.bid(TokenStarsAuctionHub(owner).ACE(), _tokensNumber);\r\n    }\r\n\r\n    function bidTeam(uint256 _tokensNumber)\r\n        payable\r\n        public\r\n        returns (bool isHighest)\r\n    {\r\n        return super.bid(TokenStarsAuctionHub(owner).TEAM(), _tokensNumber);\r\n    }\r\n}\r\n",
  "sourcePath": "C:\\MD\\Dev\\Solidity\\Auction\\contracts\\TokenStarsAuction.sol",
  "compiler": {
    "name": "solc",
    "version": "0.4.19+commit.c4cbbb05.Emscripten.clang"
  },
  "schemaVersion": "1.0.1",
  "updatedAt": "2018-02-28T13:51:17.611Z"
}