{
  "contractName": "TokenStarsAuctionHub",
  "abi": [
    {
      "constant": true,
      "inputs": [
        {
          "name": "_auction",
          "type": "address"
        },
        {
          "name": "_bidder",
          "type": "address"
        }
      ],
      "name": "totalDirectBid",
      "outputs": [
        {
          "name": "_totalBid",
          "type": "uint256"
        }
      ],
      "payable": false,
      "stateMutability": "view",
      "type": "function"
    },
    {
      "constant": true,
      "inputs": [
        {
          "name": "",
          "type": "address"
        }
      ],
      "name": "auctionStates",
      "outputs": [
        {
          "name": "endSeconds",
          "type": "uint256"
        },
        {
          "name": "maxTokenBidInEther",
          "type": "uint256"
        },
        {
          "name": "minPrice",
          "type": "uint256"
        },
        {
          "name": "highestBid",
          "type": "uint256"
        },
        {
          "name": "highestBidder",
          "type": "address"
        },
        {
          "name": "highestManagedBidder",
          "type": "uint64"
        },
        {
          "name": "allowManagedBids",
          "type": "bool"
        },
        {
          "name": "cancelled",
          "type": "bool"
        },
        {
          "name": "finalized",
          "type": "bool"
        },
        {
          "name": "item",
          "type": "bytes32"
        }
      ],
      "payable": false,
      "stateMutability": "view",
      "type": "function"
    },
    {
      "constant": false,
      "inputs": [
        {
          "name": "_botAddress",
          "type": "address"
        }
      ],
      "name": "enableBot",
      "outputs": [],
      "payable": false,
      "stateMutability": "nonpayable",
      "type": "function"
    },
    {
      "constant": true,
      "inputs": [
        {
          "name": "_address",
          "type": "address"
        }
      ],
      "name": "isOwner",
      "outputs": [
        {
          "name": "",
          "type": "bool"
        }
      ],
      "payable": false,
      "stateMutability": "view",
      "type": "function"
    },
    {
      "constant": true,
      "inputs": [
        {
          "name": "_botAddress",
          "type": "address"
        }
      ],
      "name": "isBot",
      "outputs": [
        {
          "name": "",
          "type": "bool"
        }
      ],
      "payable": false,
      "stateMutability": "view",
      "type": "function"
    },
    {
      "constant": true,
      "inputs": [
        {
          "name": "",
          "type": "uint256"
        }
      ],
      "name": "decimals",
      "outputs": [
        {
          "name": "",
          "type": "uint256"
        }
      ],
      "payable": false,
      "stateMutability": "view",
      "type": "function"
    },
    {
      "constant": false,
      "inputs": [],
      "name": "unpause",
      "outputs": [],
      "payable": false,
      "stateMutability": "nonpayable",
      "type": "function"
    },
    {
      "constant": false,
      "inputs": [],
      "name": "finalize",
      "outputs": [
        {
          "name": "",
          "type": "bool"
        }
      ],
      "payable": false,
      "stateMutability": "nonpayable",
      "type": "function"
    },
    {
      "constant": true,
      "inputs": [
        {
          "name": "",
          "type": "uint256"
        }
      ],
      "name": "tokens",
      "outputs": [
        {
          "name": "",
          "type": "address"
        }
      ],
      "payable": false,
      "stateMutability": "view",
      "type": "function"
    },
    {
      "constant": false,
      "inputs": [
        {
          "name": "_bidder",
          "type": "address"
        }
      ],
      "name": "withdraw",
      "outputs": [
        {
          "name": "success",
          "type": "bool"
        }
      ],
      "payable": false,
      "stateMutability": "nonpayable",
      "type": "function"
    },
    {
      "constant": true,
      "inputs": [],
      "name": "wallet",
      "outputs": [
        {
          "name": "",
          "type": "address"
        }
      ],
      "payable": false,
      "stateMutability": "view",
      "type": "function"
    },
    {
      "constant": true,
      "inputs": [
        {
          "name": "_botAddress",
          "type": "address"
        },
        {
          "name": "_atTimeStampSeconds",
          "type": "uint64"
        }
      ],
      "name": "isBotAt",
      "outputs": [
        {
          "name": "",
          "type": "bool"
        }
      ],
      "payable": false,
      "stateMutability": "view",
      "type": "function"
    },
    {
      "constant": true,
      "inputs": [],
      "name": "paused",
      "outputs": [
        {
          "name": "",
          "type": "bool"
        }
      ],
      "payable": false,
      "stateMutability": "view",
      "type": "function"
    },
    {
      "constant": false,
      "inputs": [
        {
          "name": "_botAddress",
          "type": "address"
        },
        {
          "name": "_fromTimeStampSeconds",
          "type": "uint64"
        }
      ],
      "name": "disableBot",
      "outputs": [],
      "payable": false,
      "stateMutability": "nonpayable",
      "type": "function"
    },
    {
      "constant": false,
      "inputs": [
        {
          "name": "_managedBidder",
          "type": "uint64"
        },
        {
          "name": "_managedBid",
          "type": "uint256"
        },
        {
          "name": "_knownManagedBidder",
          "type": "address"
        }
      ],
      "name": "managedBid",
      "outputs": [
        {
          "name": "isHighest",
          "type": "bool"
        }
      ],
      "payable": false,
      "stateMutability": "nonpayable",
      "type": "function"
    },
    {
      "constant": false,
      "inputs": [],
      "name": "pause",
      "outputs": [],
      "payable": false,
      "stateMutability": "nonpayable",
      "type": "function"
    },
    {
      "constant": true,
      "inputs": [
        {
          "name": "",
          "type": "address"
        }
      ],
      "name": "tokenRates",
      "outputs": [
        {
          "name": "value",
          "type": "uint256"
        },
        {
          "name": "decimals",
          "type": "uint256"
        }
      ],
      "payable": false,
      "stateMutability": "view",
      "type": "function"
    },
    {
      "constant": true,
      "inputs": [],
      "name": "ACE",
      "outputs": [
        {
          "name": "",
          "type": "address"
        }
      ],
      "payable": false,
      "stateMutability": "view",
      "type": "function"
    },
    {
      "constant": false,
      "inputs": [
        {
          "name": "_bidder",
          "type": "address"
        },
        {
          "name": "_value",
          "type": "uint256"
        },
        {
          "name": "_token",
          "type": "address"
        },
        {
          "name": "_tokensNumber",
          "type": "uint256"
        }
      ],
      "name": "bid",
      "outputs": [
        {
          "name": "isHighest",
          "type": "bool"
        }
      ],
      "payable": false,
      "stateMutability": "nonpayable",
      "type": "function"
    },
    {
      "constant": true,
      "inputs": [],
      "name": "TEAM",
      "outputs": [
        {
          "name": "",
          "type": "address"
        }
      ],
      "payable": false,
      "stateMutability": "view",
      "type": "function"
    },
    {
      "constant": false,
      "inputs": [
        {
          "name": "source",
          "type": "string"
        }
      ],
      "name": "stringToBytes32",
      "outputs": [
        {
          "name": "result",
          "type": "bytes32"
        }
      ],
      "payable": false,
      "stateMutability": "nonpayable",
      "type": "function"
    },
    {
      "constant": true,
      "inputs": [
        {
          "name": "",
          "type": "uint256"
        }
      ],
      "name": "rates",
      "outputs": [
        {
          "name": "",
          "type": "uint256"
        }
      ],
      "payable": false,
      "stateMutability": "view",
      "type": "function"
    },
    {
      "constant": false,
      "inputs": [
        {
          "name": "_token",
          "type": "address"
        },
        {
          "name": "_tokenRate",
          "type": "uint256"
        }
      ],
      "name": "setTokenRate",
      "outputs": [],
      "payable": false,
      "stateMutability": "nonpayable",
      "type": "function"
    },
    {
      "constant": false,
      "inputs": [],
      "name": "cancel",
      "outputs": [
        {
          "name": "success",
          "type": "bool"
        }
      ],
      "payable": false,
      "stateMutability": "nonpayable",
      "type": "function"
    },
    {
      "inputs": [
        {
          "name": "_wallet",
          "type": "address"
        }
      ],
      "payable": false,
      "stateMutability": "nonpayable",
      "type": "constructor"
    },
    {
      "payable": true,
      "stateMutability": "payable",
      "type": "fallback"
    },
    {
      "anonymous": false,
      "inputs": [
        {
          "indexed": true,
          "name": "auction",
          "type": "address"
        },
        {
          "indexed": false,
          "name": "item",
          "type": "string"
        }
      ],
      "name": "NewAction",
      "type": "event"
    },
    {
      "anonymous": false,
      "inputs": [
        {
          "indexed": true,
          "name": "auction",
          "type": "address"
        },
        {
          "indexed": false,
          "name": "bidder",
          "type": "address"
        },
        {
          "indexed": false,
          "name": "totalBidInEther",
          "type": "uint256"
        },
        {
          "indexed": true,
          "name": "tokensBidInEther",
          "type": "uint256"
        }
      ],
      "name": "Bid",
      "type": "event"
    },
    {
      "anonymous": false,
      "inputs": [
        {
          "indexed": true,
          "name": "auction",
          "type": "address"
        },
        {
          "indexed": false,
          "name": "bidder",
          "type": "address"
        },
        {
          "indexed": false,
          "name": "token",
          "type": "address"
        },
        {
          "indexed": false,
          "name": "numberOfTokens",
          "type": "uint256"
        }
      ],
      "name": "TokenBid",
      "type": "event"
    },
    {
      "anonymous": false,
      "inputs": [
        {
          "indexed": true,
          "name": "auction",
          "type": "address"
        },
        {
          "indexed": false,
          "name": "bidder",
          "type": "uint64"
        },
        {
          "indexed": false,
          "name": "bid",
          "type": "uint256"
        },
        {
          "indexed": false,
          "name": "knownManagedBidder",
          "type": "address"
        }
      ],
      "name": "ManagedBid",
      "type": "event"
    },
    {
      "anonymous": false,
      "inputs": [
        {
          "indexed": true,
          "name": "auction",
          "type": "address"
        },
        {
          "indexed": false,
          "name": "bidder",
          "type": "address"
        },
        {
          "indexed": false,
          "name": "managedBidder",
          "type": "uint64"
        },
        {
          "indexed": false,
          "name": "totalBid",
          "type": "uint256"
        }
      ],
      "name": "NewHighestBidder",
      "type": "event"
    },
    {
      "anonymous": false,
      "inputs": [
        {
          "indexed": true,
          "name": "token",
          "type": "address"
        },
        {
          "indexed": false,
          "name": "rate",
          "type": "uint256"
        }
      ],
      "name": "TokenRateUpdate",
      "type": "event"
    },
    {
      "anonymous": false,
      "inputs": [
        {
          "indexed": true,
          "name": "auction",
          "type": "address"
        },
        {
          "indexed": false,
          "name": "bidder",
          "type": "address"
        },
        {
          "indexed": false,
          "name": "etherAmount",
          "type": "uint256"
        },
        {
          "indexed": false,
          "name": "tokensBidInEther",
          "type": "uint256"
        }
      ],
      "name": "Withdrawal",
      "type": "event"
    },
    {
      "anonymous": false,
      "inputs": [
        {
          "indexed": true,
          "name": "auction",
          "type": "address"
        },
        {
          "indexed": false,
          "name": "bidder",
          "type": "address"
        },
        {
          "indexed": false,
          "name": "etherAmount",
          "type": "uint256"
        },
        {
          "indexed": false,
          "name": "tokensAmount",
          "type": "uint256"
        }
      ],
      "name": "Charity",
      "type": "event"
    },
    {
      "anonymous": false,
      "inputs": [
        {
          "indexed": true,
          "name": "auction",
          "type": "address"
        },
        {
          "indexed": false,
          "name": "highestBidder",
          "type": "address"
        },
        {
          "indexed": false,
          "name": "highestManagedBidder",
          "type": "uint64"
        },
        {
          "indexed": false,
          "name": "amount",
          "type": "uint256"
        }
      ],
      "name": "Finalized",
      "type": "event"
    },
    {
      "anonymous": false,
      "inputs": [
        {
          "indexed": true,
          "name": "auction",
          "type": "address"
        },
        {
          "indexed": false,
          "name": "token",
          "type": "address"
        },
        {
          "indexed": false,
          "name": "tokensBidInEther",
          "type": "uint256"
        }
      ],
      "name": "FinalizedTokenTransfer",
      "type": "event"
    },
    {
      "anonymous": false,
      "inputs": [
        {
          "indexed": true,
          "name": "auction",
          "type": "address"
        },
        {
          "indexed": false,
          "name": "etherAmount",
          "type": "uint256"
        }
      ],
      "name": "FinalizedEtherTransfer",
      "type": "event"
    },
    {
      "anonymous": false,
      "inputs": [
        {
          "indexed": true,
          "name": "auction",
          "type": "address"
        },
        {
          "indexed": false,
          "name": "newEndtime",
          "type": "uint256"
        }
      ],
      "name": "ExtendedEndTime",
      "type": "event"
    },
    {
      "anonymous": false,
      "inputs": [
        {
          "indexed": true,
          "name": "auction",
          "type": "address"
        }
      ],
      "name": "Cancelled",
      "type": "event"
    },
    {
      "anonymous": false,
      "inputs": [
        {
          "indexed": true,
          "name": "_botAddress",
          "type": "address"
        },
        {
          "indexed": false,
          "name": "_startTime",
          "type": "uint64"
        },
        {
          "indexed": false,
          "name": "_endTime",
          "type": "uint64"
        }
      ],
      "name": "BotsStartEndTimeChange",
      "type": "event"
    },
    {
      "anonymous": false,
      "inputs": [
        {
          "indexed": true,
          "name": "_contract",
          "type": "address"
        },
        {
          "indexed": true,
          "name": "_wallet",
          "type": "address"
        }
      ],
      "name": "MultiOwnableWalletSet",
      "type": "event"
    },
    {
      "anonymous": false,
      "inputs": [],
      "name": "Pause",
      "type": "event"
    },
    {
      "anonymous": false,
      "inputs": [],
      "name": "Unpause",
      "type": "event"
    },
    {
      "constant": false,
      "inputs": [
        {
          "name": "_endSeconds",
          "type": "uint256"
        },
        {
          "name": "_maxTokenBidInEther",
          "type": "uint256"
        },
        {
          "name": "_minPrice",
          "type": "uint256"
        },
        {
          "name": "_item",
          "type": "string"
        },
        {
          "name": "_allowManagedBids",
          "type": "bool"
        }
      ],
      "name": "createAuction",
      "outputs": [
        {
          "name": "",
          "type": "address"
        }
      ],
      "payable": false,
      "stateMutability": "nonpayable",
      "type": "function"
    }
  ],
  "bytecode": "0x606060409081526000805460a060020a60ff021916905560048054600160a060020a03199081167306147110022b768ba8f99a8f385df11a151a9cc81790915560058054909116731c79ab32c66acaa1e9e81952b8aaa581b43e54e71790558051908101604052600454600160a060020a0390811682526005541660208201526200008f9060069060026200040e565b5060408051908101604052660886c98b7600008082526020820152620000ba9060079060026200047a565b50604080519081016040526000815260046020820152620000e0906008906002620004d1565b503415620000ed57600080fd5b604051602080620037118339810160405280805160068054919350839250906020818102016040519081016040528092919081815260200182805480156200015f57602002820191906000526020600020905b8154600160a060020a0316815260019091019060200180831162000140575b50505050506007805480602002602001604051908101604052809291908181526020018280548015620001b257602002820191906000526020600020905b8154815260200190600101908083116200019d575b505050505060088054806020026020016040519081016040528092919081815260200182805480156200020557602002820191906000526020600020905b815481526020019060010190808311620001f0575b505060008054600160a060020a031916600160a060020a0389811691909117808355919450849350889250829181169030167fafcdd415329178553b69a5c7b7ece5d86014afa3335a808a26f32110981061a760405160405180910390a3505033600160a060020a0316600090815260016020526040902080546001608060020a031916426001608060020a039081166801000000000000000002161790558351855114620002b357600080fd5b8251855114620002c257600080fd5b600091505b84518210156200040157848281518110620002de57fe5b90602001906020020151600160a060020a03161515620002fd57600080fd5b60008483815181106200030c57fe5b90602001906020020151116200032157600080fd5b8482815181106200032e57fe5b90602001906020020151905060408051908101604052808584815181106200035257fe5b9060200190602002015181526020018484815181106200036e57fe5b906020019060200201519052600160a060020a038216600090815260036020526040902081518155602082015160019091015550600160a060020a0381167f6d0466d743e24b9f0b2ae6bff53593c4b94c242fe76707f82de4076115d95a27858481518110620003da57fe5b9060200190602002015160405190815260200160405180910390a2600190910190620002c7565b505050505050506200055b565b82805482825590600052602060002090810192821562000468579160200282015b82811115620004685782518254600160a060020a031916600160a060020a0391909116178255602092909201916001909101906200042f565b506200047692915062000514565b5090565b828054828255906000526020600020908101928215620004c3579160200282015b82811115620004c3578251829066ffffffffffffff169055916020019190600101906200049b565b50620004769291506200053e565b828054828255906000526020600020908101928215620004c3579160200282015b82811115620004c3578251829060ff16905591602001919060010190620004f2565b6200053b91905b8082111562000476578054600160a060020a03191681556001016200051b565b90565b6200053b91905b8082111562000476576000815560010162000545565b6131a6806200056b6000396000f30060606040526004361061012f5763ffffffff60e060020a60003504166321b666b581146101c1578063265d9035146101f857806327329b05146102845780632f54bf6e146102a55780633bbac579146102d85780633f47e662146102f75780633f4ba83a1461030d5780634bb278f3146103205780634f64b2be1461033357806351cff8d914610365578063521eb2731461038457806353d3ed60146103975780635c975abb146103c35780635f58ed2a146103d6578063713674cf146104025780638456cb591461043157806386403125146104445780638df5f0b51461047b578063b56785881461048e578063cecdc6aa146104ba578063cfb51928146104cd578063dd418ae21461051e578063e0e4b85f14610534578063e7398fa314610597578063ea8a1af0146105b9575b600054600160a060020a03163480156108fc0290604051600060405180830381858888f19350505050151561016357600080fd5b60007f9c772aa581fc5bf19e09fbc8944f09f74c7b925afdfc2802025ad3efddd9567c333460006040518084600160a060020a0316600160a060020a03168152602001838152602001828152602001935050505060405180910390a2005b34156101cc57600080fd5b6101e6600160a060020a03600435811690602435166105cc565b60405190815260200160405180910390f35b341561020357600080fd5b610217600160a060020a0360043516610603565b604051998a5260208a01989098526040808a01979097526060890195909552600160a060020a03909316608088015267ffffffffffffffff90911660a0870152151560c0860152151560e08501521515610100840152610120830191909152610140909101905180910390f35b341561028f57600080fd5b6102a3600160a060020a0360043516610677565b005b34156102b057600080fd5b6102c4600160a060020a03600435166107a4565b604051901515815260200160405180910390f35b34156102e357600080fd5b6102c4600160a060020a0360043516610839565b341561030257600080fd5b6101e6600435610845565b341561031857600080fd5b6102a3610864565b341561032b57600080fd5b6102c46108e3565b341561033e57600080fd5b610349600435610cfa565b604051600160a060020a03909116815260200160405180910390f35b341561037057600080fd5b6102c4600160a060020a0360043516610d22565b341561038f57600080fd5b610349610feb565b34156103a257600080fd5b6102c4600160a060020a036004351667ffffffffffffffff60243516610ffa565b34156103ce57600080fd5b6102c46110be565b34156103e157600080fd5b6102a3600160a060020a036004351667ffffffffffffffff602435166110ce565b341561040d57600080fd5b6102c467ffffffffffffffff60043516602435600160a060020a03604435166111f7565b341561043c57600080fd5b6102a3611470565b341561044f57600080fd5b610463600160a060020a03600435166114ed565b60405191825260208201526040908101905180910390f35b341561048657600080fd5b610349611506565b341561049957600080fd5b6102c4600160a060020a036004358116906024359060443516606435611515565b34156104c557600080fd5b610349611742565b34156104d857600080fd5b6101e660046024813581810190830135806020601f8201819004810201604051908101604052818152929190602084018383808284375094965061175195505050505050565b341561052957600080fd5b6101e660043561177c565b341561053f57600080fd5b610349600480359060248035916044359160849060643590810190830135806020601f8201819004810201604051908101604052818152929190602084018383808284375094965050505091351515915061178a9050565b34156105a257600080fd5b6102a3600160a060020a0360043516602435611942565b34156105c457600080fd5b6102c46119c5565b600160a060020a03918216600090815260026020908152604080832093909416825260059092019091522080546001909101540190565b600260208190526000918252604090912080546001820154928201546003830154600484015460069094015492949391929091600160a060020a0381169167ffffffffffffffff60a060020a8304169160ff60e060020a820481169260e860020a830482169260f060020a9004909116908a565b6000805433600160a060020a0390811691161461069357600080fd5b50600160a060020a0381166000908152600160205260409020546fffffffffffffffffffffffffffffffff90811690680100000000000000008204161580156106e4575067ffffffffffffffff8116155b15156106ef57600080fd5b600160a060020a038216600081815260016020526040908190208054680100000000000000006fffffffffffffffffffffffffffffffff4281168202969096179586166fffffffffffffffffffffffffffffffff1990921682179092557f100ef6d43d5799b4c7e9e7bcde458f703bf058e7fe74245b6b7f99b3a1844e50929190049067ffffffffffffffff8516905167ffffffffffffffff9283168152911660208201526040908101905180910390a25050565b60008054600160a060020a0383811691161480610833575060008054600160a060020a031690632f54bf6e9084906040516020015260405160e060020a63ffffffff8416028152600160a060020a039091166004820152602401602060405180830381600087803b151561081757600080fd5b6102c65a03f1151561082857600080fd5b505050604051805190505b92915050565b60006108338242610ffa565b600880548290811061085357fe5b600091825260209091200154905081565b60005433600160a060020a0390811691161461087f57600080fd5b60005460a060020a900460ff16151561089757600080fd5b6000805474ff0000000000000000000000000000000000000000191690557f7805862f689e2f13df9f062ff482ad3ad112aca9e0847911ed832e158c525b3360405160405180910390a1565b33600160a060020a03166000908152600260205260408120600481015482908190819081908190819060f060020a900460ff161580156109235750865442115b801561093157508654600090115b80156109495750600487015460e860020a900460ff16155b151561095457600080fd5b6004870154600160a060020a031615610c37576004870154600160a060020a0316600090815260058801602052604081206001810154600382015491975095501115610b5157600092505b6003850154831015610b4557600385018054849081106109bb57fe5b90600052602060002090600202016001015491506000821115610b3a57600085600301848154811015156109eb57fe5b90600052602060002090600202016001018190555033600160a060020a031663e6d66ac88660030185815481101515610a2057fe5b600091825260208220600290910201548154600160a060020a039182169291169086906040516020015260405160e060020a63ffffffff8616028152600160a060020a0393841660048201529190921660248201526044810191909152606401602060405180830381600087803b1515610a9957600080fd5b6102c65a03f11515610aaa57600080fd5b5050506040518051965050851515610ac157600080fd5b33600160a060020a03167fb8556687b0cb4b3bd0c3789469c0f7685f98f193beccb31564e98eb9a558dcf58660030185815481101515610afd57fe5b6000918252602090912060029091020154600160a060020a031684604051600160a060020a03909216825260208201526040908101905180910390a25b60019092019161099f565b60006001860155610b5c565b8315610b5c57600080fd5b5083546000811115610c375760008086558054600160a060020a033381169263c1756a2c929091169084906040516020015260405160e060020a63ffffffff8516028152600160a060020a0390921660048301526024820152604401602060405180830381600087803b1515610bd157600080fd5b6102c65a03f11515610be257600080fd5b5050506040518051965050851515610bf957600080fd5b33600160a060020a03167f0e6ba11576d3db675d61c9277867b76a7909963afb67c75b6c0792934328bf1f8260405190815260200160405180910390a25b6004870180547fff00ffffffffffffffffffffffffffffffffffffffffffffffffffffffffffff1660f060020a17908190556003880154600160a060020a03338116927ff4307aa79ff247809d7cb4c6c00e28c1276dae971fc8ae43913e68dbd0dc8e29929181169167ffffffffffffffff60a060020a9092049190911690604051600160a060020a03909316835267ffffffffffffffff90911660208301526040808301919091526060909101905180910390a2600197505050505050505090565b6006805482908110610d0857fe5b600091825260209091200154600160a060020a0316905081565b600160a060020a0333811660009081526002602090815260408083208585168085526005820190935290832060048201549394919390928592839283928392839216141580610d7c5750600487015460e860020a900460ff165b1515610d8757600080fd5b600186015460038701549094506000901115610ed657600092505b6003860154831015610eca5760038601805484908110610dbe57fe5b90600052602060002090600202016001015491506000821115610ebf5760008660030184815481101515610dee57fe5b90600052602060002090600202016001018190555033600160a060020a031663e6d66ac88760030185815481101515610e2357fe5b60009182526020822060029091020154600160a060020a0316908c9086906040516020015260405160e060020a63ffffffff8616028152600160a060020a0393841660048201529190921660248201526044810191909152606401602060405180830381600087803b1515610e9757600080fd5b6102c65a03f11515610ea857600080fd5b5050506040518051955050841515610ebf57600080fd5b600190920191610da2565b60006001870155610ee1565b8315610ee157600080fd5b5084546000811115610f79576000808755600160a060020a0333169063c1756a2c908b9084906040516020015260405160e060020a63ffffffff8516028152600160a060020a0390921660048301526024820152604401602060405180830381600087803b1515610f5157600080fd5b6102c65a03f11515610f6257600080fd5b5050506040518051955050841515610f7957600080fd5b33600160a060020a03167fc2b4a290c20fb28939d29f102514fbffd2b73c059ffba8b78250c94161d5fcc68a83876040518084600160a060020a0316600160a060020a03168152602001838152602001828152602001935050505060405180910390a250600198975050505050505050565b600054600160a060020a031681565b600160a060020a0382166000908152600160205260408120546fffffffffffffffffffffffffffffffff9081169068010000000000000000820416158061106c575067ffffffffffffffff8316680100000000000000006fffffffffffffffffffffffffffffffff8084169190910416115b1561107a57600091506110b7565b67ffffffffffffffff8116151561109457600191506110b7565b67ffffffffffffffff81811690841610156110b257600191506110b7565b600091505b5092915050565b60005460a060020a900460ff1681565b60006110d9336107a4565b15156110e457600080fd5b50600160a060020a0382166000908152600160205260408120546fffffffffffffffffffffffffffffffff90811691680100000000000000008304909116118015611137575067ffffffffffffffff8116155b151561114257600080fd5b600160a060020a0383166000818152600160205260409081902080546fffffffffffffffffffffffffffffffff191667ffffffffffffffff868116959095176fffffffffffffffffffffffffffffffff811691821790925590937f100ef6d43d5799b4c7e9e7bcde458f703bf058e7fe74245b6b7f99b3a1844e50926801000000000000000090920491908516905167ffffffffffffffff9283168152911660208201526040908101905180910390a2505050565b6000808080808067ffffffffffffffff8916151561121457600080fd5b600160a060020a033316600090815260026020526040902080549095504210801561124b5750600485015460e860020a900460ff16155b80156112625750600485015460e060020a900460ff165b151561126d57600080fd5b60009350600160a060020a038716156112bf57600160a060020a03871660009081526005860160205260409020600281015490935088116112ad57600080fd5b60028301889055825460018401540193505b87840191508460030154821180156112db575084600201548210155b156113ff576003850182905560048501805473ffffffffffffffffffffffffffffffffffffffff1916600160a060020a03898116919091177bffffffffffffffff0000000000000000000000000000000000000000191660a060020a67ffffffffffffffff8d16021790915533167fb1b5cca7c52e9d0672f45b41b409bdbb0035badc2584e620faf1d3d9d89244f0888b85604051600160a060020a03909316835267ffffffffffffffff90911660208301526040808301919091526060909101905180910390a26107084286600001540310156113fa57506107084201808555600160a060020a0333167f648561c38957d04ef2c17045f8e4fc32770334f9a0f73a3670b907c3228a417c8260405190815260200160405180910390a25b600195505b33600160a060020a03167ffb6e9d271768b20a67739f44f9385a60b0a48b56e1d53c88e7936f09c8fc52b78a8a8a60405167ffffffffffffffff90931683526020830191909152600160a060020a03166040808301919091526060909101905180910390a250505050509392505050565b611479336107a4565b151561148457600080fd5b60005460a060020a900460ff161561149b57600080fd5b6000805474ff0000000000000000000000000000000000000000191660a060020a1790557f6985a02210a168e66602d3235cb6db0e70f92b3ba4d376a33c0f3d9434bff62560405160405180910390a1565b6003602052600090815260409020805460019091015482565b600454600160a060020a031681565b600160a060020a033316600090815260026020526040812080548290819081908190421080156115515750600485015460e860020a900460ff16155b151561155c57600080fd5b600160a060020a038a166000908152600586016020526040812094508711156115925761158b338b8a8a611a73565b92506115a6565b60018401549250600089116115a657600080fd5b83548901808555600285015460038701549482010193909250831180156115d1575084600201548310155b156116e4576003850183905560048501805473ffffffffffffffffffffffffffffffffffffffff1916600160a060020a038c8116919091177bffffffffffffffff0000000000000000000000000000000000000000191690915533167fb1b5cca7c52e9d0672f45b41b409bdbb0035badc2584e620faf1d3d9d89244f08b600086604051600160a060020a03909316835267ffffffffffffffff90911660208301526040808301919091526060909101905180910390a26107084286600001540310156116df57506107084201808555600160a060020a0333167f648561c38957d04ef2c17045f8e4fc32770334f9a0f73a3670b907c3228a417c8260405190815260200160405180910390a25b600195505b81830333600160a060020a03167fd21fbaad97462831ad0c216f300fefb33a10b03bb18bb70ed668562e88d15d538c86604051600160a060020a03909216825260208201526040908101905180910390a35050505050949350505050565b600554600160a060020a031681565b600061175b611ccf565b50818051151561176e5760009150611776565b602083015191505b50919050565b600780548290811061085357fe5b6000806000611797611ccf565b6117a033610839565b15156117ab57600080fd5b4289116117b757600080fd5b683635c9adc5dea000008811156117cd57600080fd5b600087116117da57600080fd5b6000543090600160a060020a03166117f0611ce1565b600160a060020a0392831681529116602082015260409081019051809103906000f080151561181e57600080fd5b600160a060020a03811660009081526002602081905260409091208b8155600181018b90559081018990556004810180547fffffff00ffffffffffffffffffffffffffffffffffffffffffffffffffffffff1660e060020a89151502179055909350915085905061188e81611751565b6006830155600160a060020a0383167fa5441ad5af4bd8b9469929dba2611a150dde5a264a534d2e682252b8528afcc48760405160208082528190810183818151815260200191508051906020019080838360005b838110156118fb5780820151838201526020016118e3565b50505050905090810190601f1680156119285780820380516001836020036101000a031916815260200191505b509250505060405180910390a25090979650505050505050565b600061194d33610839565b151561195857600080fd5b50600160a060020a038216600090815260036020526040812080549091901161198057600080fd5b818155600160a060020a0383167f6d0466d743e24b9f0b2ae6bff53593c4b94c242fe76707f82de4076115d95a278360405190815260200160405180910390a2505050565b600160a060020a03331660009081526002602052604081208054421080156119f95750600481015460e860020a900460ff16155b1515611a0457600080fd5b6004810180547fffff00ffffffffffffffffffffffffffffffffffffffffffffffffffffffffff1660e860020a179055600160a060020a0333167f398bd6b21ae4164ec322fb0eb8c2eb6277f36fd41903fbbed594dfe12559128160405160405180910390a2600191505b5090565b600160a060020a038085166000908152600260209081526040808320878516845260058101835281842060018101549588168552600390935290832080549394919385908190819011611ac557600080fd5b5050600383015460005b81811015611b225788600160a060020a03168560030182815481101515611af257fe5b6000918252602090912060029091020154600160a060020a03161415611b1a57809150611b22565b600101611acf565b6003850154821415611baa5760038501805460018101611b428382611cf1565b9160005260206000209060020201600060408051908101604052600160a060020a038d168152600060208201529190508151815473ffffffffffffffffffffffffffffffffffffffff1916600160a060020a0391909116178155602082015181600101555050505b878560030183815481101515611bbc57fe5b600091825260209091206001600290920201810180549092019091558301548354611c0291600a0a90611bf6908b9063ffffffff611c8616565b9063ffffffff611cb816565b6001870154940193841115611c1657600080fd5b60018501849055600160a060020a038b167f9a77ba7516b1e0052d27170ea8048d58277273abbc6ab40407107ff90282b1578b8b8b604051600160a060020a039384168152919092166020820152604080820192909252606001905180910390a250919998505050505050505050565b600080831515611c9957600091506110b7565b50828202828482811515611ca957fe5b0414611cb157fe5b9392505050565b6000808284811515611cc657fe5b04949350505050565b60206040519081016040526000815290565b60405161141d80611d5e83390190565b815481835581811511611d1d57600202816002028360005260206000209182019101611d1d9190611d22565b505050565b611d5a91905b80821115611a6f57805473ffffffffffffffffffffffffffffffffffffffff1916815560006001820155600201611d28565b9056006060604052341561000f57600080fd5b60405160408061141d8339810160405280805191906020018051915082905081600160a060020a038216151561004457600080fd5b600160a060020a038116151561005957600080fd5b60008054600160a060020a03938416600160a060020a031991821617909155600180549290931691161790555050611387806100966000396000f3006060604052600436106101195763ffffffff60e060020a6000350416633ccfd60b81146101ac5780634bb278f3146101d35780634c8cb943146101e65780634c936ea81461020b578063521eb2731461021e57806359d667a51461024d57806386c1497c14610264578063898ae4e3146102875780638da5cb5b1461029257806390d0da9f146102a557806391f90157146102c45780639914c2e3146102d75780639a82a09a146103065780639b412150146103195780639d6e653814610306578063b3f05b9714610349578063c1756a2c1461035c578063d57bde791461037e578063e45be8eb14610391578063e6d66ac8146103a4578063ea8a1af0146103cc578063f2a4a82e146103df578063f3f80d9114610469575b60008054600160a060020a03169063b5678588903390349080806040516020015260405160e060020a63ffffffff8716028152600160a060020a0394851660048201526024810193909352921660448201526064810191909152608401602060405180830381600087803b151561018f57600080fd5b6102c65a03f115156101a057600080fd5b50505060405180515050005b34156101b757600080fd5b6101bf610474565b604051901515815260200160405180910390f35b34156101de57600080fd5b6101bf6104ec565b34156101f157600080fd5b6101f96105b4565b60405190815260200160405180910390f35b341561021657600080fd5b6101f9610671565b341561022957600080fd5b61023161072e565b604051600160a060020a03909116815260200160405180910390f35b6101bf600160a060020a036004351660243561073d565b341561026f57600080fd5b6101bf67ffffffffffffffff60043516602435610885565b6101bf600435610979565b341561029d57600080fd5b6102316109ec565b34156102b057600080fd5b6101f9600160a060020a03600435166109fb565b34156102cf57600080fd5b610231610a7c565b34156102e257600080fd5b6101bf67ffffffffffffffff60043516602435600160a060020a0360443516610b39565b341561031157600080fd5b6101bf610c50565b341561032457600080fd5b61032c610d0d565b60405167ffffffffffffffff909116815260200160405180910390f35b341561035457600080fd5b6101bf610dca565b341561036757600080fd5b6101bf600160a060020a0360043516602435610e87565b341561038957600080fd5b6101f9610ecf565b341561039c57600080fd5b6101f9610f8c565b34156103af57600080fd5b6101bf600160a060020a0360043581169060243516604435611049565b34156103d757600080fd5b6101bf6110c2565b34156103ea57600080fd5b6103f261118a565b60405160208082528190810183818151815260200191508051906020019080838360005b8381101561042e578082015183820152602001610416565b50505050905090810190601f16801561045b5780820380516001836020036101000a031916815260200191505b509250505060405180910390f35b6101bf6004356112fd565b60008054600160a060020a03166351cff8d933836040516020015260405160e060020a63ffffffff8416028152600160a060020a039091166004820152602401602060405180830381600087803b15156104cd57600080fd5b6102c65a03f115156104de57600080fd5b505050604051805191505090565b60008054600160a060020a0316633bbac57933836040516020015260405160e060020a63ffffffff8416028152600160a060020a039091166004820152602401602060405180830381600087803b151561054557600080fd5b6102c65a03f1151561055657600080fd5b50505060405180519050151561056b57600080fd5b60008054600160a060020a031690634bb278f390604051602001526040518163ffffffff1660e060020a028152600401602060405180830381600087803b15156104cd57600080fd5b600080548190600160a060020a031663265d90353083604051610140015260405160e060020a63ffffffff8416028152600160a060020a03909116600482015260240161014060405180830381600087803b151561061157600080fd5b6102c65a03f1151561062257600080fd5b505050604051805190602001805190602001805190602001805190602001805190602001805190602001805190602001805190602001805190602001805150979b9a5050505050505050505050565b600080548190600160a060020a031663265d90353083604051610140015260405160e060020a63ffffffff8416028152600160a060020a03909116600482015260240161014060405180830381600087803b15156106ce57600080fd5b6102c65a03f115156106df57600080fd5b505050604051805190602001805190602001805190602001805190602001805190602001805190602001805190602001805190602001805190602001805150989b9a5050505050505050505050565b600154600160a060020a031681565b6000600160a060020a038316158015906107575750600082115b156107ec5782600160a060020a03166323b872dd33308560006040516020015260405160e060020a63ffffffff8616028152600160a060020a0393841660048201529190921660248201526044810191909152606401602060405180830381600087803b15156107c657600080fd5b6102c65a03f115156107d757600080fd5b5050506040518051905015156107ec57600080fd5b60008054600160a060020a03169063b56785889033903490879087906040516020015260405160e060020a63ffffffff8716028152600160a060020a0394851660048201526024810193909352921660448201526064810191909152608401602060405180830381600087803b151561086457600080fd5b6102c65a03f1151561087557600080fd5b5050506040518051949350505050565b60008054600160a060020a0316633bbac57933836040516020015260405160e060020a63ffffffff8416028152600160a060020a039091166004820152602401602060405180830381600087803b15156108de57600080fd5b6102c65a03f115156108ef57600080fd5b50505060405180519050151561090457600080fd5b60008054600160a060020a03169063713674cf9085908590806040516020015260405160e060020a63ffffffff861602815267ffffffffffffffff90931660048401526024830191909152600160a060020a03166044820152606401602060405180830381600087803b151561086457600080fd5b600080546109e690600160a060020a0316638df5f0b583604051602001526040518163ffffffff1660e060020a028152600401602060405180830381600087803b15156109c557600080fd5b6102c65a03f115156109d657600080fd5b505050604051805190508361073d565b92915050565b600054600160a060020a031681565b60008054600160a060020a03166321b666b53084846040516020015260405160e060020a63ffffffff8516028152600160a060020a03928316600482015291166024820152604401602060405180830381600087803b1515610a5c57600080fd5b6102c65a03f11515610a6d57600080fd5b50505060405180519392505050565b600080548190600160a060020a031663265d90353083604051610140015260405160e060020a63ffffffff8416028152600160a060020a03909116600482015260240161014060405180830381600087803b1515610ad957600080fd5b6102c65a03f11515610aea57600080fd5b505050604051805190602001805190602001805190602001805190602001805190602001805190602001805190602001805190602001805190602001805150949b9a5050505050505050505050565b60008054600160a060020a0316633bbac57933836040516020015260405160e060020a63ffffffff8416028152600160a060020a039091166004820152602401602060405180830381600087803b1515610b9257600080fd5b6102c65a03f11515610ba357600080fd5b505050604051805190501515610bb857600080fd5b60008054600160a060020a03169063713674cf908690869086906040516020015260405160e060020a63ffffffff861602815267ffffffffffffffff90931660048401526024830191909152600160a060020a03166044820152606401602060405180830381600087803b1515610c2e57600080fd5b6102c65a03f11515610c3f57600080fd5b505050604051805195945050505050565b600080548190600160a060020a031663265d90353083604051610140015260405160e060020a63ffffffff8416028152600160a060020a03909116600482015260240161014060405180830381600087803b1515610cad57600080fd5b6102c65a03f11515610cbe57600080fd5b505050604051805190602001805190602001805190602001805190602001805190602001805190602001805190602001805190602001805190602001805150929b9a5050505050505050505050565b600080548190600160a060020a031663265d90353083604051610140015260405160e060020a63ffffffff8416028152600160a060020a03909116600482015260240161014060405180830381600087803b1515610d6a57600080fd5b6102c65a03f11515610d7b57600080fd5b505050604051805190602001805190602001805190602001805190602001805190602001805190602001805190602001805190602001805190602001805150939b9a5050505050505050505050565b600080548190600160a060020a031663265d90353083604051610140015260405160e060020a63ffffffff8416028152600160a060020a03909116600482015260240161014060405180830381600087803b1515610e2757600080fd5b6102c65a03f11515610e3857600080fd5b505050604051805190602001805190602001805190602001805190602001805190602001805190602001805190602001805190602001805190602001805150919b9a5050505050505050505050565b6000805433600160a060020a03908116911614610ea357600080fd5b600160a060020a03831682156108fc0283604051600060405180830381858888f1979650505050505050565b600080548190600160a060020a031663265d90353083604051610140015260405160e060020a63ffffffff8416028152600160a060020a03909116600482015260240161014060405180830381600087803b1515610f2c57600080fd5b6102c65a03f11515610f3d57600080fd5b505050604051805190602001805190602001805190602001805190602001805190602001805190602001805190602001805190602001805190602001805150959b9a5050505050505050505050565b600080548190600160a060020a031663265d90353083604051610140015260405160e060020a63ffffffff8416028152600160a060020a03909116600482015260240161014060405180830381600087803b1515610fe957600080fd5b6102c65a03f11515610ffa57600080fd5b505050604051805190602001805190602001805190602001805190602001805190602001805190602001805190602001805190602001805190602001805150969b9a5050505050505050505050565b6000805433600160a060020a0390811691161461106557600080fd5b83600160a060020a031663a9059cbb848460006040516020015260405160e060020a63ffffffff8516028152600160a060020a0390921660048301526024820152604401602060405180830381600087803b1515610c2e57600080fd5b60008054600160a060020a0316633bbac57933836040516020015260405160e060020a63ffffffff8416028152600160a060020a039091166004820152602401602060405180830381600087803b151561111b57600080fd5b6102c65a03f1151561112c57600080fd5b50505060405180519050151561114157600080fd5b60008054600160a060020a03169063ea8a1af090604051602001526040518163ffffffff1660e060020a028152600401602060405180830381600087803b15156104cd57600080fd5b611192611349565b600061119c611349565b60008054600160a060020a031663265d90353083604051610140015260405160e060020a63ffffffff8416028152600160a060020a03909116600482015260240161014060405180830381600087803b15156111f757600080fd5b6102c65a03f1151561120857600080fd5b505050604051805190602001805190602001805190602001805190602001805190602001805190602001805190602001805190602001805190602001805190509b5050505050505050505060206040518059106112625750595b818152601f19601f8301168101602001604052905091505b60208110156112f65782816020811061128f57fe5b1a7f0100000000000000000000000000000000000000000000000000000000000000028282815181106112be57fe5b9060200101907effffffffffffffffffffffffffffffffffffffffffffffffffffffffffffff1916908160001a90535060010161127a565b5092915050565b600080546109e690600160a060020a031663cecdc6aa83604051602001526040518163ffffffff1660e060020a028152600401602060405180830381600087803b15156109c557600080fd5b602060405190810160405260008152905600a165627a7a7230582069891de2dc7067ebac5aa81081d700be1ecfdc9e14d972a630b9c4220a509c190029a165627a7a723058207d91d319ed7ac34d701ba20029017f9333665cb11b26b9b97d646d9d9ceb5ee30029",
  "source": "pragma solidity ^0.4.18;\r\n\r\nimport './Auction.sol';\r\n\r\ncontract TokenStarsAuctionHub is AuctionHub {\r\n    address public ACE = 0x06147110022B768BA8F99A8f385df11a151A9cc8;\r\n    address public TEAM = 0x1c79ab32C66aCAa1e9E81952B8AAa581B43e54E7;\r\n    address[] public tokens = [ACE, TEAM];\r\n    uint256[] public rates = [2400000000000000, 2400000000000000];\r\n    uint256[] public decimals = [0, 4];\r\n\r\n    function TokenStarsAuctionHub(address _wallet)\r\n        public\r\n        AuctionHub(_wallet, tokens, rates, decimals)\r\n    { \r\n    }\r\n\r\n    function createAuction(\r\n        uint _endSeconds, \r\n        uint256 _maxTokenBidInEther,\r\n        uint256 _minPrice,\r\n        string _item,\r\n        bool _allowManagedBids\r\n    )\r\n        onlyBot\r\n        public\r\n        returns (address)\r\n    {\r\n        require (_endSeconds > now);\r\n        require(_maxTokenBidInEther <= 1000 ether);\r\n        require(_minPrice > 0);\r\n\r\n        Auction auction = new TokenStarsAuction(this, wallet);\r\n\r\n        ActionState storage auctionState = auctionStates[auction];\r\n\r\n        auctionState.endSeconds = _endSeconds;\r\n        auctionState.maxTokenBidInEther = _maxTokenBidInEther;\r\n        auctionState.minPrice = _minPrice;\r\n        auctionState.allowManagedBids = _allowManagedBids;\r\n        string memory item = _item;\r\n        auctionState.item = stringToBytes32(item);\r\n\r\n        NewAction(auction, _item);\r\n        return address(auction);\r\n    }\r\n\r\n    \r\n}\r\n\r\ncontract TokenStarsAuction is Auction {\r\n        \r\n    function TokenStarsAuction(\r\n        address _owner,\r\n        address _wallet) \r\n        public\r\n        Auction(_owner, _wallet)\r\n    {\r\n        \r\n    }\r\n\r\n    function bidAce(uint256 _tokensNumber)\r\n        payable\r\n        public\r\n        returns (bool isHighest)\r\n    {\r\n        return super.bid(TokenStarsAuctionHub(owner).ACE(), _tokensNumber);\r\n    }\r\n\r\n    function bidTeam(uint256 _tokensNumber)\r\n        payable\r\n        public\r\n        returns (bool isHighest)\r\n    {\r\n        return super.bid(TokenStarsAuctionHub(owner).TEAM(), _tokensNumber);\r\n    }\r\n}\r\n",
  "sourcePath": "C:\\MD\\Dev\\Solidity\\Auction\\contracts\\TokenStarsAuction.sol",
  "compiler": {
    "name": "solc",
    "version": "0.4.19+commit.c4cbbb05.Emscripten.clang"
  },
  "schemaVersion": "1.0.1",
  "updatedAt": "2018-02-27T09:38:00.798Z"
}