{
  "contractName": "TokenStarsAuction",
  "abi": [
    {
      "constant": false,
      "inputs": [],
      "name": "withdraw",
      "outputs": [
        {
          "name": "success",
          "type": "bool"
        }
      ],
      "payable": false,
      "stateMutability": "nonpayable",
      "type": "function"
    },
    {
      "constant": false,
      "inputs": [],
      "name": "finalize",
      "outputs": [
        {
          "name": "",
          "type": "bool"
        }
      ],
      "payable": false,
      "stateMutability": "nonpayable",
      "type": "function"
    },
    {
      "constant": true,
      "inputs": [],
      "name": "maxTokenBidInEther",
      "outputs": [
        {
          "name": "",
          "type": "uint256"
        }
      ],
      "payable": false,
      "stateMutability": "view",
      "type": "function"
    },
    {
      "constant": true,
      "inputs": [],
      "name": "endSeconds",
      "outputs": [
        {
          "name": "",
          "type": "uint256"
        }
      ],
      "payable": false,
      "stateMutability": "view",
      "type": "function"
    },
    {
      "constant": true,
      "inputs": [],
      "name": "wallet",
      "outputs": [
        {
          "name": "",
          "type": "address"
        }
      ],
      "payable": false,
      "stateMutability": "view",
      "type": "function"
    },
    {
      "constant": false,
      "inputs": [
        {
          "name": "_token",
          "type": "address"
        },
        {
          "name": "_tokensNumber",
          "type": "uint256"
        }
      ],
      "name": "bid",
      "outputs": [
        {
          "name": "isHighest",
          "type": "bool"
        }
      ],
      "payable": true,
      "stateMutability": "payable",
      "type": "function"
    },
    {
      "constant": false,
      "inputs": [
        {
          "name": "_managedBidder",
          "type": "uint64"
        },
        {
          "name": "_managedBid",
          "type": "uint256"
        }
      ],
      "name": "managedBid",
      "outputs": [
        {
          "name": "isHighest",
          "type": "bool"
        }
      ],
      "payable": false,
      "stateMutability": "nonpayable",
      "type": "function"
    },
    {
      "constant": false,
      "inputs": [
        {
          "name": "_tokensNumber",
          "type": "uint256"
        }
      ],
      "name": "bidAce",
      "outputs": [
        {
          "name": "isHighest",
          "type": "bool"
        }
      ],
      "payable": true,
      "stateMutability": "payable",
      "type": "function"
    },
    {
      "constant": true,
      "inputs": [],
      "name": "owner",
      "outputs": [
        {
          "name": "",
          "type": "address"
        }
      ],
      "payable": false,
      "stateMutability": "view",
      "type": "function"
    },
    {
      "constant": true,
      "inputs": [
        {
          "name": "_bidder",
          "type": "address"
        }
      ],
      "name": "totalDirectBid",
      "outputs": [
        {
          "name": "",
          "type": "uint256"
        }
      ],
      "payable": false,
      "stateMutability": "view",
      "type": "function"
    },
    {
      "constant": true,
      "inputs": [],
      "name": "highestBidder",
      "outputs": [
        {
          "name": "",
          "type": "address"
        }
      ],
      "payable": false,
      "stateMutability": "view",
      "type": "function"
    },
    {
      "constant": false,
      "inputs": [
        {
          "name": "_managedBidder",
          "type": "uint64"
        },
        {
          "name": "_managedBid",
          "type": "uint256"
        },
        {
          "name": "_knownManagedBidder",
          "type": "address"
        }
      ],
      "name": "managedBid2",
      "outputs": [
        {
          "name": "isHighest",
          "type": "bool"
        }
      ],
      "payable": false,
      "stateMutability": "nonpayable",
      "type": "function"
    },
    {
      "constant": true,
      "inputs": [],
      "name": "cancelled",
      "outputs": [
        {
          "name": "",
          "type": "bool"
        }
      ],
      "payable": false,
      "stateMutability": "view",
      "type": "function"
    },
    {
      "constant": true,
      "inputs": [],
      "name": "highestManagedBidder",
      "outputs": [
        {
          "name": "",
          "type": "uint64"
        }
      ],
      "payable": false,
      "stateMutability": "view",
      "type": "function"
    },
    {
      "constant": true,
      "inputs": [],
      "name": "allowManagedBids",
      "outputs": [
        {
          "name": "",
          "type": "bool"
        }
      ],
      "payable": false,
      "stateMutability": "view",
      "type": "function"
    },
    {
      "constant": true,
      "inputs": [],
      "name": "finalized",
      "outputs": [
        {
          "name": "",
          "type": "bool"
        }
      ],
      "payable": false,
      "stateMutability": "view",
      "type": "function"
    },
    {
      "constant": false,
      "inputs": [
        {
          "name": "_to",
          "type": "address"
        },
        {
          "name": "_amount",
          "type": "uint256"
        }
      ],
      "name": "sendEther",
      "outputs": [
        {
          "name": "",
          "type": "bool"
        }
      ],
      "payable": false,
      "stateMutability": "nonpayable",
      "type": "function"
    },
    {
      "constant": true,
      "inputs": [],
      "name": "highestBid",
      "outputs": [
        {
          "name": "",
          "type": "uint256"
        }
      ],
      "payable": false,
      "stateMutability": "view",
      "type": "function"
    },
    {
      "constant": true,
      "inputs": [],
      "name": "minPrice",
      "outputs": [
        {
          "name": "",
          "type": "uint256"
        }
      ],
      "payable": false,
      "stateMutability": "view",
      "type": "function"
    },
    {
      "constant": false,
      "inputs": [
        {
          "name": "_token",
          "type": "address"
        },
        {
          "name": "_to",
          "type": "address"
        },
        {
          "name": "_amount",
          "type": "uint256"
        }
      ],
      "name": "sendTokens",
      "outputs": [
        {
          "name": "",
          "type": "bool"
        }
      ],
      "payable": false,
      "stateMutability": "nonpayable",
      "type": "function"
    },
    {
      "constant": false,
      "inputs": [],
      "name": "cancel",
      "outputs": [
        {
          "name": "success",
          "type": "bool"
        }
      ],
      "payable": false,
      "stateMutability": "nonpayable",
      "type": "function"
    },
    {
      "constant": true,
      "inputs": [],
      "name": "item",
      "outputs": [
        {
          "name": "",
          "type": "string"
        }
      ],
      "payable": false,
      "stateMutability": "view",
      "type": "function"
    },
    {
      "constant": false,
      "inputs": [
        {
          "name": "_tokensNumber",
          "type": "uint256"
        }
      ],
      "name": "bidTeam",
      "outputs": [
        {
          "name": "isHighest",
          "type": "bool"
        }
      ],
      "payable": true,
      "stateMutability": "payable",
      "type": "function"
    },
    {
      "inputs": [
        {
          "name": "_owner",
          "type": "address"
        },
        {
          "name": "_wallet",
          "type": "address"
        }
      ],
      "payable": false,
      "stateMutability": "nonpayable",
      "type": "constructor"
    },
    {
      "payable": true,
      "stateMutability": "payable",
      "type": "fallback"
    }
  ],
  "bytecode": "0x6060604052341561000f57600080fd5b60405160408061141d8339810160405280805191906020018051915082905081600160a060020a038216151561004457600080fd5b600160a060020a038116151561005957600080fd5b60008054600160a060020a03938416600160a060020a031991821617909155600180549290931691161790555050611387806100966000396000f3006060604052600436106101195763ffffffff60e060020a6000350416633ccfd60b81146101ac5780634bb278f3146101d35780634c8cb943146101e65780634c936ea81461020b578063521eb2731461021e57806359d667a51461024d57806386c1497c14610264578063898ae4e3146102875780638da5cb5b1461029257806390d0da9f146102a557806391f90157146102c45780639914c2e3146102d75780639a82a09a146103065780639b412150146103195780639d6e653814610306578063b3f05b9714610349578063c1756a2c1461035c578063d57bde791461037e578063e45be8eb14610391578063e6d66ac8146103a4578063ea8a1af0146103cc578063f2a4a82e146103df578063f3f80d9114610469575b60008054600160a060020a03169063b5678588903390349080806040516020015260405160e060020a63ffffffff8716028152600160a060020a0394851660048201526024810193909352921660448201526064810191909152608401602060405180830381600087803b151561018f57600080fd5b6102c65a03f115156101a057600080fd5b50505060405180515050005b34156101b757600080fd5b6101bf610474565b604051901515815260200160405180910390f35b34156101de57600080fd5b6101bf6104ec565b34156101f157600080fd5b6101f96105b4565b60405190815260200160405180910390f35b341561021657600080fd5b6101f9610671565b341561022957600080fd5b61023161072e565b604051600160a060020a03909116815260200160405180910390f35b6101bf600160a060020a036004351660243561073d565b341561026f57600080fd5b6101bf67ffffffffffffffff60043516602435610885565b6101bf600435610979565b341561029d57600080fd5b6102316109ec565b34156102b057600080fd5b6101f9600160a060020a03600435166109fb565b34156102cf57600080fd5b610231610a7c565b34156102e257600080fd5b6101bf67ffffffffffffffff60043516602435600160a060020a0360443516610b39565b341561031157600080fd5b6101bf610c50565b341561032457600080fd5b61032c610d0d565b60405167ffffffffffffffff909116815260200160405180910390f35b341561035457600080fd5b6101bf610dca565b341561036757600080fd5b6101bf600160a060020a0360043516602435610e87565b341561038957600080fd5b6101f9610ecf565b341561039c57600080fd5b6101f9610f8c565b34156103af57600080fd5b6101bf600160a060020a0360043581169060243516604435611049565b34156103d757600080fd5b6101bf6110c2565b34156103ea57600080fd5b6103f261118a565b60405160208082528190810183818151815260200191508051906020019080838360005b8381101561042e578082015183820152602001610416565b50505050905090810190601f16801561045b5780820380516001836020036101000a031916815260200191505b509250505060405180910390f35b6101bf6004356112fd565b60008054600160a060020a03166351cff8d933836040516020015260405160e060020a63ffffffff8416028152600160a060020a039091166004820152602401602060405180830381600087803b15156104cd57600080fd5b6102c65a03f115156104de57600080fd5b505050604051805191505090565b60008054600160a060020a0316633bbac57933836040516020015260405160e060020a63ffffffff8416028152600160a060020a039091166004820152602401602060405180830381600087803b151561054557600080fd5b6102c65a03f1151561055657600080fd5b50505060405180519050151561056b57600080fd5b60008054600160a060020a031690634bb278f390604051602001526040518163ffffffff1660e060020a028152600401602060405180830381600087803b15156104cd57600080fd5b600080548190600160a060020a031663265d90353083604051610140015260405160e060020a63ffffffff8416028152600160a060020a03909116600482015260240161014060405180830381600087803b151561061157600080fd5b6102c65a03f1151561062257600080fd5b505050604051805190602001805190602001805190602001805190602001805190602001805190602001805190602001805190602001805190602001805150979b9a5050505050505050505050565b600080548190600160a060020a031663265d90353083604051610140015260405160e060020a63ffffffff8416028152600160a060020a03909116600482015260240161014060405180830381600087803b15156106ce57600080fd5b6102c65a03f115156106df57600080fd5b505050604051805190602001805190602001805190602001805190602001805190602001805190602001805190602001805190602001805190602001805150989b9a5050505050505050505050565b600154600160a060020a031681565b6000600160a060020a038316158015906107575750600082115b156107ec5782600160a060020a03166323b872dd33308560006040516020015260405160e060020a63ffffffff8616028152600160a060020a0393841660048201529190921660248201526044810191909152606401602060405180830381600087803b15156107c657600080fd5b6102c65a03f115156107d757600080fd5b5050506040518051905015156107ec57600080fd5b60008054600160a060020a03169063b56785889033903490879087906040516020015260405160e060020a63ffffffff8716028152600160a060020a0394851660048201526024810193909352921660448201526064810191909152608401602060405180830381600087803b151561086457600080fd5b6102c65a03f1151561087557600080fd5b5050506040518051949350505050565b60008054600160a060020a0316633bbac57933836040516020015260405160e060020a63ffffffff8416028152600160a060020a039091166004820152602401602060405180830381600087803b15156108de57600080fd5b6102c65a03f115156108ef57600080fd5b50505060405180519050151561090457600080fd5b60008054600160a060020a03169063713674cf9085908590806040516020015260405160e060020a63ffffffff861602815267ffffffffffffffff90931660048401526024830191909152600160a060020a03166044820152606401602060405180830381600087803b151561086457600080fd5b600080546109e690600160a060020a0316638df5f0b583604051602001526040518163ffffffff1660e060020a028152600401602060405180830381600087803b15156109c557600080fd5b6102c65a03f115156109d657600080fd5b505050604051805190508361073d565b92915050565b600054600160a060020a031681565b60008054600160a060020a03166321b666b53084846040516020015260405160e060020a63ffffffff8516028152600160a060020a03928316600482015291166024820152604401602060405180830381600087803b1515610a5c57600080fd5b6102c65a03f11515610a6d57600080fd5b50505060405180519392505050565b600080548190600160a060020a031663265d90353083604051610140015260405160e060020a63ffffffff8416028152600160a060020a03909116600482015260240161014060405180830381600087803b1515610ad957600080fd5b6102c65a03f11515610aea57600080fd5b505050604051805190602001805190602001805190602001805190602001805190602001805190602001805190602001805190602001805190602001805150949b9a5050505050505050505050565b60008054600160a060020a0316633bbac57933836040516020015260405160e060020a63ffffffff8416028152600160a060020a039091166004820152602401602060405180830381600087803b1515610b9257600080fd5b6102c65a03f11515610ba357600080fd5b505050604051805190501515610bb857600080fd5b60008054600160a060020a03169063713674cf908690869086906040516020015260405160e060020a63ffffffff861602815267ffffffffffffffff90931660048401526024830191909152600160a060020a03166044820152606401602060405180830381600087803b1515610c2e57600080fd5b6102c65a03f11515610c3f57600080fd5b505050604051805195945050505050565b600080548190600160a060020a031663265d90353083604051610140015260405160e060020a63ffffffff8416028152600160a060020a03909116600482015260240161014060405180830381600087803b1515610cad57600080fd5b6102c65a03f11515610cbe57600080fd5b505050604051805190602001805190602001805190602001805190602001805190602001805190602001805190602001805190602001805190602001805150929b9a5050505050505050505050565b600080548190600160a060020a031663265d90353083604051610140015260405160e060020a63ffffffff8416028152600160a060020a03909116600482015260240161014060405180830381600087803b1515610d6a57600080fd5b6102c65a03f11515610d7b57600080fd5b505050604051805190602001805190602001805190602001805190602001805190602001805190602001805190602001805190602001805190602001805150939b9a5050505050505050505050565b600080548190600160a060020a031663265d90353083604051610140015260405160e060020a63ffffffff8416028152600160a060020a03909116600482015260240161014060405180830381600087803b1515610e2757600080fd5b6102c65a03f11515610e3857600080fd5b505050604051805190602001805190602001805190602001805190602001805190602001805190602001805190602001805190602001805190602001805150919b9a5050505050505050505050565b6000805433600160a060020a03908116911614610ea357600080fd5b600160a060020a03831682156108fc0283604051600060405180830381858888f1979650505050505050565b600080548190600160a060020a031663265d90353083604051610140015260405160e060020a63ffffffff8416028152600160a060020a03909116600482015260240161014060405180830381600087803b1515610f2c57600080fd5b6102c65a03f11515610f3d57600080fd5b505050604051805190602001805190602001805190602001805190602001805190602001805190602001805190602001805190602001805190602001805150959b9a5050505050505050505050565b600080548190600160a060020a031663265d90353083604051610140015260405160e060020a63ffffffff8416028152600160a060020a03909116600482015260240161014060405180830381600087803b1515610fe957600080fd5b6102c65a03f11515610ffa57600080fd5b505050604051805190602001805190602001805190602001805190602001805190602001805190602001805190602001805190602001805190602001805150969b9a5050505050505050505050565b6000805433600160a060020a0390811691161461106557600080fd5b83600160a060020a031663a9059cbb848460006040516020015260405160e060020a63ffffffff8516028152600160a060020a0390921660048301526024820152604401602060405180830381600087803b1515610c2e57600080fd5b60008054600160a060020a0316633bbac57933836040516020015260405160e060020a63ffffffff8416028152600160a060020a039091166004820152602401602060405180830381600087803b151561111b57600080fd5b6102c65a03f1151561112c57600080fd5b50505060405180519050151561114157600080fd5b60008054600160a060020a03169063ea8a1af090604051602001526040518163ffffffff1660e060020a028152600401602060405180830381600087803b15156104cd57600080fd5b611192611349565b600061119c611349565b60008054600160a060020a031663265d90353083604051610140015260405160e060020a63ffffffff8416028152600160a060020a03909116600482015260240161014060405180830381600087803b15156111f757600080fd5b6102c65a03f1151561120857600080fd5b505050604051805190602001805190602001805190602001805190602001805190602001805190602001805190602001805190602001805190602001805190509b5050505050505050505060206040518059106112625750595b818152601f19601f8301168101602001604052905091505b60208110156112f65782816020811061128f57fe5b1a7f0100000000000000000000000000000000000000000000000000000000000000028282815181106112be57fe5b9060200101907effffffffffffffffffffffffffffffffffffffffffffffffffffffffffffff1916908160001a90535060010161127a565b5092915050565b600080546109e690600160a060020a031663cecdc6aa83604051602001526040518163ffffffff1660e060020a028152600401602060405180830381600087803b15156109c557600080fd5b602060405190810160405260008152905600a165627a7a7230582069891de2dc7067ebac5aa81081d700be1ecfdc9e14d972a630b9c4220a509c190029",
  "source": "pragma solidity ^0.4.18;\r\n\r\nimport './Auction.sol';\r\n\r\ncontract TokenStarsAuctionHub is AuctionHub {\r\n    address public ACE = 0x06147110022B768BA8F99A8f385df11a151A9cc8;\r\n    address public TEAM = 0x1c79ab32C66aCAa1e9E81952B8AAa581B43e54E7;\r\n    address[] public tokens = [ACE, TEAM];\r\n    uint256[] public rates = [2400000000000000, 2400000000000000];\r\n    uint256[] public decimals = [0, 4];\r\n\r\n    function TokenStarsAuctionHub(address _wallet)\r\n        public\r\n        AuctionHub(_wallet, tokens, rates, decimals)\r\n    { \r\n    }\r\n\r\n    function createAuction(\r\n        uint _endSeconds, \r\n        uint256 _maxTokenBidInEther,\r\n        uint256 _minPrice,\r\n        string _item,\r\n        bool _allowManagedBids\r\n    )\r\n        onlyBot\r\n        public\r\n        returns (address)\r\n    {\r\n        require (_endSeconds > now);\r\n        require(_maxTokenBidInEther <= 1000 ether);\r\n        require(_minPrice > 0);\r\n\r\n        Auction auction = new TokenStarsAuction(this, wallet);\r\n\r\n        ActionState storage auctionState = auctionStates[auction];\r\n\r\n        auctionState.endSeconds = _endSeconds;\r\n        auctionState.maxTokenBidInEther = _maxTokenBidInEther;\r\n        auctionState.minPrice = _minPrice;\r\n        auctionState.allowManagedBids = _allowManagedBids;\r\n        string memory item = _item;\r\n        auctionState.item = stringToBytes32(item);\r\n\r\n        NewAction(auction, _item);\r\n        return address(auction);\r\n    }\r\n\r\n    \r\n}\r\n\r\ncontract TokenStarsAuction is Auction {\r\n        \r\n    function TokenStarsAuction(\r\n        address _owner,\r\n        address _wallet) \r\n        public\r\n        Auction(_owner, _wallet)\r\n    {\r\n        \r\n    }\r\n\r\n    function bidAce(uint256 _tokensNumber)\r\n        payable\r\n        public\r\n        returns (bool isHighest)\r\n    {\r\n        return super.bid(TokenStarsAuctionHub(owner).ACE(), _tokensNumber);\r\n    }\r\n\r\n    function bidTeam(uint256 _tokensNumber)\r\n        payable\r\n        public\r\n        returns (bool isHighest)\r\n    {\r\n        return super.bid(TokenStarsAuctionHub(owner).TEAM(), _tokensNumber);\r\n    }\r\n}\r\n",
  "sourcePath": "C:\\MD\\Dev\\Solidity\\Auction\\contracts\\TokenStarsAuction.sol",
  "compiler": {
    "name": "solc",
    "version": "0.4.19+commit.c4cbbb05.Emscripten.clang"
  },
  "schemaVersion": "1.0.1",
  "updatedAt": "2018-02-27T09:38:00.797Z"
}