{
  "contractName": "VotingHub",
  "abi": [
    {
      "constant": true,
      "inputs": [
        {
          "name": "_voting",
          "type": "uint256"
        }
      ],
      "name": "getChoices",
      "outputs": [
        {
          "name": "choices",
          "type": "bytes32[]"
        }
      ],
      "payable": false,
      "stateMutability": "view",
      "type": "function"
    },
    {
      "constant": false,
      "inputs": [
        {
          "name": "_botAddress",
          "type": "address"
        }
      ],
      "name": "enableBot",
      "outputs": [],
      "payable": false,
      "stateMutability": "nonpayable",
      "type": "function"
    },
    {
      "constant": true,
      "inputs": [
        {
          "name": "_address",
          "type": "address"
        }
      ],
      "name": "isOwner",
      "outputs": [
        {
          "name": "",
          "type": "bool"
        }
      ],
      "payable": false,
      "stateMutability": "view",
      "type": "function"
    },
    {
      "constant": true,
      "inputs": [
        {
          "name": "_botAddress",
          "type": "address"
        }
      ],
      "name": "isBot",
      "outputs": [
        {
          "name": "",
          "type": "bool"
        }
      ],
      "payable": false,
      "stateMutability": "view",
      "type": "function"
    },
    {
      "constant": false,
      "inputs": [],
      "name": "unpause",
      "outputs": [],
      "payable": false,
      "stateMutability": "nonpayable",
      "type": "function"
    },
    {
      "constant": true,
      "inputs": [
        {
          "name": "_voting",
          "type": "uint256"
        }
      ],
      "name": "getDescription",
      "outputs": [
        {
          "name": "description",
          "type": "string"
        }
      ],
      "payable": false,
      "stateMutability": "view",
      "type": "function"
    },
    {
      "constant": true,
      "inputs": [],
      "name": "wallet",
      "outputs": [
        {
          "name": "",
          "type": "address"
        }
      ],
      "payable": false,
      "stateMutability": "view",
      "type": "function"
    },
    {
      "constant": true,
      "inputs": [
        {
          "name": "_botAddress",
          "type": "address"
        },
        {
          "name": "_atTimeStampSeconds",
          "type": "uint64"
        }
      ],
      "name": "isBotAt",
      "outputs": [
        {
          "name": "",
          "type": "bool"
        }
      ],
      "payable": false,
      "stateMutability": "view",
      "type": "function"
    },
    {
      "constant": true,
      "inputs": [],
      "name": "paused",
      "outputs": [
        {
          "name": "",
          "type": "bool"
        }
      ],
      "payable": false,
      "stateMutability": "view",
      "type": "function"
    },
    {
      "constant": false,
      "inputs": [
        {
          "name": "_botAddress",
          "type": "address"
        },
        {
          "name": "_fromTimeStampSeconds",
          "type": "uint64"
        }
      ],
      "name": "disableBot",
      "outputs": [],
      "payable": false,
      "stateMutability": "nonpayable",
      "type": "function"
    },
    {
      "constant": true,
      "inputs": [
        {
          "name": "_voting",
          "type": "uint256"
        },
        {
          "name": "_from",
          "type": "address"
        }
      ],
      "name": "getVotesFrom",
      "outputs": [
        {
          "name": "votes",
          "type": "uint256[]"
        },
        {
          "name": "lastVoter",
          "type": "address"
        },
        {
          "name": "remainingGas",
          "type": "uint256"
        }
      ],
      "payable": false,
      "stateMutability": "view",
      "type": "function"
    },
    {
      "constant": false,
      "inputs": [],
      "name": "pause",
      "outputs": [],
      "payable": false,
      "stateMutability": "nonpayable",
      "type": "function"
    },
    {
      "constant": false,
      "inputs": [
        {
          "name": "_voting",
          "type": "uint256"
        },
        {
          "name": "_choice",
          "type": "uint256"
        }
      ],
      "name": "vote",
      "outputs": [
        {
          "name": "status",
          "type": "bool"
        }
      ],
      "payable": false,
      "stateMutability": "nonpayable",
      "type": "function"
    },
    {
      "constant": true,
      "inputs": [
        {
          "name": "_voting",
          "type": "uint256"
        },
        {
          "name": "_voter",
          "type": "address"
        }
      ],
      "name": "getVote",
      "outputs": [
        {
          "name": "choices",
          "type": "uint256"
        }
      ],
      "payable": false,
      "stateMutability": "view",
      "type": "function"
    },
    {
      "constant": true,
      "inputs": [
        {
          "name": "",
          "type": "uint256"
        }
      ],
      "name": "tokenRates",
      "outputs": [
        {
          "name": "value",
          "type": "uint256"
        },
        {
          "name": "decimals",
          "type": "uint256"
        },
        {
          "name": "token",
          "type": "address"
        }
      ],
      "payable": false,
      "stateMutability": "view",
      "type": "function"
    },
    {
      "constant": true,
      "inputs": [
        {
          "name": "_voting",
          "type": "uint256"
        }
      ],
      "name": "getLastVoter",
      "outputs": [
        {
          "name": "lastVoter",
          "type": "address"
        }
      ],
      "payable": false,
      "stateMutability": "view",
      "type": "function"
    },
    {
      "constant": true,
      "inputs": [
        {
          "name": "_voting",
          "type": "uint256"
        }
      ],
      "name": "getMinimumVotes",
      "outputs": [
        {
          "name": "minimumVotes",
          "type": "uint256"
        }
      ],
      "payable": false,
      "stateMutability": "view",
      "type": "function"
    },
    {
      "constant": true,
      "inputs": [
        {
          "name": "_voting",
          "type": "uint256"
        }
      ],
      "name": "getEndSeconds",
      "outputs": [
        {
          "name": "description",
          "type": "uint256"
        }
      ],
      "payable": false,
      "stateMutability": "view",
      "type": "function"
    },
    {
      "constant": true,
      "inputs": [
        {
          "name": "_voting",
          "type": "uint256"
        }
      ],
      "name": "getRemainingSeconds",
      "outputs": [
        {
          "name": "description",
          "type": "uint256"
        }
      ],
      "payable": false,
      "stateMutability": "view",
      "type": "function"
    },
    {
      "constant": true,
      "inputs": [],
      "name": "getVotingsCount",
      "outputs": [
        {
          "name": "",
          "type": "uint256"
        }
      ],
      "payable": false,
      "stateMutability": "view",
      "type": "function"
    },
    {
      "constant": false,
      "inputs": [
        {
          "name": "_endSeconds",
          "type": "uint64"
        },
        {
          "name": "_description",
          "type": "string"
        },
        {
          "name": "_choices",
          "type": "bytes32[]"
        },
        {
          "name": "_minimumVotes",
          "type": "uint256"
        }
      ],
      "name": "createVoting",
      "outputs": [
        {
          "name": "",
          "type": "uint256"
        }
      ],
      "payable": false,
      "stateMutability": "nonpayable",
      "type": "function"
    },
    {
      "constant": true,
      "inputs": [
        {
          "name": "_voting",
          "type": "uint256"
        }
      ],
      "name": "getVotes",
      "outputs": [
        {
          "name": "votes",
          "type": "uint256[]"
        },
        {
          "name": "lastVoter",
          "type": "address"
        },
        {
          "name": "remainingGas",
          "type": "uint256"
        }
      ],
      "payable": false,
      "stateMutability": "view",
      "type": "function"
    },
    {
      "inputs": [
        {
          "name": "_wallet",
          "type": "address"
        },
        {
          "name": "_tokens",
          "type": "address[]"
        },
        {
          "name": "_rates",
          "type": "uint256[]"
        },
        {
          "name": "_decimals",
          "type": "uint256[]"
        }
      ],
      "payable": false,
      "stateMutability": "nonpayable",
      "type": "constructor"
    },
    {
      "anonymous": false,
      "inputs": [
        {
          "indexed": true,
          "name": "token",
          "type": "address"
        },
        {
          "indexed": false,
          "name": "rate",
          "type": "uint256"
        }
      ],
      "name": "TokenRateUpdate",
      "type": "event"
    },
    {
      "anonymous": false,
      "inputs": [
        {
          "indexed": true,
          "name": "voting",
          "type": "uint256"
        },
        {
          "indexed": false,
          "name": "voter",
          "type": "address"
        },
        {
          "indexed": false,
          "name": "choice",
          "type": "uint256"
        }
      ],
      "name": "Vote",
      "type": "event"
    },
    {
      "anonymous": false,
      "inputs": [
        {
          "indexed": true,
          "name": "voting",
          "type": "uint256"
        },
        {
          "indexed": false,
          "name": "description",
          "type": "string"
        }
      ],
      "name": "NewVoting",
      "type": "event"
    },
    {
      "anonymous": false,
      "inputs": [
        {
          "indexed": true,
          "name": "_botAddress",
          "type": "address"
        },
        {
          "indexed": false,
          "name": "_startTime",
          "type": "uint64"
        },
        {
          "indexed": false,
          "name": "_endTime",
          "type": "uint64"
        }
      ],
      "name": "BotsStartEndTimeChange",
      "type": "event"
    },
    {
      "anonymous": false,
      "inputs": [
        {
          "indexed": true,
          "name": "_contract",
          "type": "address"
        },
        {
          "indexed": true,
          "name": "_wallet",
          "type": "address"
        }
      ],
      "name": "MultiOwnableWalletSet",
      "type": "event"
    },
    {
      "anonymous": false,
      "inputs": [],
      "name": "Pause",
      "type": "event"
    },
    {
      "anonymous": false,
      "inputs": [],
      "name": "Unpause",
      "type": "event"
    }
  ],
  "bytecode": "0x60606040526000805460a060020a60ff021916905534156200002057600080fd5b6040516200172538038062001725833981016040528080519190602001805182019190602001805182019190602001805160008054600160a060020a031916600160a060020a038881169190911780835594909201939092508291879182919081169030167fafcdd415329178553b69a5c7b7ece5d86014afa3335a808a26f32110981061a760405160405180910390a3505033600160a060020a0316600090815260016020526040902080546001608060020a031916426001608060020a0390811668010000000000000000021617905583518551146200010157600080fd5b82518551146200011057600080fd5b600091505b845182101562000290578482815181106200012c57fe5b90602001906020020151600160a060020a031615156200014b57600080fd5b60008483815181106200015a57fe5b90602001906020020151116200016f57600080fd5b8482815181106200017c57fe5b906020019060200201519050600380548060010182816200019e91906200029c565b91600052602060002090600302016000606060405190810160405280888781518110620001c757fe5b906020019060200201518152602001878781518110620001e357fe5b906020019060200201518152600160a060020a038616602090910152919050815181556020820151816001015560408201516002919091018054600160a060020a031916600160a060020a03928316179055831691507f6d0466d743e24b9f0b2ae6bff53593c4b94c242fe76707f82de4076115d95a2790508584815181106200026957fe5b9060200190602002015160405190815260200160405180910390a260019091019062000115565b5050505050506200030c565b815481835581811511620002cb57600302816003028360005260206000209182019101620002cb9190620002d0565b505050565b6200030991905b80821115620003055760008082556001820155600281018054600160a060020a0319169055600301620002d7565b5090565b90565b611409806200031c6000396000f30060606040526004361061010e5763ffffffff60e060020a60003504166318da2cb2811461011357806327329b051461017c5780632f54bf6e1461019d5780633bbac579146101d05780633f4ba83a146101ef5780634925ec5514610202578063521eb2731461028f57806353d3ed60146102be5780635c975abb146102ea5780635f58ed2a146102fd5780637c6c32ea146103295780638456cb59146103b6578063b384abef146103c9578063bc3f931f146103e2578063c1d99ada14610416578063c31820f914610459578063cc0226711461046f578063d397578d14610485578063d98544481461049b578063dae7c92c146104b1578063e6582348146104c4578063ff98109914610566575b600080fd5b341561011e57600080fd5b61012960043561057c565b60405160208082528190810183818151815260200191508051906020019060200280838360005b83811015610168578082015183820152602001610150565b505050509050019250505060405180910390f35b341561018757600080fd5b61019b600160a060020a03600435166105f7565b005b34156101a857600080fd5b6101bc600160a060020a0360043516610724565b604051901515815260200160405180910390f35b34156101db57600080fd5b6101bc600160a060020a03600435166107b9565b34156101fa57600080fd5b61019b6107c5565b341561020d57600080fd5b610218600435610844565b60405160208082528190810183818151815260200191508051906020019080838360005b8381101561025457808201518382015260200161023c565b50505050905090810190601f1680156102815780820380516001836020036101000a031916815260200191505b509250505060405180910390f35b341561029a57600080fd5b6102a26108fe565b604051600160a060020a03909116815260200160405180910390f35b34156102c957600080fd5b6101bc600160a060020a036004351667ffffffffffffffff6024351661090d565b34156102f557600080fd5b6101bc6109d1565b341561030857600080fd5b61019b600160a060020a036004351667ffffffffffffffff602435166109e1565b341561033457600080fd5b61034b600435600160a060020a0360243516610b0a565b604051600160a060020a03831660208201526040810182905260608082528190810185818151815260200191508051906020019060200280838360005b838110156103a0578082015183820152602001610388565b5050505090500194505050505060405180910390f35b34156103c157600080fd5b61019b610e1c565b34156103d457600080fd5b6101bc600435602435610e99565b34156103ed57600080fd5b610404600435600160a060020a0360243516610fee565b60405190815260200160405180910390f35b341561042157600080fd5b61042c60043561101a565b6040519283526020830191909152600160a060020a03166040808301919091526060909101905180910390f35b341561046457600080fd5b6102a2600435611054565b341561047a57600080fd5b610404600435611072565b341561049057600080fd5b610404600435611084565b34156104a657600080fd5b6104046004356110aa565b34156104bc57600080fd5b6104046110fb565b34156104cf57600080fd5b6104046004803567ffffffffffffffff169060446024803590810190830135806020601f8201819004810201604051908101604052818152929190602084018383808284378201915050505050509190803590602001908201803590602001908080602002602001604051908101604052809392919081815260200183836020028082843750949650509335935061110292505050565b341561057157600080fd5b61034b60043561127b565b6105846112f6565b6000600460008481526020019081526020016000209050806003018054806020026020016040519081016040528092919081815260200182805480156105ea57602002820191906000526020600020905b815481526001909101906020018083116105d5575b5050505050915050919050565b6000805433600160a060020a0390811691161461061357600080fd5b50600160a060020a0381166000908152600160205260409020546fffffffffffffffffffffffffffffffff9081169068010000000000000000820416158015610664575067ffffffffffffffff8116155b151561066f57600080fd5b600160a060020a038216600081815260016020526040908190208054680100000000000000006fffffffffffffffffffffffffffffffff4281168202969096179586166fffffffffffffffffffffffffffffffff1990921682179092557f100ef6d43d5799b4c7e9e7bcde458f703bf058e7fe74245b6b7f99b3a1844e50929190049067ffffffffffffffff8516905167ffffffffffffffff9283168152911660208201526040908101905180910390a25050565b60008054600160a060020a03838116911614806107b3575060008054600160a060020a031690632f54bf6e9084906040516020015260405160e060020a63ffffffff8416028152600160a060020a039091166004820152602401602060405180830381600087803b151561079757600080fd5b6102c65a03f115156107a857600080fd5b505050604051805190505b92915050565b60006107b3824261090d565b60005433600160a060020a039081169116146107e057600080fd5b60005460a060020a900460ff1615156107f857600080fd5b6000805474ff0000000000000000000000000000000000000000191690557f7805862f689e2f13df9f062ff482ad3ad112aca9e0847911ed832e158c525b3360405160405180910390a1565b61084c6112f6565b6000600460008481526020019081526020016000209050806004018054600181600116156101000203166002900480601f0160208091040260200160405190810160405280929190818152602001828054600181600116156101000203166002900480156105ea5780601f106108d0576101008083540402835291602001916105ea565b820191906000526020600020905b8154815290600101906020018083116108de575093979650505050505050565b600054600160a060020a031681565b600160a060020a0382166000908152600160205260408120546fffffffffffffffffffffffffffffffff9081169068010000000000000000820416158061097f575067ffffffffffffffff8316680100000000000000006fffffffffffffffffffffffffffffffff8084169190910416115b1561098d57600091506109ca565b67ffffffffffffffff811615156109a757600191506109ca565b67ffffffffffffffff81811690841610156109c557600191506109ca565b600091505b5092915050565b60005460a060020a900460ff1681565b60006109ec33610724565b15156109f757600080fd5b50600160a060020a0382166000908152600160205260408120546fffffffffffffffffffffffffffffffff90811691680100000000000000008304909116118015610a4a575067ffffffffffffffff8116155b1515610a5557600080fd5b600160a060020a0383166000818152600160205260409081902080546fffffffffffffffffffffffffffffffff191667ffffffffffffffff868116959095176fffffffffffffffffffffffffffffffff811691821790925590937f100ef6d43d5799b4c7e9e7bcde458f703bf058e7fe74245b6b7f99b3a1844e50926801000000000000000090920491908516905167ffffffffffffffff9283168152911660208201526040908101905180910390a2505050565b610b126112f6565b6000806000610b1f6112f6565b6000610b296112f6565b6000808080808d1515610b3b57600080fd5b600160a060020a038d161515610b5057600080fd5b60008e815260046020526040908190206001810154909a5060a060020a900463ffffffff169051805910610b815750595b908082528060200260200182016040525097508c9650600380548060200260200160405190810160405281815291906000602084015b82821015610c115760008481526020902060038302016060604051908101604090815282548252600180840154602080850191909152600290940154600160a060020a031691830191909152908352929092019101610bb7565b5050505095508551600160a060020a038816600090815260028b016020526040902054909550935063ffffffff841692508215801590610c525750614e205a115b1515610c5d57600080fd5b8215801590610c6d5750614e205a115b15610e03575060009050805b84811015610d6a57610d5e868281518110610c9057fe5b9060200190602002015160200151600a0a610d52888481518110610cb057fe5b9060200190602002015151898581518110610cc757fe5b9060200190602002015160400151600160a060020a03166370a082318c60006040516020015260405160e060020a63ffffffff8416028152600160a060020a039091166004820152602401602060405180830381600087803b1515610d2b57600080fd5b6102c65a03f11515610d3c57600080fd5b505050604051805191905063ffffffff6112a516565b9063ffffffff6112d016565b90910190600101610c79565b610d9382896001860381518110610d7d57fe5b906020019060200201519063ffffffff6112e716565b886001850381518110610da257fe5b602090810290910101526c0100000000000000000000000084049650600160a060020a0387161515610dd75760009250610dfe565b600160a060020a038716600090815260028a016020526040902054935063ffffffff841692505b610c5d565b87875a9b509b509b505050505050505050509250925092565b610e2533610724565b1515610e3057600080fd5b60005460a060020a900460ff1615610e4757600080fd5b6000805474ff0000000000000000000000000000000000000000191660a060020a1790557f6985a02210a168e66602d3235cb6db0e70f92b3ba4d376a33c0f3d9434bff62560405160405180910390a1565b60008080841515610ea957600080fd5b6000858152600460205260409020600181015490925060c060020a900467ffffffffffffffff164210610edb57600080fd5b600182015460a060020a900463ffffffff168410610ef857600080fd5b50600160a060020a0333166000908152600282016020526040902054801515610f6b57506001818101805433600160a060020a0390811673ffffffffffffffffffffffffffffffffffffffff198316179092556c0100000000000000000000000091160290840163ffffffff1617610f7e565b63ffffffff19166001840163ffffffff16175b33600160a060020a03811660009081526002840160205260409081902083905586917f710b36627495d2e7af3a196c85bf3e51efd906f54516753e5e801b3a22b18f7891879051600160a060020a03909216825260208201526040908101905180910390a2506001949350505050565b6000918252600460209081526040808420600160a060020a039390931684526002909201905290205490565b600380548290811061102857fe5b6000918252602090912060039091020180546001820154600290920154909250600160a060020a031683565b600090815260046020526040902060010154600160a060020a031690565b60009081526004602052604090205490565b60009081526004602052604090206001015460c060020a900467ffffffffffffffff1690565b6000818152600460205260408120600181015460c060020a900467ffffffffffffffff1642116110db5760006110f4565b600181015460c060020a900467ffffffffffffffff1642035b9392505050565b6002545b90565b60008061110e336107b9565b151561111957600080fd5b4267ffffffffffffffff87161161112f57600080fd5b50600280546001908101918290556000918252600460208190526040909220908101805477ffffffffffffffffffffffffffffffffffffffffffffffff1660c060020a67ffffffffffffffff8a1602179055908101858051611195929160200190611308565b50828155600381018480516111ae929160200190611386565b5083518160010160146101000a81548163ffffffff021916908363ffffffff1602179055506002547f075da53496b68eb2230c8f9ea0bba204eecbbd21aee4989c20fc3df419b71f7b8660405160208082528190810183818151815260200191508051906020019080838360005b8381101561123457808201518382015260200161121c565b50505050905090810190601f1680156112615780820380516001836020036101000a031916815260200191505b509250505060405180910390a25050600254949350505050565b6112836112f6565b6000806112988461129386611054565b610b0a565b9250925092509193909250565b6000808315156112b857600091506109ca565b508282028284828115156112c857fe5b04146110f457fe5b60008082848115156112de57fe5b04949350505050565b6000828201838110156110f457fe5b60206040519081016040526000815290565b828054600181600116156101000203166002900490600052602060002090601f016020900481019282601f1061134957805160ff1916838001178555611376565b82800160010185558215611376579182015b8281111561137657825182559160200191906001019061135b565b506113829291506113c3565b5090565b828054828255906000526020600020908101928215611376579160200282015b8281111561137657825182556020909201916001909101906113a6565b6110ff91905b8082111561138257600081556001016113c95600a165627a7a72305820de2ec3991f0ee82560e0c56b600038ceb3ed80b0d8ea52fc95739e77cf9056980029",
  "source": "pragma solidity ^0.4.18;\r\n\r\nimport 'soltsice/contracts/BotManageable.sol';\r\nimport 'zeppelin-solidity/contracts/math/SafeMath.sol';\r\n\r\ncontract ERC20Basic {\r\n    function balanceOf(address who) public view returns (uint256);\r\n}\r\n\r\ncontract VotingHub is BotManageable {\r\n    using SafeMath for uint256;\r\n\r\n    uint256 constant MASK32 = (2**32 - 1);\r\n    uint256 constant ADDRESS_OFFSET = 96;\r\n    uint256 private votingsCount;\r\n\r\n    struct TokenRate {\r\n        uint256 value;\r\n        uint256 decimals;\r\n        address token;\r\n    }\r\n\r\n    // We cannot iterate over a mapping, but given that we need to store only a single number (usually a byte)\r\n    // and the word size is 32 bytes, we have enough space to store previous voter address (20 bytes)\r\n    // and form a linked list to iterate all votes backward. Will need a single SSTORE (5k)\r\n    // This is a lyaout of uint256 storage for vote\r\n    // struct VoteLayout {\r\n    //     address prevVoter;\r\n    //     uint32 padding1;\r\n    //     uint32 padding2;\r\n    //     uint32 choice;\r\n    // }\r\n\r\n    \r\n    struct VotingState {\r\n        uint256 minimumVotes;\r\n        address lastVoter;\r\n        uint32 choiceCount; // TODO check in CreateVoting\r\n        uint64 endSeconds;\r\n        // current vote by address, see VoteLayout above\r\n        mapping(address => uint256) addressVotes;\r\n        bytes32[] choices;\r\n        string description;\r\n    }\r\n\r\n    TokenRate[] public tokenRates;\r\n    \r\n    mapping(uint256 => VotingState) private votingStates;\r\n\r\n    event TokenRateUpdate(address indexed token, uint256 rate);\r\n    event Vote(uint256 indexed voting, address voter, uint256 choice);\r\n    event NewVoting(uint256 indexed voting, string description);\r\n\r\n    function VotingHub \r\n        (address _wallet, address[] _tokens, uint256[] _rates, uint256[] _decimals)\r\n        public\r\n        BotManageable(_wallet)\r\n    {\r\n        // make sender a bot to avoid an additional step, this depends on implementation detail of BotManageable\r\n        botsStartEndTime[msg.sender] = uint128(now) << 64;\r\n\r\n        require(_tokens.length == _rates.length);\r\n        require(_tokens.length == _decimals.length);\r\n\r\n        // save initial token list\r\n        for (uint256 i = 0; i < _tokens.length; i++) {\r\n            require(_tokens[i] != 0x0);\r\n            require(_rates[i] > 0);\r\n            ERC20Basic token = ERC20Basic(_tokens[i]);\r\n            tokenRates.push(TokenRate(_rates[i], _decimals[i], token));\r\n            TokenRateUpdate(token, _rates[i]);\r\n        }\r\n    }\r\n\r\n    function createVoting(\r\n        uint64 _endSeconds, \r\n        string _description,\r\n        bytes32[] _choices,\r\n        uint256 _minimumVotes\r\n    )\r\n        onlyBot\r\n        public\r\n        returns (uint256)\r\n    {\r\n        require (_endSeconds > now);\r\n\r\n        votingsCount += 1;\r\n\r\n        VotingState storage votingState = votingStates[votingsCount];\r\n\r\n        votingState.endSeconds = _endSeconds;\r\n        votingState.description = _description;\r\n        votingState.minimumVotes = _minimumVotes;\r\n        votingState.choices = _choices;\r\n\r\n        // let's skip overflow check \"by Ethereum construction\"\r\n        votingState.choiceCount = uint32(_choices.length);\r\n\r\n        NewVoting(votingsCount, _description);\r\n        return votingsCount;\r\n    }\r\n\r\n    function vote(uint256 _voting, uint256 _choice)\r\n        external\r\n        returns (bool status)\r\n    {\r\n        require(_voting != 0x0);\r\n\r\n        VotingState storage votingState = votingStates[_voting];\r\n        require (now < votingState.endSeconds);\r\n\r\n        // choiceCount must be already checked to be a reasonable small number (or at least MASK32 - 1)\r\n        require(_choice < votingState.choiceCount);\r\n\r\n        uint256 vote = votingState.addressVotes[msg.sender];\r\n\r\n        // a new vote\r\n        if (vote == 0x0) {\r\n            // increment stored choice by 1 to be able to detect empty mapping field later\r\n            vote = (uint256(votingState.lastVoter) << ADDRESS_OFFSET) | ((_choice + 1) & MASK32);\r\n            votingState.lastVoter = msg.sender;\r\n        } else {\r\n            // clear last choice but keep previous voter unchanged\r\n            vote = (vote & ~MASK32) | ((_choice + 1) & MASK32);\r\n        }\r\n        \r\n        votingState.addressVotes[msg.sender] = vote;\r\n\r\n        Vote(_voting, msg.sender, _choice);\r\n\r\n        return true;\r\n    }\r\n\r\n    function getVotingsCount()\r\n        public\r\n        view\r\n        returns (uint256)\r\n    {\r\n        return votingsCount;\r\n    }\r\n\r\n    function getLastVoter(uint256 _voting)\r\n        public\r\n        view\r\n        returns (address lastVoter)\r\n    {\r\n        VotingState storage votingState = votingStates[_voting];\r\n        return votingState.lastVoter;\r\n    }\r\n\r\n    function getDescription(uint256 _voting)\r\n        public\r\n        view\r\n        returns (string description)\r\n    {\r\n        VotingState storage votingState = votingStates[_voting];\r\n        return votingState.description;\r\n    }\r\n\r\n    function getEndSeconds(uint256 _voting)\r\n        public\r\n        view\r\n        returns (uint256 description)\r\n    {\r\n        VotingState storage votingState = votingStates[_voting];\r\n        return votingState.endSeconds;\r\n    }\r\n\r\n    function getRemainingSeconds(uint256 _voting)\r\n        public\r\n        view\r\n        returns (uint256 description)\r\n    {\r\n        VotingState storage votingState = votingStates[_voting];\r\n        return now > votingState.endSeconds ? now - votingState.endSeconds : 0;\r\n    }\r\n\r\n    function getVote(uint256 _voting, address _voter)\r\n        public\r\n        view\r\n        returns (uint256 choices)\r\n    {\r\n        VotingState storage votingState = votingStates[_voting];\r\n        uint256 vote = votingState.addressVotes[_voter];\r\n        return vote;\r\n    }\r\n\r\n    function getChoices(uint256 _voting)\r\n        public\r\n        view\r\n        returns (bytes32[] choices)\r\n    {\r\n        VotingState storage votingState = votingStates[_voting];\r\n        return votingState.choices;\r\n    }\r\n\r\n    function getMinimumVotes(uint256 _voting)\r\n        public\r\n        view\r\n        returns (uint256 minimumVotes)\r\n    {\r\n        VotingState storage votingState = votingStates[_voting];\r\n        return votingState.minimumVotes;\r\n    }\r\n\r\n    function getVotes(uint256 _voting)\r\n        public\r\n        view\r\n        returns (uint256[] votes, address lastVoter, uint256 remainingGas)\r\n    {\r\n        return getVotesFrom(_voting, getLastVoter(_voting));\r\n    }\r\n\r\n    // NB Avoid overloads for easier typed access via Soltsice, use a different name\r\n    function getVotesFrom(uint256 _voting, address _from)\r\n        public\r\n        view\r\n        returns (uint256[] votes, address lastVoter, uint256 remainingGas)\r\n    {\r\n        // NB votingCount starts from 1\r\n        require(_voting != 0x0);\r\n        require(_from != 0x0);\r\n\r\n        VotingState storage votingState = votingStates[_voting];\r\n\r\n        uint256[] memory totalVotes = new uint256[](votingState.choiceCount);\r\n        address voter = _from;\r\n\r\n        // placing in memory save c.50% gas\r\n        TokenRate[] memory tokenRatesMem = tokenRates;\r\n        uint256 tokenCount = tokenRatesMem.length;\r\n\r\n        uint256 vote = votingState.addressVotes[voter];\r\n        uint256 choice = vote & MASK32;\r\n\r\n        // TODO (review) if we cannot iterate at least once then output is meaningless\r\n        // duplicate condition, review\r\n        require(choice != 0 && msg.gas > 20000);\r\n\r\n        // the very first vote should have choice > 0 (but prevVoter is zero)\r\n        // remainig gas msut be enough for the next loop interation\r\n        while (choice != 0 && msg.gas > 20000) {\r\n            uint256 totalVote = 0;\r\n            // iterate over all tokens that participate in the voting\r\n            for (uint i = 0; i < tokenCount; i++) {\r\n                // This line costs c.7k per iteration\r\n                totalVote += (ERC20Basic(tokenRatesMem[i].token).balanceOf(voter)).mul(tokenRatesMem[i].value).div(10 ** tokenRatesMem[i].decimals);  \r\n            }\r\n            totalVotes[choice - 1] = totalVotes[choice - 1].add(totalVote);\r\n            // go to previous voter\r\n            voter = address(vote >> ADDRESS_OFFSET);\r\n            // if prevVoter is zero then we have reached the first voter\r\n            if (voter == 0x0) {\r\n                // NB yes we could use break instead... and hope we know which loop we are exiting :)\r\n                choice = 0;\r\n            } else {\r\n                vote = votingState.addressVotes[voter];\r\n                choice = vote & MASK32;\r\n            }\r\n        }\r\n\r\n        return (totalVotes, voter, msg.gas);\r\n    }\r\n}\r\n",
  "sourcePath": "C:\\MD\\Dev\\Solidity\\Auction\\contracts\\Voting.sol",
  "compiler": {
    "name": "solc",
    "version": "0.4.19+commit.c4cbbb05.Emscripten.clang"
  },
  "schemaVersion": "1.0.1",
  "updatedAt": "2018-03-28T07:33:11.263Z"
}