{
  "contractName": "VotingHub",
  "abi": [
    {
      "constant": true,
      "inputs": [
        {
          "name": "_voting",
          "type": "uint256"
        }
      ],
      "name": "getChoices",
      "outputs": [
        {
          "name": "choices",
          "type": "bytes32[]"
        }
      ],
      "payable": false,
      "stateMutability": "view",
      "type": "function"
    },
    {
      "constant": false,
      "inputs": [
        {
          "name": "_endSeconds",
          "type": "uint256"
        },
        {
          "name": "_description",
          "type": "string"
        },
        {
          "name": "_choices",
          "type": "bytes32[]"
        },
        {
          "name": "_minimumVotes",
          "type": "uint256"
        }
      ],
      "name": "createVoting",
      "outputs": [
        {
          "name": "",
          "type": "uint256"
        }
      ],
      "payable": false,
      "stateMutability": "nonpayable",
      "type": "function"
    },
    {
      "constant": false,
      "inputs": [
        {
          "name": "_botAddress",
          "type": "address"
        }
      ],
      "name": "enableBot",
      "outputs": [],
      "payable": false,
      "stateMutability": "nonpayable",
      "type": "function"
    },
    {
      "constant": true,
      "inputs": [
        {
          "name": "_address",
          "type": "address"
        }
      ],
      "name": "isOwner",
      "outputs": [
        {
          "name": "",
          "type": "bool"
        }
      ],
      "payable": false,
      "stateMutability": "view",
      "type": "function"
    },
    {
      "constant": true,
      "inputs": [
        {
          "name": "_botAddress",
          "type": "address"
        }
      ],
      "name": "isBot",
      "outputs": [
        {
          "name": "",
          "type": "bool"
        }
      ],
      "payable": false,
      "stateMutability": "view",
      "type": "function"
    },
    {
      "constant": false,
      "inputs": [],
      "name": "unpause",
      "outputs": [],
      "payable": false,
      "stateMutability": "nonpayable",
      "type": "function"
    },
    {
      "constant": true,
      "inputs": [
        {
          "name": "_voting",
          "type": "uint256"
        }
      ],
      "name": "getDescription",
      "outputs": [
        {
          "name": "description",
          "type": "string"
        }
      ],
      "payable": false,
      "stateMutability": "view",
      "type": "function"
    },
    {
      "constant": true,
      "inputs": [],
      "name": "wallet",
      "outputs": [
        {
          "name": "",
          "type": "address"
        }
      ],
      "payable": false,
      "stateMutability": "view",
      "type": "function"
    },
    {
      "constant": true,
      "inputs": [
        {
          "name": "_botAddress",
          "type": "address"
        },
        {
          "name": "_atTimeStampSeconds",
          "type": "uint64"
        }
      ],
      "name": "isBotAt",
      "outputs": [
        {
          "name": "",
          "type": "bool"
        }
      ],
      "payable": false,
      "stateMutability": "view",
      "type": "function"
    },
    {
      "constant": true,
      "inputs": [],
      "name": "paused",
      "outputs": [
        {
          "name": "",
          "type": "bool"
        }
      ],
      "payable": false,
      "stateMutability": "view",
      "type": "function"
    },
    {
      "constant": false,
      "inputs": [
        {
          "name": "_botAddress",
          "type": "address"
        },
        {
          "name": "_fromTimeStampSeconds",
          "type": "uint64"
        }
      ],
      "name": "disableBot",
      "outputs": [],
      "payable": false,
      "stateMutability": "nonpayable",
      "type": "function"
    },
    {
      "constant": true,
      "inputs": [
        {
          "name": "_voting",
          "type": "uint256"
        },
        {
          "name": "_from",
          "type": "address"
        }
      ],
      "name": "getVotesFrom",
      "outputs": [
        {
          "name": "votes",
          "type": "uint256[]"
        },
        {
          "name": "lastVoter",
          "type": "address"
        }
      ],
      "payable": false,
      "stateMutability": "view",
      "type": "function"
    },
    {
      "constant": false,
      "inputs": [],
      "name": "pause",
      "outputs": [],
      "payable": false,
      "stateMutability": "nonpayable",
      "type": "function"
    },
    {
      "constant": false,
      "inputs": [
        {
          "name": "_voting",
          "type": "uint256"
        },
        {
          "name": "_choice",
          "type": "uint256"
        }
      ],
      "name": "vote",
      "outputs": [
        {
          "name": "status",
          "type": "bool"
        }
      ],
      "payable": false,
      "stateMutability": "nonpayable",
      "type": "function"
    },
    {
      "constant": true,
      "inputs": [
        {
          "name": "",
          "type": "uint256"
        }
      ],
      "name": "tokenRates",
      "outputs": [
        {
          "name": "token",
          "type": "address"
        },
        {
          "name": "value",
          "type": "uint256"
        },
        {
          "name": "decimals",
          "type": "uint256"
        }
      ],
      "payable": false,
      "stateMutability": "view",
      "type": "function"
    },
    {
      "constant": true,
      "inputs": [
        {
          "name": "_voting",
          "type": "uint256"
        }
      ],
      "name": "getLastVoter",
      "outputs": [
        {
          "name": "lastVoter",
          "type": "address"
        }
      ],
      "payable": false,
      "stateMutability": "view",
      "type": "function"
    },
    {
      "constant": true,
      "inputs": [
        {
          "name": "_voting",
          "type": "uint256"
        }
      ],
      "name": "getMinimumVotes",
      "outputs": [
        {
          "name": "minimumVotes",
          "type": "uint256"
        }
      ],
      "payable": false,
      "stateMutability": "view",
      "type": "function"
    },
    {
      "constant": true,
      "inputs": [
        {
          "name": "_voting",
          "type": "uint256"
        }
      ],
      "name": "getEndSeconds",
      "outputs": [
        {
          "name": "description",
          "type": "uint256"
        }
      ],
      "payable": false,
      "stateMutability": "view",
      "type": "function"
    },
    {
      "constant": true,
      "inputs": [
        {
          "name": "_voting",
          "type": "uint256"
        }
      ],
      "name": "getRemainingSeconds",
      "outputs": [
        {
          "name": "description",
          "type": "uint256"
        }
      ],
      "payable": false,
      "stateMutability": "view",
      "type": "function"
    },
    {
      "constant": true,
      "inputs": [
        {
          "name": "_voting",
          "type": "uint256"
        }
      ],
      "name": "getVotes",
      "outputs": [
        {
          "name": "votes",
          "type": "uint256[]"
        },
        {
          "name": "lastVoter",
          "type": "address"
        }
      ],
      "payable": false,
      "stateMutability": "view",
      "type": "function"
    },
    {
      "inputs": [
        {
          "name": "_wallet",
          "type": "address"
        },
        {
          "name": "_tokens",
          "type": "address[]"
        },
        {
          "name": "_rates",
          "type": "uint256[]"
        },
        {
          "name": "_decimals",
          "type": "uint256[]"
        }
      ],
      "payable": false,
      "stateMutability": "nonpayable",
      "type": "constructor"
    },
    {
      "anonymous": false,
      "inputs": [
        {
          "indexed": true,
          "name": "token",
          "type": "address"
        },
        {
          "indexed": false,
          "name": "rate",
          "type": "uint256"
        }
      ],
      "name": "TokenRateUpdate",
      "type": "event"
    },
    {
      "anonymous": false,
      "inputs": [
        {
          "indexed": true,
          "name": "voting",
          "type": "uint256"
        },
        {
          "indexed": false,
          "name": "voter",
          "type": "address"
        },
        {
          "indexed": false,
          "name": "choice",
          "type": "uint256"
        }
      ],
      "name": "Vote",
      "type": "event"
    },
    {
      "anonymous": false,
      "inputs": [
        {
          "indexed": true,
          "name": "voting",
          "type": "uint256"
        },
        {
          "indexed": false,
          "name": "description",
          "type": "string"
        }
      ],
      "name": "NewVoting",
      "type": "event"
    },
    {
      "anonymous": false,
      "inputs": [
        {
          "indexed": true,
          "name": "_botAddress",
          "type": "address"
        },
        {
          "indexed": false,
          "name": "_startTime",
          "type": "uint64"
        },
        {
          "indexed": false,
          "name": "_endTime",
          "type": "uint64"
        }
      ],
      "name": "BotsStartEndTimeChange",
      "type": "event"
    },
    {
      "anonymous": false,
      "inputs": [
        {
          "indexed": true,
          "name": "_contract",
          "type": "address"
        },
        {
          "indexed": true,
          "name": "_wallet",
          "type": "address"
        }
      ],
      "name": "MultiOwnableWalletSet",
      "type": "event"
    },
    {
      "anonymous": false,
      "inputs": [],
      "name": "Pause",
      "type": "event"
    },
    {
      "anonymous": false,
      "inputs": [],
      "name": "Unpause",
      "type": "event"
    }
  ],
  "bytecode": "0x60606040526000805460a060020a60ff021916905534156200002057600080fd5b6040516200159d3803806200159d833981016040528080519190602001805182019190602001805182019190602001805160008054600160a060020a031916600160a060020a038881169190911780835594909201939092508291879182919081169030167fafcdd415329178553b69a5c7b7ece5d86014afa3335a808a26f32110981061a760405160405180910390a3505033600160a060020a0316600090815260016020526040902080546001608060020a031916426001608060020a0390811668010000000000000000021617905583518551146200010157600080fd5b82518551146200011057600080fd5b600091505b845182101562000294578482815181106200012c57fe5b90602001906020020151600160a060020a031615156200014b57600080fd5b60008483815181106200015a57fe5b90602001906020020151116200016f57600080fd5b8482815181106200017c57fe5b906020019060200201519050600380548060010182816200019e9190620002a0565b9160005260206000209060030201600060606040519081016040528085600160a060020a03168152602001888781518110620001d657fe5b906020019060200201518152602001878781518110620001f257fe5b90602001906020020151905291905081518154600160a060020a031916600160a060020a0391909116178155602082015181600101556040820151816002015550505080600160a060020a03167f6d0466d743e24b9f0b2ae6bff53593c4b94c242fe76707f82de4076115d95a278584815181106200026d57fe5b9060200190602002015160405190815260200160405180910390a260019091019062000115565b50505050505062000310565b815481835581811511620002cf57600302816003028360005260206000209182019101620002cf9190620002d4565b505050565b6200030d91905b8082111562000309578054600160a060020a03191681556000600182018190556002820155600301620002db565b5090565b90565b61127d80620003206000396000f3006060604052600436106100f85763ffffffff60e060020a60003504166318da2cb281146100fd578063272c48a41461016657806327329b05146102105780632f54bf6e146102315780633bbac579146102645780633f4ba83a146102835780634925ec5514610296578063521eb2731461032357806353d3ed60146103525780635c975abb1461037e5780635f58ed2a146103915780637c6c32ea146103bd5780638456cb5914610442578063b384abef14610455578063c1d99ada1461046e578063c31820f9146104ba578063cc022671146104d0578063d397578d146104e6578063d9854448146104fc578063ff98109914610512575b600080fd5b341561010857600080fd5b610113600435610528565b60405160208082528190810183818151815260200191508051906020019060200280838360005b8381101561015257808201518382015260200161013a565b505050509050019250505060405180910390f35b341561017157600080fd5b6101fe600480359060446024803590810190830135806020601f820181900481020160405190810160405281815292919060208401838380828437820191505050505050919080359060200190820180359060200190808060200260200160405190810160405280939291908181526020018383602002808284375094965050933593506105a392505050565b60405190815260200160405180910390f35b341561021b57600080fd5b61022f600160a060020a03600435166106cc565b005b341561023c57600080fd5b610250600160a060020a03600435166107f9565b604051901515815260200160405180910390f35b341561026f57600080fd5b610250600160a060020a036004351661088e565b341561028e57600080fd5b61022f61089a565b34156102a157600080fd5b6102ac600435610919565b60405160208082528190810183818151815260200191508051906020019080838360005b838110156102e85780820151838201526020016102d0565b50505050905090810190601f1680156103155780820380516001836020036101000a031916815260200191505b509250505060405180910390f35b341561032e57600080fd5b6103366109d3565b604051600160a060020a03909116815260200160405180910390f35b341561035d57600080fd5b610250600160a060020a036004351667ffffffffffffffff602435166109e2565b341561038957600080fd5b610250610aa6565b341561039c57600080fd5b61022f600160a060020a036004351667ffffffffffffffff60243516610ab6565b34156103c857600080fd5b6103df600435600160a060020a0360243516610bdf565b604051600160a060020a038216602082015260408082528190810184818151815260200191508051906020019060200280838360005b8381101561042d578082015183820152602001610415565b50505050905001935050505060405180910390f35b341561044d57600080fd5b61022f610e5c565b341561046057600080fd5b610250600435602435610ed9565b341561047957600080fd5b610484600435610eed565b6040518084600160a060020a0316600160a060020a03168152602001838152602001828152602001935050505060405180910390f35b34156104c557600080fd5b610336600435610f28565b34156104db57600080fd5b6101fe600435610f46565b34156104f157600080fd5b6101fe600435610f5c565b341561050757600080fd5b6101fe600435610f71565b341561051d57600080fd5b6103df600435610f9d565b610530611147565b60006004600084815260200190815260200160002090508060010180548060200260200160405190810160405280929190818152602001828054801561059657602002820191906000526020600020905b81548152600190910190602001808311610581575b5050505050915050919050565b6000806105af3361088e565b15156105ba57600080fd5b4286116105c657600080fd5b506002805460010190819055600090815260046020526040902060038101869055600681018580516105fc929160200190611159565b5060048101839055600181018480516106199291602001906111d7565b50835181600201819055506002547f075da53496b68eb2230c8f9ea0bba204eecbbd21aee4989c20fc3df419b71f7b8660405160208082528190810183818151815260200191508051906020019080838360005b8381101561068557808201518382015260200161066d565b50505050905090810190601f1680156106b25780820380516001836020036101000a031916815260200191505b509250505060405180910390a25050600254949350505050565b6000805433600160a060020a039081169116146106e857600080fd5b50600160a060020a0381166000908152600160205260409020546fffffffffffffffffffffffffffffffff9081169068010000000000000000820416158015610739575067ffffffffffffffff8116155b151561074457600080fd5b600160a060020a038216600081815260016020526040908190208054680100000000000000006fffffffffffffffffffffffffffffffff4281168202969096179586166fffffffffffffffffffffffffffffffff1990921682179092557f100ef6d43d5799b4c7e9e7bcde458f703bf058e7fe74245b6b7f99b3a1844e50929190049067ffffffffffffffff8516905167ffffffffffffffff9283168152911660208201526040908101905180910390a25050565b60008054600160a060020a0383811691161480610888575060008054600160a060020a031690632f54bf6e9084906040516020015260405160e060020a63ffffffff8416028152600160a060020a039091166004820152602401602060405180830381600087803b151561086c57600080fd5b6102c65a03f1151561087d57600080fd5b505050604051805190505b92915050565b600061088882426109e2565b60005433600160a060020a039081169116146108b557600080fd5b60005460a060020a900460ff1615156108cd57600080fd5b6000805474ff0000000000000000000000000000000000000000191690557f7805862f689e2f13df9f062ff482ad3ad112aca9e0847911ed832e158c525b3360405160405180910390a1565b610921611147565b6000600460008481526020019081526020016000209050806006018054600181600116156101000203166002900480601f0160208091040260200160405190810160405280929190818152602001828054600181600116156101000203166002900480156105965780601f106109a557610100808354040283529160200191610596565b820191906000526020600020905b8154815290600101906020018083116109b3575093979650505050505050565b600054600160a060020a031681565b600160a060020a0382166000908152600160205260408120546fffffffffffffffffffffffffffffffff90811690680100000000000000008204161580610a54575067ffffffffffffffff8316680100000000000000006fffffffffffffffffffffffffffffffff8084169190910416115b15610a625760009150610a9f565b67ffffffffffffffff81161515610a7c5760019150610a9f565b67ffffffffffffffff8181169084161015610a9a5760019150610a9f565b600091505b5092915050565b60005460a060020a900460ff1681565b6000610ac1336107f9565b1515610acc57600080fd5b50600160a060020a0382166000908152600160205260408120546fffffffffffffffffffffffffffffffff90811691680100000000000000008304909116118015610b1f575067ffffffffffffffff8116155b1515610b2a57600080fd5b600160a060020a0383166000818152600160205260409081902080546fffffffffffffffffffffffffffffffff191667ffffffffffffffff868116959095176fffffffffffffffffffffffffffffffff811691821790925590937f100ef6d43d5799b4c7e9e7bcde458f703bf058e7fe74245b6b7f99b3a1844e50926801000000000000000090920491908516905167ffffffffffffffff9283168152911660208201526040908101905180910390a2505050565b610be7611147565b6000806000610bf4611147565b600080610bff611147565b600080610c0a611214565b8c1515610c1657600080fd5b600160a060020a038c161515610c2b57600080fd5b60008d815260046020526040908190206001810154909a508d99509051805910610c525750595b8181526020918202810182016040908152600160a060020a038b1660009081528c84528190205460038054939b5090995063ffffffff8a1698509282810201905190810160405281815291906000602084015b82821015610cff576000848152602090206003830201606060405190810160409081528254600160a060020a0316825260018084015460208085019190915260029094015491830191909152908352929092019101610ca5565b5050505093505b8415610e495760009250600091505b8351821015610dcf57838281518110610d2a57fe5b906020019060200201519050610dc08160400151610db483602001518451600160a060020a03166318160ddd6000604051602001526040518163ffffffff1660e060020a028152600401602060405180830381600087803b1515610d8d57600080fd5b6102c65a03f11515610d9e57600080fd5b505050604051805191905063ffffffff610fc216565b9063ffffffff610fed16565b90920191600190910190610d15565b610df883886001880381518110610de257fe5b906020019060200201519063ffffffff61100416565b506c0100000000000000000000000086049750600160a060020a0388161515610e2057610e49565b600160a060020a038816600090815260208a90526040902054955063ffffffff86169450610d06565b50949b959a509498505050505050505050565b610e65336107f9565b1515610e7057600080fd5b60005460a060020a900460ff1615610e8757600080fd5b6000805474ff0000000000000000000000000000000000000000191660a060020a1790557f6985a02210a168e66602d3235cb6db0e70f92b3ba4d376a33c0f3d9434bff62560405160405180910390a1565b6000610ee6833384611013565b9392505050565b6003805482908110610efb57fe5b6000918252602090912060039091020180546001820154600290920154600160a060020a03909116925083565b600090815260046020526040902060050154600160a060020a031690565b6000908152600460208190526040909120015490565b60009081526004602052604090206003015490565b600081815260046020526040812060038101544211610f91576000610ee6565b60030154420392915050565b610fa5611147565b6000610fb983610fb485610f28565b610bdf565b91509150915091565b600080831515610fd55760009150610a9f565b50828202828482811515610fe557fe5b0414610ee657fe5b6000808284811515610ffb57fe5b04949350505050565b600082820183811015610ee657fe5b6000808085151561102357600080fd5b60008681526004602052604090206003810154909250421061104457600080fd5b6002820154841061105457600080fd5b50600160a060020a0384166000908152602082905260409020548015156110c45750600581018054600160a060020a0386811673ffffffffffffffffffffffffffffffffffffffff198316179092556c010000000000000000000000009116026001840163ffffffff16176110d7565b63ffffffff19166001840163ffffffff16175b600160a060020a0385166000908152602083905260409081902082905586907f710b36627495d2e7af3a196c85bf3e51efd906f54516753e5e801b3a22b18f78908790879051600160a060020a03909216825260208201526040908101905180910390a250600195945050505050565b60206040519081016040526000815290565b828054600181600116156101000203166002900490600052602060002090601f016020900481019282601f1061119a57805160ff19168380011785556111c7565b828001600101855582156111c7579182015b828111156111c75782518255916020019190600101906111ac565b506111d3929150611234565b5090565b8280548282559060005260206000209081019282156111c7579160200282015b828111156111c757825182556020909201916001909101906111f7565b606060405190810160409081526000808352602083018190529082015290565b61124e91905b808211156111d3576000815560010161123a565b905600a165627a7a72305820544ee8bc475ff28b84b673dcca50685365a11ef62d26eb5d27d740f2bfef010c0029",
  "source": "pragma solidity ^0.4.18;\r\n\r\nimport 'soltsice/contracts/BotManageable.sol';\r\nimport 'zeppelin-solidity/contracts/math/SafeMath.sol';\r\n\r\ncontract ERC20Basic {\r\n    function totalSupply() public view returns (uint256);\r\n    \r\n}\r\n\r\ncontract VotingHub is BotManageable {\r\n    using SafeMath for uint256;\r\n\r\n    uint256 constant MASK32 = (2**32 - 1);\r\n    uint256 constant ADDRESS_OFFSET = 96;\r\n    uint256 private votingsCount;\r\n\r\n    struct TokenRate {\r\n        address token;\r\n        uint256 value;\r\n        uint256 decimals;\r\n    }\r\n\r\n    // We cannot iterate over a mapping, but given that we need to store only a single number (usually a byte)\r\n    // and the word size is 32 bytes, we have enough space to store previous voter address (20 bytes)\r\n    // and form a linked list to iterate all votes backward. Will need a single SSTORE (5k)\r\n    // This is a lyaout of uint256 storage for vote\r\n    // struct VoteLayout {\r\n    //     address prevVoter;\r\n    //     uint32 padding1;\r\n    //     uint32 padding2;\r\n    //     uint32 choice;\r\n    // }\r\n\r\n    struct VotingState {\r\n        // current vote by address, see VoteLayout above\r\n        mapping(address => uint256) addressVotes;\r\n        bytes32[] choices;\r\n        // uint256[] totalVotes; // TODO delete, not needed if we could read at block\r\n        uint256 choiceCount; // TODO check in CreateVoting\r\n        uint256 endSeconds;\r\n        uint256 minimumVotes;\r\n        address lastVoter;\r\n        // bool cancelled;\r\n        // bool finalized;\r\n        string description;\r\n        \r\n    }\r\n\r\n    TokenRate[] public tokenRates;\r\n    \r\n    mapping(uint256 => VotingState) private votingStates;\r\n\r\n    event TokenRateUpdate(address indexed token, uint256 rate);\r\n    event Vote(uint256 indexed voting, address voter, uint256 choice);\r\n    event NewVoting(uint256 indexed voting, string description);\r\n\r\n    function VotingHub \r\n        (address _wallet, address[] _tokens, uint256[] _rates, uint256[] _decimals)\r\n        public\r\n        BotManageable(_wallet)\r\n    {\r\n        // make sender a bot to avoid an additional step, this depends on implementation detail of BotManageable\r\n        botsStartEndTime[msg.sender] = uint128(now) << 64;\r\n\r\n        require(_tokens.length == _rates.length);\r\n        require(_tokens.length == _decimals.length);\r\n\r\n        // save initial token list\r\n        for (uint256 i = 0; i < _tokens.length; i++) {\r\n            require(_tokens[i] != 0x0);\r\n            require(_rates[i] > 0);\r\n            ERC20Basic token = ERC20Basic(_tokens[i]);\r\n            tokenRates.push(TokenRate(token, _rates[i], _decimals[i]));\r\n            TokenRateUpdate(token, _rates[i]);\r\n        }\r\n    }\r\n\r\n    // function stringToBytes32(string memory source) \r\n    //     private\r\n    //     returns (bytes32 result) \r\n    // {\r\n    //     bytes memory tempEmptyStringTest = bytes(source);\r\n    //     if (tempEmptyStringTest.length == 0) {\r\n    //         return 0x0;\r\n    //     }\r\n\r\n    //     assembly {\r\n    //         result := mload(add(source, 32))\r\n    //     }\r\n    // }\r\n\r\n    function createVoting(\r\n        uint256 _endSeconds, \r\n        string _description,\r\n        bytes32[] _choices,\r\n        uint256 _minimumVotes\r\n    )\r\n        onlyBot\r\n        public\r\n        returns (uint256)\r\n    {\r\n        require (_endSeconds > now);\r\n\r\n        votingsCount += 1;\r\n\r\n        VotingState storage votingState = votingStates[votingsCount];\r\n\r\n        votingState.endSeconds = _endSeconds;\r\n        votingState.description = _description;\r\n        votingState.minimumVotes = _minimumVotes;\r\n        votingState.choices = _choices;\r\n\r\n        votingState.choiceCount = _choices.length;\r\n\r\n        NewVoting(votingsCount, _description);\r\n        return votingsCount;\r\n    }\r\n\r\n    function voteForInternal(uint256 _voting, address _voter, uint256 _choice)\r\n        private\r\n        returns (bool status)\r\n    {\r\n        require(_voting != 0x0);\r\n\r\n        VotingState storage votingState = votingStates[_voting];\r\n        require (now < votingState.endSeconds);\r\n\r\n        // choiceCount must be already checked to be a reasonable small number (or at least MASK32 - 1)\r\n        require(_choice < votingState.choiceCount);\r\n\r\n        uint256 vote = votingState.addressVotes[_voter];\r\n\r\n        // a new vote\r\n        if (vote == 0x0) {\r\n            // increment stored choice by 1 to be able to detect empty mapping field later\r\n            vote = (uint256(votingState.lastVoter) << ADDRESS_OFFSET) | ((_choice + 1) & MASK32);\r\n            votingState.lastVoter = _voter;\r\n        } else {\r\n            // clear last choice but keep previous voter unchanged\r\n            vote = (vote & ~MASK32) | ((_choice + 1) & MASK32);\r\n        }\r\n        \r\n        votingState.addressVotes[_voter] = vote;\r\n\r\n        Vote(_voting, _voter, _choice);\r\n\r\n        return true;\r\n    }\r\n\r\n    // possible, but don't do that\r\n    // function voteFor(uint256 _voting, address _voter, uint256 _choice)\r\n    //     external\r\n    //     onlyBot\r\n    //     returns (bool status)\r\n    // {\r\n    //     require(allowManagedVotes);\r\n    //     require(_voter != 0x0);\r\n    //     return voteForInternal(_voting, _voter, _choice);\r\n    // }\r\n\r\n    function vote(uint256 _voting, uint256 _choice)\r\n        // onlyActive - inline check to reuse votingState variable\r\n        external\r\n        returns (bool status)\r\n    {\r\n        return voteForInternal(_voting, msg.sender, _choice);\r\n    }\r\n\r\n    function getLastVoter(uint256 _voting)\r\n        public\r\n        view\r\n        returns (address lastVoter)\r\n    {\r\n        VotingState storage votingState = votingStates[_voting];\r\n        return votingState.lastVoter;\r\n    }\r\n\r\n    function getDescription(uint256 _voting)\r\n        public\r\n        view\r\n        returns (string description)\r\n    {\r\n        VotingState storage votingState = votingStates[_voting];\r\n        return votingState.description;\r\n    }\r\n\r\n    function getEndSeconds(uint256 _voting)\r\n        public\r\n        view\r\n        returns (uint256 description)\r\n    {\r\n        VotingState storage votingState = votingStates[_voting];\r\n        return votingState.endSeconds;\r\n    }\r\n\r\n    function getRemainingSeconds(uint256 _voting)\r\n        public\r\n        view\r\n        returns (uint256 description)\r\n    {\r\n        VotingState storage votingState = votingStates[_voting];\r\n        return now > votingState.endSeconds ? now - votingState.endSeconds : 0;\r\n    }\r\n\r\n    function getChoices(uint256 _voting)\r\n        public\r\n        view\r\n        returns (bytes32[] choices)\r\n    {\r\n        VotingState storage votingState = votingStates[_voting];\r\n        return votingState.choices;\r\n    }\r\n\r\n    function getMinimumVotes(uint256 _voting)\r\n        public\r\n        view\r\n        returns (uint256 minimumVotes)\r\n    {\r\n        VotingState storage votingState = votingStates[_voting];\r\n        return votingState.minimumVotes;\r\n    }\r\n\r\n    function getVotes(uint256 _voting)\r\n        public\r\n        view\r\n        returns (uint256[] votes, address lastVoter)\r\n    {\r\n        return getVotesFrom(_voting, getLastVoter(_voting));\r\n    }\r\n\r\n    // NB Avoid overloads for easier typed access via Soltsice, use a different name\r\n    function getVotesFrom(uint256 _voting, address _from)\r\n        public\r\n        view\r\n        returns (uint256[] votes, address lastVoter)\r\n    {\r\n        require(_voting != 0x0);\r\n        require(_from != 0x0);\r\n\r\n        VotingState storage votingState = votingStates[_voting];\r\n\r\n        address voter = _from; //  votingState.lastVoter;\r\n\r\n        uint256[] memory totalVotes = new uint256[](votingState.choices.length);\r\n\r\n        uint256 vote = votingState.addressVotes[voter];\r\n        uint256 choice = vote & MASK32;\r\n        \r\n        // copy the array to memory for further multiple accesses\r\n        TokenRate[] memory tokenRatesMem = tokenRates;\r\n\r\n        // the very first vote should have choice > 0 (but prevVoter is zero)\r\n        while (choice != 0) {\r\n            // votes accumulator for this voter\r\n            uint256 totalVote = 0;\r\n\r\n            // iterate over all tokens that participate in the voting\r\n            for (uint i = 0; i < tokenRatesMem.length; i++) {\r\n                TokenRate memory tr = tokenRatesMem[i];\r\n                totalVote = totalVote + (ERC20Basic(tr.token).totalSupply()).mul(tr.value).div(tr.decimals);\r\n            }\r\n            totalVotes[choice - 1].add(totalVote);\r\n\r\n            // go to previous voter\r\n            voter = address(vote >> ADDRESS_OFFSET);\r\n            // if prevVoter is zero then we have reached the first voter\r\n            if (voter == 0x0) {\r\n                break;\r\n            }\r\n\r\n            vote = votingState.addressVotes[voter];\r\n            choice = vote & MASK32;\r\n        }\r\n\r\n        return (totalVotes, voter);\r\n    }\r\n}",
  "sourcePath": "C:\\MD\\Dev\\Solidity\\Auction\\contracts\\Voting.sol",
  "compiler": {
    "name": "solc",
    "version": "0.4.19+commit.c4cbbb05.Emscripten.clang"
  },
  "schemaVersion": "1.0.1",
  "updatedAt": "2018-03-21T21:32:18.996Z"
}