{
  "contractName": "VotingHub",
  "abi": [
    {
      "constant": true,
      "inputs": [
        {
          "name": "_voting",
          "type": "uint256"
        }
      ],
      "name": "getChoices",
      "outputs": [
        {
          "name": "choices",
          "type": "bytes32[]"
        }
      ],
      "payable": false,
      "stateMutability": "view",
      "type": "function"
    },
    {
      "constant": false,
      "inputs": [
        {
          "name": "_endSeconds",
          "type": "uint256"
        },
        {
          "name": "_description",
          "type": "string"
        },
        {
          "name": "_choices",
          "type": "bytes32[]"
        },
        {
          "name": "_minimumVotes",
          "type": "uint256"
        }
      ],
      "name": "createVoting",
      "outputs": [
        {
          "name": "",
          "type": "uint256"
        }
      ],
      "payable": false,
      "stateMutability": "nonpayable",
      "type": "function"
    },
    {
      "constant": false,
      "inputs": [
        {
          "name": "_botAddress",
          "type": "address"
        }
      ],
      "name": "enableBot",
      "outputs": [],
      "payable": false,
      "stateMutability": "nonpayable",
      "type": "function"
    },
    {
      "constant": true,
      "inputs": [
        {
          "name": "_address",
          "type": "address"
        }
      ],
      "name": "isOwner",
      "outputs": [
        {
          "name": "",
          "type": "bool"
        }
      ],
      "payable": false,
      "stateMutability": "view",
      "type": "function"
    },
    {
      "constant": true,
      "inputs": [
        {
          "name": "_botAddress",
          "type": "address"
        }
      ],
      "name": "isBot",
      "outputs": [
        {
          "name": "",
          "type": "bool"
        }
      ],
      "payable": false,
      "stateMutability": "view",
      "type": "function"
    },
    {
      "constant": false,
      "inputs": [],
      "name": "unpause",
      "outputs": [],
      "payable": false,
      "stateMutability": "nonpayable",
      "type": "function"
    },
    {
      "constant": true,
      "inputs": [
        {
          "name": "_voting",
          "type": "uint256"
        }
      ],
      "name": "getDescription",
      "outputs": [
        {
          "name": "description",
          "type": "string"
        }
      ],
      "payable": false,
      "stateMutability": "view",
      "type": "function"
    },
    {
      "constant": true,
      "inputs": [],
      "name": "wallet",
      "outputs": [
        {
          "name": "",
          "type": "address"
        }
      ],
      "payable": false,
      "stateMutability": "view",
      "type": "function"
    },
    {
      "constant": true,
      "inputs": [
        {
          "name": "_botAddress",
          "type": "address"
        },
        {
          "name": "_atTimeStampSeconds",
          "type": "uint64"
        }
      ],
      "name": "isBotAt",
      "outputs": [
        {
          "name": "",
          "type": "bool"
        }
      ],
      "payable": false,
      "stateMutability": "view",
      "type": "function"
    },
    {
      "constant": true,
      "inputs": [],
      "name": "paused",
      "outputs": [
        {
          "name": "",
          "type": "bool"
        }
      ],
      "payable": false,
      "stateMutability": "view",
      "type": "function"
    },
    {
      "constant": false,
      "inputs": [
        {
          "name": "_botAddress",
          "type": "address"
        },
        {
          "name": "_fromTimeStampSeconds",
          "type": "uint64"
        }
      ],
      "name": "disableBot",
      "outputs": [],
      "payable": false,
      "stateMutability": "nonpayable",
      "type": "function"
    },
    {
      "constant": true,
      "inputs": [
        {
          "name": "_voting",
          "type": "uint256"
        },
        {
          "name": "_from",
          "type": "address"
        }
      ],
      "name": "getVotesFrom",
      "outputs": [
        {
          "name": "votes",
          "type": "uint256[]"
        },
        {
          "name": "lastVoter",
          "type": "address"
        },
        {
          "name": "remainingGas",
          "type": "uint256"
        }
      ],
      "payable": false,
      "stateMutability": "view",
      "type": "function"
    },
    {
      "constant": false,
      "inputs": [],
      "name": "pause",
      "outputs": [],
      "payable": false,
      "stateMutability": "nonpayable",
      "type": "function"
    },
    {
      "constant": false,
      "inputs": [
        {
          "name": "_voting",
          "type": "uint256"
        },
        {
          "name": "_choice",
          "type": "uint256"
        }
      ],
      "name": "vote",
      "outputs": [
        {
          "name": "status",
          "type": "bool"
        }
      ],
      "payable": false,
      "stateMutability": "nonpayable",
      "type": "function"
    },
    {
      "constant": true,
      "inputs": [
        {
          "name": "_voting",
          "type": "uint256"
        },
        {
          "name": "_voter",
          "type": "address"
        }
      ],
      "name": "getVote",
      "outputs": [
        {
          "name": "choices",
          "type": "uint256"
        }
      ],
      "payable": false,
      "stateMutability": "view",
      "type": "function"
    },
    {
      "constant": true,
      "inputs": [
        {
          "name": "",
          "type": "uint256"
        }
      ],
      "name": "tokenRates",
      "outputs": [
        {
          "name": "token",
          "type": "address"
        },
        {
          "name": "value",
          "type": "uint256"
        },
        {
          "name": "decimals",
          "type": "uint256"
        }
      ],
      "payable": false,
      "stateMutability": "view",
      "type": "function"
    },
    {
      "constant": true,
      "inputs": [
        {
          "name": "_voting",
          "type": "uint256"
        }
      ],
      "name": "getLastVoter",
      "outputs": [
        {
          "name": "lastVoter",
          "type": "address"
        }
      ],
      "payable": false,
      "stateMutability": "view",
      "type": "function"
    },
    {
      "constant": true,
      "inputs": [
        {
          "name": "_voting",
          "type": "uint256"
        }
      ],
      "name": "getMinimumVotes",
      "outputs": [
        {
          "name": "minimumVotes",
          "type": "uint256"
        }
      ],
      "payable": false,
      "stateMutability": "view",
      "type": "function"
    },
    {
      "constant": true,
      "inputs": [
        {
          "name": "_voting",
          "type": "uint256"
        }
      ],
      "name": "getEndSeconds",
      "outputs": [
        {
          "name": "description",
          "type": "uint256"
        }
      ],
      "payable": false,
      "stateMutability": "view",
      "type": "function"
    },
    {
      "constant": true,
      "inputs": [
        {
          "name": "_voting",
          "type": "uint256"
        }
      ],
      "name": "getRemainingSeconds",
      "outputs": [
        {
          "name": "description",
          "type": "uint256"
        }
      ],
      "payable": false,
      "stateMutability": "view",
      "type": "function"
    },
    {
      "constant": true,
      "inputs": [],
      "name": "getVotingsCount",
      "outputs": [
        {
          "name": "",
          "type": "uint256"
        }
      ],
      "payable": false,
      "stateMutability": "view",
      "type": "function"
    },
    {
      "constant": true,
      "inputs": [
        {
          "name": "_voting",
          "type": "uint256"
        }
      ],
      "name": "getVotes",
      "outputs": [
        {
          "name": "votes",
          "type": "uint256[]"
        },
        {
          "name": "lastVoter",
          "type": "address"
        },
        {
          "name": "remainingGas",
          "type": "uint256"
        }
      ],
      "payable": false,
      "stateMutability": "view",
      "type": "function"
    },
    {
      "inputs": [
        {
          "name": "_wallet",
          "type": "address"
        },
        {
          "name": "_tokens",
          "type": "address[]"
        },
        {
          "name": "_rates",
          "type": "uint256[]"
        },
        {
          "name": "_decimals",
          "type": "uint256[]"
        }
      ],
      "payable": false,
      "stateMutability": "nonpayable",
      "type": "constructor"
    },
    {
      "anonymous": false,
      "inputs": [
        {
          "indexed": true,
          "name": "token",
          "type": "address"
        },
        {
          "indexed": false,
          "name": "rate",
          "type": "uint256"
        }
      ],
      "name": "TokenRateUpdate",
      "type": "event"
    },
    {
      "anonymous": false,
      "inputs": [
        {
          "indexed": true,
          "name": "voting",
          "type": "uint256"
        },
        {
          "indexed": false,
          "name": "voter",
          "type": "address"
        },
        {
          "indexed": false,
          "name": "choice",
          "type": "uint256"
        }
      ],
      "name": "Vote",
      "type": "event"
    },
    {
      "anonymous": false,
      "inputs": [
        {
          "indexed": true,
          "name": "voting",
          "type": "uint256"
        },
        {
          "indexed": false,
          "name": "description",
          "type": "string"
        }
      ],
      "name": "NewVoting",
      "type": "event"
    },
    {
      "anonymous": false,
      "inputs": [
        {
          "indexed": true,
          "name": "_botAddress",
          "type": "address"
        },
        {
          "indexed": false,
          "name": "_startTime",
          "type": "uint64"
        },
        {
          "indexed": false,
          "name": "_endTime",
          "type": "uint64"
        }
      ],
      "name": "BotsStartEndTimeChange",
      "type": "event"
    },
    {
      "anonymous": false,
      "inputs": [
        {
          "indexed": true,
          "name": "_contract",
          "type": "address"
        },
        {
          "indexed": true,
          "name": "_wallet",
          "type": "address"
        }
      ],
      "name": "MultiOwnableWalletSet",
      "type": "event"
    },
    {
      "anonymous": false,
      "inputs": [],
      "name": "Pause",
      "type": "event"
    },
    {
      "anonymous": false,
      "inputs": [],
      "name": "Unpause",
      "type": "event"
    }
  ],
  "bytecode": "0x60606040526000805460a060020a60ff021916905534156200002057600080fd5b6040516200167338038062001673833981016040528080519190602001805182019190602001805182019190602001805160008054600160a060020a031916600160a060020a038881169190911780835594909201939092508291879182919081169030167fafcdd415329178553b69a5c7b7ece5d86014afa3335a808a26f32110981061a760405160405180910390a3505033600160a060020a0316600090815260016020526040902080546001608060020a031916426001608060020a0390811668010000000000000000021617905583518551146200010157600080fd5b82518551146200011057600080fd5b600091505b845182101562000294578482815181106200012c57fe5b90602001906020020151600160a060020a031615156200014b57600080fd5b60008483815181106200015a57fe5b90602001906020020151116200016f57600080fd5b8482815181106200017c57fe5b906020019060200201519050600380548060010182816200019e9190620002a0565b9160005260206000209060030201600060606040519081016040528085600160a060020a03168152602001888781518110620001d657fe5b906020019060200201518152602001878781518110620001f257fe5b90602001906020020151905291905081518154600160a060020a031916600160a060020a0391909116178155602082015181600101556040820151816002015550505080600160a060020a03167f6d0466d743e24b9f0b2ae6bff53593c4b94c242fe76707f82de4076115d95a278584815181106200026d57fe5b9060200190602002015160405190815260200160405180910390a260019091019062000115565b50505050505062000310565b815481835581811511620002cf57600302816003028360005260206000209182019101620002cf9190620002d4565b505050565b6200030d91905b8082111562000309578054600160a060020a03191681556000600182018190556002820155600301620002db565b5090565b90565b61135380620003206000396000f30060606040526004361061010e5763ffffffff60e060020a60003504166318da2cb28114610113578063272c48a41461017c57806327329b05146102265780632f54bf6e146102475780633bbac5791461027a5780633f4ba83a146102995780634925ec55146102ac578063521eb2731461033957806353d3ed60146103685780635c975abb146103945780635f58ed2a146103a75780637c6c32ea146103d35780638456cb5914610460578063b384abef14610473578063bc3f931f1461048c578063c1d99ada146104ae578063c31820f9146104fa578063cc02267114610510578063d397578d14610526578063d98544481461053c578063dae7c92c14610552578063ff98109914610565575b600080fd5b341561011e57600080fd5b61012960043561057b565b60405160208082528190810183818151815260200191508051906020019060200280838360005b83811015610168578082015183820152602001610150565b505050509050019250505060405180910390f35b341561018757600080fd5b610214600480359060446024803590810190830135806020601f820181900481020160405190810160405281815292919060208401838380828437820191505050505050919080359060200190820180359060200190808060200260200160405190810160405280939291908181526020018383602002808284375094965050933593506105f692505050565b60405190815260200160405180910390f35b341561023157600080fd5b610245600160a060020a036004351661071f565b005b341561025257600080fd5b610266600160a060020a036004351661084c565b604051901515815260200160405180910390f35b341561028557600080fd5b610266600160a060020a03600435166108e1565b34156102a457600080fd5b6102456108ed565b34156102b757600080fd5b6102c260043561096c565b60405160208082528190810183818151815260200191508051906020019080838360005b838110156102fe5780820151838201526020016102e6565b50505050905090810190601f16801561032b5780820380516001836020036101000a031916815260200191505b509250505060405180910390f35b341561034457600080fd5b61034c610a26565b604051600160a060020a03909116815260200160405180910390f35b341561037357600080fd5b610266600160a060020a036004351667ffffffffffffffff60243516610a35565b341561039f57600080fd5b610266610af9565b34156103b257600080fd5b610245600160a060020a036004351667ffffffffffffffff60243516610b09565b34156103de57600080fd5b6103f5600435600160a060020a0360243516610c32565b604051600160a060020a03831660208201526040810182905260608082528190810185818151815260200191508051906020019060200280838360005b8381101561044a578082015183820152602001610432565b5050505090500194505050505060405180910390f35b341561046b57600080fd5b610245610f33565b341561047e57600080fd5b610266600435602435610fb0565b341561049757600080fd5b610214600435600160a060020a03602435166110e3565b34156104b957600080fd5b6104c460043561110b565b6040518084600160a060020a0316600160a060020a03168152602001838152602001828152602001935050505060405180910390f35b341561050557600080fd5b61034c600435611146565b341561051b57600080fd5b610214600435611164565b341561053157600080fd5b61021460043561117a565b341561054757600080fd5b61021460043561118f565b341561055d57600080fd5b6102146111be565b341561057057600080fd5b6103f56004356111c5565b610583611240565b6000600460008481526020019081526020016000209050806001018054806020026020016040519081016040528092919081815260200182805480156105e957602002820191906000526020600020905b815481526001909101906020018083116105d4575b5050505050915050919050565b600080610602336108e1565b151561060d57600080fd5b42861161061957600080fd5b5060028054600101908190556000908152600460205260409020600381018690556006810185805161064f929160200190611252565b50600481018390556001810184805161066c9291602001906112d0565b50835181600201819055506002547f075da53496b68eb2230c8f9ea0bba204eecbbd21aee4989c20fc3df419b71f7b8660405160208082528190810183818151815260200191508051906020019080838360005b838110156106d85780820151838201526020016106c0565b50505050905090810190601f1680156107055780820380516001836020036101000a031916815260200191505b509250505060405180910390a25050600254949350505050565b6000805433600160a060020a0390811691161461073b57600080fd5b50600160a060020a0381166000908152600160205260409020546fffffffffffffffffffffffffffffffff908116906801000000000000000082041615801561078c575067ffffffffffffffff8116155b151561079757600080fd5b600160a060020a038216600081815260016020526040908190208054680100000000000000006fffffffffffffffffffffffffffffffff4281168202969096179586166fffffffffffffffffffffffffffffffff1990921682179092557f100ef6d43d5799b4c7e9e7bcde458f703bf058e7fe74245b6b7f99b3a1844e50929190049067ffffffffffffffff8516905167ffffffffffffffff9283168152911660208201526040908101905180910390a25050565b60008054600160a060020a03838116911614806108db575060008054600160a060020a031690632f54bf6e9084906040516020015260405160e060020a63ffffffff8416028152600160a060020a039091166004820152602401602060405180830381600087803b15156108bf57600080fd5b6102c65a03f115156108d057600080fd5b505050604051805190505b92915050565b60006108db8242610a35565b60005433600160a060020a0390811691161461090857600080fd5b60005460a060020a900460ff16151561092057600080fd5b6000805474ff0000000000000000000000000000000000000000191690557f7805862f689e2f13df9f062ff482ad3ad112aca9e0847911ed832e158c525b3360405160405180910390a1565b610974611240565b6000600460008481526020019081526020016000209050806006018054600181600116156101000203166002900480601f0160208091040260200160405190810160405280929190818152602001828054600181600116156101000203166002900480156105e95780601f106109f8576101008083540402835291602001916105e9565b820191906000526020600020905b815481529060010190602001808311610a06575093979650505050505050565b600054600160a060020a031681565b600160a060020a0382166000908152600160205260408120546fffffffffffffffffffffffffffffffff90811690680100000000000000008204161580610aa7575067ffffffffffffffff8316680100000000000000006fffffffffffffffffffffffffffffffff8084169190910416115b15610ab55760009150610af2565b67ffffffffffffffff81161515610acf5760019150610af2565b67ffffffffffffffff8181169084161015610aed5760019150610af2565b600091505b5092915050565b60005460a060020a900460ff1681565b6000610b143361084c565b1515610b1f57600080fd5b50600160a060020a0382166000908152600160205260408120546fffffffffffffffffffffffffffffffff90811691680100000000000000008304909116118015610b72575067ffffffffffffffff8116155b1515610b7d57600080fd5b600160a060020a0383166000818152600160205260409081902080546fffffffffffffffffffffffffffffffff191667ffffffffffffffff868116959095176fffffffffffffffffffffffffffffffff811691821790925590937f100ef6d43d5799b4c7e9e7bcde458f703bf058e7fe74245b6b7f99b3a1844e50926801000000000000000090920491908516905167ffffffffffffffff9283168152911660208201526040908101905180910390a2505050565b610c3a611240565b6000806000610c47611240565b6000610c51611240565b6000808080808d1515610c6357600080fd5b600160a060020a038d161515610c7857600080fd5b60008e815260046020526040908190206002810154909a509051805910610c9c5750595b908082528060200260200182016040525097508c9650600380548060200260200160405190810160405281815291906000602084015b82821015610d2c576000848152602090206003830201606060405190810160409081528254600160a060020a0316825260018084015460208085019190915260029094015491830191909152908352929092019101610cd2565b5050505095508551600160a060020a038816600090815260208b90526040902054909550935063ffffffff841692508215801590610d6b5750614e205a115b1515610d7657600080fd5b8215801590610d865750614e205a115b15610f1a575060009050805b84811015610e8357610e77868281518110610da957fe5b9060200190602002015160400151600a0a610e6b888481518110610dc957fe5b9060200190602002015160200151898581518110610de357fe5b9060200190602002015151600160a060020a03166370a082318c60006040516020015260405160e060020a63ffffffff8416028152600160a060020a039091166004820152602401602060405180830381600087803b1515610e4457600080fd5b6102c65a03f11515610e5557600080fd5b505050604051805191905063ffffffff6111ef16565b9063ffffffff61121a16565b90910190600101610d92565b610eac82896001860381518110610e9657fe5b906020019060200201519063ffffffff61123116565b886001850381518110610ebb57fe5b602090810290910101526c0100000000000000000000000084049650600160a060020a0387161515610ef05760009250610f15565b600160a060020a038716600090815260208a90526040902054935063ffffffff841692505b610d76565b87875a9b509b509b505050505050505050509250925092565b610f3c3361084c565b1515610f4757600080fd5b60005460a060020a900460ff1615610f5e57600080fd5b6000805474ff0000000000000000000000000000000000000000191660a060020a1790557f6985a02210a168e66602d3235cb6db0e70f92b3ba4d376a33c0f3d9434bff62560405160405180910390a1565b60008080841515610fc057600080fd5b600085815260046020526040902060038101549092504210610fe157600080fd5b60028201548410610ff157600080fd5b50600160a060020a033316600090815260208290526040902054801515611062575060058101805433600160a060020a0390811673ffffffffffffffffffffffffffffffffffffffff198316179092556c010000000000000000000000009116026001840163ffffffff1617611075565b63ffffffff19166001840163ffffffff16175b33600160a060020a0381166000908152602084905260409081902083905586917f710b36627495d2e7af3a196c85bf3e51efd906f54516753e5e801b3a22b18f7891879051600160a060020a03909216825260208201526040908101905180910390a2506001949350505050565b6000918252600460209081526040808420600160a060020a0393909316845291905290205490565b600380548290811061111957fe5b6000918252602090912060039091020180546001820154600290920154600160a060020a03909116925083565b600090815260046020526040902060050154600160a060020a031690565b6000908152600460208190526040909120015490565b60009081526004602052604090206003015490565b6000818152600460205260408120600381015442116111af5760006111b7565b806003015442035b9392505050565b6002545b90565b6111cd611240565b6000806111e2846111dd86611146565b610c32565b9250925092509193909250565b6000808315156112025760009150610af2565b5082820282848281151561121257fe5b04146111b757fe5b600080828481151561122857fe5b04949350505050565b6000828201838110156111b757fe5b60206040519081016040526000815290565b828054600181600116156101000203166002900490600052602060002090601f016020900481019282601f1061129357805160ff19168380011785556112c0565b828001600101855582156112c0579182015b828111156112c05782518255916020019190600101906112a5565b506112cc92915061130d565b5090565b8280548282559060005260206000209081019282156112c0579160200282015b828111156112c057825182556020909201916001909101906112f0565b6111c291905b808211156112cc57600081556001016113135600a165627a7a72305820589f4d9b02c2f8059e056f07c98358b657a6245c7146a42d8cb2dd3bf38254b50029",
  "source": "pragma solidity ^0.4.18;\r\n\r\nimport 'soltsice/contracts/BotManageable.sol';\r\nimport 'zeppelin-solidity/contracts/math/SafeMath.sol';\r\n\r\ncontract ERC20Basic {\r\n    function balanceOf(address who) public view returns (uint256);\r\n}\r\n\r\ncontract VotingHub is BotManageable {\r\n    using SafeMath for uint256;\r\n\r\n    uint256 constant MASK32 = (2**32 - 1);\r\n    uint256 constant ADDRESS_OFFSET = 96;\r\n    uint256 private votingsCount;\r\n\r\n    struct TokenRate {\r\n        address token;\r\n        uint256 value;\r\n        uint256 decimals;\r\n    }\r\n\r\n    // We cannot iterate over a mapping, but given that we need to store only a single number (usually a byte)\r\n    // and the word size is 32 bytes, we have enough space to store previous voter address (20 bytes)\r\n    // and form a linked list to iterate all votes backward. Will need a single SSTORE (5k)\r\n    // This is a lyaout of uint256 storage for vote\r\n    // struct VoteLayout {\r\n    //     address prevVoter;\r\n    //     uint32 padding1;\r\n    //     uint32 padding2;\r\n    //     uint32 choice;\r\n    // }\r\n\r\n    struct VotingState {\r\n        // current vote by address, see VoteLayout above\r\n        mapping(address => uint256) addressVotes;\r\n        bytes32[] choices;\r\n        // uint256[] totalVotes; // TODO delete, not needed if we could read at block\r\n        uint256 choiceCount; // TODO check in CreateVoting\r\n        uint256 endSeconds;\r\n        uint256 minimumVotes;\r\n        address lastVoter;\r\n        // bool cancelled;\r\n        // bool finalized;\r\n        string description;\r\n        \r\n    }\r\n\r\n    TokenRate[] public tokenRates;\r\n    \r\n    mapping(uint256 => VotingState) private votingStates;\r\n\r\n    event TokenRateUpdate(address indexed token, uint256 rate);\r\n    event Vote(uint256 indexed voting, address voter, uint256 choice);\r\n    event NewVoting(uint256 indexed voting, string description);\r\n\r\n    function VotingHub \r\n        (address _wallet, address[] _tokens, uint256[] _rates, uint256[] _decimals)\r\n        public\r\n        BotManageable(_wallet)\r\n    {\r\n        // make sender a bot to avoid an additional step, this depends on implementation detail of BotManageable\r\n        botsStartEndTime[msg.sender] = uint128(now) << 64;\r\n\r\n        require(_tokens.length == _rates.length);\r\n        require(_tokens.length == _decimals.length);\r\n\r\n        // save initial token list\r\n        for (uint256 i = 0; i < _tokens.length; i++) {\r\n            require(_tokens[i] != 0x0);\r\n            require(_rates[i] > 0);\r\n            ERC20Basic token = ERC20Basic(_tokens[i]);\r\n            tokenRates.push(TokenRate(token, _rates[i], _decimals[i]));\r\n            TokenRateUpdate(token, _rates[i]);\r\n        }\r\n    }\r\n\r\n    function createVoting(\r\n        uint256 _endSeconds, \r\n        string _description,\r\n        bytes32[] _choices,\r\n        uint256 _minimumVotes\r\n    )\r\n        onlyBot\r\n        public\r\n        returns (uint256)\r\n    {\r\n        require (_endSeconds > now);\r\n\r\n        votingsCount += 1;\r\n\r\n        VotingState storage votingState = votingStates[votingsCount];\r\n\r\n        votingState.endSeconds = _endSeconds;\r\n        votingState.description = _description;\r\n        votingState.minimumVotes = _minimumVotes;\r\n        votingState.choices = _choices;\r\n\r\n        votingState.choiceCount = _choices.length;\r\n\r\n        NewVoting(votingsCount, _description);\r\n        return votingsCount;\r\n    }\r\n\r\n    function vote(uint256 _voting, uint256 _choice)\r\n        external\r\n        returns (bool status)\r\n    {\r\n        require(_voting != 0x0);\r\n\r\n        VotingState storage votingState = votingStates[_voting];\r\n        require (now < votingState.endSeconds);\r\n\r\n        // choiceCount must be already checked to be a reasonable small number (or at least MASK32 - 1)\r\n        require(_choice < votingState.choiceCount);\r\n\r\n        uint256 vote = votingState.addressVotes[msg.sender];\r\n\r\n        // a new vote\r\n        if (vote == 0x0) {\r\n            // increment stored choice by 1 to be able to detect empty mapping field later\r\n            vote = (uint256(votingState.lastVoter) << ADDRESS_OFFSET) | ((_choice + 1) & MASK32);\r\n            votingState.lastVoter = msg.sender;\r\n        } else {\r\n            // clear last choice but keep previous voter unchanged\r\n            vote = (vote & ~MASK32) | ((_choice + 1) & MASK32);\r\n        }\r\n        \r\n        votingState.addressVotes[msg.sender] = vote;\r\n\r\n        Vote(_voting, msg.sender, _choice);\r\n\r\n        return true;\r\n    }\r\n\r\n    function getVotingsCount()\r\n        public\r\n        view\r\n        returns (uint256)\r\n    {\r\n        return votingsCount;\r\n    }\r\n\r\n    function getLastVoter(uint256 _voting)\r\n        public\r\n        view\r\n        returns (address lastVoter)\r\n    {\r\n        VotingState storage votingState = votingStates[_voting];\r\n        return votingState.lastVoter;\r\n    }\r\n\r\n    function getDescription(uint256 _voting)\r\n        public\r\n        view\r\n        returns (string description)\r\n    {\r\n        VotingState storage votingState = votingStates[_voting];\r\n        return votingState.description;\r\n    }\r\n\r\n    function getEndSeconds(uint256 _voting)\r\n        public\r\n        view\r\n        returns (uint256 description)\r\n    {\r\n        VotingState storage votingState = votingStates[_voting];\r\n        return votingState.endSeconds;\r\n    }\r\n\r\n    function getRemainingSeconds(uint256 _voting)\r\n        public\r\n        view\r\n        returns (uint256 description)\r\n    {\r\n        VotingState storage votingState = votingStates[_voting];\r\n        return now > votingState.endSeconds ? now - votingState.endSeconds : 0;\r\n    }\r\n\r\n    function getVote(uint256 _voting, address _voter)\r\n        public\r\n        view\r\n        returns (uint256 choices)\r\n    {\r\n        VotingState storage votingState = votingStates[_voting];\r\n        uint256 vote = votingState.addressVotes[_voter];\r\n        return vote;\r\n    }\r\n\r\n    function getChoices(uint256 _voting)\r\n        public\r\n        view\r\n        returns (bytes32[] choices)\r\n    {\r\n        VotingState storage votingState = votingStates[_voting];\r\n        return votingState.choices;\r\n    }\r\n\r\n    function getMinimumVotes(uint256 _voting)\r\n        public\r\n        view\r\n        returns (uint256 minimumVotes)\r\n    {\r\n        VotingState storage votingState = votingStates[_voting];\r\n        return votingState.minimumVotes;\r\n    }\r\n\r\n    function getVotes(uint256 _voting)\r\n        public\r\n        view\r\n        returns (uint256[] votes, address lastVoter, uint256 remainingGas)\r\n    {\r\n        return getVotesFrom(_voting, getLastVoter(_voting));\r\n    }\r\n\r\n    // NB Avoid overloads for easier typed access via Soltsice, use a different name\r\n    function getVotesFrom(uint256 _voting, address _from)\r\n        public\r\n        view\r\n        returns (uint256[] votes, address lastVoter, uint256 remainingGas)\r\n    {\r\n        // NB votingCount starts from 1\r\n        require(_voting != 0x0);\r\n        require(_from != 0x0);\r\n\r\n        VotingState storage votingState = votingStates[_voting];\r\n\r\n        uint256[] memory totalVotes = new uint256[](votingState.choiceCount);\r\n        address voter = _from;\r\n\r\n        // placing in memory save c.50% gas\r\n        TokenRate[] memory tokenRatesMem = tokenRates;\r\n        uint256 tokenCount = tokenRatesMem.length;\r\n\r\n        uint256 vote = votingState.addressVotes[voter];\r\n        uint256 choice = vote & MASK32;\r\n\r\n        // TODO (review) if we cannot iterate at least once then output is meaningless\r\n        // duplicate condition, review\r\n        require(choice != 0 && msg.gas > 20000);\r\n\r\n        // the very first vote should have choice > 0 (but prevVoter is zero)\r\n        // remainig gas msut be enough for the next loop interation\r\n        while (choice != 0 && msg.gas > 20000) {\r\n            uint256 totalVote = 0;\r\n            // iterate over all tokens that participate in the voting\r\n            for (uint i = 0; i < tokenCount; i++) {\r\n                // This line costs c.7k per iteration\r\n                totalVote += (ERC20Basic(tokenRatesMem[i].token).balanceOf(voter)).mul(tokenRatesMem[i].value).div(10 ** tokenRatesMem[i].decimals);  \r\n            }\r\n            totalVotes[choice - 1] = totalVotes[choice - 1].add(totalVote);\r\n            // go to previous voter\r\n            voter = address(vote >> ADDRESS_OFFSET);\r\n            // if prevVoter is zero then we have reached the first voter\r\n            if (voter == 0x0) {\r\n                // NB yes we could use break instead... and hope we know which loop we are exiting :)\r\n                choice = 0;\r\n            } else {\r\n                vote = votingState.addressVotes[voter];\r\n                choice = vote & MASK32;\r\n            }\r\n        }\r\n\r\n        return (totalVotes, voter, msg.gas);\r\n    }\r\n}\r\n",
  "sourcePath": "C:\\MD\\Dev\\Solidity\\Auction\\contracts\\Voting.sol",
  "compiler": {
    "name": "solc",
    "version": "0.4.19+commit.c4cbbb05.Emscripten.clang"
  },
  "schemaVersion": "1.0.1",
  "updatedAt": "2018-03-23T13:09:00.878Z"
}